

Microchip Technology PIC LITE Macro Assembler V1.45 build -152302408 
                                                                                               Tue Jun 05 22:59:22 2018

Microchip Technology Omniscient Code Generator v1.45 (Free mode) build 201711160504
     1                           	processor	16F628A
     2                           	opt	pw 120
     3                           	opt	lm
     4                           	psect	cinit,global,class=CODE,merge=1,delta=2
     5                           	psect	bitbssCOMMON,global,bit,class=COMMON,space=1,delta=1
     6                           	psect	bssCOMMON,global,class=COMMON,space=1,delta=1
     7                           	psect	cstackCOMMON,global,class=COMMON,space=1,delta=1
     8                           	psect	maintext,global,class=CODE,split=1,delta=2
     9                           	psect	text1,local,class=CODE,merge=1,delta=2
    10                           	psect	text2,local,class=CODE,merge=1,delta=2
    11                           	psect	text3,local,class=CODE,merge=1,delta=2
    12                           	psect	text4,local,class=CODE,merge=1,delta=2
    13                           	psect	text5,local,class=CODE,merge=1,delta=2
    14                           	psect	text6,local,class=CODE,merge=1,delta=2
    15                           	psect	text7,local,class=CODE,merge=1,delta=2
    16                           	psect	text8,local,class=CODE,merge=1,delta=2
    17                           	psect	text9,local,class=CODE,merge=1,delta=2
    18                           	psect	intentry,global,class=CODE,delta=2
    19                           	dabs	1,0x7E,2
    20  0000                     
    21                           ; Version 1.45
    22                           ; Generated 16/11/2017 GMT
    23                           ; 
    24                           ; Copyright © 2017, Microchip Technology Inc. and its subsidiaries ("Microchip")
    25                           ; All rights reserved.
    26                           ; 
    27                           ; This software is developed by Microchip Technology Inc. and its subsidiaries ("Microch
      +                          ip").
    28                           ; 
    29                           ; Redistribution and use in source and binary forms, with or without modification, are
    30                           ; permitted provided that the following conditions are met:
    31                           ; 
    32                           ;     1. Redistributions of source code must retain the above copyright notice, this lis
      +                          t of
    33                           ;        conditions and the following disclaimer.
    34                           ; 
    35                           ;     2. Redistributions in binary form must reproduce the above copyright notice, this 
      +                          list
    36                           ;        of conditions and the following disclaimer in the documentation and/or other
    37                           ;        materials provided with the distribution.
    38                           ; 
    39                           ;     3. Microchip's name may not be used to endorse or promote products derived from th
      +                          is
    40                           ;        software without specific prior written permission.
    41                           ; 
    42                           ; THIS SOFTWARE IS PROVIDED BY MICROCHIP "AS IS" AND ANY EXPRESS OR IMPLIED WARRANTIES,
    43                           ; INCLUDING, BUT NOT LIMITED TO, THE IMPLIED WARRANTIES OF MERCHANTABILITY AND FITNESS F
      +                          OR
    44                           ; PURPOSE ARE DISCLAIMED.  IN NO EVENT SHALL MICROCHIP BE LIABLE FOR ANY DIRECT, INDIREC
      +                          T,
    45                           ; INCIDENTAL, SPECIAL, EXEMPLARY, OR CONSEQUENTIAL DAMAGES (INCLUDING BUT NOT LIMITED TO
    46                           ; PROCUREMENT OF SUBSTITUTE GOODS OR SERVICES; LOSS OF USE, DATA OR PROFITS; OR BUSINESS
    47                           ; INTERRUPTION) HOWSOEVER CAUSED AND ON ANY THEORY OF LIABILITY, WHETHER IN CONTRACT, ST
      +                          RICT
    48                           ; LIABILITY, OR TORT (INCLUDING NEGLIGENCE OR OTHERWISE) ARISING IN ANY WAY OUT OF THE U
      +                          SE OF
    49                           ; THIS SOFTWARE, EVEN IF ADVISED OF THE POSSIBILITY OF SUCH DAMAGE.
    50                           ; 
    51                           ; 
    52                           ; Code-generator required, PIC16F628A Definitions
    53                           ; 
    54                           ; SFR Addresses
    55  0000                     	;# 
    56  0001                     	;# 
    57  0002                     	;# 
    58  0003                     	;# 
    59  0004                     	;# 
    60  0005                     	;# 
    61  0006                     	;# 
    62  000A                     	;# 
    63  000B                     	;# 
    64  000C                     	;# 
    65  000E                     	;# 
    66  000E                     	;# 
    67  000F                     	;# 
    68  0010                     	;# 
    69  0011                     	;# 
    70  0012                     	;# 
    71  0015                     	;# 
    72  0015                     	;# 
    73  0016                     	;# 
    74  0017                     	;# 
    75  0018                     	;# 
    76  0019                     	;# 
    77  001A                     	;# 
    78  001F                     	;# 
    79  0081                     	;# 
    80  0085                     	;# 
    81  0086                     	;# 
    82  008C                     	;# 
    83  008E                     	;# 
    84  0092                     	;# 
    85  0098                     	;# 
    86  0099                     	;# 
    87  009A                     	;# 
    88  009B                     	;# 
    89  009C                     	;# 
    90  009D                     	;# 
    91  009F                     	;# 
    92  0015                     _CCPR1L	set	21
    93  001F                     _CMCON	set	31
    94  000E                     _TMR1L	set	14
    95  000F                     _TMR1H	set	15
    96  0033                     _RB3	set	51
    97  002C                     _RA4	set	44
    98  002B                     _RA3	set	43
    99  0035                     _RB5	set	53
   100  0030                     _RB0	set	48
   101  00FF                     _C2OUT	set	255
   102  0037                     _RB7	set	55
   103  00BC                     _CCP1Y	set	188
   104  00BD                     _CCP1X	set	189
   105  0080                     _TMR1ON	set	128
   106  0081                     _TMR1CS	set	129
   107  0083                     _T1OSCEN	set	131
   108  0084                     _T1CKPS0	set	132
   109  0085                     _T1CKPS1	set	133
   110  0092                     _TMR2ON	set	146
   111  00BA                     _CCP1M2	set	186
   112  00BB                     _CCP1M3	set	187
   113  0091                     _T2CKPS1	set	145
   114  0090                     _T2CKPS0	set	144
   115  0032                     _RB2	set	50
   116  0031                     _RB1	set	49
   117  005E                     _PEIE	set	94
   118  005F                     _GIE	set	95
   119  0060                     _TMR1IF	set	96
   120  0092                     _PR2	set	146
   121  0460                     _TMR1IE	set	1120
   122  0437                     _TRISB7	set	1079
   123  042B                     _TRISA3	set	1067
   124  042C                     _TRISA4	set	1068
   125  0433                     _TRISB3	set	1075
   126  0435                     _TRISB5	set	1077
   127  0430                     _TRISB0	set	1072
   128  0432                     _TRISB2	set	1074
   129  0431                     _TRISB1	set	1073
   130                           
   131                           ; #config settings
   132  0000                     
   133                           	psect	cinit
   134  0011                     start_initialization:	
   135  0011                     __initialization:	
   136                           
   137                           ; Clear objects allocated to BITCOMMON
   138  0011  01F0               	clrf	(__pbitbssCOMMON/(0+8))& (0+127)
   139                           
   140                           ; Clear objects allocated to COMMON
   141  0012  01F7               	clrf	__pbssCOMMON& (0+127)
   142  0013                     end_of_initialization:	
   143                           ;End of C runtime variable initialization code
   144                           
   145  0013                     __end_of__initialization:	
   146  0013  0183               	clrf	3
   147  0014  28D0               	ljmp	_main	;jump to C main() function
   148                           
   149                           	psect	bitbssCOMMON
   150  0380                     __pbitbssCOMMON:	
   151  0380                     _battery_need_charge:	
   152  0380                     	ds	1
   153  0381                     _mod_flag:	
   154  0381                     	ds	1
   155  0382                     _bli_count:	
   156  0382                     	ds	1
   157  0383                     _lbo_happened:	
   158  0383                     	ds	1
   159  0384                     _usb_connected:	
   160  0384                     	ds	1
   161  0385                     _refresh_flag:	
   162  0385                     	ds	1
   163  0386                     _bat_flag:	
   164  0386                     	ds	1
   165                           
   166                           	psect	bssCOMMON
   167  0077                     __pbssCOMMON:	
   168  0077                     _battery_need_charge_count:	
   169  0077                     	ds	1
   170                           
   171                           	psect	cstackCOMMON
   172  0071                     __pcstackCOMMON:	
   173  0071                     ?_init:	
   174  0071                     ?_checkMode:	
   175                           ; 1 bytes @ 0x0
   176                           
   177  0071                     ?_Refresh:	
   178                           ; 1 bytes @ 0x0
   179                           
   180  0071                     ?_pwm_stby:	
   181                           ; 1 bytes @ 0x0
   182                           
   183  0071                     ?_pwm25:	
   184                           ; 1 bytes @ 0x0
   185                           
   186  0071                     ?_pwm50:	
   187                           ; 1 bytes @ 0x0
   188                           
   189  0071                     ?_checkUSB:	
   190                           ; 1 bytes @ 0x0
   191                           
   192  0071                     ?_checkLBO:	
   193                           ; 1 bytes @ 0x0
   194                           
   195  0071                     ?_main:	
   196                           ; 1 bytes @ 0x0
   197                           
   198  0071                     ?_isr:	
   199                           ; 1 bytes @ 0x0
   200                           
   201  0071                     ??_isr:	
   202                           ; 1 bytes @ 0x0
   203                           
   204                           
   205                           ; 1 bytes @ 0x0
   206  0071                     	ds	4
   207  0075                     ??_init:	
   208  0075                     ??_checkMode:	
   209                           ; 1 bytes @ 0x4
   210                           
   211  0075                     ??_pwm_stby:	
   212                           ; 1 bytes @ 0x4
   213                           
   214  0075                     ??_pwm25:	
   215                           ; 1 bytes @ 0x4
   216                           
   217  0075                     ??_pwm50:	
   218                           ; 1 bytes @ 0x4
   219                           
   220  0075                     ??_checkUSB:	
   221                           ; 1 bytes @ 0x4
   222                           
   223  0075                     ??_checkLBO:	
   224                           ; 1 bytes @ 0x4
   225                           
   226                           
   227                           ; 1 bytes @ 0x4
   228  0075                     	ds	2
   229  0077                     ??_Refresh:	
   230  0077                     ??_main:	
   231                           ; 1 bytes @ 0x6
   232                           
   233                           
   234                           	psect	maintext
   235  00D0                     __pmaintext:	
   236                           ; 1 bytes @ 0x6
   237 ;;
   238 ;;Main: autosize = 0, tempsize = 0, incstack = 0, save=0
   239 ;;
   240 ;; *************** function _main *****************
   241 ;; Defined at:
   242 ;;		line 47 in file "main.c"
   243 ;; Parameters:    Size  Location     Type
   244 ;;		None
   245 ;; Auto vars:     Size  Location     Type
   246 ;;		None
   247 ;; Return value:  Size  Location     Type
   248 ;;                  1    wreg      void 
   249 ;; Registers used:
   250 ;;		wreg, status,2, status,0, pclath, cstack
   251 ;; Tracked objects:
   252 ;;		On entry : B00/0
   253 ;;		On exit  : 0/0
   254 ;;		Unchanged: 0/0
   255 ;; Data sizes:     COMMON   BANK0   BANK1   BANK2
   256 ;;      Params:         0       0       0       0
   257 ;;      Locals:         0       0       0       0
   258 ;;      Temps:          0       0       0       0
   259 ;;      Totals:         0       0       0       0
   260 ;;Total ram usage:        0 bytes
   261 ;; Hardware stack levels required when called:    4
   262 ;; This function calls:
   263 ;;		_Refresh
   264 ;;		_checkMode
   265 ;;		_init
   266 ;;		_pwm25
   267 ;;		_pwm50
   268 ;;		_pwm_stby
   269 ;; This function is called by:
   270 ;;		Startup code after reset
   271 ;; This function uses a non-reentrant model
   272 ;;
   273                           
   274                           
   275                           ;psect for function _main
   276  00D0                     _main:	
   277                           
   278                           ;main.c: 50: init();
   279                           
   280                           ;incstack = 0
   281                           ; Regs used in _main: [wreg+status,2+status,0+pclath+cstack]
   282  00D0  2015               	fcall	_init
   283                           
   284                           ;main.c: 52: checkMode();
   285  00D1  209B               	fcall	_checkMode
   286  00D2  0064               	clrwdt	;# 
   287  00D3                     l783:	
   288                           ;main.c: 56: for (;;)
   289                           
   290                           
   291                           ;main.c: 58: {
   292                           ;main.c: 60: if (refresh_flag==1) Refresh();
   293  00D3  1EF0               	btfss	_refresh_flag/(0+8),_refresh_flag& (0+7)	;volatile
   294  00D4  28D6               	goto	l787
   295  00D5  20E0               	fcall	_Refresh
   296  00D6                     l787:	
   297                           
   298                           ;main.c: 62: if (battery_need_charge)
   299  00D6  1C70               	btfss	_battery_need_charge/(0+8),_battery_need_charge& (0+7)
   300  00D7  28DA               	goto	l117
   301                           
   302                           ;main.c: 63: {
   303                           ;main.c: 64: pwm_stby();
   304  00D8  20E9               	fcall	_pwm_stby
   305                           
   306                           ;main.c: 65: }
   307  00D9  28D3               	goto	l783
   308  00DA                     l117:	
   309                           
   310                           ;main.c: 66: else
   311                           ;main.c: 67: {
   312                           ;main.c: 68: if (mod_flag==0) pwm25();
   313  00DA  18F0               	btfsc	_mod_flag/(0+8),_mod_flag& (0+7)
   314  00DB  28DE               	goto	l793
   315  00DC  20F7               	fcall	_pwm25
   316  00DD  28D3               	goto	l783
   317  00DE                     l793:	
   318                           
   319                           ;main.c: 69: else pwm50();
   320  00DE  20F0               	fcall	_pwm50
   321                           
   322                           ;main.c: 70: }
   323                           ;main.c: 72: }
   324  00DF  28D3               	goto	l783
   325  00E0                     __end_of_main:	
   326                           
   327                           	psect	text1
   328  00E9                     __ptext1:	
   329 ;; *************** function _pwm_stby *****************
   330 ;; Defined at:
   331 ;;		line 156 in file "main.c"
   332 ;; Parameters:    Size  Location     Type
   333 ;;		None
   334 ;; Auto vars:     Size  Location     Type
   335 ;;		None
   336 ;; Return value:  Size  Location     Type
   337 ;;                  1    wreg      void 
   338 ;; Registers used:
   339 ;;		wreg
   340 ;; Tracked objects:
   341 ;;		On entry : 0/0
   342 ;;		On exit  : 0/0
   343 ;;		Unchanged: 0/0
   344 ;; Data sizes:     COMMON   BANK0   BANK1   BANK2
   345 ;;      Params:         0       0       0       0
   346 ;;      Locals:         0       0       0       0
   347 ;;      Temps:          0       0       0       0
   348 ;;      Totals:         0       0       0       0
   349 ;;Total ram usage:        0 bytes
   350 ;; Hardware stack levels used:    1
   351 ;; Hardware stack levels required when called:    1
   352 ;; This function calls:
   353 ;;		Nothing
   354 ;; This function is called by:
   355 ;;		_main
   356 ;; This function uses a non-reentrant model
   357 ;;
   358                           
   359                           
   360                           ;psect for function _pwm_stby
   361  00E9                     _pwm_stby:	
   362                           
   363                           ;main.c: 157: CCPR1L = 0b00000111;
   364                           
   365                           ;incstack = 0
   366                           ; Regs used in _pwm_stby: [wreg]
   367  00E9  3007               	movlw	7
   368  00EA  1283               	bcf	3,5	;RP0=0, select bank0
   369  00EB  1303               	bcf	3,6	;RP1=0, select bank0
   370  00EC  0095               	movwf	21	;volatile
   371                           
   372                           ;main.c: 158: CCP1X = 0;
   373  00ED  1297               	bcf	23,5	;volatile
   374                           
   375                           ;main.c: 159: CCP1Y = 0;
   376  00EE  1217               	bcf	23,4	;volatile
   377  00EF  0008               	return
   378  00F0                     __end_of_pwm_stby:	
   379                           
   380                           	psect	text2
   381  00F0                     __ptext2:	
   382 ;; *************** function _pwm50 *****************
   383 ;; Defined at:
   384 ;;		line 168 in file "main.c"
   385 ;; Parameters:    Size  Location     Type
   386 ;;		None
   387 ;; Auto vars:     Size  Location     Type
   388 ;;		None
   389 ;; Return value:  Size  Location     Type
   390 ;;                  1    wreg      void 
   391 ;; Registers used:
   392 ;;		wreg
   393 ;; Tracked objects:
   394 ;;		On entry : 0/0
   395 ;;		On exit  : 0/0
   396 ;;		Unchanged: 0/0
   397 ;; Data sizes:     COMMON   BANK0   BANK1   BANK2
   398 ;;      Params:         0       0       0       0
   399 ;;      Locals:         0       0       0       0
   400 ;;      Temps:          0       0       0       0
   401 ;;      Totals:         0       0       0       0
   402 ;;Total ram usage:        0 bytes
   403 ;; Hardware stack levels used:    1
   404 ;; Hardware stack levels required when called:    1
   405 ;; This function calls:
   406 ;;		Nothing
   407 ;; This function is called by:
   408 ;;		_main
   409 ;; This function uses a non-reentrant model
   410 ;;
   411                           
   412                           
   413                           ;psect for function _pwm50
   414  00F0                     _pwm50:	
   415                           
   416                           ;main.c: 169: CCPR1L = 0b01101101;
   417                           
   418                           ;incstack = 0
   419                           ; Regs used in _pwm50: [wreg]
   420  00F0  306D               	movlw	109
   421  00F1  1283               	bcf	3,5	;RP0=0, select bank0
   422  00F2  1303               	bcf	3,6	;RP1=0, select bank0
   423  00F3  0095               	movwf	21	;volatile
   424                           
   425                           ;main.c: 170: CCP1X = 0;
   426  00F4  1297               	bcf	23,5	;volatile
   427                           
   428                           ;main.c: 171: CCP1Y = 1;
   429  00F5  1617               	bsf	23,4	;volatile
   430  00F6  0008               	return
   431  00F7                     __end_of_pwm50:	
   432                           
   433                           	psect	text3
   434  00F7                     __ptext3:	
   435 ;; *************** function _pwm25 *****************
   436 ;; Defined at:
   437 ;;		line 162 in file "main.c"
   438 ;; Parameters:    Size  Location     Type
   439 ;;		None
   440 ;; Auto vars:     Size  Location     Type
   441 ;;		None
   442 ;; Return value:  Size  Location     Type
   443 ;;                  1    wreg      void 
   444 ;; Registers used:
   445 ;;		wreg
   446 ;; Tracked objects:
   447 ;;		On entry : 0/0
   448 ;;		On exit  : 0/0
   449 ;;		Unchanged: 0/0
   450 ;; Data sizes:     COMMON   BANK0   BANK1   BANK2
   451 ;;      Params:         0       0       0       0
   452 ;;      Locals:         0       0       0       0
   453 ;;      Temps:          0       0       0       0
   454 ;;      Totals:         0       0       0       0
   455 ;;Total ram usage:        0 bytes
   456 ;; Hardware stack levels used:    1
   457 ;; Hardware stack levels required when called:    1
   458 ;; This function calls:
   459 ;;		Nothing
   460 ;; This function is called by:
   461 ;;		_main
   462 ;; This function uses a non-reentrant model
   463 ;;
   464                           
   465                           
   466                           ;psect for function _pwm25
   467  00F7                     _pwm25:	
   468                           
   469                           ;main.c: 163: CCPR1L = 0b00011111;
   470                           
   471                           ;incstack = 0
   472                           ; Regs used in _pwm25: [wreg]
   473  00F7  301F               	movlw	31
   474  00F8  1283               	bcf	3,5	;RP0=0, select bank0
   475  00F9  1303               	bcf	3,6	;RP1=0, select bank0
   476  00FA  0095               	movwf	21	;volatile
   477                           
   478                           ;main.c: 164: CCP1X = 0;
   479  00FB  1297               	bcf	23,5	;volatile
   480                           
   481                           ;main.c: 165: CCP1Y = 0;
   482  00FC  1217               	bcf	23,4	;volatile
   483  00FD  0008               	return
   484  00FE                     __end_of_pwm25:	
   485                           
   486                           	psect	text4
   487  00E0                     __ptext4:	
   488 ;; *************** function _Refresh *****************
   489 ;; Defined at:
   490 ;;		line 137 in file "main.c"
   491 ;; Parameters:    Size  Location     Type
   492 ;;		None
   493 ;; Auto vars:     Size  Location     Type
   494 ;;		None
   495 ;; Return value:  Size  Location     Type
   496 ;;                  1    wreg      void 
   497 ;; Registers used:
   498 ;;		wreg, status,2, status,0, pclath, cstack
   499 ;; Tracked objects:
   500 ;;		On entry : 0/0
   501 ;;		On exit  : 0/0
   502 ;;		Unchanged: 0/0
   503 ;; Data sizes:     COMMON   BANK0   BANK1   BANK2
   504 ;;      Params:         0       0       0       0
   505 ;;      Locals:         0       0       0       0
   506 ;;      Temps:          0       0       0       0
   507 ;;      Totals:         0       0       0       0
   508 ;;Total ram usage:        0 bytes
   509 ;; Hardware stack levels used:    1
   510 ;; Hardware stack levels required when called:    3
   511 ;; This function calls:
   512 ;;		_checkLBO
   513 ;;		_checkMode
   514 ;;		_checkUSB
   515 ;; This function is called by:
   516 ;;		_main
   517 ;; This function uses a non-reentrant model
   518 ;;
   519                           
   520                           
   521                           ;psect for function _Refresh
   522  00E0                     _Refresh:	
   523                           
   524                           ;incstack = 0
   525                           ; Regs used in _Refresh: [wreg+status,2+status,0+pclath+cstack]
   526  00E0  0064               	clrwdt	;# 
   527                           
   528                           ;main.c: 142: checkMode();
   529  00E1  209B               	fcall	_checkMode
   530                           
   531                           ;main.c: 143: checkUSB();
   532  00E2  2048               	fcall	_checkUSB
   533                           
   534                           ;main.c: 144: checkLBO();
   535  00E3  2075               	fcall	_checkLBO
   536  00E4  0064               	clrwdt	;# 
   537                           
   538                           ;main.c: 150: refresh_flag = 0;
   539  00E5  12F0               	bcf	_refresh_flag/(0+8),_refresh_flag& (0+7)	;volatile
   540                           
   541                           ;main.c: 151: GIE = 1;
   542  00E6  178B               	bsf	11,7	;volatile
   543                           
   544                           ;main.c: 152: PEIE = 1;
   545  00E7  170B               	bsf	11,6	;volatile
   546  00E8  0008               	return
   547  00E9                     __end_of_Refresh:	
   548                           
   549                           	psect	text5
   550  0048                     __ptext5:	
   551 ;; *************** function _checkUSB *****************
   552 ;; Defined at:
   553 ;;		line 202 in file "main.c"
   554 ;; Parameters:    Size  Location     Type
   555 ;;		None
   556 ;; Auto vars:     Size  Location     Type
   557 ;;		None
   558 ;; Return value:  Size  Location     Type
   559 ;;                  1    wreg      void 
   560 ;; Registers used:
   561 ;;		wreg, status,2, status,0, pclath, cstack
   562 ;; Tracked objects:
   563 ;;		On entry : 0/0
   564 ;;		On exit  : 0/0
   565 ;;		Unchanged: 0/0
   566 ;; Data sizes:     COMMON   BANK0   BANK1   BANK2
   567 ;;      Params:         0       0       0       0
   568 ;;      Locals:         0       0       0       0
   569 ;;      Temps:          2       0       0       0
   570 ;;      Totals:         2       0       0       0
   571 ;;Total ram usage:        2 bytes
   572 ;; Hardware stack levels used:    1
   573 ;; Hardware stack levels required when called:    2
   574 ;; This function calls:
   575 ;;		_init
   576 ;; This function is called by:
   577 ;;		_Refresh
   578 ;; This function uses a non-reentrant model
   579 ;;
   580                           
   581                           
   582                           ;psect for function _checkUSB
   583  0048                     _checkUSB:	
   584                           
   585                           ;main.c: 204: if ((!RA3)&&(!usb_connected))
   586                           
   587                           ;incstack = 0
   588                           ; Regs used in _checkUSB: [wreg+status,2+status,0+pclath+cstack]
   589  0048  1283               	bcf	3,5	;RP0=0, select bank0
   590  0049  1303               	bcf	3,6	;RP1=0, select bank0
   591  004A  1D85               	btfss	5,3	;volatile
   592  004B  1A70               	btfsc	_usb_connected/(0+8),_usb_connected& (0+7)
   593  004C  285E               	goto	l156
   594                           
   595                           ;main.c: 205: {
   596                           ;main.c: 206: _delay((unsigned long)((100)*(4000000/4000.0))) ;
   597  004D  3082               	movlw	130
   598  004E  00F6               	movwf	??_checkUSB+1
   599  004F  30DD               	movlw	221
   600  0050  00F5               	movwf	??_checkUSB
   601  0051                     u247:	
   602  0051  0BF5               	decfsz	??_checkUSB,f
   603  0052  2851               	goto	u247
   604  0053  0BF6               	decfsz	??_checkUSB+1,f
   605  0054  2851               	goto	u247
   606  0055  2856               	nop2
   607                           
   608                           ;main.c: 207: if (!RA3)
   609  0056  1283               	bcf	3,5	;RP0=0, select bank0
   610  0057  1303               	bcf	3,6	;RP1=0, select bank0
   611  0058  1985               	btfsc	5,3	;volatile
   612  0059  285E               	goto	l156
   613                           
   614                           ;main.c: 208: {
   615                           ;main.c: 209: RB1 = 1;
   616  005A  1486               	bsf	6,1	;volatile
   617                           
   618                           ;main.c: 210: RB2 = 1;
   619  005B  1506               	bsf	6,2	;volatile
   620                           
   621                           ;main.c: 211: usb_connected = 1;
   622  005C  1670               	bsf	_usb_connected/(0+8),_usb_connected& (0+7)
   623  005D  0064               	clrwdt	;# 
   624  005E                     l156:	
   625                           
   626                           ;main.c: 213: }
   627                           ;main.c: 214: }
   628                           ;main.c: 215: if ((RA3)&&(usb_connected))
   629  005E  1283               	bcf	3,5	;RP0=0, select bank0
   630  005F  1303               	bcf	3,6	;RP1=0, select bank0
   631  0060  1D85               	btfss	5,3	;volatile
   632  0061  0008               	return
   633  0062  1E70               	btfss	_usb_connected/(0+8),_usb_connected& (0+7)
   634  0063  0008               	return
   635                           
   636                           ;main.c: 216: {
   637                           ;main.c: 217: _delay((unsigned long)((100)*(4000000/4000.0))) ;
   638  0064  3082               	movlw	130
   639  0065  00F6               	movwf	??_checkUSB+1
   640  0066  30DD               	movlw	221
   641  0067  00F5               	movwf	??_checkUSB
   642  0068                     u257:	
   643  0068  0BF5               	decfsz	??_checkUSB,f
   644  0069  2868               	goto	u257
   645  006A  0BF6               	decfsz	??_checkUSB+1,f
   646  006B  2868               	goto	u257
   647  006C  286D               	nop2
   648                           
   649                           ;main.c: 218: if (RA3)
   650  006D  1283               	bcf	3,5	;RP0=0, select bank0
   651  006E  1303               	bcf	3,6	;RP1=0, select bank0
   652  006F  1D85               	btfss	5,3	;volatile
   653  0070  0008               	return
   654                           
   655                           ;main.c: 219: {
   656                           ;main.c: 220: usb_connected = 0;
   657  0071  1270               	bcf	_usb_connected/(0+8),_usb_connected& (0+7)
   658                           
   659                           ;main.c: 221: init();
   660  0072  2015               	fcall	_init
   661  0073  0064               	clrwdt	;# 
   662  0074  0008               	return
   663  0075                     __end_of_checkUSB:	
   664                           
   665                           	psect	text6
   666  0015                     __ptext6:	
   667 ;; *************** function _init *****************
   668 ;; Defined at:
   669 ;;		line 90 in file "main.c"
   670 ;; Parameters:    Size  Location     Type
   671 ;;		None
   672 ;; Auto vars:     Size  Location     Type
   673 ;;		None
   674 ;; Return value:  Size  Location     Type
   675 ;;                  1    wreg      void 
   676 ;; Registers used:
   677 ;;		wreg, status,2
   678 ;; Tracked objects:
   679 ;;		On entry : 0/0
   680 ;;		On exit  : 0/0
   681 ;;		Unchanged: 0/0
   682 ;; Data sizes:     COMMON   BANK0   BANK1   BANK2
   683 ;;      Params:         0       0       0       0
   684 ;;      Locals:         0       0       0       0
   685 ;;      Temps:          0       0       0       0
   686 ;;      Totals:         0       0       0       0
   687 ;;Total ram usage:        0 bytes
   688 ;; Hardware stack levels used:    1
   689 ;; Hardware stack levels required when called:    1
   690 ;; This function calls:
   691 ;;		Nothing
   692 ;; This function is called by:
   693 ;;		_main
   694 ;;		_checkUSB
   695 ;; This function uses a non-reentrant model
   696 ;;
   697                           
   698                           
   699                           ;psect for function _init
   700  0015                     _init:	
   701                           
   702                           ;main.c: 92: RB1 = 0;
   703                           
   704                           ;incstack = 0
   705                           ; Regs used in _init: [wreg+status,2]
   706  0015  1283               	bcf	3,5	;RP0=0, select bank0
   707  0016  1303               	bcf	3,6	;RP1=0, select bank0
   708  0017  1086               	bcf	6,1	;volatile
   709                           
   710                           ;main.c: 93: RB2 = 1;
   711  0018  1506               	bsf	6,2	;volatile
   712                           
   713                           ;main.c: 95: CMCON = 0x05;
   714  0019  3005               	movlw	5
   715  001A  009F               	movwf	31	;volatile
   716                           
   717                           ;main.c: 96: TRISB1 = 0;
   718  001B  1683               	bsf	3,5	;RP0=1, select bank1
   719  001C  1303               	bcf	3,6	;RP1=0, select bank1
   720  001D  1086               	bcf	6,1	;volatile
   721                           
   722                           ;main.c: 97: TRISB2 = 0;
   723  001E  1106               	bcf	6,2	;volatile
   724                           
   725                           ;main.c: 98: TRISB0 = 1;
   726  001F  1406               	bsf	6,0	;volatile
   727                           
   728                           ;main.c: 99: TRISB5 = 1;
   729  0020  1686               	bsf	6,5	;volatile
   730                           
   731                           ;main.c: 100: TRISB3 = 0;
   732  0021  1186               	bcf	6,3	;volatile
   733                           
   734                           ;main.c: 101: TRISA4 = 1;
   735  0022  1605               	bsf	5,4	;volatile
   736                           
   737                           ;main.c: 102: TRISA3 = 1;
   738  0023  1585               	bsf	5,3	;volatile
   739                           
   740                           ;main.c: 103: TRISB7 = 0;
   741  0024  1386               	bcf	6,7	;volatile
   742                           
   743                           ;main.c: 105: refresh_flag = 0;
   744  0025  12F0               	bcf	_refresh_flag/(0+8),_refresh_flag& (0+7)	;volatile
   745                           
   746                           ;main.c: 106: usb_connected = 0;
   747  0026  1270               	bcf	_usb_connected/(0+8),_usb_connected& (0+7)
   748                           
   749                           ;main.c: 107: bli_count = 0;
   750  0027  1170               	bcf	_bli_count/(0+8),_bli_count& (0+7)
   751                           
   752                           ;main.c: 108: lbo_happened = 0;
   753  0028  11F0               	bcf	_lbo_happened/(0+8),_lbo_happened& (0+7)
   754                           
   755                           ;main.c: 109: mod_flag = 0;
   756  0029  10F0               	bcf	_mod_flag/(0+8),_mod_flag& (0+7)
   757                           
   758                           ;main.c: 110: battery_need_charge = 0;
   759  002A  1070               	bcf	_battery_need_charge/(0+8),_battery_need_charge& (0+7)
   760                           
   761                           ;main.c: 111: battery_need_charge_count = 0;
   762  002B  01F7               	clrf	_battery_need_charge_count
   763                           
   764                           ;main.c: 114: T2CKPS0 = 1; T2CKPS1 = 0;
   765  002C  1283               	bcf	3,5	;RP0=0, select bank0
   766  002D  1303               	bcf	3,6	;RP1=0, select bank0
   767  002E  1412               	bsf	18,0	;volatile
   768  002F  1092               	bcf	18,1	;volatile
   769                           
   770                           ;main.c: 115: PR2 = 0b01111100;
   771  0030  307C               	movlw	124
   772  0031  1683               	bsf	3,5	;RP0=1, select bank1
   773  0032  1303               	bcf	3,6	;RP1=0, select bank1
   774  0033  0092               	movwf	18	;volatile
   775                           
   776                           ;main.c: 116: CCP1M3 = 1;
   777  0034  1283               	bcf	3,5	;RP0=0, select bank0
   778  0035  1303               	bcf	3,6	;RP1=0, select bank0
   779  0036  1597               	bsf	23,3	;volatile
   780                           
   781                           ;main.c: 117: CCP1M2 = 1;
   782  0037  1517               	bsf	23,2	;volatile
   783                           
   784                           ;main.c: 118: TMR2ON = 1;
   785  0038  1512               	bsf	18,2	;volatile
   786                           
   787                           ;main.c: 120: T1CKPS1 = 1;
   788  0039  1690               	bsf	16,5	;volatile
   789                           
   790                           ;main.c: 121: T1CKPS0 = 1;
   791  003A  1610               	bsf	16,4	;volatile
   792                           
   793                           ;main.c: 123: T1OSCEN = 0;
   794  003B  1190               	bcf	16,3	;volatile
   795                           
   796                           ;main.c: 124: TMR1CS = 0;
   797  003C  1090               	bcf	16,1	;volatile
   798                           
   799                           ;main.c: 127: TMR1H = 0x00; TMR1L = 0x00;
   800  003D  018F               	clrf	15	;volatile
   801  003E  018E               	clrf	14	;volatile
   802                           
   803                           ;main.c: 130: GIE = 1;
   804  003F  178B               	bsf	11,7	;volatile
   805                           
   806                           ;main.c: 131: PEIE = 1;
   807  0040  170B               	bsf	11,6	;volatile
   808                           
   809                           ;main.c: 132: TMR1IE = 1;
   810  0041  1683               	bsf	3,5	;RP0=1, select bank1
   811  0042  1303               	bcf	3,6	;RP1=0, select bank1
   812  0043  140C               	bsf	12,0	;volatile
   813                           
   814                           ;main.c: 133: TMR1ON = 1;
   815  0044  1283               	bcf	3,5	;RP0=0, select bank0
   816  0045  1303               	bcf	3,6	;RP1=0, select bank0
   817  0046  1410               	bsf	16,0	;volatile
   818  0047  0008               	return
   819  0048                     __end_of_init:	
   820                           
   821                           	psect	text7
   822  009B                     __ptext7:	
   823 ;; *************** function _checkMode *****************
   824 ;; Defined at:
   825 ;;		line 179 in file "main.c"
   826 ;; Parameters:    Size  Location     Type
   827 ;;		None
   828 ;; Auto vars:     Size  Location     Type
   829 ;;		None
   830 ;; Return value:  Size  Location     Type
   831 ;;                  1    wreg      void 
   832 ;; Registers used:
   833 ;;		wreg
   834 ;; Tracked objects:
   835 ;;		On entry : 0/0
   836 ;;		On exit  : 0/0
   837 ;;		Unchanged: 0/0
   838 ;; Data sizes:     COMMON   BANK0   BANK1   BANK2
   839 ;;      Params:         0       0       0       0
   840 ;;      Locals:         0       0       0       0
   841 ;;      Temps:          2       0       0       0
   842 ;;      Totals:         2       0       0       0
   843 ;;Total ram usage:        2 bytes
   844 ;; Hardware stack levels used:    1
   845 ;; Hardware stack levels required when called:    1
   846 ;; This function calls:
   847 ;;		Nothing
   848 ;; This function is called by:
   849 ;;		_main
   850 ;;		_Refresh
   851 ;; This function uses a non-reentrant model
   852 ;;
   853                           
   854                           
   855                           ;psect for function _checkMode
   856  009B                     _checkMode:	
   857                           
   858                           ;main.c: 181: if (!RB0)
   859                           
   860                           ;incstack = 0
   861                           ; Regs used in _checkMode: [wreg]
   862  009B  1283               	bcf	3,5	;RP0=0, select bank0
   863  009C  1303               	bcf	3,6	;RP1=0, select bank0
   864  009D  1806               	btfsc	6,0	;volatile
   865  009E  28AC               	goto	l149
   866                           
   867                           ;main.c: 182: {
   868                           ;main.c: 183: _delay((unsigned long)((100)*(4000000/4000.0))) ;
   869  009F  3082               	movlw	130
   870  00A0  00F6               	movwf	??_checkMode+1
   871  00A1  30DD               	movlw	221
   872  00A2  00F5               	movwf	??_checkMode
   873  00A3                     u267:	
   874  00A3  0BF5               	decfsz	??_checkMode,f
   875  00A4  28A3               	goto	u267
   876  00A5  0BF6               	decfsz	??_checkMode+1,f
   877  00A6  28A3               	goto	u267
   878  00A7  28A8               	nop2
   879                           
   880                           ;main.c: 184: if (!RB0)
   881  00A8  1283               	bcf	3,5	;RP0=0, select bank0
   882  00A9  1303               	bcf	3,6	;RP1=0, select bank0
   883  00AA  1C06               	btfss	6,0	;volatile
   884                           
   885                           ;main.c: 185: {
   886                           ;main.c: 186: mod_flag = 0;
   887  00AB  10F0               	bcf	_mod_flag/(0+8),_mod_flag& (0+7)
   888  00AC                     l149:	
   889                           
   890                           ;main.c: 188: }
   891                           ;main.c: 189: }
   892                           ;main.c: 191: if (!RB5)
   893  00AC  1A86               	btfsc	6,5	;volatile
   894  00AD  0008               	return
   895                           
   896                           ;main.c: 192: {
   897                           ;main.c: 193: _delay((unsigned long)((100)*(4000000/4000.0))) ;
   898  00AE  3082               	movlw	130
   899  00AF  00F6               	movwf	??_checkMode+1
   900  00B0  30DD               	movlw	221
   901  00B1  00F5               	movwf	??_checkMode
   902  00B2                     u277:	
   903  00B2  0BF5               	decfsz	??_checkMode,f
   904  00B3  28B2               	goto	u277
   905  00B4  0BF6               	decfsz	??_checkMode+1,f
   906  00B5  28B2               	goto	u277
   907  00B6  28B7               	nop2
   908                           
   909                           ;main.c: 194: if (!RB5)
   910  00B7  1283               	bcf	3,5	;RP0=0, select bank0
   911  00B8  1303               	bcf	3,6	;RP1=0, select bank0
   912  00B9  1A86               	btfsc	6,5	;volatile
   913  00BA  0008               	return
   914                           
   915                           ;main.c: 195: {
   916                           ;main.c: 196: mod_flag = 1;
   917  00BB  14F0               	bsf	_mod_flag/(0+8),_mod_flag& (0+7)
   918  00BC  0008               	return
   919  00BD                     __end_of_checkMode:	
   920                           
   921                           	psect	text8
   922  0075                     __ptext8:	
   923 ;; *************** function _checkLBO *****************
   924 ;; Defined at:
   925 ;;		line 228 in file "main.c"
   926 ;; Parameters:    Size  Location     Type
   927 ;;		None
   928 ;; Auto vars:     Size  Location     Type
   929 ;;		None
   930 ;; Return value:  Size  Location     Type
   931 ;;                  1    wreg      void 
   932 ;; Registers used:
   933 ;;		wreg, status,2, status,0
   934 ;; Tracked objects:
   935 ;;		On entry : 0/0
   936 ;;		On exit  : 0/0
   937 ;;		Unchanged: 0/0
   938 ;; Data sizes:     COMMON   BANK0   BANK1   BANK2
   939 ;;      Params:         0       0       0       0
   940 ;;      Locals:         0       0       0       0
   941 ;;      Temps:          2       0       0       0
   942 ;;      Totals:         2       0       0       0
   943 ;;Total ram usage:        2 bytes
   944 ;; Hardware stack levels used:    1
   945 ;; Hardware stack levels required when called:    1
   946 ;; This function calls:
   947 ;;		Nothing
   948 ;; This function is called by:
   949 ;;		_Refresh
   950 ;; This function uses a non-reentrant model
   951 ;;
   952                           
   953                           
   954                           ;psect for function _checkLBO
   955  0075                     _checkLBO:	
   956                           
   957                           ;main.c: 230: if ((!RA4)&&(!lbo_happened))
   958                           
   959                           ;incstack = 0
   960                           ; Regs used in _checkLBO: [wreg+status,2+status,0]
   961  0075  1283               	bcf	3,5	;RP0=0, select bank0
   962  0076  1303               	bcf	3,6	;RP1=0, select bank0
   963  0077  1E05               	btfss	5,4	;volatile
   964  0078  19F0               	btfsc	_lbo_happened/(0+8),_lbo_happened& (0+7)
   965  0079  2895               	goto	l747
   966                           
   967                           ;main.c: 231: {
   968                           ;main.c: 232: _delay((unsigned long)((100)*(4000000/4000.0))) ;
   969  007A  3082               	movlw	130
   970  007B  00F6               	movwf	??_checkLBO+1
   971  007C  30DD               	movlw	221
   972  007D  00F5               	movwf	??_checkLBO
   973  007E                     u287:	
   974  007E  0BF5               	decfsz	??_checkLBO,f
   975  007F  287E               	goto	u287
   976  0080  0BF6               	decfsz	??_checkLBO+1,f
   977  0081  287E               	goto	u287
   978  0082  2883               	nop2
   979                           
   980                           ;main.c: 233: if (!RA4)
   981  0083  1283               	bcf	3,5	;RP0=0, select bank0
   982  0084  1303               	bcf	3,6	;RP1=0, select bank0
   983  0085  1A05               	btfsc	5,4	;volatile
   984  0086  2895               	goto	l747
   985                           
   986                           ;main.c: 234: {
   987                           ;main.c: 235: lbo_happened = 1;
   988  0087  15F0               	bsf	_lbo_happened/(0+8),_lbo_happened& (0+7)
   989                           
   990                           ;main.c: 236: if (!bli_count)
   991  0088  1970               	btfsc	_bli_count/(0+8),_bli_count& (0+7)
   992  0089  2890               	goto	l165
   993                           
   994                           ;main.c: 237: {
   995                           ;main.c: 238: bli_count = 1;
   996  008A  1570               	bsf	_bli_count/(0+8),_bli_count& (0+7)
   997                           
   998                           ;main.c: 239: if (C2OUT)
   999  008B  1F9F               	btfss	31,7	;volatile
  1000  008C  2890               	goto	l165
  1001                           
  1002                           ;main.c: 240: {
  1003                           ;main.c: 241: RB1 = 1;
  1004  008D  1486               	bsf	6,1	;volatile
  1005                           
  1006                           ;main.c: 242: RB2 = 0;
  1007  008E  1106               	bcf	6,2	;volatile
  1008                           
  1009                           ;main.c: 243: } else
  1010  008F  2895               	goto	l747
  1011  0090                     l165:	
  1012                           ;main.c: 247: }
  1013                           ;main.c: 248: } else
  1014                           
  1015                           ;main.c: 246: battery_need_charge_count++;
  1016                           
  1017                           ;main.c: 244: {
  1018                           ;main.c: 245: battery_need_charge = 1;
  1019                           
  1020                           
  1021                           ;main.c: 249: {
  1022                           ;main.c: 250: battery_need_charge = 1;
  1023  0090  1470               	bsf	_battery_need_charge/(0+8),_battery_need_charge& (0+7)
  1024                           
  1025                           ;main.c: 251: battery_need_charge_count++;
  1026  0091  3001               	movlw	1
  1027  0092  00F5               	movwf	??_checkLBO
  1028  0093  0875               	movf	??_checkLBO,w
  1029  0094  07F7               	addwf	_battery_need_charge_count,f
  1030  0095                     l747:	
  1031                           
  1032                           ;main.c: 252: }
  1033                           ;main.c: 255: }
  1034                           ;main.c: 256: }
  1035                           ;main.c: 257: if ((RA4)&&(lbo_happened))
  1036  0095  1E05               	btfss	5,4	;volatile
  1037  0096  0008               	return
  1038  0097  1DF0               	btfss	_lbo_happened/(0+8),_lbo_happened& (0+7)
  1039  0098  0008               	return
  1040                           
  1041                           ;main.c: 258: {
  1042                           ;main.c: 260: lbo_happened = 0;
  1043  0099  11F0               	bcf	_lbo_happened/(0+8),_lbo_happened& (0+7)
  1044  009A  0008               	return
  1045  009B                     __end_of_checkLBO:	
  1046                           
  1047                           	psect	text9
  1048  00BD                     __ptext9:	
  1049 ;; *************** function _isr *****************
  1050 ;; Defined at:
  1051 ;;		line 76 in file "main.c"
  1052 ;; Parameters:    Size  Location     Type
  1053 ;;		None
  1054 ;; Auto vars:     Size  Location     Type
  1055 ;;		None
  1056 ;; Return value:  Size  Location     Type
  1057 ;;                  1    wreg      void 
  1058 ;; Registers used:
  1059 ;;		status,2
  1060 ;; Tracked objects:
  1061 ;;		On entry : 0/0
  1062 ;;		On exit  : 0/0
  1063 ;;		Unchanged: 0/0
  1064 ;; Data sizes:     COMMON   BANK0   BANK1   BANK2
  1065 ;;      Params:         0       0       0       0
  1066 ;;      Locals:         0       0       0       0
  1067 ;;      Temps:          4       0       0       0
  1068 ;;      Totals:         4       0       0       0
  1069 ;;Total ram usage:        4 bytes
  1070 ;; Hardware stack levels used:    1
  1071 ;; This function calls:
  1072 ;;		Nothing
  1073 ;; This function is called by:
  1074 ;;		Interrupt level 1
  1075 ;; This function uses a non-reentrant model
  1076 ;;
  1077                           
  1078                           
  1079                           ;psect for function _isr
  1080  00BD                     _isr:	
  1081                           
  1082                           ;main.c: 78: if (TMR1IF)
  1083  00BD  1C0C               	btfss	12,0	;volatile
  1084  00BE  28C5               	goto	i1l128
  1085                           
  1086                           ;main.c: 79: {
  1087                           ;main.c: 80: refresh_flag = 1;
  1088  00BF  16F0               	bsf	_refresh_flag/(0+8),_refresh_flag& (0+7)	;volatile
  1089                           
  1090                           ;main.c: 81: TMR1H = 0x00; TMR1L = 0x00;
  1091  00C0  018F               	clrf	15	;volatile
  1092  00C1  018E               	clrf	14	;volatile
  1093                           
  1094                           ;main.c: 82: TMR1IF = 0;
  1095  00C2  100C               	bcf	12,0	;volatile
  1096                           
  1097                           ;main.c: 83: GIE = 0;
  1098  00C3  138B               	bcf	11,7	;volatile
  1099                           
  1100                           ;main.c: 84: PEIE = 0;
  1101  00C4  130B               	bcf	11,6	;volatile
  1102  00C5                     i1l128:	
  1103  00C5  0874               	movf	??_isr+3,w
  1104  00C6  00FF               	movwf	127
  1105  00C7  0873               	movf	??_isr+2,w
  1106  00C8  008A               	movwf	10
  1107  00C9  0872               	movf	??_isr+1,w
  1108  00CA  0084               	movwf	4
  1109  00CB  0E71               	swapf	??_isr^(0+-128),w
  1110  00CC  0083               	movwf	3
  1111  00CD  0EFE               	swapf	126,f
  1112  00CE  0E7E               	swapf	126,w
  1113  00CF  0009               	retfie
  1114  00D0                     __end_of_isr:	
  1115  007E                     btemp	set	126	;btemp
  1116  007E                     wtemp0	set	126
  1117                           
  1118                           	psect	intentry
  1119  0004                     __pintentry:	
  1120                           ;incstack = 0
  1121                           ; Regs used in _isr: [status,2]
  1122                           
  1123  0004                     interrupt_function:	
  1124  007E                     saved_w	set	btemp
  1125  0004  00FE               	movwf	btemp
  1126  0005  0E03               	swapf	3,w
  1127  0006  00F1               	movwf	??_isr
  1128  0007  0804               	movf	4,w
  1129  0008  00F2               	movwf	??_isr+1
  1130  0009  080A               	movf	10,w
  1131  000A  00F3               	movwf	??_isr+2
  1132  000B  1283               	bcf	3,5	;RP0=0, select bank0
  1133  000C  1303               	bcf	3,6	;RP1=0, select bank0
  1134  000D  087F               	movf	btemp+1,w
  1135  000E  00F4               	movwf	??_isr+3
  1136  000F  28BD               	ljmp	_isr


Data Sizes:
    Strings     0
    Constant    0
    Data        0
    BSS         1
    Persistent  0
    Stack       0

Auto Spaces:
    Space          Size  Autos    Used
    COMMON           14      6       8
    BANK0            80      0       0
    BANK1            80      0       0
    BANK2            48      0       0

Pointer List with Targets:

    None.

Critical Paths under _main in COMMON

    _main->_checkMode
    _Refresh->_checkLBO
    _Refresh->_checkMode
    _Refresh->_checkUSB

Critical Paths under _isr in COMMON

    None.

Critical Paths under _main in BANK0

    None.

Critical Paths under _isr in BANK0

    None.

Critical Paths under _main in BANK1

    None.

Critical Paths under _isr in BANK1

    None.

Critical Paths under _main in BANK2

    None.

Critical Paths under _isr in BANK2

    None.

Call Graph Tables:

 ---------------------------------------------------------------------------------
 (Depth) Function   	        Calls       Base Space   Used Autos Params    Refs
 ---------------------------------------------------------------------------------
 (0) _main                                                 0     0      0       0
                            _Refresh
                          _checkMode
                               _init
                              _pwm25
                              _pwm50
                           _pwm_stby
 ---------------------------------------------------------------------------------
 (1) _pwm_stby                                             0     0      0       0
 ---------------------------------------------------------------------------------
 (1) _pwm50                                                0     0      0       0
 ---------------------------------------------------------------------------------
 (1) _pwm25                                                0     0      0       0
 ---------------------------------------------------------------------------------
 (1) _Refresh                                              0     0      0       0
                           _checkLBO
                          _checkMode
                           _checkUSB
 ---------------------------------------------------------------------------------
 (2) _checkUSB                                             2     2      0       0
                                              4 COMMON     2     2      0
                               _init
 ---------------------------------------------------------------------------------
 (1) _init                                                 0     0      0       0
 ---------------------------------------------------------------------------------
 (1) _checkMode                                            2     2      0       0
                                              4 COMMON     2     2      0
 ---------------------------------------------------------------------------------
 (2) _checkLBO                                             2     2      0       0
                                              4 COMMON     2     2      0
 ---------------------------------------------------------------------------------
 Estimated maximum stack depth 2
 ---------------------------------------------------------------------------------
 (Depth) Function   	        Calls       Base Space   Used Autos Params    Refs
 ---------------------------------------------------------------------------------
 (4) _isr                                                  4     4      0       0
                                              0 COMMON     4     4      0
 ---------------------------------------------------------------------------------
 Estimated maximum stack depth 4
 ---------------------------------------------------------------------------------

 Call Graph Graphs:

 _main (ROOT)
   _Refresh
     _checkLBO
     _checkMode
     _checkUSB
       _init
   _checkMode
   _init
   _pwm25
   _pwm50
   _pwm_stby

 _isr (ROOT)

 Address spaces:
Name               Size   Autos  Total    Cost      Usage
BITCOMMON            E      0       1       0        7.1%
EEDATA              80      0       0       0        0.0%
NULL                 0      0       0       0        0.0%
CODE                 0      0       0       0        0.0%
COMMON               E      6       8       1       57.1%
BITSFR0              0      0       0       1        0.0%
SFR0                 0      0       0       1        0.0%
BITSFR1              0      0       0       2        0.0%
SFR1                 0      0       0       2        0.0%
STACK                0      0       0       2        0.0%
BANK0               50      0       0       3        0.0%
BITSFR3              0      0       0       4        0.0%
SFR3                 0      0       0       4        0.0%
ABS                  0      0       8       4        0.0%
BITBANK0            50      0       0       5        0.0%
BITSFR2              0      0       0       5        0.0%
SFR2                 0      0       0       5        0.0%
BITBANK1            50      0       0       6        0.0%
BANK1               50      0       0       7        0.0%
BITBANK2            30      0       0       8        0.0%
BANK2               30      0       0       9        0.0%
DATA                 0      0       8      10        0.0%


Microchip Technology PIC Macro Assembler V1.45 build -152302408 
Symbol Table                                                                                   Tue Jun 05 22:59:22 2018

                      l117 00DA                        l156 005E                        l165 0090  
                      l149 00AC                        l747 0095                        l783 00D3  
                      l793 00DE                        l787 00D6                        _GIE 005F  
                      _RB0 0030                        _RB1 0031                        _RA3 002B  
                      _RB2 0032                        _RA4 002C                        _RB3 0033  
                      _RB5 0035                        _RB7 0037                        _PR2 0092  
                      u247 0051                        u257 0068                        u267 00A3  
                      u277 00B2                        u287 007E              _usb_connected 0384  
                      _isr 00BD                        fsr0 0004               __CFG_FOSC$XT 0000  
             __CFG_LVP$OFF 0000                       ?_isr 0071               __CFG_WDTE$ON 0000  
                     _PEIE 005E                       _main 00D0                       _init 0015  
                     btemp 007E                       start 0010                      ??_isr 0071  
          __end_of_Refresh 00E9                      _C2OUT 00FF                      ?_main 0071  
                    ?_init 0071                      _CCP1X 00BD                      _CCP1Y 00BC  
                    _CMCON 001F                      i1l128 00C5                      _TMR1H 000F  
                    _TMR1L 000E                      _pwm25 00F7                      _pwm50 00F0  
           __pbitbssCOMMON 0380             __CFG_BOREN$OFF 0000                      pclath 000A  
                    status 0003                      wtemp0 007E             __CFG_MCLRE$OFF 0000  
          __initialization 0011               __end_of_main 00E0               __end_of_init 0048  
                   ??_main 0077                     ??_init 0075                     _CCP1M2 00BA  
                   _CCP1M3 00BB                     ?_pwm25 0071                     ?_pwm50 0071  
                   _CCPR1L 0015                     _TMR1IE 0460                     _TMR1IF 0060  
                   _TMR1CS 0081                     _TMR1ON 0080                     _TMR2ON 0092  
         __end_of_checkLBO 009B                     _TRISB0 0430                     _TRISB1 0431  
                   _TRISA3 042B                     _TRISB2 0432                     _TRISA4 042C  
                   _TRISB3 0433                     _TRISB5 0435                     _TRISB7 0437  
         __end_of_checkUSB 0075                  ??_Refresh 0077                     saved_w 007E  
         __end_of_pwm_stby 00F0    __end_of__initialization 0013             __pcstackCOMMON 0071  
       __size_of_checkMode 0022              __end_of_pwm25 00FE              __end_of_pwm50 00F7  
                  ??_pwm25 0075                    ??_pwm50 0075  _battery_need_charge_count 0077  
               __pmaintext 00D0                 __pintentry 0004                    _T1CKPS0 0084  
                  _T1CKPS1 0085                    _T2CKPS0 0090                    _T2CKPS1 0091  
                  _T1OSCEN 0083                  ?_checkLBO 0071                  ?_checkUSB 0071  
        __end_of_checkMode 00BD                    _Refresh 00E0                  ?_pwm_stby 0071  
                  __ptext1 00E9                    __ptext2 00F0                    __ptext3 00F7  
                  __ptext4 00E0                    __ptext5 0048                    __ptext6 0015  
                  __ptext7 009B                    __ptext8 0075                    __ptext9 00BD  
               ??_checkLBO 0075                 ??_checkUSB 0075               __size_of_isr 0013  
     end_of_initialization 0013                 ??_pwm_stby 0075        _battery_need_charge 0380  
             _lbo_happened 0383        start_initialization 0011                __end_of_isr 00D0  
              __pbssCOMMON 0077                  ___latbits 0000          __size_of_checkLBO 0026  
        __size_of_checkUSB 002D                  _checkMode 009B                   ?_Refresh 0071  
                _bli_count 0382          __size_of_pwm_stby 0007             __size_of_pwm25 0007  
           __size_of_pwm50 0007          interrupt_function 0004                 ?_checkMode 0071  
             _refresh_flag 0385           __size_of_Refresh 0009                   _checkLBO 0075  
                 _bat_flag 0386                   _checkUSB 0048              __size_of_main 0010  
            __size_of_init 0033                ??_checkMode 0075                   _mod_flag 0381  
                 _pwm_stby 00E9                   intlevel1 0000  
