:0400000031EF03F0E9
:100300000D0A416C6C2062797465732068617665B2
:100310002072656369657665642C20796F7572203B
:100320006D657373616765206973202D200D0A0068
:10033000200D0A4E6F772C206A75737420707269D5
:100340006E74207768617420796F752077616E74A0
:10035000203A29200D0A0057656C636F6D65207483
:100360006F204469796D6963726F2E72750D0A0092
:10037000546865206E756D62657220697320000D8A
:100380000A7075747320746573740D0A0000270E6B
:10039000176E100E166E050E146E1BD00EC007F0F1
:1003A0000FC008F016C009F017C00AF0EFEC02F019
:1003B0000850071010E1140616C007F017C008F027
:1003C0000A6A0A0E096EEFEC02F007C016F008C0C8
:1003D00017F01466E3D714C015F0156601D01200AB
:1003E000046A0A0E036E16C001F017C002F014EC86
:1003F00003F001C009F002C00AF00EC007F00FC000
:1004000008F0EFEC02F007C010F008C011F016C0C1
:1004100003F017C004F010C001F011C002F014EC9A
:1004200003F001C012F002C013F00468F60E036E70
:1004300012C001F013C002F014EC03F00E500124BE
:10044000076E0F500220086E16C009F017C00AF0A0
:10045000EFEC02F00750300F6BEC03F0ACA2FED7CC
:1004600016C007F017C008F00A6A0A0E096EEFEC12
:1004700002F007C016F008C017F015061566B0D7D1
:1004800012007E6A7F6A939E938A938C3C0E236E41
:100490004D0E246E026A016E3C0E97EC02F0255060
:1004A0006BEC03F07F0E026E030E036EC5EC02F0E0
:1004B000570E026E030E036EC5EC02F0700E026E54
:1004C000030E036EC5EC02F0050E0F6E030E0E6EEA
:1004D000C7EC01F00A0E026E190E47EC03F0ACA255
:1004E000FED7000E026E030E036EC5EC02F0190E6D
:1004F000026E000E036E0F0E036E5F0E0264036A3F
:10050000C5EC02F0300E026E030E036EC5EC02F075
:100510009EAAFED75CEC03F0256EACA2FED7255058
:10052000F7E025506BEC03F0ACB2F2D7FDD7E8CF83
:1005300003F0AC6AAB6A03B0AC8803A202D0AC8C07
:10054000AB8C03B4AC8E03A602D0AB8801D0AB8ACF
:1005500003B8AC849E9803BAAB8603AC02D09D8AE4
:1005600001D09D9A9E9A03AE02D09D8801D09D989D
:1005700001C0AFFF0250B06EAC8AAB8E939E938ADF
:10058000ACB8ACBE1200938E1200ACA2FED70250E3
:10059000F66EE96E020EEA6E0350EA6403D0EA6E6C
:1005A000EF5003D0F76E0800F5506BEC03F00250EB
:1005B000046E0350056E024A032A0450F66EE96E7B
:1005C000020EEA6E0550EA6403D0EA6EEF5003D0E3
:1005D000F76E0800F5500009D8B41200D6D70B6AA0
:1005E0000C6A0A5009101BE0010E0D6E04D0D89061
:1005F00009360A360D2A0AAEFAD7D8900B360C36D1
:100600000950075C0A50085805E30950075E0A5074
:10061000085A0B80D8900A3209320D2EEED70BC043
:1006200007F00CC008F0120001500302F3CF05F0F0
:10063000F4CF06F001500402F3CFF4FFF36AF35055
:100640000526F450062202500302F3CFF4FFF36AAA
:10065000F3500526F450062205C001F006C002F052
:10066000120000EE18F00B0EEE6AE806FDE1EA0E4D
:10067000F66E060EF76E000EF86E0900F5CF25F047
:10068000000EF86E030EF76E000141EF02F0E8CFA6
:1006900003F0056A0CD09EAAFED75CEC03F0046E52
:1006A0000350D96EDA6A04C0DFFF032A052A02501C
:1006B000055CD8B01200EFD7F20E1816ABAC03D021
:1006C0001890ABB01880ABB41884ABB21886AECF1C
:1006D00001F001501200E8CF01F0ACAC03D0AC90B7
:0C06E00018B2AC8001C0ADFF1200550044
:020000040020DA
:08000000FFFFFFFFFFFFFFFF00
:020000040030CA
:0E00000000221F1EFF8881FF03C003E00340A3
:00000001FF
