HI-TECH Software C Compiler 

Linker command line:

--edf=C:\Program Files\HI-TECH Software\PICC\9.71a\dat\en_msgs.txt -cs \
  -h+clock_vs_temp.sym -z -Q16F628A -ol.obj -Mclock_vs_temp.map -E1 \
  -ACONST=00h-0FFhx8 -ACODE=00h-07FFh -ASTRCODE=00h-07FFh \
  -AENTRY=00h-0FFhx8 -ASTRING=00h-0FFhx8 -ABANK0=020h-06Fh \
  -ABANK1=0A0h-0EFh -ABANK2=0120h-014Fh \
  -ARAM=020h-06Fh,0A0h-0EFh,0120h-014Fh \
  -AABS1=020h-07Fh,0A0h-0EFh,0120h-014Fh -ACOMMON=070h-07Fh -ASFR0=00h-01Fh \
  -ASFR1=080h-09Fh -ASFR2=0100h-011Fh -ASFR3=0180h-01EFh \
  -preset_vec=00h,intentry=04h,init,end_init -ppowerup=CODE -pfunctab=CODE \
  -ACONFIG=02007h-02007h -pconfig=CONFIG -DCONFIG=2 -AIDLOC=02000h-02003h \
  -pidloc=IDLOC -DIDLOC=2 -AEEDATA=00h-07Fh/02100h -peeprom_data=EEDATA \
  -DEEDATA=2 -DCODE=2 -DSTRCODE=2 -DSTRING=2 -DCONST=2 -DENTRY=2 -k \
  startup.obj clock_vs_temp.obj 

Object code version is 3.10

Machine type is 16F628A



                Name                               Link     Load   Length Selector   Space Scale
startup.obj     end_init                              A        A        1        8       0
                reset_vec                             0        0        1        0       0
clock_vs_temp.obj
                intentry                              4        4        6        8       0
                config                             2007     2007        1     400E       0
                text950                             69E      69E       10      40A       0
                text949                             68D      68D       11      40A       0
                text948                             727      727        6      40A       0
                text947                             6D8      6D8        E      40A       0
                text946                             65F      65F       19      40A       0
                text945                             4E6      4E6       2A      40A       0
                text944                             588      588       24      40A       0
                text943                             644      644       1B      40A       0
                text942                             4A1      4A1       45      40A       0
                text941                             5AC      5AC       21      40A       0
                text940                             539      539       29      40A       0
                text939                             5CD      5CD       20      40A       0
                text938                             415      415       8C      40A       0
                text937                             678      678       15      40A       0
                text936                             72D      72D        4      40A       0
                text935                             389      389       8C      40A       0
                text934                             6E6      6E6        C      40A       0
                text933                             562      562       26      40A       0
                text932                             6CA      6CA        E      40A       0
                text931                             510      510       29      40A       0
                text930                             71D      71D        A      40A       0
                text929                             6BC      6BC        E      40A       0
                text928                             6AE      6AE        E      40A       0
                text927                             708      708        B      40A       0
                text926                             6FD      6FD        B      40A       0
                text925                             6F2      6F2        B      40A       0
                text924                             627      627       1D      40A       0
                text923                             60A      60A       1D      40A       0
                text922                             5ED      5ED       1D      40A       0
                text921                             205      205       EE      40A       0
                maintext                            2F3      2F3       96      40A       0
                cstackBANK0                          20       20       17       20       1
                cstackCOMMON                         70       70        A       70       1
                bssBANK0                             37       37        7       20       1
                bitbssCOMMON                        3D8       7B        1       70       1     8
                cinit                               713      713        A      40A       0
                bitnvCOMMON                         3D0       7A        1       70       1     8
                stringtext                          100      100      105        2       0

TOTAL           Name                               Link     Load   Length     Space
        CLASS   CONST          

        CLASS   CODE           
                end_init                              A        A        1         0
                intentry                              4        4        6         0
                reset_vec                             0        0        1         0
                text950                             69E      69E       10         0
                text949                             68D      68D       11         0
                text948                             727      727        6         0
                text947                             6D8      6D8        E         0
                text946                             65F      65F       19         0
                text945                             4E6      4E6       2A         0
                text944                             588      588       24         0
                text943                             644      644       1B         0
                text942                             4A1      4A1       45         0
                text941                             5AC      5AC       21         0
                text940                             539      539       29         0
                text939                             5CD      5CD       20         0
                text938                             415      415       8C         0
                text937                             678      678       15         0
                text936                             72D      72D        4         0
                text935                             389      389       8C         0
                text934                             6E6      6E6        C         0
                text933                             562      562       26         0
                text932                             6CA      6CA        E         0
                text931                             510      510       29         0
                text930                             71D      71D        A         0
                text929                             6BC      6BC        E         0
                text928                             6AE      6AE        E         0
                text927                             708      708        B         0
                text926                             6FD      6FD        B         0
                text925                             6F2      6F2        B         0
                text924                             627      627       1D         0
                text923                             60A      60A       1D         0
                text922                             5ED      5ED       1D         0
                text921                             205      205       EE         0
                maintext                            2F3      2F3       96         0
                cinit                               713      713        A         0

        CLASS   STRCODE        
                stringtext                          100      100      105         0

        CLASS   ENTRY          

        CLASS   STRING         

        CLASS   BANK0          
                cstackBANK0                          20       20       17         1
                bssBANK0                             37       37        7         1

        CLASS   BANK1          

        CLASS   BANK2          

        CLASS   RAM            

        CLASS   ABS1           
                abs_s1                               7E       7E        2         1

        CLASS   COMMON         
                cstackCOMMON                         70       70        A         1
                bitbssCOMMON                        3D8       7B        1         1
                bitnvCOMMON                         3D0       7A        1         1

        CLASS   SFR0           

        CLASS   SFR1           

        CLASS   SFR2           

        CLASS   SFR3           

        CLASS   CONFIG         
                config                             2007     2007        1         0

        CLASS   IDLOC          

        CLASS   EEDATA         

        CLASS   BANK3          



SEGMENTS        Name                           Load    Length   Top    Selector   Space  Class     Delta

                reset_vec                      000000  000001  000001         0       0  CODE        2
                intentry                       000004  000007  00000B         8       0  CODE        2
                cstackBANK0                    000020  00001E  00003E        20       1  BANK0       1
                cstackCOMMON                   000070  00000C  00007C        70       1  COMMON      1
                stringtext                     000100  000105  000205         2       0  STRCODE     2
                text921                        000205  00052C  000731       40A       0  CODE        2
                config                         002007  000001  002008      400E       0  CONFIG      2


UNUSED ADDRESS RANGES

        Name                Unused          Largest block    Delta
        BANK0            003E-006F             32           1
        BANK1            00A0-00EF             50           1
        BANK2            0120-014F             30           1
        CODE             0001-0003              3           2
                         000B-00FF             F5
                         0731-07FF             CF
        COMMON           007C-007D              2           1
        CONST            0001-0003              3           2
                         000B-00FF             F5
                         0731-07FF             CF
        EEDATA           2100-217F             80           2
        ENTRY            0001-0003              3           2
                         000B-00FF             F5
                         0731-07FF             CF
        IDLOC            2000-2003              4           2
        RAM              003E-006F             32           1
                         00A0-00EF             50
                         0120-014F             30
        SFR0             0000-001F             20           1
        SFR1             0080-009F             20           1
        SFR2             0100-011F             20           1
        SFR3             0180-01EF             70           1
        STRCODE          0001-0003              3           2
                         000B-00FF             F5
                         0731-07FF             CF
        STRING           0001-0003              3           2
                         000B-00FF             F5
                         0731-07FF             CF

                                  Symbol Table

??_BCDconv                     cstackCOMMON 0072
??_DCBconv                     cstackCOMMON 0076
??_DispAll                     cstackBANK0  0020
??_Display                     cstackCOMMON 0075
??_Displaypoint                cstackCOMMON 0075
??_Displaypointminus           cstackCOMMON 0075
??_INIT                        cstackCOMMON 0072
??_InitIO                      cstackCOMMON 0074
??_RX                          cstackCOMMON 0072
??_ReadHour                    cstackCOMMON 0075
??_ReadMin                     cstackCOMMON 0075
??_SetHour                     cstackCOMMON 007A
??_SetMin                      cstackCOMMON 007A
??_SetSeconds                  cstackCOMMON 007A
??_TX                          cstackCOMMON 0072
??___awdiv                     cstackCOMMON 0078
??___bmul                      cstackCOMMON 0073
??___lbdiv                     cstackCOMMON 0073
??___lwdiv                     cstackCOMMON 0076
??___lwmod                     cstackCOMMON 0079
??___wmul                      cstackCOMMON 0076
??_get_temp                    cstackBANK0  0030
??_i2c_delay                   cstackCOMMON 0072
??_i2c_rx                      cstackCOMMON 0072
??_i2c_start                   cstackCOMMON 0072
??_i2c_stop                    cstackCOMMON 0072
??_i2c_tx                      cstackCOMMON 0072
??_isr                         cstackCOMMON 0070
??_main                        cstackBANK0  0034
??_printf                      cstackBANK0  0026
??_putch                       cstackCOMMON 0072
?_BCDconv                      cstackCOMMON 0070
?_DCBconv                      cstackCOMMON 0070
?_DispAll                      cstackCOMMON 0078
?_Display                      cstackCOMMON 0074
?_Displaypoint                 cstackCOMMON 0074
?_Displaypointminus            cstackCOMMON 0074
?_INIT                         cstackCOMMON 0070
?_InitIO                       cstackCOMMON 0070
?_RX                           cstackCOMMON 0070
?_ReadHour                     cstackCOMMON 0070
?_ReadMin                      cstackCOMMON 0070
?_SetHour                      cstackCOMMON 0070
?_SetMin                       cstackCOMMON 0070
?_SetSeconds                   cstackCOMMON 0070
?_TX                           cstackCOMMON 0070
?___awdiv                      cstackBANK0  0020
?___bmul                       cstackCOMMON 0072
?___lbdiv                      cstackCOMMON 0072
?___lwdiv                      cstackCOMMON 0072
?___lwmod                      cstackBANK0  0020
?___wmul                       cstackCOMMON 0072
?_get_temp                     cstackCOMMON 0070
?_i2c_delay                    cstackCOMMON 0070
?_i2c_rx                       cstackCOMMON 0070
?_i2c_start                    cstackCOMMON 0070
?_i2c_stop                     cstackCOMMON 0070
?_i2c_tx                       cstackCOMMON 0070
?_isr                          cstackCOMMON 0070
?_main                         cstackCOMMON 0070
?_printf                       cstackBANK0  0024
?_putch                        cstackCOMMON 0070
BCDconv@source                 cstackCOMMON 0074
BCDconv@temp_maj               cstackCOMMON 0073
BCDconv@temp_min               cstackCOMMON 0072
DCBconv@source                 cstackCOMMON 0078
DCBconv@temp_maj               cstackCOMMON 0079
DCBconv@temp_min               cstackCOMMON 0077
DispAll@buf                    cstackBANK0  0022
DispAll@hour                   cstackBANK0  0021
DispAll@min                    cstackCOMMON 0078
DispAll@tem                    cstackBANK0  0023
DispAll@temperaturet           cstackCOMMON 0079
DispAll@tim                    cstackBANK0  0024
Display@temperaturet           cstackCOMMON 0074
Display@temptemp               cstackCOMMON 0077
Display@time                   cstackCOMMON 0075
Display@timetemp               cstackCOMMON 0076
Displaypoint@temperaturet      cstackCOMMON 0074
Displaypoint@temptemp          cstackCOMMON 0077
Displaypoint@time              cstackCOMMON 0075
Displaypoint@timetemp          cstackCOMMON 0076
Displaypointminus@temperaturet cstackCOMMON 0074
Displaypointminus@temptemp     cstackCOMMON 0077
Displaypointminus@time         cstackCOMMON 0075
Displaypointminus@timetemp     cstackCOMMON 0076
INIT@b                         bitbssCOMMON 03D8
RX@d                           cstackCOMMON 0073
RX@i                           cstackCOMMON 0074
ReadHour@temp                  cstackCOMMON 0075
ReadMin@temp                   cstackCOMMON 0075
SetHour@hours                  cstackBANK0  0020
SetMin@minutes                 cstackBANK0  0020
SetSeconds@seconds             cstackBANK0  0020
TX@cmd                         cstackCOMMON 0073
TX@i                           cstackCOMMON 0075
TX@temp                        cstackCOMMON 0074
_BCDconv                       text949      068D
_CMCON                         (abs)        001F
_DCBconv                       text937      0678
_DispAll                       text921      0205
_Display                       text924      0627
_Displaypoint                  text923      060A
_Displaypointminus             text922      05ED
_GIE                           (abs)        005F
_INIT                          text941      05AC
_INTE                          (abs)        005C
_InitIO                        text930      071D
_PEIE                          (abs)        005E
_RA0                           (abs)        0028
_RA1                           (abs)        0029
_RA2                           (abs)        002A
_RA3                           (abs)        002B
_RA4                           (abs)        002C
_RB0                           (abs)        0030
_RB1                           (abs)        0031
_RB2                           (abs)        0032
_RB3                           (abs)        0033
_RB4                           (abs)        0034
_RB5                           (abs)        0035
_RB6                           (abs)        0036
_RB7                           (abs)        0037
_RX                            text939      05CD
_ReadHour                      text929      06BC
_ReadMin                       text928      06AE
_SetHour                       text927      0708
_SetMin                        text926      06FD
_SetSeconds                    text925      06F2
_T1CKPS0                       (abs)        0084
_T1CKPS1                       (abs)        0085
_T1OSCEN                       (abs)        0083
_TMR1CS                        (abs)        0081
_TMR1H                         (abs)        000F
_TMR1IE                        (abs)        0460
_TMR1IF                        (abs)        0060
_TMR1L                         (abs)        000E
_TMR1ON                        (abs)        0080
_TRISA0                        (abs)        0428
_TRISA1                        (abs)        0429
_TRISA2                        (abs)        042A
_TRISA3                        (abs)        042B
_TRISA4                        (abs)        042C
_TRISB                         (abs)        0086
_TRISB0                        (abs)        0430
_TX                            text940      0539
_TXIF                          (abs)        0064
_TXREG                         (abs)        0019
__Habs1                        abs1         0000
__Hbank0                       bank0        0000
__Hbank1                       bank1        0000
__Hbank2                       bank2        0000
__Hbank3                       bank3        0000
__HbitbssCOMMON                bitbssCOMMON 0000
__HbitnvCOMMON                 bitnvCOMMON  0000
__HbssBANK0                    bssBANK0     0000
__Hcinit                       cinit        0000
__Hclrtext                     clrtext      0000
__Hcode                        code         0000
__Hcommon                      common       0000
__Hconfig                      config       2008
__HcstackBANK0                 cstackBANK0  0000
__HcstackCOMMON                cstackCOMMON 0000
__Heeprom_data                 eeprom_data  0000
__Hend_init                    end_init     000B
__Hfunctab                     functab      0000
__Hidloc                       idloc        0000
__Hinit                        init         000A
__Hintentry                    intentry     000A
__Hmaintext                    maintext     0000
__Hpa_nodes                    pa_nodes     0000
__Hpowerup                     powerup      0000
__Hram                         ram          0000
__Hreset_vec                   reset_vec    0001
__Hsfr0                        sfr0         0000
__Hsfr1                        sfr1         0000
__Hsfr2                        sfr2         0000
__Hsfr3                        sfr3         0000
__Hstrings                     strings      0000
__Hstringtext                  stringtext   0000
__Htext                        text         0000
__Labs1                        abs1         0000
__Lbank0                       bank0        0000
__Lbank1                       bank1        0000
__Lbank2                       bank2        0000
__Lbank3                       bank3        0000
__LbitbssCOMMON                bitbssCOMMON 0000
__LbitnvCOMMON                 bitnvCOMMON  0000
__LbssBANK0                    bssBANK0     0000
__Lcinit                       cinit        0000
__Lclrtext                     clrtext      0000
__Lcode                        code         0000
__Lcommon                      common       0000
__Lconfig                      config       2007
__LcstackBANK0                 cstackBANK0  0000
__LcstackCOMMON                cstackCOMMON 0000
__Leeprom_data                 eeprom_data  0000
__Lend_init                    end_init     000A
__Lfunctab                     functab      0000
__Lidloc                       idloc        0000
__Linit                        init         000A
__Lintentry                    intentry     0004
__Lmaintext                    maintext     0000
__Lpa_nodes                    pa_nodes     0000
__Lpowerup                     powerup      0000
__Lram                         ram          0000
__Lreset_vec                   reset_vec    0000
__Lsfr0                        sfr0         0000
__Lsfr1                        sfr1         0000
__Lsfr2                        sfr2         0000
__Lsfr3                        sfr3         0000
__Lstrings                     strings      0000
__Lstringtext                  stringtext   0000
__Ltext                        text         0000
__S0                           (abs)        2008
__S1                           (abs)        007C
__S2                           (abs)        0000
___awdiv                       text942      04A1
___awdiv@counter               cstackBANK0  0024
___awdiv@dividend              cstackBANK0  0022
___awdiv@divisor               cstackBANK0  0020
___awdiv@quotient              cstackBANK0  0026
___awdiv@sign                  cstackBANK0  0025
___bmul                        text947      06D8
___bmul@multiplicand           cstackCOMMON 0072
___bmul@multiplier             cstackCOMMON 0074
___bmul@product                cstackCOMMON 0073
___lbdiv                       text943      0644
___lbdiv@counter               cstackCOMMON 0074
___lbdiv@dividend              cstackCOMMON 0073
___lbdiv@divisor               cstackCOMMON 0072
___lbdiv@quotient              cstackCOMMON 0075
___lwdiv                       text945      04E6
___lwdiv@counter               cstackCOMMON 0078
___lwdiv@dividend              cstackCOMMON 0074
___lwdiv@divisor               cstackCOMMON 0072
___lwdiv@quotient              cstackCOMMON 0076
___lwmod                       text944      0588
___lwmod@counter               cstackCOMMON 0079
___lwmod@dividend              cstackBANK0  0022
___lwmod@divisor               cstackBANK0  0020
___wmul                        text946      065F
___wmul@multiplicand           cstackCOMMON 0074
___wmul@multiplier             cstackCOMMON 0072
___wmul@product                cstackCOMMON 0076
__end_of_BCDconv               text949      069E
__end_of_DCBconv               text937      068D
__end_of_DispAll               text921      02C5
__end_of_Display               text924      0644
__end_of_Displaypoint          text923      0627
__end_of_Displaypointminus     text922      060A
__end_of_INIT                  text941      05CD
__end_of_InitIO                text930      0727
__end_of_RX                    text939      05ED
__end_of_ReadHour              text929      06CA
__end_of_ReadMin               text928      06BC
__end_of_SetHour               text927      0713
__end_of_SetMin                text926      0708
__end_of_SetSeconds            text925      06FD
__end_of_TX                    text940      0562
__end_of___awdiv               text942      04E6
__end_of___bmul                text947      06E6
__end_of___lbdiv               text943      065F
__end_of___lwdiv               text945      0510
__end_of___lwmod               text944      05AC
__end_of___wmul                text946      0678
__end_of_get_temp              text935      0415
__end_of_i2c_delay             text936      0731
__end_of_i2c_rx                text931      0539
__end_of_i2c_start             text934      06F2
__end_of_i2c_stop              text932      06D8
__end_of_i2c_tx                text933      0588
__end_of_isr                   text950      06AE
__end_of_main                  maintext     0389
__end_of_printf                text938      0495
__end_of_putch                 text948      072D
__pbitbssCOMMON                bitbssCOMMON 03D8
__pbitnvCOMMON                 bitnvCOMMON  03D0
__pbssBANK0                    bssBANK0     0037
__pcstackBANK0                 cstackBANK0  0020
__pcstackCOMMON                cstackCOMMON 0070
__pintentry                    intentry     0004
__pmaintext                    maintext     02F3
__pstringtext                  stringtext   0100
__ptext921                     text921      0205
__ptext922                     text922      05ED
__ptext923                     text923      060A
__ptext924                     text924      0627
__ptext925                     text925      06F2
__ptext926                     text926      06FD
__ptext927                     text927      0708
__ptext928                     text928      06AE
__ptext929                     text929      06BC
__ptext930                     text930      071D
__ptext931                     text931      0510
__ptext932                     text932      06CA
__ptext933                     text933      0562
__ptext934                     text934      06E6
__ptext935                     text935      0389
__ptext936                     text936      072D
__ptext937                     text937      0678
__ptext938                     text938      0415
__ptext939                     text939      05CD
__ptext940                     text940      0539
__ptext941                     text941      05AC
__ptext942                     text942      04A1
__ptext943                     text943      0644
__ptext944                     text944      0588
__ptext945                     text945      04E6
__ptext946                     text946      065F
__ptext947                     text947      06D8
__ptext948                     text948      0727
__ptext949                     text949      068D
__ptext950                     text950      069E
__ptext951                     text951      0000
__size_of_BCDconv              (abs)        0000
__size_of_DCBconv              (abs)        0000
__size_of_DispAll              (abs)        0000
__size_of_Display              (abs)        0000
__size_of_Displaypoint         (abs)        0000
__size_of_Displaypointminus    (abs)        0000
__size_of_INIT                 (abs)        0000
__size_of_InitIO               (abs)        0000
__size_of_RX                   (abs)        0000
__size_of_ReadHour             (abs)        0000
__size_of_ReadMin              (abs)        0000
__size_of_SetHour              (abs)        0000
__size_of_SetMin               (abs)        0000
__size_of_SetSeconds           (abs)        0000
__size_of_TX                   (abs)        0000
__size_of___awdiv              (abs)        0000
__size_of___bmul               (abs)        0000
__size_of___lbdiv              (abs)        0000
__size_of___lwdiv              (abs)        0000
__size_of___lwmod              (abs)        0000
__size_of___wmul               (abs)        0000
__size_of_get_temp             (abs)        0000
__size_of_i2c_delay            (abs)        0000
__size_of_i2c_rx               (abs)        0000
__size_of_i2c_start            (abs)        0000
__size_of_i2c_stop             (abs)        0000
__size_of_i2c_tx               (abs)        0000
__size_of_isr                  (abs)        0000
__size_of_main                 (abs)        0000
__size_of_printf               (abs)        0000
__size_of_putch                (abs)        0000
_button                        bssBANK0     0037
_dpowers                       stringtext   011D
_exit                          init         000A
_flag                          bssBANK0     0038
_get_temp                      text935      0389
_i2c_delay                     text936      072D
_i2c_rx                        text931      0510
_i2c_start                     text934      06E6
_i2c_stop                      text932      06CA
_i2c_tx                        text933      0562
_isr                           text950      069E
_main                          maintext     02F3
_printf                        text938      0415
_putch                         text948      0727
_sign                          bssBANK0     0039
_temp_drob                     bssBANK0     003A
_tempdigit                     stringtext   0112
_tempdigitvspoint              stringtext   0127
_temperature                   bssBANK0     003B
_temphour                      bssBANK0     003C
_tempmin                       bssBANK0     003D
_timedigit                     stringtext   0131
_timedigitvspoint              stringtext   013B
btemp                          (abs)        007E
end_of_initialization          cinit        071B
get_temp@init                  bitnvCOMMON  03D0
get_temp@temp1                 cstackBANK0  0032
get_temp@temp2                 cstackBANK0  0033
i1l2918                                         
i1l2922                                         
i1l2924                                         
i1l2926                                         
i2c_rx@ack                     cstackCOMMON 0072
i2c_rx@d                       cstackCOMMON 0073
i2c_rx@x                       cstackCOMMON 0074
i2c_tx@d                       cstackCOMMON 0072
i2c_tx@x                       cstackCOMMON 0073
interrupt_function             intentry     0004
intlevel0                      functab      0000
intlevel1                      functab      0000
intlevel2                      functab      0000
intlevel3                      functab      0000
intlevel4                      functab      0000
intlevel5                      functab      0000
l1167                                           
l1213                                           
l1219                                           
l1229                                           
l1239                                           
l1249                                           
l1366                                           
l2928                                           
l2930                                           
l2932                                           
l2934                                           
l2936                                           
l2938                                           
l2942                                           
l2962                                           
l2970                                           
l2972                                           
l2978                                           
l2980                                           
l2990                                           
l2994                                           
l2998                                           
l3004                                           
l3018                                           
l3092                                           
l3094                                           
l3096                                           
l3098                                           
l3100                                           
l3108                                           
l3110                                           
l3112                                           
l3118                                           
l3120                                           
l3122                                           
l3124                                           
l3128                                           
l3130                                           
l3132                                           
l3142                                           
l3144                                           
l3932                                           
l3940                                           
l3942                                           
l3948                                           
l3950                                           
l3952                                           
l3958                                           
l3962                                           
l3966                                           
l3972                                           
l3974                                           
l3978                                           
l3984                                           
l3988                                           
l3998                                           
l4002                                           
l4006                                           
l4010                                           
l4016                                           
l4026                                           
l4036                                           
l4038                                           
l4042                                           
l4054                                           
l4064                                           
l407                                            
l4070                                           
l4072                                           
l4074                                           
l4076                                           
l4078                                           
l4082                                           
l4084                                           
l4086                                           
l4090                                           
l4092                                           
l4094                                           
l4096                                           
l4098                                           
l4104                                           
l4110                                           
l4112                                           
l4114                                           
l4116                                           
l4118                                           
l4120                                           
l4122                                           
l4124                                           
l4128                                           
l413                                            
l4130                                           
l4132                                           
l4134                                           
l4136                                           
l4144                                           
l4150                                           
l4152                                           
l4154                                           
l4156                                           
l4158                                           
l4162                                           
l4164                                           
l4166                                           
l4168                                           
l4174                                           
l4176                                           
l4178                                           
l4180                                           
l4182                                           
l4184                                           
l4192                                           
l4194                                           
l4198                                           
l4202                                           
l4204                                           
l4208                                           
l4210                                           
l4212                                           
l4214                                           
l4216                                           
l4220                                           
l4222                                           
l4224                                           
l4226                                           
l4228                                           
l4230                                           
l4232                                           
l4234                                           
l4236                                           
l4238                                           
l4240                                           
l4242                                           
l4244                                           
l4246                                           
l4250                                           
l4252                                           
l4254                                           
l4256                                           
l4258                                           
l426                                            
l4260                                           
l4262                                           
l4264                                           
l4266                                           
l4270                                           
l4272                                           
l4274                                           
l4276                                           
l4278                                           
l4280                                           
l4282                                           
l4284                                           
l4286                                           
l4288                                           
l429                                            
l4290                                           
l4292                                           
l4294                                           
l4296                                           
l4298                                           
l4300                                           
l4302                                           
l4304                                           
l4306                                           
l4308                                           
l4310                                           
l4312                                           
l4314                                           
l4316                                           
l4318                                           
l432                                            
l4320                                           
l4322                                           
l4324                                           
l4326                                           
l4328                                           
l4330                                           
l4332                                           
l4334                                           
l4336                                           
l4338                                           
l4340                                           
l4342                                           
l4344                                           
l4346                                           
l4348                                           
l435                                            
l4350                                           
l4352                                           
l4354                                           
l4356                                           
l4360                                           
l4362                                           
l4364                                           
l4366                                           
l4368                                           
l4370                                           
l4372                                           
l4374                                           
l4376                                           
l4378                                           
l438                                            
l4380                                           
l4382                                           
l4384                                           
l4386                                           
l4388                                           
l4390                                           
l4392                                           
l4394                                           
l4396                                           
l4398                                           
l4400                                           
l4402                                           
l4404                                           
l4406                                           
l4408                                           
l441                                            
l4410                                           
l4412                                           
l4414                                           
l4416                                           
l4418                                           
l4420                                           
l4422                                           
l4424                                           
l4426                                           
l4428                                           
l4430                                           
l4432                                           
l4434                                           
l4436                                           
l4438                                           
l444                                            
l4440                                           
l4442                                           
l4444                                           
l4446                                           
l4448                                           
l4450                                           
l4452                                           
l4454                                           
l4456                                           
l4458                                           
l4460                                           
l4462                                           
l4464                                           
l4466                                           
l4468                                           
l4470                                           
l4472                                           
l4474                                           
l4476                                           
l4478                                           
l4480                                           
l4482                                           
l4484                                           
l4486                                           
l4488                                           
l4490                                           
l4492                                           
l4494                                           
l4496                                           
l4498                                           
l4500                                           
l4502                                           
l4504                                           
l4506                                           
l4508                                           
l4510                                           
l4512                                           
l4514                                           
l4516                                           
l4518                                           
l4520                                           
l4522                                           
l4524                                           
l4526                                           
l4528                                           
l4530                                           
l4532                                           
l4534                                           
l4536                                           
l4538                                           
l4540                                           
l4542                                           
l4544                                           
l4546                                           
l4548                                           
l4550                                           
l4552                                           
l4554                                           
l4556                                           
l4558                                           
l4560                                           
l4562                                           
l4564                                           
l4566                                           
l4568                                           
l4570                                           
l4572                                           
l4574                                           
l4576                                           
l4578                                           
l4580                                           
l4582                                           
l4584                                           
l4586                                           
l4588                                           
l4590                                           
l4592                                           
l4594                                           
l4596                                           
l4598                                           
l4600                                           
l4602                                           
l4604                                           
l4606                                           
l4608                                           
l4610                                           
l4612                                           
l4614                                           
l4616                                           
l4618                                           
l4620                                           
l4622                                           
l4624                                           
l4626                                           
l4628                                           
l4630                                           
l4632                                           
l4634                                           
l4636                                           
l4638                                           
l4640                                           
l4642                                           
l4644                                           
l4646                                           
l4648                                           
l4650                                           
l4652                                           
l4654                                           
l4656                                           
l4658                                           
l4660                                           
l4662                                           
l4664                                           
l4666                                           
l4668                                           
l4670                                           
l4672                                           
l4674                                           
l4676                                           
l4678                                           
l4680                                           
l4682                                           
l4684                                           
l4686                                           
l4688                                           
l4690                                           
l4692                                           
l4696                                           
l4700                                           
l4702                                           
l4708                                           
l4710                                           
l4712                                           
l4718                                           
l4720                                           
l4726                                           
l4728                                           
l473                                            
l4736                                           
l4738                                           
l4744                                           
l4746                                           
l4754                                           
l4756                                           
l476                                            
l479                                            
l482                                            
l814                                            
l817                                            
l820                                            
l829                                            
l839                                            
main@i                         cstackBANK0  0036
printf@_val                    cstackBANK0  002B
printf@ap                      cstackBANK0  002A
printf@c                       cstackBANK0  002F
printf@f                       cstackBANK0  0024
printf@flag                    cstackBANK0  0028
printf@prec                    cstackBANK0  0029
putch@byte                     cstackCOMMON 0072
reset_vec                      reset_vec    0000
saved_w                        (abs)        007E
start                          init         000A
start_initialization           cinit        0713
wtemp0                         (abs)        007E
