

Microchip MPLAB XC8 Assembler V2.10 build 88905656 
                                                                                               Tue Jun 09 22:55:17 2020

Microchip MPLAB XC8 C Compiler v2.10 (Free license) build 20190730164152 Og1 
     1                           	processor	18F14K50
     2                           	fnconf	rparam,??,?,0
     3                           	opt	pw 120
     4                           	opt	flic
     5                           	psect	idataBANK1,global,class=CODE,delta=1,noexec
     6                           	psect	smallconst,global,reloc=2,class=SMALLCONST,delta=1,noexec
     7                           	psect	cinit,global,reloc=2,class=CODE,delta=1
     8                           	psect	bssCOMRAM,global,class=COMRAM,space=1,delta=1,noexec
     9                           	psect	bssBANK0,global,class=BANK0,space=1,delta=1,lowdata,noexec
    10                           	psect	bssBANK1,global,class=BANK1,space=1,delta=1,lowdata,noexec
    11                           	psect	dataBANK1,global,class=BANK1,space=1,delta=1,lowdata,noexec
    12                           	psect	cstackBANK1,global,class=BANK1,space=1,delta=1,noexec
    13                           	psect	cstackBANK0,global,class=BANK0,space=1,delta=1,noexec
    14                           	psect	cstackCOMRAM,global,class=COMRAM,space=1,delta=1,noexec
    15                           	psect	text0,global,reloc=2,class=CODE,delta=1
    16                           	psect	text1,global,reloc=2,class=CODE,delta=1
    17                           	psect	text2,global,reloc=2,class=CODE,delta=1,group=2
    18                           	psect	text3,global,reloc=2,class=CODE,delta=1
    19                           	psect	text4,global,reloc=2,class=CODE,delta=1
    20                           	psect	text5,global,reloc=2,class=CODE,delta=1
    21                           	psect	text6,global,reloc=2,class=CODE,delta=1
    22                           	psect	text7,global,reloc=2,class=CODE,delta=1
    23                           	psect	text8,global,reloc=2,class=CODE,delta=1
    24                           	psect	text9,global,reloc=2,class=CODE,delta=1
    25                           	psect	text10,global,reloc=2,class=CODE,delta=1
    26                           	psect	text11,global,reloc=2,class=CODE,delta=1
    27                           	psect	text12,global,reloc=2,class=CODE,delta=1,group=1
    28                           	psect	text13,global,reloc=2,class=CODE,delta=1
    29                           	psect	text14,global,reloc=2,class=CODE,delta=1
    30                           	psect	text15,global,reloc=2,class=CODE,delta=1
    31                           	psect	intcode,global,reloc=2,class=CODE,delta=1
    32                           	psect	text17,global,reloc=2,class=CODE,delta=1
    33                           	psect	text18,global,reloc=2,class=CODE,delta=1
    34                           	psect	text19,global,reloc=2,class=CODE,delta=1
    35                           	psect	text20,global,reloc=2,class=CODE,delta=1
    36                           	psect	text21,global,reloc=2,class=CODE,delta=1
    37                           	psect	text22,global,reloc=2,class=CODE,delta=1
    38                           	psect	text23,global,reloc=2,class=CODE,delta=1
    39                           	psect	text24,global,reloc=2,class=CODE,delta=1,group=2
    40                           	psect	text25,global,reloc=2,class=CODE,delta=1
    41                           	psect	text26,global,reloc=2,class=CODE,delta=1
    42                           	psect	text27,global,reloc=2,class=CODE,delta=1
    43                           	psect	text28,global,reloc=2,class=CODE,delta=1
    44                           	psect	text29,global,reloc=2,class=CODE,delta=1
    45                           	psect	text30,global,reloc=2,class=CODE,delta=1
    46                           	psect	text31,global,reloc=2,class=CODE,delta=1
    47                           	psect	text32,global,reloc=2,class=CODE,delta=1
    48                           	psect	text33,global,reloc=2,class=CODE,delta=1
    49                           	psect	text34,global,reloc=2,class=CODE,delta=1
    50                           	psect	text35,global,reloc=2,class=CODE,delta=1
    51                           	psect	text36,global,reloc=2,class=CODE,delta=1
    52                           	psect	text37,global,reloc=2,class=CODE,delta=1
    53                           	psect	text38,global,reloc=2,class=CODE,delta=1
    54                           	psect	text39,global,reloc=2,class=CODE,delta=1
    55                           	psect	text40,global,reloc=2,class=CODE,delta=1
    56                           	psect	text41,global,reloc=2,class=CODE,delta=1
    57                           	psect	text42,global,reloc=2,class=CODE,delta=1
    58                           	psect	text43,global,reloc=2,class=CODE,delta=1
    59                           	psect	text44,global,reloc=2,class=CODE,delta=1
    60                           	psect	text45,global,reloc=2,class=CODE,delta=1
    61                           	psect	text46,global,reloc=2,class=CODE,delta=1
    62                           	psect	text47,global,reloc=2,class=CODE,delta=1
    63                           	psect	text48,global,reloc=2,class=CODE,delta=1
    64                           	psect	text49,global,reloc=2,class=CODE,delta=1
    65                           	psect	text50,global,reloc=2,class=CODE,delta=1
    66                           	psect	text51,global,reloc=2,class=CODE,delta=1
    67                           	psect	intsave_regs,global,class=BIGRAM,space=1,delta=1,noexec
    68                           	psect	rparam,global,class=COMRAM,space=1,delta=1,noexec
    69                           	psect	temp,global,ovrld,common,class=COMRAM,space=1,delta=1
    70                           	dabs	1,0x200,48,_BDT
    71                           	dabs	1,0x280,64,_cdc_data_rx
    72                           	dabs	1,0x240,64,_cdc_data_tx
    73                           	dabs	1,0x238,8,_CtrlTrfData
    74                           	dabs	1,0x230,8,_SetupPkt
    75  0000                     
    76                           ; Version 2.10
    77                           ; Generated 31/07/2019 GMT
    78                           ; 
    79                           ; Copyright © 2019, Microchip Technology Inc. and its subsidiaries ("Microchip")
    80                           ; All rights reserved.
    81                           ; 
    82                           ; This software is developed by Microchip Technology Inc. and its subsidiaries ("Microch
      +                          ip").
    83                           ; 
    84                           ; Redistribution and use in source and binary forms, with or without modification, are
    85                           ; permitted provided that the following conditions are met:
    86                           ; 
    87                           ;     1. Redistributions of source code must retain the above copyright notice, this lis
      +                          t of
    88                           ;        conditions and the following disclaimer.
    89                           ; 
    90                           ;     2. Redistributions in binary form must reproduce the above copyright notice, this 
      +                          list
    91                           ;        of conditions and the following disclaimer in the documentation and/or other
    92                           ;        materials provided with the distribution.
    93                           ; 
    94                           ;     3. Microchip's name may not be used to endorse or promote products derived from th
      +                          is
    95                           ;        software without specific prior written permission.
    96                           ; 
    97                           ; THIS SOFTWARE IS PROVIDED BY MICROCHIP "AS IS" AND ANY EXPRESS OR IMPLIED WARRANTIES,
    98                           ; INCLUDING, BUT NOT LIMITED TO, THE IMPLIED WARRANTIES OF MERCHANTABILITY AND FITNESS F
      +                          OR
    99                           ; PURPOSE ARE DISCLAIMED.  IN NO EVENT SHALL MICROCHIP BE LIABLE FOR ANY DIRECT, INDIREC
      +                          T,
   100                           ; INCIDENTAL, SPECIAL, EXEMPLARY, OR CONSEQUENTIAL DAMAGES (INCLUDING BUT NOT LIMITED TO
   101                           ; PROCUREMENT OF SUBSTITUTE GOODS OR SERVICES; LOSS OF USE, DATA OR PROFITS; OR BUSINESS
   102                           ; INTERRUPTION) HOWSOEVER CAUSED AND ON ANY THEORY OF LIABILITY, WHETHER IN CONTRACT, ST
      +                          RICT
   103                           ; LIABILITY, OR TORT (INCLUDING NEGLIGENCE OR OTHERWISE) ARISING IN ANY WAY OUT OF THE U
      +                          SE OF
   104                           ; THIS SOFTWARE, EVEN IF ADVISED OF THE POSSIBILITY OF SUCH DAMAGE.
   105                           ; 
   106                           ; 
   107                           ; Code-generator required, PIC18F14K50 Definitions
   108                           ; 
   109                           ; SFR Addresses
   110  0000                     
   111                           	psect	idataBANK1
   112  002D2A                     __pidataBANK1:
   113                           	opt callstack 0
   114                           
   115                           ;initializer for _buttonMessage
   116  002D2A  44                 	db	68
   117  002D2B  69                 	db	105
   118  002D2C  79                 	db	121
   119  002D2D  6D                 	db	109
   120  002D2E  69                 	db	105
   121  002D2F  63                 	db	99
   122  002D30  72                 	db	114
   123  002D31  6F                 	db	111
   124  002D32  2C                 	db	44
   125  002D33  20                 	db	32
   126  002D34  43                 	db	67
   127  002D35  44                 	db	68
   128  002D36  43                 	db	67
   129  002D37  20                 	db	32
   130  002D38  6C                 	db	108
   131  002D39  65                 	db	101
   132  002D3A  61                 	db	97
   133  002D3B  72                 	db	114
   134  002D3C  6E                 	db	110
   135  002D3D  69                 	db	105
   136  002D3E  6E                 	db	110
   137  002D3F  67                 	db	103
   138  002D40  20                 	db	32
   139  002D41  69                 	db	105
   140  002D42  6E                 	db	110
   141  002D43  20                 	db	32
   142  002D44  70                 	db	112
   143  002D45  72                 	db	114
   144  002D46  6F                 	db	111
   145  002D47  67                 	db	103
   146  002D48  72                 	db	114
   147  002D49  65                 	db	101
   148  002D4A  73                 	db	115
   149  002D4B  73                 	db	115
   150  002D4C  2E                 	db	46
   151  002D4D  2E                 	db	46
   152  002D4E  2E                 	db	46
   153  002D4F  0D                 	db	13
   154  002D50  0A                 	db	10
   155  002D51  4E                 	db	78
   156  002D52  75                 	db	117
   157  002D53  6D                 	db	109
   158  002D54  62                 	db	98
   159  002D55  65                 	db	101
   160  002D56  72                 	db	114
   161  002D57  20                 	db	32
   162  002D58  69                 	db	105
   163  002D59  73                 	db	115
   164  002D5A  20                 	db	32
   165  002D5B  2D                 	db	45
   166  002D5C  20                 	db	32
   167  002D5D  00                 	db	0
   168                           
   169                           	psect	smallconst
   170  000300                     __psmallconst:
   171                           	opt callstack 0
   172  000300  00                 	db	0
   173  000301                     _USB_SD_Ptr:
   174                           	opt callstack 0
   175  000301  B6                 	db	low _sd000
   176  000302  03                 	db	high _sd000
   177  000303  4C                 	db	low _sd001
   178  000304  03                 	db	high _sd001
   179  000305  80                 	db	low _sd002
   180  000306  03                 	db	high _sd002
   181  000307                     __end_of_USB_SD_Ptr:
   182                           	opt callstack 0
   183  000307                     _USB_CD_Ptr:
   184                           	opt callstack 0
   185  000307  09                 	db	low _configDescriptor1
   186  000308  03                 	db	high _configDescriptor1
   187  000309                     __end_of_USB_CD_Ptr:
   188                           	opt callstack 0
   189  000309                     _configDescriptor1:
   190                           	opt callstack 0
   191  000309  09                 	db	9
   192  00030A  02                 	db	2
   193  00030B  43                 	db	67
   194  00030C  00                 	db	0
   195  00030D  02                 	db	2
   196  00030E  01                 	db	1
   197  00030F  00                 	db	0
   198  000310  80                 	db	128
   199  000311  32                 	db	50
   200  000312  09                 	db	9
   201  000313  04                 	db	4
   202  000314  00                 	db	0
   203  000315  00                 	db	0
   204  000316  01                 	db	1
   205  000317  02                 	db	2
   206  000318  02                 	db	2
   207  000319  01                 	db	1
   208  00031A  00                 	db	0
   209  00031B  05                 	db	5
   210  00031C  24                 	db	36
   211  00031D  00                 	db	0
   212  00031E  10                 	db	16
   213  00031F  01                 	db	1
   214  000320  04                 	db	4
   215  000321  24                 	db	36
   216  000322  02                 	db	2
   217  000323  02                 	db	2
   218  000324  05                 	db	5
   219  000325  24                 	db	36
   220  000326  06                 	db	6
   221  000327  00                 	db	0
   222  000328  01                 	db	1
   223  000329  05                 	db	5
   224  00032A  24                 	db	36
   225  00032B  01                 	db	1
   226  00032C  00                 	db	0
   227  00032D  01                 	db	1
   228  00032E  07                 	db	7
   229  00032F  05                 	db	5
   230  000330  81                 	db	129
   231  000331  03                 	db	3
   232  000332  0A                 	db	10
   233  000333  00                 	db	0
   234  000334  02                 	db	2
   235  000335  09                 	db	9
   236  000336  04                 	db	4
   237  000337  01                 	db	1
   238  000338  00                 	db	0
   239  000339  02                 	db	2
   240  00033A  0A                 	db	10
   241  00033B  00                 	db	0
   242  00033C  00                 	db	0
   243  00033D  00                 	db	0
   244  00033E  07                 	db	7
   245  00033F  05                 	db	5
   246  000340  02                 	db	2
   247  000341  02                 	db	2
   248  000342  40                 	db	64
   249  000343  00                 	db	0
   250  000344  00                 	db	0
   251  000345  07                 	db	7
   252  000346  05                 	db	5
   253  000347  82                 	db	130
   254  000348  02                 	db	2
   255  000349  40                 	db	64
   256  00034A  00                 	db	0
   257  00034B  00                 	db	0
   258  00034C                     __end_of_configDescriptor1:
   259                           	opt callstack 0
   260  00034C                     _sd001:
   261                           	opt callstack 0
   262  00034C  34                 	db	52
   263  00034D  03                 	db	3
   264  00034E  004D               	dw	77
   265  000350  0069               	dw	105
   266  000352  0063               	dw	99
   267  000354  0072               	dw	114
   268  000356  006F               	dw	111
   269  000358  0063               	dw	99
   270  00035A  0068               	dw	104
   271  00035C  0069               	dw	105
   272  00035E  0070               	dw	112
   273  000360  0020               	dw	32
   274  000362  0054               	dw	84
   275  000364  0065               	dw	101
   276  000366  0063               	dw	99
   277  000368  0068               	dw	104
   278  00036A  006E               	dw	110
   279  00036C  006F               	dw	111
   280  00036E  006C               	dw	108
   281  000370  006F               	dw	111
   282  000372  0067               	dw	103
   283  000374  0079               	dw	121
   284  000376  0020               	dw	32
   285  000378  0049               	dw	73
   286  00037A  006E               	dw	110
   287  00037C  0063               	dw	99
   288  00037E  002E               	dw	46
   289  000380                     __end_of_sd001:
   290                           	opt callstack 0
   291  000380                     _sd002:
   292                           	opt callstack 0
   293  000380  24                 	db	36
   294  000381  03                 	db	3
   295  000382  0043               	dw	67
   296  000384  0044               	dw	68
   297  000386  0043               	dw	67
   298  000388  0020               	dw	32
   299  00038A  0064               	dw	100
   300  00038C  0069               	dw	105
   301  00038E  0079               	dw	121
   302  000390  006D               	dw	109
   303  000392  0069               	dw	105
   304  000394  0063               	dw	99
   305  000396  0072               	dw	114
   306  000398  006F               	dw	111
   307  00039A  0020               	dw	32
   308  00039C  0044               	dw	68
   309  00039E  0065               	dw	101
   310  0003A0  006D               	dw	109
   311  0003A2  006F               	dw	111
   312  0003A4                     __end_of_sd002:
   313                           	opt callstack 0
   314  0003A4                     _device_dsc:
   315                           	opt callstack 0
   316  0003A4  12                 	db	18
   317  0003A5  01                 	db	1
   318  0003A6  0200               	dw	512
   319  0003A8  02                 	db	2
   320  0003A9  00                 	db	0
   321  0003AA  00                 	db	0
   322  0003AB  08                 	db	8
   323  0003AC  04D8               	dw	1240
   324  0003AE  000A               	dw	10
   325  0003B0  0100               	dw	256
   326  0003B2  01                 	db	1
   327  0003B3  02                 	db	2
   328  0003B4  00                 	db	0
   329  0003B5  01                 	db	1
   330  0003B6                     __end_of_device_dsc:
   331                           	opt callstack 0
   332  0003B6                     _sd000:
   333                           	opt callstack 0
   334  0003B6  04                 	db	4
   335  0003B7  03                 	db	3
   336  0003B8  0409               	dw	1033
   337  0003BA                     __end_of_sd000:
   338                           	opt callstack 0
   339  0000                     _UEP0bits	set	3923
   340  0000                     _UADDR	set	3932
   341  0000                     _UEIE	set	3931
   342  0000                     _UEIR	set	3935
   343  0000                     _UEP1	set	3924
   344  0000                     _UEP0	set	3923
   345  0000                     _INTCONbits	set	4082
   346  0000                     _IPR2bits	set	4002
   347  0000                     _RCONbits	set	4048
   348  0000                     _UCON	set	3940
   349  0000                     _USTAT	set	3939
   350  0000                     _UIEbits	set	3936
   351  0000                     _UIRbits	set	3938
   352  0000                     _UIE	set	3936
   353  0000                     _UCFG	set	3937
   354  0000                     _UIR	set	3938
   355  0000                     _PIE2bits	set	4000
   356  0000                     _PIR2bits	set	4001
   357  0000                     _ADCON2	set	4032
   358  0000                     _ADCON0	set	4034
   359  0000                     _ANSELH	set	3967
   360  0000                     _ANSEL	set	3966
   361  0000                     _LATCbits	set	3979
   362  0000                     _TRISCbits	set	3988
   363  0000                     _PORTCbits	set	3970
   364  0000                     _ADRESL	set	4035
   365  0000                     _ADRESH	set	4036
   366  0000                     _UCONbits	set	3940
   367  0000                     _ADON	set	32272
   368  0000                     _TRISB4	set	31900
   369  0000                     _GO	set	32273
   370                           
   371                           ; #config settings
   372  0003BA  00                 	db	0	; dummy byte at the end
   373  0000                     
   374                           	psect	cinit
   375  002A54                     __pcinit:
   376                           	opt callstack 0
   377  002A54                     start_initialization:
   378                           	opt callstack 0
   379  002A54                     __initialization:
   380                           	opt callstack 0
   381                           
   382                           ; Initialize objects allocated to BANK1 (52 bytes)
   383                           ; load TBLPTR registers with __pidataBANK1
   384  002A54  0E2A               	movlw	low __pidataBANK1
   385  002A56  6EF6               	movwf	tblptrl,c
   386  002A58  0E2D               	movlw	high __pidataBANK1
   387  002A5A  6EF7               	movwf	tblptrh,c
   388  002A5C  0E00               	movlw	low (__pidataBANK1 shr (0+16))
   389  002A5E  6EF8               	movwf	tblptru,c
   390  002A60  EE01  F040         	lfsr	0,__pdataBANK1
   391  002A64  EE10 F034          	lfsr	1,52
   392  002A68                     copy_data0:
   393  002A68  0009               	tblrd		*+
   394  002A6A  CFF5 FFEE          	movff	tablat,postinc0
   395  002A6E  50E5               	movf	postdec1,w,c
   396  002A70  50E1               	movf	fsr1l,w,c
   397  002A72  E1FA               	bnz	copy_data0
   398                           
   399                           ; Clear objects allocated to BANK1 (64 bytes)
   400  002A74  EE01  F000         	lfsr	0,__pbssBANK1
   401  002A78  0E40               	movlw	64
   402  002A7A                     clear_0:
   403  002A7A  6AEE               	clrf	postinc0,c
   404  002A7C  06E8               	decf	wreg,f,c
   405  002A7E  E1FD               	bnz	clear_0
   406                           
   407                           ; Clear objects allocated to BANK0 (134 bytes)
   408  002A80  EE00  F060         	lfsr	0,__pbssBANK0
   409  002A84  0E86               	movlw	134
   410  002A86                     clear_1:
   411  002A86  6AEE               	clrf	postinc0,c
   412  002A88  06E8               	decf	wreg,f,c
   413  002A8A  E1FD               	bnz	clear_1
   414                           
   415                           ; Clear objects allocated to COMRAM (42 bytes)
   416  002A8C  EE00  F001         	lfsr	0,__pbssCOMRAM
   417  002A90  0E2A               	movlw	42
   418  002A92                     clear_2:
   419  002A92  6AEE               	clrf	postinc0,c
   420  002A94  06E8               	decf	wreg,f,c
   421  002A96  E1FD               	bnz	clear_2
   422  002A98                     end_of_initialization:
   423                           	opt callstack 0
   424  002A98                     __end_of__initialization:
   425                           	opt callstack 0
   426  002A98  9054               	bcf	int$flags,0,c	;clear compiler interrupt flag (level 1)
   427  002A9A  9254               	bcf	int$flags,1,c	;clear compiler interrupt flag (level 2)
   428  002A9C  0E00               	movlw	low (__Lmediumconst shr (0+16))
   429  002A9E  6EF8               	movwf	tblptru,c
   430  002AA0  0100               	movlb	0
   431  002AA2  EFC9  F016         	goto	_main	;jump to C main() function
   432                           
   433                           	psect	bssCOMRAM
   434  000001                     __pbssCOMRAM:
   435                           	opt callstack 0
   436  000001                     _outPipes:
   437                           	opt callstack 0
   438  000001                     	ds	8
   439  000009                     _inPipes:
   440                           	opt callstack 0
   441  000009                     	ds	6
   442  00000F                     _pBDTEntryIn:
   443                           	opt callstack 0
   444  00000F                     	ds	6
   445  000015                     _pBDTEntryEP0OutNext:
   446                           	opt callstack 0
   447  000015                     	ds	2
   448  000017                     _pBDTEntryEP0OutCurrent:
   449                           	opt callstack 0
   450  000017                     	ds	2
   451  000019                     APP_LEDUpdateUSBStatus@ledCount:
   452                           	opt callstack 0
   453  000019                     	ds	2
   454  00001B                     _cdc_tx_len:
   455                           	opt callstack 0
   456  00001B                     	ds	1
   457  00001C                     _USBTicksSinceSuspendEnd:
   458                           	opt callstack 0
   459  00001C                     	ds	1
   460  00001D                     _USBDeferOUTDataStagePackets:
   461                           	opt callstack 0
   462  00001D                     	ds	1
   463  00001E                     _USBDeferINDataStagePackets:
   464                           	opt callstack 0
   465  00001E                     	ds	1
   466  00001F                     _USBStatusStageEnabledFlag2:
   467                           	opt callstack 0
   468  00001F                     	ds	1
   469  000020                     _USBStatusStageEnabledFlag1:
   470                           	opt callstack 0
   471  000020                     	ds	1
   472  000021                     _USBDeferStatusStagePacket:
   473                           	opt callstack 0
   474  000021                     	ds	1
   475  000022                     _USBStatusStageTimeoutCounter:
   476                           	opt callstack 0
   477  000022                     	ds	1
   478  000023                     _BothEP0OutUOWNsSet:
   479                           	opt callstack 0
   480  000023                     	ds	1
   481  000024                     _endpoint_number:
   482                           	opt callstack 0
   483  000024                     	ds	1
   484  000025                     _USBBusIsSuspended:
   485                           	opt callstack 0
   486  000025                     	ds	1
   487  000026                     _RemoteWakeup:
   488                           	opt callstack 0
   489  000026                     	ds	1
   490  000027                     _controlTransferState:
   491                           	opt callstack 0
   492  000027                     	ds	1
   493  000028                     _shortPacketStatus:
   494                           	opt callstack 0
   495  000028                     	ds	1
   496  000029                     _USTATcopy:
   497                           	opt callstack 0
   498  000029                     	ds	1
   499  00002A                     _USBActiveConfiguration:
   500                           	opt callstack 0
   501  00002A                     	ds	1
   502                           
   503                           	psect	bssBANK0
   504  000060                     __pbssBANK0:
   505                           	opt callstack 0
   506  000060                     _cdc_notice:
   507                           	opt callstack 0
   508  000060                     	ds	10
   509  00006A                     _pBDTEntryOut:
   510                           	opt callstack 0
   511  00006A                     	ds	6
   512  000070                     _BaudRateGen:
   513                           	opt callstack 0
   514  000070                     	ds	4
   515  000074                     _USB1msTickCount:
   516                           	opt callstack 0
   517  000074                     	ds	4
   518  000078                     _pCDCDst:
   519                           	opt callstack 0
   520  000078                     	ds	3
   521  00007B                     _pCDCSrc:
   522                           	opt callstack 0
   523  00007B                     	ds	3
   524  00007E                     _ep_data_out:
   525                           	opt callstack 0
   526  00007E                     	ds	3
   527  000081                     _ep_data_in:
   528                           	opt callstack 0
   529  000081                     	ds	3
   530  000084                     _CDCDataInHandle:
   531                           	opt callstack 0
   532  000084                     	ds	2
   533  000086                     _CDCDataOutHandle:
   534                           	opt callstack 0
   535  000086                     	ds	2
   536  000088                     _pDst:
   537                           	opt callstack 0
   538  000088                     	ds	2
   539  00008A                     _control_signal_bitmap:
   540                           	opt callstack 0
   541  00008A                     	ds	1
   542  00008B                     _cdc_mem_type:
   543                           	opt callstack 0
   544  00008B                     	ds	1
   545  00008C                     _cdc_rx_len:
   546                           	opt callstack 0
   547  00008C                     	ds	1
   548  00008D                     _buttonPressed:
   549                           	opt callstack 0
   550  00008D                     	ds	1
   551  00008E                     _cdc_trf_state:
   552                           	opt callstack 0
   553  00008E                     	ds	1
   554  00008F                     _USBDeviceState:
   555                           	opt callstack 0
   556  00008F                     	ds	1
   557  000090                     _readBuffer:
   558                           	opt callstack 0
   559  000090                     	ds	64
   560  0000D0                     _dummy_encapsulated_cmd_response:
   561                           	opt callstack 0
   562  0000D0                     	ds	8
   563  0000D8                     _line_coding:
   564                           	opt callstack 0
   565  0000D8                     	ds	7
   566  0000DF                     NumToUART@temp_data:
   567                           	opt callstack 0
   568  0000DF                     	ds	5
   569  0000E4                     _USBAlternateInterface:
   570                           	opt callstack 0
   571  0000E4                     	ds	2
   572                           
   573                           	psect	bssBANK1
   574  000100                     __pbssBANK1:
   575                           	opt callstack 0
   576  000100                     _writeBuffer:
   577                           	opt callstack 0
   578  000100                     	ds	64
   579                           
   580                           	psect	dataBANK1
   581  000140                     __pdataBANK1:
   582                           	opt callstack 0
   583  000140                     _buttonMessage:
   584                           	opt callstack 0
   585  000140                     	ds	52
   586                           
   587                           	psect	cstackBANK1
   588  000174                     __pcstackBANK1:
   589                           	opt callstack 0
   590  000174                     APP_DeviceCDCBasicDemoTasks@data_int:
   591                           	opt callstack 0
   592                           
   593                           ; 2 bytes @ 0x0
   594  000174                     	ds	2
   595  000176                     APP_DeviceCDCBasicDemoTasks@num_flag:
   596                           	opt callstack 0
   597                           
   598                           ; 1 bytes @ 0x2
   599  000176                     	ds	1
   600  000177                     APP_DeviceCDCBasicDemoTasks@numBytesRead:
   601                           	opt callstack 0
   602                           
   603                           ; 1 bytes @ 0x3
   604  000177                     	ds	1
   605  000178                     APP_DeviceCDCBasicDemoTasks@i:
   606                           	opt callstack 0
   607                           
   608                           ; 1 bytes @ 0x4
   609  000178                     	ds	1
   610                           
   611                           	psect	cstackBANK0
   612  0000E6                     __pcstackBANK0:
   613                           	opt callstack 0
   614  0000E6                     ??_BUTTON_IsPressed:
   615  0000E6                     ??_BUTTON_Enable:
   616  0000E6                     ??_LED_Enable:
   617  0000E6                     ?_USBTransferOnePacket:
   618                           	opt callstack 0
   619  0000E6                     ?___lwdiv:
   620                           	opt callstack 0
   621  0000E6                     USBTransferOnePacket@dir:
   622                           	opt callstack 0
   623  0000E6                     putUSBUSART@data:
   624                           	opt callstack 0
   625  0000E6                     putrsUSBUSART@data:
   626                           	opt callstack 0
   627  0000E6                     ___lwdiv@dividend:
   628                           	opt callstack 0
   629  0000E6                     memset@dest:
   630                           	opt callstack 0
   631                           
   632                           ; 2 bytes @ 0x0
   633  0000E6                     	ds	1
   634  0000E7                     USBTransferOnePacket@data:
   635                           	opt callstack 0
   636                           
   637                           ; 2 bytes @ 0x1
   638  0000E7                     	ds	1
   639  0000E8                     BUTTON_IsPressed@button:
   640                           	opt callstack 0
   641  0000E8                     BUTTON_Enable@button:
   642                           	opt callstack 0
   643  0000E8                     LED_Enable@led:
   644                           	opt callstack 0
   645  0000E8                     putUSBUSART@length:
   646                           	opt callstack 0
   647  0000E8                     putrsUSBUSART@pData:
   648                           	opt callstack 0
   649  0000E8                     ___lwdiv@divisor:
   650                           	opt callstack 0
   651  0000E8                     memset@c:
   652                           	opt callstack 0
   653                           
   654                           ; 2 bytes @ 0x2
   655  0000E8                     	ds	1
   656  0000E9                     ??_SYSTEM_Initialize:
   657  0000E9                     USBTransferOnePacket@len:
   658                           	opt callstack 0
   659                           
   660                           ; 1 bytes @ 0x3
   661  0000E9                     	ds	1
   662  0000EA                     ??_USBTransferOnePacket:
   663  0000EA                     putrsUSBUSART@len:
   664                           	opt callstack 0
   665  0000EA                     ___lwdiv@counter:
   666                           	opt callstack 0
   667  0000EA                     memset@n:
   668                           	opt callstack 0
   669                           
   670                           ; 2 bytes @ 0x4
   671  0000EA                     	ds	1
   672  0000EB                     SYSTEM_Initialize@state:
   673                           	opt callstack 0
   674  0000EB                     ___lwdiv@quotient:
   675                           	opt callstack 0
   676                           
   677                           ; 2 bytes @ 0x5
   678  0000EB                     	ds	1
   679  0000EC                     ??_memset:
   680                           
   681                           ; 1 bytes @ 0x6
   682  0000EC                     	ds	1
   683  0000ED                     NumToUART@number:
   684                           	opt callstack 0
   685                           
   686                           ; 2 bytes @ 0x7
   687  0000ED                     	ds	1
   688  0000EE                     USBTransferOnePacket@ep:
   689                           	opt callstack 0
   690  0000EE                     memset@k:
   691                           	opt callstack 0
   692                           
   693                           ; 2 bytes @ 0x8
   694  0000EE                     	ds	1
   695  0000EF                     ??_NumToUART:
   696  0000EF                     USBTransferOnePacket@handle:
   697                           	opt callstack 0
   698                           
   699                           ; 2 bytes @ 0x9
   700  0000EF                     	ds	1
   701  0000F0                     memset@s:
   702                           	opt callstack 0
   703                           
   704                           ; 2 bytes @ 0xA
   705  0000F0                     	ds	1
   706  0000F1                     CDCTxService@i:
   707                           	opt callstack 0
   708  0000F1                     getsUSBUSART@buffer:
   709                           	opt callstack 0
   710                           
   711                           ; 2 bytes @ 0xB
   712  0000F1                     	ds	1
   713  0000F2                     USBDeviceInit@i:
   714                           	opt callstack 0
   715  0000F2                     CDCTxService@byte_to_send:
   716                           	opt callstack 0
   717                           
   718                           ; 1 bytes @ 0xC
   719  0000F2                     	ds	1
   720  0000F3                     getsUSBUSART@len:
   721                           	opt callstack 0
   722                           
   723                           ; 1 bytes @ 0xD
   724  0000F3                     	ds	1
   725  0000F4                     
   726                           ; 1 bytes @ 0xE
   727  0000F4                     	ds	1
   728  0000F5                     _NumToUART$3538:
   729                           	opt callstack 0
   730                           
   731                           ; 2 bytes @ 0xF
   732  0000F5                     	ds	2
   733  0000F7                     NumToUART@i_2814:
   734                           	opt callstack 0
   735                           
   736                           ; 1 bytes @ 0x11
   737  0000F7                     	ds	1
   738  0000F8                     NumToUART@i:
   739                           	opt callstack 0
   740                           
   741                           ; 1 bytes @ 0x12
   742  0000F8                     	ds	1
   743  0000F9                     NumToUART@bignum:
   744                           	opt callstack 0
   745                           
   746                           ; 2 bytes @ 0x13
   747  0000F9                     	ds	2
   748  0000FB                     NumToUART@numtemp:
   749                           	opt callstack 0
   750                           
   751                           ; 1 bytes @ 0x15
   752  0000FB                     	ds	1
   753  0000FC                     ??_APP_DeviceCDCBasicDemoTasks:
   754                           
   755                           ; 1 bytes @ 0x16
   756  0000FC                     	ds	2
   757  0000FE                     
   758                           ; 1 bytes @ 0x18
   759                           
   760                           	psect	cstackCOMRAM
   761  00002B                     __pcstackCOMRAM:
   762                           	opt callstack 0
   763  00002B                     ??_LED_Off:
   764  00002B                     ??_LED_On:
   765  00002B                     ??_USBStdGetDscHandler:
   766  00002B                     ??_USBStdGetStatusHandler:
   767  00002B                     ??_USBCheckCDCRequest:
   768  00002B                     ??i2_BUTTON_Enable:
   769  00002B                     ??i2_LED_Enable:
   770  00002B                     ?i2_USBTransferOnePacket:
   771                           	opt callstack 0
   772  00002B                     USBConfigureEndpoint@direction:
   773                           	opt callstack 0
   774  00002B                     USBCtrlTrfTxService@byteToSend:
   775                           	opt callstack 0
   776  00002B                     USBCtrlTrfRxService@i:
   777                           	opt callstack 0
   778  00002B                     i2USBTransferOnePacket@dir:
   779                           	opt callstack 0
   780  00002B                     memcpy@d1:
   781                           	opt callstack 0
   782  00002B                     i2memset@dest:
   783                           	opt callstack 0
   784                           
   785                           ; 2 bytes @ 0x0
   786  00002B                     	ds	1
   787  00002C                     ??_USBConfigureEndpoint:
   788  00002C                     USBCtrlTrfRxService@byteToRead:
   789                           	opt callstack 0
   790  00002C                     USBCtrlTrfInHandler@lastDTS:
   791                           	opt callstack 0
   792  00002C                     i2USBTransferOnePacket@data:
   793                           	opt callstack 0
   794                           
   795                           ; 2 bytes @ 0x1
   796  00002C                     	ds	1
   797  00002D                     LED_On@led:
   798                           	opt callstack 0
   799  00002D                     LED_Off@led:
   800                           	opt callstack 0
   801  00002D                     i2BUTTON_Enable@button:
   802                           	opt callstack 0
   803  00002D                     i2LED_Enable@led:
   804                           	opt callstack 0
   805  00002D                     USBStdGetStatusHandler@p:
   806                           	opt callstack 0
   807  00002D                     memcpy@s1:
   808                           	opt callstack 0
   809  00002D                     i2memset@c:
   810                           	opt callstack 0
   811                           
   812                           ; 2 bytes @ 0x2
   813  00002D                     	ds	1
   814  00002E                     ??_APP_LEDUpdateUSBStatus:
   815  00002E                     ??i2_SYSTEM_Initialize:
   816  00002E                     i2USBTransferOnePacket@len:
   817                           	opt callstack 0
   818                           
   819                           ; 1 bytes @ 0x3
   820  00002E                     	ds	1
   821  00002F                     ??i2_USBTransferOnePacket:
   822  00002F                     memcpy@n:
   823                           	opt callstack 0
   824  00002F                     i2memset@n:
   825                           	opt callstack 0
   826                           
   827                           ; 2 bytes @ 0x4
   828  00002F                     	ds	1
   829  000030                     USBConfigureEndpoint@EPNum:
   830                           	opt callstack 0
   831  000030                     i2SYSTEM_Initialize@state:
   832                           	opt callstack 0
   833                           
   834                           ; 1 bytes @ 0x5
   835  000030                     	ds	1
   836  000031                     ??i2_memset:
   837  000031                     USBConfigureEndpoint@handle:
   838                           	opt callstack 0
   839  000031                     memcpy@d:
   840                           	opt callstack 0
   841                           
   842                           ; 2 bytes @ 0x6
   843  000031                     	ds	2
   844  000033                     USBEnableEndpoint@options:
   845                           	opt callstack 0
   846  000033                     i2USBTransferOnePacket@ep:
   847                           	opt callstack 0
   848  000033                     memcpy@s:
   849                           	opt callstack 0
   850  000033                     i2memset@k:
   851                           	opt callstack 0
   852                           
   853                           ; 2 bytes @ 0x8
   854  000033                     	ds	1
   855  000034                     USBEnableEndpoint@p:
   856                           	opt callstack 0
   857  000034                     i2USBTransferOnePacket@handle:
   858                           	opt callstack 0
   859                           
   860                           ; 2 bytes @ 0x9
   861  000034                     	ds	1
   862  000035                     memcpy@tmp:
   863                           	opt callstack 0
   864  000035                     i2memset@s:
   865                           	opt callstack 0
   866                           
   867                           ; 2 bytes @ 0xA
   868  000035                     	ds	1
   869  000036                     USBEnableEndpoint@ep:
   870                           	opt callstack 0
   871                           
   872                           ; 1 bytes @ 0xB
   873  000036                     	ds	1
   874  000037                     i2USBDeviceInit@i:
   875                           	opt callstack 0
   876  000037                     USER_USB_CALLBACK_EVENT_HANDLER@event:
   877                           	opt callstack 0
   878                           
   879                           ; 2 bytes @ 0xC
   880  000037                     	ds	2
   881  000039                     USER_USB_CALLBACK_EVENT_HANDLER@pdata:
   882                           	opt callstack 0
   883                           
   884                           ; 2 bytes @ 0xE
   885  000039                     	ds	2
   886  00003B                     USER_USB_CALLBACK_EVENT_HANDLER@size:
   887                           	opt callstack 0
   888                           
   889                           ; 2 bytes @ 0x10
   890  00003B                     	ds	2
   891  00003D                     ??_USER_USB_CALLBACK_EVENT_HANDLER:
   892                           
   893                           ; 1 bytes @ 0x12
   894  00003D                     	ds	2
   895  00003F                     ??_USBStdFeatureReqHandler:
   896  00003F                     USBStdSetCfgHandler@i:
   897                           	opt callstack 0
   898                           
   899                           ; 1 bytes @ 0x14
   900  00003F                     	ds	2
   901  000041                     USBStdFeatureReqHandler@pUEP:
   902                           	opt callstack 0
   903                           
   904                           ; 2 bytes @ 0x16
   905  000041                     	ds	2
   906  000043                     USBStdFeatureReqHandler@current_ep_data:
   907                           	opt callstack 0
   908                           
   909                           ; 1 bytes @ 0x18
   910  000043                     	ds	1
   911  000044                     USBStdFeatureReqHandler@p:
   912                           	opt callstack 0
   913                           
   914                           ; 2 bytes @ 0x19
   915  000044                     	ds	2
   916  000046                     ??_USBCheckStdRequest:
   917                           
   918                           ; 1 bytes @ 0x1B
   919  000046                     	ds	2
   920  000048                     ??_USBCtrlEPService:
   921  000048                     
   922                           ; 1 bytes @ 0x1D
   923  000048                     	ds	1
   924  000049                     USBDeviceTasks@i:
   925                           	opt callstack 0
   926                           
   927                           ; 1 bytes @ 0x1E
   928  000049                     	ds	1
   929  00004A                     ??_SYS_InterruptHigh:
   930                           
   931                           ; 1 bytes @ 0x1F
   932  00004A                     	ds	10
   933                           
   934 ;;
   935 ;;Main: autosize = 0, tempsize = 0, incstack = 0, save=0
   936 ;;
   937 ;; *************** function _main *****************
   938 ;; Defined at:
   939 ;;		line 45 in file "main.c"
   940 ;; Parameters:    Size  Location     Type
   941 ;;		None
   942 ;; Auto vars:     Size  Location     Type
   943 ;;		None
   944 ;; Return value:  Size  Location     Type
   945 ;;                  1    wreg      void 
   946 ;; Registers used:
   947 ;;		wreg, fsr1l, fsr1h, fsr2l, fsr2h, status,2, status,0, prodl, prodh, cstack
   948 ;; Tracked objects:
   949 ;;		On entry : 0/0
   950 ;;		On exit  : 0/0
   951 ;;		Unchanged: 0/0
   952 ;; Data sizes:     COMRAM   BANK0   BANK1   BANK2
   953 ;;      Params:         0       0       0       0
   954 ;;      Locals:         0       0       0       0
   955 ;;      Temps:          0       0       0       0
   956 ;;      Totals:         0       0       0       0
   957 ;;Total ram usage:        0 bytes
   958 ;; Hardware stack levels required when called:   13
   959 ;; This function calls:
   960 ;;		_APP_DeviceCDCBasicDemoTasks
   961 ;;		_SYSTEM_Initialize
   962 ;;		_USBDeviceAttach
   963 ;;		_USBDeviceInit
   964 ;; This function is called by:
   965 ;;		Startup code after reset
   966 ;; This function uses a non-reentrant model
   967 ;;
   968                           
   969                           	psect	text0
   970  002D92                     __ptext0:
   971                           	opt callstack 0
   972  002D92                     _main:
   973                           	opt callstack 18
   974  002D92                     
   975                           ;main.c: 47:     SYSTEM_Initialize(SYSTEM_STATE_USB_START);
   976  002D92  0E00               	movlw	0
   977  002D94  ECA4  F015         	call	_SYSTEM_Initialize
   978  002D98                     
   979                           ;main.c: 49:     TRISB4 = 1;
   980  002D98  8893               	bsf	3987,4,c	;volatile
   981  002D9A                     
   982                           ;main.c: 50:     ANSEL = 0;
   983  002D9A  0E00               	movlw	0
   984  002D9C  6E7E               	movwf	126,c	;volatile
   985  002D9E                     
   986                           ;main.c: 51:     ANSELH = 4;
   987  002D9E  0E04               	movlw	4
   988  002DA0  6E7F               	movwf	127,c	;volatile
   989  002DA2                     
   990                           ;main.c: 52:     ADCON0 = 0b00101000;
   991  002DA2  0E28               	movlw	40
   992  002DA4  6EC2               	movwf	194,c	;volatile
   993  002DA6                     
   994                           ;main.c: 53:     ADCON2 = 0b10000100;
   995  002DA6  0E84               	movlw	132
   996  002DA8  6EC0               	movwf	192,c	;volatile
   997  002DAA                     
   998                           ;main.c: 54:     ADON = 1;
   999  002DAA  80C2               	bsf	4034,0,c	;volatile
  1000  002DAC                     
  1001                           ;main.c: 56:     USBDeviceInit();
  1002  002DAC  EC6C  F009         	call	_USBDeviceInit	;wreg free
  1003  002DB0                     
  1004                           ;main.c: 57:     USBDeviceAttach();
  1005  002DB0  ECCB  F015         	call	_USBDeviceAttach	;wreg free
  1006  002DB4                     l5927:
  1007                           
  1008                           ;main.c: 60:     {;main.c: 80:         APP_DeviceCDCBasicDemoTasks();
  1009  002DB4  ECA2  F004         	call	_APP_DeviceCDCBasicDemoTasks	;wreg free
  1010  002DB8  EFDA  F016         	goto	l5927
  1011  002DBC  EF38  F000         	goto	start
  1012  002DC0                     __end_of_main:
  1013                           	opt callstack 0
  1014                           
  1015 ;; *************** function _USBDeviceInit *****************
  1016 ;; Defined at:
  1017 ;;		line 281 in file "usb_device.c"
  1018 ;; Parameters:    Size  Location     Type
  1019 ;;		None
  1020 ;; Auto vars:     Size  Location     Type
  1021 ;;  i               1   12[BANK0 ] unsigned char 
  1022 ;; Return value:  Size  Location     Type
  1023 ;;                  1    wreg      void 
  1024 ;; Registers used:
  1025 ;;		wreg, fsr2l, fsr2h, status,2, status,0, prodl, prodh, cstack
  1026 ;; Tracked objects:
  1027 ;;		On entry : 0/0
  1028 ;;		On exit  : 0/0
  1029 ;;		Unchanged: 0/0
  1030 ;; Data sizes:     COMRAM   BANK0   BANK1   BANK2
  1031 ;;      Params:         0       0       0       0
  1032 ;;      Locals:         0       1       0       0
  1033 ;;      Temps:          0       0       0       0
  1034 ;;      Totals:         0       1       0       0
  1035 ;;Total ram usage:        1 bytes
  1036 ;; Hardware stack levels used:    1
  1037 ;; Hardware stack levels required when called:   11
  1038 ;; This function calls:
  1039 ;;		_memset
  1040 ;; This function is called by:
  1041 ;;		_main
  1042 ;; This function uses a non-reentrant model
  1043 ;;
  1044                           
  1045                           	psect	text1
  1046  0012D8                     __ptext1:
  1047                           	opt callstack 0
  1048  0012D8                     _USBDeviceInit:
  1049                           	opt callstack 19
  1050  0012D8                     
  1051                           ;usb_device.c: 283:     uint8_t i;;usb_device.c: 285:     {PIE2bits.USBIE = 0;};
  1052  0012D8  94A0               	bcf	160,2,c	;volatile
  1053  0012DA                     
  1054                           ;usb_device.c: 292:     {UEIR = 0;};
  1055  0012DA  0E00               	movlw	0
  1056  0012DC  010F               	movlb	15	; () banked
  1057  0012DE  6F5F               	movwf	95,b	;volatile
  1058                           
  1059                           ;usb_device.c: 295:     {UIR = 0;};
  1060  0012E0  0E00               	movlw	0
  1061  0012E2  6E62               	movwf	98,c	;volatile
  1062                           
  1063                           ;usb_device.c: 298:     UEP0 = 0;
  1064  0012E4  0E00               	movlw	0
  1065  0012E6  6F53               	movwf	83,b	;volatile
  1066  0012E8                     
  1067                           ; BSR set to: 15
  1068                           ;usb_device.c: 300:     memset((void*)&UEP1,0x00,(2));;
  1069  0012E8  0E54               	movlw	84
  1070  0012EA  0100               	movlb	0	; () banked
  1071  0012EC  6FE6               	movwf	memset@dest& (0+255),b
  1072  0012EE  0E0F               	movlw	15
  1073  0012F0  6FE7               	movwf	(memset@dest+1)& (0+255),b
  1074  0012F2  0E00               	movlw	0
  1075  0012F4  6FE9               	movwf	(memset@c+1)& (0+255),b
  1076  0012F6  0E00               	movlw	0
  1077  0012F8  6FE8               	movwf	memset@c& (0+255),b
  1078  0012FA  0E00               	movlw	0
  1079  0012FC  6FEB               	movwf	(memset@n+1)& (0+255),b
  1080  0012FE  0E02               	movlw	2
  1081  001300  6FEA               	movwf	memset@n& (0+255),b
  1082  001302  EC45  F007         	call	_memset	;wreg free
  1083  001306                     
  1084                           ;usb_device.c: 302:     { UCFG = 0x10 | 0x00 | 0x04 | 0x02; UEIE = 0x9F; UIE = 0x39 | 0x
      +                          40 | 0x02; };
  1085  001306  0E16               	movlw	22
  1086  001308  6E61               	movwf	97,c	;volatile
  1087  00130A  0E9F               	movlw	159
  1088  00130C  010F               	movlb	15	; () banked
  1089  00130E  6F5B               	movwf	91,b	;volatile
  1090  001310                     
  1091                           ; BSR set to: 15
  1092  001310  0E7B               	movlw	123
  1093  001312  6E60               	movwf	96,c	;volatile
  1094  001314                     
  1095                           ; BSR set to: 15
  1096                           ;usb_device.c: 311:     for(i = 0; i < (sizeof(BDT)/sizeof(BDT_ENTRY)); i++)
  1097  001314  0E00               	movlw	0
  1098  001316  0100               	movlb	0	; () banked
  1099  001318  6FF2               	movwf	USBDeviceInit@i& (0+255),b
  1100  00131A                     l5837:
  1101                           
  1102                           ; BSR set to: 0
  1103                           ;usb_device.c: 312:     {;usb_device.c: 313:         BDT[i].Val = 0x00;
  1104  00131A  51F2               	movf	USBDeviceInit@i& (0+255),w,b
  1105  00131C  0D04               	mullw	4
  1106  00131E  0E00               	movlw	0
  1107  001320  24F3               	addwf	243,w,c
  1108  001322  6ED9               	movwf	fsr2l,c
  1109  001324  0E02               	movlw	2
  1110  001326  20F4               	addwfc	prodh,w,c
  1111  001328  6EDA               	movwf	fsr2h,c
  1112  00132A  6ADE               	clrf	postinc2,c
  1113  00132C  6ADE               	clrf	postinc2,c
  1114  00132E  6ADE               	clrf	postinc2,c
  1115  001330  6ADD               	clrf	postdec2,c
  1116  001332                     
  1117                           ; BSR set to: 0
  1118                           ;usb_device.c: 314:     }
  1119  001332  2BF2               	incf	USBDeviceInit@i& (0+255),f,b
  1120  001334                     
  1121                           ; BSR set to: 0
  1122  001334  0E0B               	movlw	11
  1123  001336  65F2               	cpfsgt	USBDeviceInit@i& (0+255),b
  1124  001338  EFA0  F009         	goto	u4271
  1125  00133C  EFA2  F009         	goto	u4270
  1126  001340                     u4271:
  1127  001340  EF8D  F009         	goto	l5837
  1128  001344                     u4270:
  1129  001344                     
  1130                           ; BSR set to: 0
  1131                           ;usb_device.c: 317:     UCONbits.PPBRST = 1;
  1132  001344  8C64               	bsf	100,6,c	;volatile
  1133  001346                     
  1134                           ; BSR set to: 0
  1135                           ;usb_device.c: 320:     UADDR = 0x00;
  1136  001346  0E00               	movlw	0
  1137  001348  010F               	movlb	15	; () banked
  1138  00134A  6F5C               	movwf	92,b	;volatile
  1139  00134C                     
  1140                           ; BSR set to: 15
  1141                           ;usb_device.c: 323:     UCONbits.PKTDIS = 0;
  1142  00134C  9864               	bcf	100,4,c	;volatile
  1143  00134E                     
  1144                           ; BSR set to: 15
  1145                           ;usb_device.c: 326:     UCONbits.PPBRST = 0;
  1146  00134E  9C64               	bcf	100,6,c	;volatile
  1147  001350                     l5849:
  1148                           
  1149                           ;usb_device.c: 330:     {;usb_device.c: 331:         (UIR &= 0xF7);
  1150  001350  9662               	bcf	98,3,c	;volatile
  1151  001352                     
  1152                           ;usb_device.c: 333:         inPipes[0].info.Val = 0;
  1153  001352  0E00               	movlw	0
  1154  001354  6E0C               	movwf	(_inPipes+3)^0,c	;volatile
  1155  001356                     
  1156                           ;usb_device.c: 334:         outPipes[0].info.Val = 0;
  1157  001356  0E00               	movlw	0
  1158  001358  6E04               	movwf	(_outPipes+3)^0,c	;volatile
  1159  00135A                     
  1160                           ;usb_device.c: 335:         outPipes[0].wCount.Val = 0;
  1161  00135A  0E00               	movlw	0
  1162  00135C  6E06               	movwf	(_outPipes+5)^0,c	;volatile
  1163  00135E  0E00               	movlw	0
  1164  001360  6E05               	movwf	(_outPipes+4)^0,c	;volatile
  1165  001362                     
  1166                           ;usb_device.c: 336:     }while(UIRbits.TRNIF == 1);
  1167  001362  B662               	btfsc	98,3,c	;volatile
  1168  001364  EFB6  F009         	goto	u4281
  1169  001368  EFB8  F009         	goto	u4280
  1170  00136C                     u4281:
  1171  00136C  EFA8  F009         	goto	l5849
  1172  001370                     u4280:
  1173  001370                     
  1174                           ;usb_device.c: 340:     USBStatusStageEnabledFlag1 = 1;
  1175  001370  0E01               	movlw	1
  1176  001372  6E20               	movwf	_USBStatusStageEnabledFlag1^0,c	;volatile
  1177                           
  1178                           ;usb_device.c: 341:     USBStatusStageEnabledFlag2 = 1;
  1179  001374  0E01               	movlw	1
  1180  001376  6E1F               	movwf	_USBStatusStageEnabledFlag2^0,c	;volatile
  1181                           
  1182                           ;usb_device.c: 343:     USBDeferINDataStagePackets = 0;
  1183  001378  0E00               	movlw	0
  1184  00137A  6E1E               	movwf	_USBDeferINDataStagePackets^0,c	;volatile
  1185                           
  1186                           ;usb_device.c: 344:     USBDeferOUTDataStagePackets = 0;
  1187  00137C  0E00               	movlw	0
  1188  00137E  6E1D               	movwf	_USBDeferOUTDataStagePackets^0,c	;volatile
  1189                           
  1190                           ;usb_device.c: 345:     USBBusIsSuspended = 0;
  1191  001380  0E00               	movlw	0
  1192  001382  6E25               	movwf	_USBBusIsSuspended^0,c	;volatile
  1193                           
  1194                           ;usb_device.c: 349:     for(i = 0; i < (uint8_t)(2 +1u); i++)
  1195  001384  0E00               	movlw	0
  1196  001386  0100               	movlb	0	; () banked
  1197  001388  6FF2               	movwf	USBDeviceInit@i& (0+255),b
  1198  00138A                     l5865:
  1199                           
  1200                           ; BSR set to: 0
  1201                           ;usb_device.c: 350:     {;usb_device.c: 351:         pBDTEntryIn[i] = 0u;
  1202  00138A  51F2               	movf	USBDeviceInit@i& (0+255),w,b
  1203  00138C  0D02               	mullw	2
  1204  00138E  0E0F               	movlw	low _pBDTEntryIn
  1205  001390  24F3               	addwf	243,w,c
  1206  001392  6ED9               	movwf	fsr2l,c
  1207  001394  0E00               	movlw	high _pBDTEntryIn
  1208  001396  20F4               	addwfc	prodh,w,c
  1209  001398  6EDA               	movwf	fsr2h,c
  1210  00139A  0E00               	movlw	0
  1211  00139C  6EDE               	movwf	postinc2,c
  1212  00139E  0E00               	movlw	0
  1213  0013A0  6EDD               	movwf	postdec2,c
  1214                           
  1215                           ;usb_device.c: 352:         pBDTEntryOut[i] = 0u;
  1216  0013A2  51F2               	movf	USBDeviceInit@i& (0+255),w,b
  1217  0013A4  0D02               	mullw	2
  1218  0013A6  0E6A               	movlw	low _pBDTEntryOut
  1219  0013A8  24F3               	addwf	243,w,c
  1220  0013AA  6ED9               	movwf	fsr2l,c
  1221  0013AC  0E00               	movlw	high _pBDTEntryOut
  1222  0013AE  20F4               	addwfc	prodh,w,c
  1223  0013B0  6EDA               	movwf	fsr2h,c
  1224  0013B2  0E00               	movlw	0
  1225  0013B4  6EDE               	movwf	postinc2,c
  1226  0013B6  0E00               	movlw	0
  1227  0013B8  6EDD               	movwf	postdec2,c
  1228  0013BA                     
  1229                           ; BSR set to: 0
  1230                           ;usb_device.c: 353:         ep_data_in[i].Val = 0u;
  1231  0013BA  0E81               	movlw	low _ep_data_in
  1232  0013BC  25F2               	addwf	USBDeviceInit@i& (0+255),w,b
  1233  0013BE  6ED9               	movwf	fsr2l,c
  1234  0013C0  6ADA               	clrf	fsr2h,c
  1235  0013C2  0E00               	movlw	high _ep_data_in
  1236  0013C4  22DA               	addwfc	fsr2h,f,c
  1237  0013C6  0E00               	movlw	0
  1238  0013C8  6EDF               	movwf	indf2,c
  1239  0013CA                     
  1240                           ; BSR set to: 0
  1241                           ;usb_device.c: 354:         ep_data_out[i].Val = 0u;
  1242  0013CA  0E7E               	movlw	low _ep_data_out
  1243  0013CC  25F2               	addwf	USBDeviceInit@i& (0+255),w,b
  1244  0013CE  6ED9               	movwf	fsr2l,c
  1245  0013D0  6ADA               	clrf	fsr2h,c
  1246  0013D2  0E00               	movlw	high _ep_data_out
  1247  0013D4  22DA               	addwfc	fsr2h,f,c
  1248  0013D6  0E00               	movlw	0
  1249  0013D8  6EDF               	movwf	indf2,c
  1250  0013DA                     
  1251                           ; BSR set to: 0
  1252                           ;usb_device.c: 355:     }
  1253  0013DA  2BF2               	incf	USBDeviceInit@i& (0+255),f,b
  1254  0013DC                     
  1255                           ; BSR set to: 0
  1256  0013DC  0E02               	movlw	2
  1257  0013DE  65F2               	cpfsgt	USBDeviceInit@i& (0+255),b
  1258  0013E0  EFF4  F009         	goto	u4291
  1259  0013E4  EFF6  F009         	goto	u4290
  1260  0013E8                     u4291:
  1261  0013E8  EFC5  F009         	goto	l5865
  1262  0013EC                     u4290:
  1263  0013EC                     
  1264                           ; BSR set to: 0
  1265                           ;usb_device.c: 358:     pBDTEntryIn[0] = (volatile BDT_ENTRY*)&BDT[2];
  1266  0013EC  0E08               	movlw	8
  1267  0013EE  6E0F               	movwf	_pBDTEntryIn^0,c
  1268  0013F0  0E02               	movlw	2
  1269  0013F2  6E10               	movwf	(_pBDTEntryIn+1)^0,c
  1270  0013F4                     
  1271                           ; BSR set to: 0
  1272                           ;usb_device.c: 360:     UEP0 = 0x06|0x10;
  1273  0013F4  0E16               	movlw	22
  1274  0013F6  010F               	movlb	15	; () banked
  1275  0013F8  6F53               	movwf	83,b	;volatile
  1276  0013FA                     
  1277                           ; BSR set to: 15
  1278                           ;usb_device.c: 362:     BDT[0].ADR = ((uint16_t)(&SetupPkt));
  1279  0013FA  0E02               	movlw	2
  1280  0013FC  0102               	movlb	2	; () banked
  1281  0013FE  6F03               	movwf	3,b	;volatile
  1282  001400  0E30               	movlw	48
  1283  001402  6F02               	movwf	2,b	;volatile
  1284  001404                     
  1285                           ; BSR set to: 2
  1286                           ;usb_device.c: 363:     BDT[0].CNT = 8;
  1287  001404  0E08               	movlw	8
  1288  001406  6F01               	movwf	1,b	;volatile
  1289  001408                     
  1290                           ; BSR set to: 2
  1291                           ;usb_device.c: 364:     BDT[0].STAT.Val = 0x00|0x04;
  1292  001408  0E04               	movlw	4
  1293  00140A  6F00               	movwf	0,b	;volatile
  1294  00140C                     
  1295                           ; BSR set to: 2
  1296                           ;usb_device.c: 365:     BDT[0].STAT.Val |= 0x80;
  1297  00140C  8F00               	bsf	0,7,b	;volatile
  1298  00140E                     
  1299                           ; BSR set to: 2
  1300                           ;usb_device.c: 368:     USBActiveConfiguration = 0;
  1301  00140E  0E00               	movlw	0
  1302  001410  6E2A               	movwf	_USBActiveConfiguration^0,c	;volatile
  1303  001412                     
  1304                           ; BSR set to: 2
  1305                           ;usb_device.c: 370:     USB1msTickCount = 0;
  1306  001412  0E00               	movlw	0
  1307  001414  0100               	movlb	0	; () banked
  1308  001416  6F74               	movwf	_USB1msTickCount& (0+255),b	;volatile
  1309  001418  0E00               	movlw	0
  1310  00141A  6F75               	movwf	(_USB1msTickCount+1)& (0+255),b	;volatile
  1311  00141C  0E00               	movlw	0
  1312  00141E  6F76               	movwf	(_USB1msTickCount+2)& (0+255),b	;volatile
  1313  001420  0E00               	movlw	0
  1314  001422  6F77               	movwf	(_USB1msTickCount+3)& (0+255),b	;volatile
  1315  001424                     
  1316                           ; BSR set to: 0
  1317                           ;usb_device.c: 371:     USBTicksSinceSuspendEnd = 0;
  1318  001424  0E00               	movlw	0
  1319  001426  6E1C               	movwf	_USBTicksSinceSuspendEnd^0,c	;volatile
  1320  001428                     
  1321                           ; BSR set to: 0
  1322                           ;usb_device.c: 374:     USBDeviceState = DETACHED_STATE;
  1323  001428  0E00               	movlw	0
  1324  00142A  6F8F               	movwf	_USBDeviceState& (0+255),b	;volatile
  1325  00142C                     
  1326                           ; BSR set to: 0
  1327  00142C  0012               	return		;funcret
  1328  00142E                     __end_of_USBDeviceInit:
  1329                           	opt callstack 0
  1330                           
  1331 ;; *************** function _memset *****************
  1332 ;; Defined at:
  1333 ;;		line 4 in file "C:\Program Files (x86)\Microchip\xc8\v2.10\pic\sources\c99\common\memset.c"
  1334 ;; Parameters:    Size  Location     Type
  1335 ;;  dest            2    0[BANK0 ] PTR void 
  1336 ;;		 -> USBAlternateInterface(2), BDT(48), UEP1(1), 
  1337 ;;  c               2    2[BANK0 ] int 
  1338 ;;  n               2    4[BANK0 ] unsigned int 
  1339 ;; Auto vars:     Size  Location     Type
  1340 ;;  s               2   10[BANK0 ] PTR unsigned char 
  1341 ;;		 -> USBAlternateInterface(2), BDT(48), UEP1(1), 
  1342 ;;  k               2    8[BANK0 ] unsigned int 
  1343 ;; Return value:  Size  Location     Type
  1344 ;;                  2    0[BANK0 ] PTR void 
  1345 ;; Registers used:
  1346 ;;		wreg, fsr2l, fsr2h, status,2, status,0
  1347 ;; Tracked objects:
  1348 ;;		On entry : 0/0
  1349 ;;		On exit  : 0/0
  1350 ;;		Unchanged: 0/0
  1351 ;; Data sizes:     COMRAM   BANK0   BANK1   BANK2
  1352 ;;      Params:         0       6       0       0
  1353 ;;      Locals:         0       4       0       0
  1354 ;;      Temps:          0       2       0       0
  1355 ;;      Totals:         0      12       0       0
  1356 ;;Total ram usage:       12 bytes
  1357 ;; Hardware stack levels used:    1
  1358 ;; Hardware stack levels required when called:   10
  1359 ;; This function calls:
  1360 ;;		Nothing
  1361 ;; This function is called by:
  1362 ;;		_USBDeviceInit
  1363 ;; This function uses a non-reentrant model
  1364 ;;
  1365                           
  1366                           	psect	text2
  1367  000E8A                     __ptext2:
  1368                           	opt callstack 0
  1369  000E8A                     _memset:
  1370                           	opt callstack 19
  1371  000E8A  C0E6  F0F0         	movff	memset@dest,memset@s
  1372  000E8E  C0E7  F0F1         	movff	memset@dest+1,memset@s+1
  1373  000E92  0100               	movlb	0	; () banked
  1374  000E94  51EA               	movf	memset@n& (0+255),w,b
  1375  000E96  11EB               	iorwf	(memset@n+1)& (0+255),w,b
  1376  000E98  A4D8               	btfss	status,2,c
  1377  000E9A  EF51  F007         	goto	u4111
  1378  000E9E  EF53  F007         	goto	u4110
  1379  000EA2                     u4111:
  1380  000EA2  EF55  F007         	goto	l5719
  1381  000EA6                     u4110:
  1382  000EA6  EF00  F008         	goto	l1473
  1383  000EAA                     l5719:
  1384                           
  1385                           ; BSR set to: 0
  1386  000EAA  C0F0  FFD9         	movff	memset@s,fsr2l
  1387  000EAE  C0F1  FFDA         	movff	memset@s+1,fsr2h
  1388  000EB2  C0E8  FFDF         	movff	memset@c,indf2
  1389  000EB6                     
  1390                           ; BSR set to: 0
  1391  000EB6  51EA               	movf	memset@n& (0+255),w,b
  1392  000EB8  25F0               	addwf	memset@s& (0+255),w,b
  1393  000EBA  6FEC               	movwf	??_memset& (0+255),b
  1394  000EBC  51EB               	movf	(memset@n+1)& (0+255),w,b
  1395  000EBE  21F1               	addwfc	(memset@s+1)& (0+255),w,b
  1396  000EC0  6FED               	movwf	(??_memset+1)& (0+255),b
  1397  000EC2  0EFF               	movlw	255
  1398  000EC4  25EC               	addwf	??_memset& (0+255),w,b
  1399  000EC6  6ED9               	movwf	fsr2l,c
  1400  000EC8  0EFF               	movlw	255
  1401  000ECA  21ED               	addwfc	(??_memset+1)& (0+255),w,b
  1402  000ECC  6EDA               	movwf	fsr2h,c
  1403  000ECE  C0E8  FFDF         	movff	memset@c,indf2
  1404  000ED2  51EB               	movf	(memset@n+1)& (0+255),w,b
  1405  000ED4  E107               	bnz	u4121
  1406  000ED6  0E03               	movlw	3
  1407  000ED8  5DEA               	subwf	memset@n& (0+255),w,b
  1408  000EDA  B0D8               	btfsc	status,0,c
  1409  000EDC  EF72  F007         	goto	u4121
  1410  000EE0  EF74  F007         	goto	u4120
  1411  000EE4                     u4121:
  1412  000EE4  EF76  F007         	goto	l5725
  1413  000EE8                     u4120:
  1414  000EE8  EF00  F008         	goto	l1473
  1415  000EEC                     l5725:
  1416                           
  1417                           ; BSR set to: 0
  1418  000EEC  EE20 F001          	lfsr	2,1
  1419  000EF0  51F0               	movf	memset@s& (0+255),w,b
  1420  000EF2  26D9               	addwf	fsr2l,f,c
  1421  000EF4  51F1               	movf	(memset@s+1)& (0+255),w,b
  1422  000EF6  22DA               	addwfc	fsr2h,f,c
  1423  000EF8  C0E8  FFDF         	movff	memset@c,indf2
  1424  000EFC  EE20 F002          	lfsr	2,2
  1425  000F00  51F0               	movf	memset@s& (0+255),w,b
  1426  000F02  26D9               	addwf	fsr2l,f,c
  1427  000F04  51F1               	movf	(memset@s+1)& (0+255),w,b
  1428  000F06  22DA               	addwfc	fsr2h,f,c
  1429  000F08  C0E8  FFDF         	movff	memset@c,indf2
  1430  000F0C  51EA               	movf	memset@n& (0+255),w,b
  1431  000F0E  25F0               	addwf	memset@s& (0+255),w,b
  1432  000F10  6FEC               	movwf	??_memset& (0+255),b
  1433  000F12  51EB               	movf	(memset@n+1)& (0+255),w,b
  1434  000F14  21F1               	addwfc	(memset@s+1)& (0+255),w,b
  1435  000F16  6FED               	movwf	(??_memset+1)& (0+255),b
  1436  000F18  0EFE               	movlw	254
  1437  000F1A  25EC               	addwf	??_memset& (0+255),w,b
  1438  000F1C  6ED9               	movwf	fsr2l,c
  1439  000F1E  0EFF               	movlw	255
  1440  000F20  21ED               	addwfc	(??_memset+1)& (0+255),w,b
  1441  000F22  6EDA               	movwf	fsr2h,c
  1442  000F24  C0E8  FFDF         	movff	memset@c,indf2
  1443  000F28  51EA               	movf	memset@n& (0+255),w,b
  1444  000F2A  25F0               	addwf	memset@s& (0+255),w,b
  1445  000F2C  6FEC               	movwf	??_memset& (0+255),b
  1446  000F2E  51EB               	movf	(memset@n+1)& (0+255),w,b
  1447  000F30  21F1               	addwfc	(memset@s+1)& (0+255),w,b
  1448  000F32  6FED               	movwf	(??_memset+1)& (0+255),b
  1449  000F34  0EFD               	movlw	253
  1450  000F36  25EC               	addwf	??_memset& (0+255),w,b
  1451  000F38  6ED9               	movwf	fsr2l,c
  1452  000F3A  0EFF               	movlw	255
  1453  000F3C  21ED               	addwfc	(??_memset+1)& (0+255),w,b
  1454  000F3E  6EDA               	movwf	fsr2h,c
  1455  000F40  C0E8  FFDF         	movff	memset@c,indf2
  1456  000F44                     
  1457                           ; BSR set to: 0
  1458  000F44  51EB               	movf	(memset@n+1)& (0+255),w,b
  1459  000F46  E107               	bnz	u4131
  1460  000F48  0E07               	movlw	7
  1461  000F4A  5DEA               	subwf	memset@n& (0+255),w,b
  1462  000F4C  B0D8               	btfsc	status,0,c
  1463  000F4E  EFAB  F007         	goto	u4131
  1464  000F52  EFAD  F007         	goto	u4130
  1465  000F56                     u4131:
  1466  000F56  EFAF  F007         	goto	l5731
  1467  000F5A                     u4130:
  1468  000F5A  EF00  F008         	goto	l1473
  1469  000F5E                     l5731:
  1470                           
  1471                           ; BSR set to: 0
  1472  000F5E  EE20 F003          	lfsr	2,3
  1473  000F62  51F0               	movf	memset@s& (0+255),w,b
  1474  000F64  26D9               	addwf	fsr2l,f,c
  1475  000F66  51F1               	movf	(memset@s+1)& (0+255),w,b
  1476  000F68  22DA               	addwfc	fsr2h,f,c
  1477  000F6A  C0E8  FFDF         	movff	memset@c,indf2
  1478  000F6E  51EA               	movf	memset@n& (0+255),w,b
  1479  000F70  25F0               	addwf	memset@s& (0+255),w,b
  1480  000F72  6FEC               	movwf	??_memset& (0+255),b
  1481  000F74  51EB               	movf	(memset@n+1)& (0+255),w,b
  1482  000F76  21F1               	addwfc	(memset@s+1)& (0+255),w,b
  1483  000F78  6FED               	movwf	(??_memset+1)& (0+255),b
  1484  000F7A  0EFC               	movlw	252
  1485  000F7C  25EC               	addwf	??_memset& (0+255),w,b
  1486  000F7E  6ED9               	movwf	fsr2l,c
  1487  000F80  0EFF               	movlw	255
  1488  000F82  21ED               	addwfc	(??_memset+1)& (0+255),w,b
  1489  000F84  6EDA               	movwf	fsr2h,c
  1490  000F86  C0E8  FFDF         	movff	memset@c,indf2
  1491  000F8A                     
  1492                           ; BSR set to: 0
  1493  000F8A  51EB               	movf	(memset@n+1)& (0+255),w,b
  1494  000F8C  E107               	bnz	u4141
  1495  000F8E  0E09               	movlw	9
  1496  000F90  5DEA               	subwf	memset@n& (0+255),w,b
  1497  000F92  B0D8               	btfsc	status,0,c
  1498  000F94  EFCE  F007         	goto	u4141
  1499  000F98  EFD0  F007         	goto	u4140
  1500  000F9C                     u4141:
  1501  000F9C  EFD2  F007         	goto	l5737
  1502  000FA0                     u4140:
  1503  000FA0  EF00  F008         	goto	l1473
  1504  000FA4                     l5737:
  1505                           
  1506                           ; BSR set to: 0
  1507  000FA4  C0F0  F0EC         	movff	memset@s,??_memset
  1508  000FA8  C0F1  F0ED         	movff	memset@s+1,??_memset+1
  1509  000FAC  1FEC               	comf	??_memset& (0+255),f,b
  1510  000FAE  1FED               	comf	(??_memset+1)& (0+255),f,b
  1511  000FB0  4BEC               	infsnz	??_memset& (0+255),f,b
  1512  000FB2  2BED               	incf	(??_memset+1)& (0+255),f,b
  1513  000FB4  0E03               	movlw	3
  1514  000FB6  15EC               	andwf	??_memset& (0+255),w,b
  1515  000FB8  6FEE               	movwf	memset@k& (0+255),b
  1516  000FBA  6BEF               	clrf	(memset@k+1)& (0+255),b
  1517  000FBC  51EE               	movf	memset@k& (0+255),w,b
  1518  000FBE  27F0               	addwf	memset@s& (0+255),f,b
  1519  000FC0  51EF               	movf	(memset@k+1)& (0+255),w,b
  1520  000FC2  23F1               	addwfc	(memset@s+1)& (0+255),f,b
  1521  000FC4  51EE               	movf	memset@k& (0+255),w,b
  1522  000FC6  5FEA               	subwf	memset@n& (0+255),f,b
  1523  000FC8  51EF               	movf	(memset@k+1)& (0+255),w,b
  1524  000FCA  5BEB               	subwfb	(memset@n+1)& (0+255),f,b
  1525  000FCC  0EFC               	movlw	252
  1526  000FCE  17EA               	andwf	memset@n& (0+255),f,b
  1527  000FD0  0EFF               	movlw	255
  1528  000FD2  17EB               	andwf	(memset@n+1)& (0+255),f,b
  1529  000FD4  EFF7  F007         	goto	l5745
  1530  000FD8                     l5739:
  1531                           
  1532                           ; BSR set to: 0
  1533  000FD8  C0F0  FFD9         	movff	memset@s,fsr2l
  1534  000FDC  C0F1  FFDA         	movff	memset@s+1,fsr2h
  1535  000FE0  C0E8  FFDF         	movff	memset@c,indf2
  1536  000FE4                     
  1537                           ; BSR set to: 0
  1538  000FE4  07EA               	decf	memset@n& (0+255),f,b
  1539  000FE6  A0D8               	btfss	status,0,c
  1540  000FE8  07EB               	decf	(memset@n+1)& (0+255),f,b
  1541  000FEA                     
  1542                           ; BSR set to: 0
  1543  000FEA  4BF0               	infsnz	memset@s& (0+255),f,b
  1544  000FEC  2BF1               	incf	(memset@s+1)& (0+255),f,b
  1545  000FEE                     l5745:
  1546                           
  1547                           ; BSR set to: 0
  1548  000FEE  51EA               	movf	memset@n& (0+255),w,b
  1549  000FF0  11EB               	iorwf	(memset@n+1)& (0+255),w,b
  1550  000FF2  A4D8               	btfss	status,2,c
  1551  000FF4  EFFE  F007         	goto	u4151
  1552  000FF8  EF00  F008         	goto	u4150
  1553  000FFC                     u4151:
  1554  000FFC  EFEC  F007         	goto	l5739
  1555  001000                     u4150:
  1556  001000                     l1473:
  1557                           
  1558                           ; BSR set to: 0
  1559  001000  0012               	return		;funcret
  1560  001002                     __end_of_memset:
  1561                           	opt callstack 0
  1562                           
  1563 ;; *************** function _USBDeviceAttach *****************
  1564 ;; Defined at:
  1565 ;;		line 1356 in file "usb_device.c"
  1566 ;; Parameters:    Size  Location     Type
  1567 ;;		None
  1568 ;; Auto vars:     Size  Location     Type
  1569 ;;		None
  1570 ;; Return value:  Size  Location     Type
  1571 ;;                  1    wreg      void 
  1572 ;; Registers used:
  1573 ;;		wreg, status,2
  1574 ;; Tracked objects:
  1575 ;;		On entry : 0/0
  1576 ;;		On exit  : 0/0
  1577 ;;		Unchanged: 0/0
  1578 ;; Data sizes:     COMRAM   BANK0   BANK1   BANK2
  1579 ;;      Params:         0       0       0       0
  1580 ;;      Locals:         0       0       0       0
  1581 ;;      Temps:          0       0       0       0
  1582 ;;      Totals:         0       0       0       0
  1583 ;;Total ram usage:        0 bytes
  1584 ;; Hardware stack levels used:    1
  1585 ;; Hardware stack levels required when called:   10
  1586 ;; This function calls:
  1587 ;;		Nothing
  1588 ;; This function is called by:
  1589 ;;		_main
  1590 ;; This function uses a non-reentrant model
  1591 ;;
  1592                           
  1593                           	psect	text3
  1594  002B96                     __ptext3:
  1595                           	opt callstack 0
  1596  002B96                     _USBDeviceAttach:
  1597                           	opt callstack 20
  1598  002B96                     
  1599                           ;usb_device.c: 1360:     {;usb_device.c: 1361:         if(1 == 1)
  1600  002B96  0100               	movlb	0	; () banked
  1601  002B98  518F               	movf	_USBDeviceState& (0+255),w,b	;volatile
  1602  002B9A  A4D8               	btfss	status,2,c
  1603  002B9C  EFD2  F015         	goto	u4301
  1604  002BA0  EFD4  F015         	goto	u4300
  1605  002BA4                     u4301:
  1606  002BA4  EFF0  F015         	goto	l429
  1607  002BA8                     u4300:
  1608  002BA8                     
  1609                           ; BSR set to: 0
  1610                           ;usb_device.c: 1362:         {;usb_device.c: 1364:             UCON = 0;
  1611  002BA8  0E00               	movlw	0
  1612  002BAA  6E64               	movwf	100,c	;volatile
  1613                           
  1614                           ;usb_device.c: 1367:             UIE = 0;
  1615  002BAC  0E00               	movlw	0
  1616  002BAE  6E60               	movwf	96,c	;volatile
  1617                           
  1618                           ;usb_device.c: 1371:             { UCFG = 0x10 | 0x00 | 0x04 | 0x02; UEIE = 0x9F; UIE = 
      +                          0x39 | 0x40 | 0x02; };
  1619  002BB0  0E16               	movlw	22
  1620  002BB2  6E61               	movwf	97,c	;volatile
  1621  002BB4  0E9F               	movlw	159
  1622  002BB6  010F               	movlb	15	; () banked
  1623  002BB8  6F5B               	movwf	91,b	;volatile
  1624  002BBA  0E7B               	movlw	123
  1625  002BBC  6E60               	movwf	96,c	;volatile
  1626  002BBE                     
  1627                           ; BSR set to: 15
  1628                           ;usb_device.c: 1373:             {RCONbits.IPEN = 1;IPR2bits.USBIP = 1;PIE2bits.USBIE = 
      +                          1;INTCONbits.GIEH = 1;};
  1629  002BBE  8ED0               	bsf	208,7,c	;volatile
  1630  002BC0                     
  1631                           ; BSR set to: 15
  1632  002BC0  84A2               	bsf	162,2,c	;volatile
  1633  002BC2                     
  1634                           ; BSR set to: 15
  1635  002BC2  84A0               	bsf	160,2,c	;volatile
  1636  002BC4                     
  1637                           ; BSR set to: 15
  1638  002BC4  8EF2               	bsf	242,7,c	;volatile
  1639                           
  1640                           ;usb_device.c: 1376:             while(!UCONbits.USBEN){UCONbits.USBEN = 1;}
  1641  002BC6  EFE6  F015         	goto	l426
  1642  002BCA                     l427:
  1643  002BCA  8664               	bsf	100,3,c	;volatile
  1644  002BCC                     l426:
  1645  002BCC  A664               	btfss	100,3,c	;volatile
  1646  002BCE  EFEB  F015         	goto	u4311
  1647  002BD2  EFED  F015         	goto	u4310
  1648  002BD6                     u4311:
  1649  002BD6  EFE5  F015         	goto	l427
  1650  002BDA                     u4310:
  1651  002BDA                     
  1652                           ;usb_device.c: 1379:             USBDeviceState = ATTACHED_STATE;
  1653  002BDA  0E01               	movlw	1
  1654  002BDC  0100               	movlb	0	; () banked
  1655  002BDE  6F8F               	movwf	_USBDeviceState& (0+255),b	;volatile
  1656  002BE0                     l429:
  1657                           
  1658                           ; BSR set to: 0
  1659  002BE0  0012               	return		;funcret
  1660  002BE2                     __end_of_USBDeviceAttach:
  1661                           	opt callstack 0
  1662                           
  1663 ;; *************** function _SYSTEM_Initialize *****************
  1664 ;; Defined at:
  1665 ;;		line 65 in file "system.c"
  1666 ;; Parameters:    Size  Location     Type
  1667 ;;  state           1    wreg     enum E2785
  1668 ;; Auto vars:     Size  Location     Type
  1669 ;;  state           1    5[BANK0 ] enum E2785
  1670 ;; Return value:  Size  Location     Type
  1671 ;;                  1    wreg      void 
  1672 ;; Registers used:
  1673 ;;		wreg, status,2, status,0, cstack
  1674 ;; Tracked objects:
  1675 ;;		On entry : 0/0
  1676 ;;		On exit  : 0/0
  1677 ;;		Unchanged: 0/0
  1678 ;; Data sizes:     COMRAM   BANK0   BANK1   BANK2
  1679 ;;      Params:         0       0       0       0
  1680 ;;      Locals:         0       1       0       0
  1681 ;;      Temps:          0       2       0       0
  1682 ;;      Totals:         0       3       0       0
  1683 ;;Total ram usage:        3 bytes
  1684 ;; Hardware stack levels used:    1
  1685 ;; Hardware stack levels required when called:   11
  1686 ;; This function calls:
  1687 ;;		_BUTTON_Enable
  1688 ;;		_LED_Enable
  1689 ;; This function is called by:
  1690 ;;		_main
  1691 ;; This function uses a non-reentrant model
  1692 ;;
  1693                           
  1694                           	psect	text4
  1695  002B48                     __ptext4:
  1696                           	opt callstack 0
  1697  002B48                     _SYSTEM_Initialize:
  1698                           	opt callstack 19
  1699                           
  1700                           ; BSR set to: 0
  1701                           ;incstack = 0
  1702                           ;SYSTEM_Initialize@state stored from wreg
  1703  002B48  0100               	movlb	0	; () banked
  1704  002B4A  6FEB               	movwf	SYSTEM_Initialize@state& (0+255),b
  1705  002B4C                     
  1706                           ;system.c: 65: void SYSTEM_Initialize( SYSTEM_STATE state );system.c: 66: {;system.c: 67
      +                          :     switch(state)
  1707  002B4C  EFB0  F015         	goto	l5813
  1708  002B50                     l5809:
  1709                           
  1710                           ; BSR set to: 0
  1711                           ;system.c: 70:             LED_Enable(LED_D1);
  1712  002B50  0E01               	movlw	1
  1713  002B52  EC01  F014         	call	_LED_Enable
  1714                           
  1715                           ;system.c: 71:             BUTTON_Enable(BUTTON_S1);
  1716  002B56  0E01               	movlw	1
  1717  002B58  EC5B  F016         	call	_BUTTON_Enable
  1718                           
  1719                           ;system.c: 72:             break;
  1720  002B5C  EFCA  F015         	goto	l206
  1721  002B60                     l5813:
  1722  002B60  0100               	movlb	0	; () banked
  1723  002B62  51EB               	movf	SYSTEM_Initialize@state& (0+255),w,b
  1724  002B64  6FE9               	movwf	??_SYSTEM_Initialize& (0+255),b
  1725  002B66  6BEA               	clrf	(??_SYSTEM_Initialize+1)& (0+255),b
  1726                           
  1727                           ; Switch on 2 bytes has been partitioned into a top level switch of size 1, and 1 sub-sw
      +                          itches
  1728                           ; Switch size 1, requested type "simple"
  1729                           ; Number of cases is 1, Range of values is 0 to 0
  1730                           ; switch strategies available:
  1731                           ; Name         Instructions Cycles
  1732                           ; simple_byte            4     3 (average)
  1733                           ;	Chosen strategy is simple_byte
  1734  002B68  51EA               	movf	(??_SYSTEM_Initialize+1)& (0+255),w,b
  1735  002B6A  0A00               	xorlw	0	; case 0
  1736  002B6C  B4D8               	btfsc	status,2,c
  1737  002B6E  EFBB  F015         	goto	l6377
  1738  002B72  EFCA  F015         	goto	l206
  1739  002B76                     l6377:
  1740                           
  1741                           ; BSR set to: 0
  1742                           ; Switch size 1, requested type "simple"
  1743                           ; Number of cases is 3, Range of values is 0 to 2
  1744                           ; switch strategies available:
  1745                           ; Name         Instructions Cycles
  1746                           ; simple_byte           10     6 (average)
  1747                           ;	Chosen strategy is simple_byte
  1748  002B76  51E9               	movf	??_SYSTEM_Initialize& (0+255),w,b
  1749  002B78  0A00               	xorlw	0	; case 0
  1750  002B7A  B4D8               	btfsc	status,2,c
  1751  002B7C  EFA8  F015         	goto	l5809
  1752  002B80  0A01               	xorlw	1	; case 1
  1753  002B82  B4D8               	btfsc	status,2,c
  1754  002B84  EFCA  F015         	goto	l206
  1755  002B88  0A03               	xorlw	3	; case 2
  1756  002B8A  B4D8               	btfsc	status,2,c
  1757  002B8C  EFCA  F015         	goto	l206
  1758  002B90  EFCA  F015         	goto	l206
  1759  002B94                     l206:
  1760  002B94  0012               	return		;funcret
  1761  002B96                     __end_of_SYSTEM_Initialize:
  1762                           	opt callstack 0
  1763                           
  1764 ;; *************** function _LED_Enable *****************
  1765 ;; Defined at:
  1766 ;;		line 220 in file "leds.c"
  1767 ;; Parameters:    Size  Location     Type
  1768 ;;  led             1    wreg     enum E2
  1769 ;; Auto vars:     Size  Location     Type
  1770 ;;  led             1    2[BANK0 ] enum E2
  1771 ;; Return value:  Size  Location     Type
  1772 ;;                  1    wreg      void 
  1773 ;; Registers used:
  1774 ;;		wreg, status,2, status,0
  1775 ;; Tracked objects:
  1776 ;;		On entry : 0/0
  1777 ;;		On exit  : 0/0
  1778 ;;		Unchanged: 0/0
  1779 ;; Data sizes:     COMRAM   BANK0   BANK1   BANK2
  1780 ;;      Params:         0       0       0       0
  1781 ;;      Locals:         0       1       0       0
  1782 ;;      Temps:          0       2       0       0
  1783 ;;      Totals:         0       3       0       0
  1784 ;;Total ram usage:        3 bytes
  1785 ;; Hardware stack levels used:    1
  1786 ;; Hardware stack levels required when called:   10
  1787 ;; This function calls:
  1788 ;;		Nothing
  1789 ;; This function is called by:
  1790 ;;		_SYSTEM_Initialize
  1791 ;; This function uses a non-reentrant model
  1792 ;;
  1793                           
  1794                           	psect	text5
  1795  002802                     __ptext5:
  1796                           	opt callstack 0
  1797  002802                     _LED_Enable:
  1798                           	opt callstack 19
  1799                           
  1800                           ;incstack = 0
  1801                           ;LED_Enable@led stored from wreg
  1802  002802  0100               	movlb	0	; () banked
  1803  002804  6FE8               	movwf	LED_Enable@led& (0+255),b
  1804  002806                     
  1805                           ;leds.c: 220: void LED_Enable(LED led);leds.c: 221: {;leds.c: 222:     switch(led)
  1806  002806  EF11  F014         	goto	l5707
  1807  00280A                     l156:
  1808                           
  1809                           ; BSR set to: 0
  1810                           ;leds.c: 225:             TRISCbits.TRISC0 = 0;
  1811  00280A  9094               	bcf	148,0,c	;volatile
  1812                           
  1813                           ;leds.c: 226:             break;
  1814  00280C  EF33  F014         	goto	l162
  1815  002810                     l158:
  1816                           
  1817                           ; BSR set to: 0
  1818                           ;leds.c: 229:             TRISCbits.TRISC1 = 0;
  1819  002810  9294               	bcf	148,1,c	;volatile
  1820                           
  1821                           ;leds.c: 230:             break;
  1822  002812  EF33  F014         	goto	l162
  1823  002816                     l159:
  1824                           
  1825                           ; BSR set to: 0
  1826                           ;leds.c: 233:             TRISCbits.TRISC2 = 0;
  1827  002816  9494               	bcf	148,2,c	;volatile
  1828                           
  1829                           ;leds.c: 234:             break;
  1830  002818  EF33  F014         	goto	l162
  1831  00281C                     l160:
  1832                           
  1833                           ; BSR set to: 0
  1834                           ;leds.c: 237:             TRISCbits.TRISC3 = 0;
  1835  00281C  9694               	bcf	148,3,c	;volatile
  1836                           
  1837                           ;leds.c: 238:             break;
  1838  00281E  EF33  F014         	goto	l162
  1839  002822                     l5707:
  1840  002822  0100               	movlb	0	; () banked
  1841  002824  51E8               	movf	LED_Enable@led& (0+255),w,b
  1842  002826  6FE6               	movwf	??_LED_Enable& (0+255),b
  1843  002828  6BE7               	clrf	(??_LED_Enable+1)& (0+255),b
  1844                           
  1845                           ; Switch on 2 bytes has been partitioned into a top level switch of size 1, and 1 sub-sw
      +                          itches
  1846                           ; Switch size 1, requested type "simple"
  1847                           ; Number of cases is 1, Range of values is 0 to 0
  1848                           ; switch strategies available:
  1849                           ; Name         Instructions Cycles
  1850                           ; simple_byte            4     3 (average)
  1851                           ;	Chosen strategy is simple_byte
  1852  00282A  51E7               	movf	(??_LED_Enable+1)& (0+255),w,b
  1853  00282C  0A00               	xorlw	0	; case 0
  1854  00282E  B4D8               	btfsc	status,2,c
  1855  002830  EF1C  F014         	goto	l6379
  1856  002834  EF33  F014         	goto	l162
  1857  002838                     l6379:
  1858                           
  1859                           ; BSR set to: 0
  1860                           ; Switch size 1, requested type "simple"
  1861                           ; Number of cases is 5, Range of values is 0 to 4
  1862                           ; switch strategies available:
  1863                           ; Name         Instructions Cycles
  1864                           ; simple_byte           16     9 (average)
  1865                           ;	Chosen strategy is simple_byte
  1866  002838  51E6               	movf	??_LED_Enable& (0+255),w,b
  1867  00283A  0A00               	xorlw	0	; case 0
  1868  00283C  B4D8               	btfsc	status,2,c
  1869  00283E  EF33  F014         	goto	l162
  1870  002842  0A01               	xorlw	1	; case 1
  1871  002844  B4D8               	btfsc	status,2,c
  1872  002846  EF05  F014         	goto	l156
  1873  00284A  0A03               	xorlw	3	; case 2
  1874  00284C  B4D8               	btfsc	status,2,c
  1875  00284E  EF08  F014         	goto	l158
  1876  002852  0A01               	xorlw	1	; case 3
  1877  002854  B4D8               	btfsc	status,2,c
  1878  002856  EF0B  F014         	goto	l159
  1879  00285A  0A07               	xorlw	7	; case 4
  1880  00285C  B4D8               	btfsc	status,2,c
  1881  00285E  EF0E  F014         	goto	l160
  1882  002862  EF33  F014         	goto	l162
  1883  002866                     l162:
  1884                           
  1885                           ; BSR set to: 0
  1886  002866  0012               	return		;funcret
  1887  002868                     __end_of_LED_Enable:
  1888                           	opt callstack 0
  1889                           
  1890 ;; *************** function _BUTTON_Enable *****************
  1891 ;; Defined at:
  1892 ;;		line 86 in file "buttons.c"
  1893 ;; Parameters:    Size  Location     Type
  1894 ;;  button          1    wreg     enum E2760
  1895 ;; Auto vars:     Size  Location     Type
  1896 ;;  button          1    2[BANK0 ] enum E2760
  1897 ;; Return value:  Size  Location     Type
  1898 ;;                  1    wreg      void 
  1899 ;; Registers used:
  1900 ;;		wreg, status,2, status,0
  1901 ;; Tracked objects:
  1902 ;;		On entry : 0/0
  1903 ;;		On exit  : 0/0
  1904 ;;		Unchanged: 0/0
  1905 ;; Data sizes:     COMRAM   BANK0   BANK1   BANK2
  1906 ;;      Params:         0       0       0       0
  1907 ;;      Locals:         0       1       0       0
  1908 ;;      Temps:          0       2       0       0
  1909 ;;      Totals:         0       3       0       0
  1910 ;;Total ram usage:        3 bytes
  1911 ;; Hardware stack levels used:    1
  1912 ;; Hardware stack levels required when called:   10
  1913 ;; This function calls:
  1914 ;;		Nothing
  1915 ;; This function is called by:
  1916 ;;		_SYSTEM_Initialize
  1917 ;; This function uses a non-reentrant model
  1918 ;;
  1919                           
  1920                           	psect	text6
  1921  002CB6                     __ptext6:
  1922                           	opt callstack 0
  1923  002CB6                     _BUTTON_Enable:
  1924                           	opt callstack 19
  1925                           
  1926                           ; BSR set to: 0
  1927                           ;incstack = 0
  1928                           ;BUTTON_Enable@button stored from wreg
  1929  002CB6  0100               	movlb	0	; () banked
  1930  002CB8  6FE8               	movwf	BUTTON_Enable@button& (0+255),b
  1931  002CBA                     
  1932                           ;buttons.c: 86: void BUTTON_Enable(BUTTON button);buttons.c: 87: {;buttons.c: 88:     sw
      +                          itch(button)
  1933  002CBA  EF62  F016         	goto	l5695
  1934  002CBE                     l105:
  1935                           
  1936                           ; BSR set to: 0
  1937                           ;buttons.c: 91:             TRISCbits.RC5 = 1;
  1938  002CBE  8A94               	bsf	148,5,c	;volatile
  1939                           
  1940                           ;buttons.c: 92:             break;
  1941  002CC0  EF78  F016         	goto	l108
  1942  002CC4                     l5695:
  1943  002CC4  0100               	movlb	0	; () banked
  1944  002CC6  51E8               	movf	BUTTON_Enable@button& (0+255),w,b
  1945  002CC8  6FE6               	movwf	??_BUTTON_Enable& (0+255),b
  1946  002CCA  6BE7               	clrf	(??_BUTTON_Enable+1)& (0+255),b
  1947                           
  1948                           ; Switch on 2 bytes has been partitioned into a top level switch of size 1, and 1 sub-sw
      +                          itches
  1949                           ; Switch size 1, requested type "simple"
  1950                           ; Number of cases is 1, Range of values is 0 to 0
  1951                           ; switch strategies available:
  1952                           ; Name         Instructions Cycles
  1953                           ; simple_byte            4     3 (average)
  1954                           ;	Chosen strategy is simple_byte
  1955  002CCC  51E7               	movf	(??_BUTTON_Enable+1)& (0+255),w,b
  1956  002CCE  0A00               	xorlw	0	; case 0
  1957  002CD0  B4D8               	btfsc	status,2,c
  1958  002CD2  EF6D  F016         	goto	l6381
  1959  002CD6  EF78  F016         	goto	l108
  1960  002CDA                     l6381:
  1961                           
  1962                           ; BSR set to: 0
  1963                           ; Switch size 1, requested type "simple"
  1964                           ; Number of cases is 2, Range of values is 0 to 1
  1965                           ; switch strategies available:
  1966                           ; Name         Instructions Cycles
  1967                           ; simple_byte            7     4 (average)
  1968                           ;	Chosen strategy is simple_byte
  1969  002CDA  51E6               	movf	??_BUTTON_Enable& (0+255),w,b
  1970  002CDC  0A00               	xorlw	0	; case 0
  1971  002CDE  B4D8               	btfsc	status,2,c
  1972  002CE0  EF78  F016         	goto	l108
  1973  002CE4  0A01               	xorlw	1	; case 1
  1974  002CE6  B4D8               	btfsc	status,2,c
  1975  002CE8  EF5F  F016         	goto	l105
  1976  002CEC  EF78  F016         	goto	l108
  1977  002CF0                     l108:
  1978                           
  1979                           ; BSR set to: 0
  1980  002CF0  0012               	return		;funcret
  1981  002CF2                     __end_of_BUTTON_Enable:
  1982                           	opt callstack 0
  1983                           
  1984 ;; *************** function _APP_DeviceCDCBasicDemoTasks *****************
  1985 ;; Defined at:
  1986 ;;		line 77 in file "app_device_cdc_basic.c"
  1987 ;; Parameters:    Size  Location     Type
  1988 ;;		None
  1989 ;; Auto vars:     Size  Location     Type
  1990 ;;  i               1    4[BANK1 ] unsigned char 
  1991 ;;  numBytesRead    1    3[BANK1 ] unsigned char 
  1992 ;;  data_int        2    0[BANK1 ] unsigned short 
  1993 ;;  num_flag        1    2[BANK1 ] _Bool 
  1994 ;; Return value:  Size  Location     Type
  1995 ;;                  1    wreg      void 
  1996 ;; Registers used:
  1997 ;;		wreg, fsr1l, fsr1h, fsr2l, fsr2h, status,2, status,0, prodl, prodh, cstack
  1998 ;; Tracked objects:
  1999 ;;		On entry : 0/0
  2000 ;;		On exit  : 0/0
  2001 ;;		Unchanged: 0/0
  2002 ;; Data sizes:     COMRAM   BANK0   BANK1   BANK2
  2003 ;;      Params:         0       0       0       0
  2004 ;;      Locals:         0       0       5       0
  2005 ;;      Temps:          0       2       0       0
  2006 ;;      Totals:         0       2       5       0
  2007 ;;Total ram usage:        7 bytes
  2008 ;; Hardware stack levels used:    1
  2009 ;; Hardware stack levels required when called:   12
  2010 ;; This function calls:
  2011 ;;		_BUTTON_IsPressed
  2012 ;;		_CDCTxService
  2013 ;;		_NumToUART
  2014 ;;		_getsUSBUSART
  2015 ;;		_putUSBUSART
  2016 ;;		_putrsUSBUSART
  2017 ;; This function is called by:
  2018 ;;		_main
  2019 ;; This function uses a non-reentrant model
  2020 ;;
  2021                           
  2022                           	psect	text7
  2023  000944                     __ptext7:
  2024                           	opt callstack 0
  2025  000944                     _APP_DeviceCDCBasicDemoTasks:
  2026                           	opt callstack 18
  2027  000944                     
  2028                           ;app_device_cdc_basic.c: 83:     _Bool num_flag =0;
  2029  000944  0E00               	movlw	0
  2030  000946  0101               	movlb	1	; () banked
  2031  000948  6F76               	movwf	APP_DeviceCDCBasicDemoTasks@num_flag& (0+255),b
  2032  00094A                     
  2033                           ; BSR set to: 1
  2034                           ;app_device_cdc_basic.c: 84:     if( USBDeviceState < CONFIGURED_STATE )
  2035  00094A  0E20               	movlw	32
  2036  00094C  0100               	movlb	0	; () banked
  2037  00094E  618F               	cpfslt	_USBDeviceState& (0+255),b	;volatile
  2038  000950  EFAC  F004         	goto	u4161
  2039  000954  EFAE  F004         	goto	u4160
  2040  000958                     u4161:
  2041  000958  EFB0  F004         	goto	l40
  2042  00095C                     u4160:
  2043  00095C  EF90  F005         	goto	l41
  2044  000960                     l40:
  2045                           
  2046                           ; BSR set to: 0
  2047                           ;app_device_cdc_basic.c: 93:     if( UCONbits.SUSPND== 1 )
  2048  000960  A264               	btfss	100,1,c	;volatile
  2049  000962  EFB5  F004         	goto	u4171
  2050  000966  EFB7  F004         	goto	u4170
  2051  00096A                     u4171:
  2052  00096A  EFB9  F004         	goto	l5755
  2053  00096E                     u4170:
  2054  00096E  EF90  F005         	goto	l41
  2055  000972                     l5755:
  2056                           
  2057                           ; BSR set to: 0
  2058                           ;app_device_cdc_basic.c: 101:     if(BUTTON_IsPressed(BUTTON_S1) == 1)
  2059  000972  0E01               	movlw	1
  2060  000974  EC53  F015         	call	_BUTTON_IsPressed
  2061  000978  06E8               	decf	wreg,f,c
  2062  00097A  A4D8               	btfss	status,2,c
  2063  00097C  EFC2  F004         	goto	u4181
  2064  000980  EFC4  F004         	goto	u4180
  2065  000984                     u4181:
  2066  000984  EFE0  F004         	goto	l5765
  2067  000988                     u4180:
  2068  000988                     
  2069                           ;app_device_cdc_basic.c: 102:     {;app_device_cdc_basic.c: 106:         if(buttonPresse
      +                          d == 0)
  2070  000988  0100               	movlb	0	; () banked
  2071  00098A  518D               	movf	_buttonPressed& (0+255),w,b
  2072  00098C  A4D8               	btfss	status,2,c
  2073  00098E  EFCB  F004         	goto	u4191
  2074  000992  EFCD  F004         	goto	u4190
  2075  000996                     u4191:
  2076  000996  EFE3  F004         	goto	l46
  2077  00099A                     u4190:
  2078  00099A                     
  2079                           ; BSR set to: 0
  2080                           ;app_device_cdc_basic.c: 107:         {;app_device_cdc_basic.c: 110:             if((cdc
      +                          _trf_state == 0) == 1)
  2081  00099A  518E               	movf	_cdc_trf_state& (0+255),w,b
  2082  00099C  A4D8               	btfss	status,2,c
  2083  00099E  EFD3  F004         	goto	u4201
  2084  0009A2  EFD5  F004         	goto	u4200
  2085  0009A6                     u4201:
  2086  0009A6  EFE3  F004         	goto	l46
  2087  0009AA                     u4200:
  2088  0009AA                     
  2089                           ; BSR set to: 0
  2090                           ;app_device_cdc_basic.c: 111:             {;app_device_cdc_basic.c: 112:                
      +                           putrsUSBUSART(buttonMessage);
  2091  0009AA  0E40               	movlw	low _buttonMessage
  2092  0009AC  6FE6               	movwf	putrsUSBUSART@data& (0+255),b
  2093  0009AE  0E01               	movlw	high _buttonMessage
  2094  0009B0  6FE7               	movwf	(putrsUSBUSART@data+1)& (0+255),b
  2095  0009B2  ECC9  F013         	call	_putrsUSBUSART	;wreg free
  2096  0009B6                     
  2097                           ;app_device_cdc_basic.c: 114:                 buttonPressed = 1;
  2098  0009B6  0E01               	movlw	1
  2099  0009B8  0100               	movlb	0	; () banked
  2100  0009BA  6F8D               	movwf	_buttonPressed& (0+255),b
  2101  0009BC  EFE3  F004         	goto	l46
  2102  0009C0                     l5765:
  2103                           
  2104                           ;app_device_cdc_basic.c: 124:     {;app_device_cdc_basic.c: 128:         buttonPressed =
      +                           0;
  2105  0009C0  0E00               	movlw	0
  2106  0009C2  0100               	movlb	0	; () banked
  2107  0009C4  6F8D               	movwf	_buttonPressed& (0+255),b
  2108  0009C6                     l46:
  2109                           
  2110                           ; BSR set to: 0
  2111                           ;app_device_cdc_basic.c: 134:     if( (cdc_trf_state == 0) == 1)
  2112  0009C6  518E               	movf	_cdc_trf_state& (0+255),w,b
  2113  0009C8  A4D8               	btfss	status,2,c
  2114  0009CA  EFE9  F004         	goto	u4211
  2115  0009CE  EFEB  F004         	goto	u4210
  2116  0009D2                     u4211:
  2117  0009D2  EF8E  F005         	goto	l5801
  2118  0009D6                     u4210:
  2119  0009D6                     
  2120                           ; BSR set to: 0
  2121                           ;app_device_cdc_basic.c: 135:     {;app_device_cdc_basic.c: 136:         uint8_t i;;app_
      +                          device_cdc_basic.c: 137:         uint8_t numBytesRead;;app_device_cdc_basic.c: 139:     
      +                              numBytesRead = getsUSBUSART(readBuffer, sizeof(readBuffer));
  2122  0009D6  0E90               	movlw	low _readBuffer
  2123  0009D8  6FF1               	movwf	getsUSBUSART@buffer& (0+255),b
  2124  0009DA  0E00               	movlw	high _readBuffer
  2125  0009DC  6FF2               	movwf	(getsUSBUSART@buffer+1)& (0+255),b
  2126  0009DE  0E40               	movlw	64
  2127  0009E0  6FF3               	movwf	getsUSBUSART@len& (0+255),b
  2128  0009E2  EC51  F011         	call	_getsUSBUSART	;wreg free
  2129  0009E6  0101               	movlb	1	; () banked
  2130  0009E8  6F77               	movwf	APP_DeviceCDCBasicDemoTasks@numBytesRead& (0+255),b
  2131  0009EA                     
  2132                           ; BSR set to: 1
  2133                           ;app_device_cdc_basic.c: 142:         for(i=0; i<numBytesRead; i++)
  2134  0009EA  0E00               	movlw	0
  2135  0009EC  6F78               	movwf	APP_DeviceCDCBasicDemoTasks@i& (0+255),b
  2136  0009EE  EF45  F005         	goto	l5783
  2137  0009F2                     l5771:
  2138                           
  2139                           ; BSR set to: 0
  2140                           ;app_device_cdc_basic.c: 151:                     writeBuffer[i] = readBuffer[i];
  2141  0009F2  0E90               	movlw	low _readBuffer
  2142  0009F4  0101               	movlb	1	; () banked
  2143  0009F6  2578               	addwf	APP_DeviceCDCBasicDemoTasks@i& (0+255),w,b
  2144  0009F8  6ED9               	movwf	fsr2l,c
  2145  0009FA  6ADA               	clrf	fsr2h,c
  2146  0009FC  0E00               	movlw	high _readBuffer
  2147  0009FE  22DA               	addwfc	fsr2h,f,c
  2148  000A00  0E00               	movlw	low _writeBuffer
  2149  000A02  2578               	addwf	APP_DeviceCDCBasicDemoTasks@i& (0+255),w,b
  2150  000A04  6EE1               	movwf	fsr1l,c
  2151  000A06  6AE2               	clrf	fsr1h,c
  2152  000A08  0E01               	movlw	high _writeBuffer
  2153  000A0A  22E2               	addwfc	fsr1h,f,c
  2154  000A0C  CFDF FFE7          	movff	indf2,indf1
  2155                           
  2156                           ;app_device_cdc_basic.c: 152:                     break;
  2157  000A10  EF43  F005         	goto	l5781
  2158  000A14                     l5773:
  2159                           
  2160                           ; BSR set to: 0
  2161                           ;app_device_cdc_basic.c: 154:                     num_flag = 1;
  2162  000A14  0E01               	movlw	1
  2163  000A16  0101               	movlb	1	; () banked
  2164  000A18  6F76               	movwf	APP_DeviceCDCBasicDemoTasks@num_flag& (0+255),b
  2165                           
  2166                           ;app_device_cdc_basic.c: 155:                     break;
  2167  000A1A  EF43  F005         	goto	l5781
  2168  000A1E                     l5775:
  2169                           
  2170                           ; BSR set to: 0
  2171                           ;app_device_cdc_basic.c: 163:                     writeBuffer[i] = readBuffer[i] + 1;
  2172  000A1E  0E00               	movlw	low _writeBuffer
  2173  000A20  0101               	movlb	1	; () banked
  2174  000A22  2578               	addwf	APP_DeviceCDCBasicDemoTasks@i& (0+255),w,b
  2175  000A24  6ED9               	movwf	fsr2l,c
  2176  000A26  6ADA               	clrf	fsr2h,c
  2177  000A28  0E01               	movlw	high _writeBuffer
  2178  000A2A  22DA               	addwfc	fsr2h,f,c
  2179  000A2C  0E90               	movlw	low _readBuffer
  2180  000A2E  2578               	addwf	APP_DeviceCDCBasicDemoTasks@i& (0+255),w,b
  2181  000A30  6EE1               	movwf	fsr1l,c
  2182  000A32  6AE2               	clrf	fsr1h,c
  2183  000A34  0E00               	movlw	high _readBuffer
  2184  000A36  22E2               	addwfc	fsr1h,f,c
  2185  000A38  50E7               	movf	indf1,w,c
  2186  000A3A  0100               	movlb	0	; () banked
  2187  000A3C  6FFC               	movwf	??_APP_DeviceCDCBasicDemoTasks& (0+255),b
  2188  000A3E  29FC               	incf	??_APP_DeviceCDCBasicDemoTasks& (0+255),w,b
  2189  000A40  6EDF               	movwf	indf2,c
  2190                           
  2191                           ;app_device_cdc_basic.c: 164:                     break;
  2192  000A42  EF43  F005         	goto	l5781
  2193  000A46                     l5779:
  2194                           
  2195                           ; BSR set to: 1
  2196  000A46  0E90               	movlw	low _readBuffer
  2197  000A48  2578               	addwf	APP_DeviceCDCBasicDemoTasks@i& (0+255),w,b
  2198  000A4A  6ED9               	movwf	fsr2l,c
  2199  000A4C  6ADA               	clrf	fsr2h,c
  2200  000A4E  0E00               	movlw	high _readBuffer
  2201  000A50  22DA               	addwfc	fsr2h,f,c
  2202  000A52  50DF               	movf	indf2,w,c
  2203  000A54  0100               	movlb	0	; () banked
  2204  000A56  6FFC               	movwf	??_APP_DeviceCDCBasicDemoTasks& (0+255),b
  2205  000A58  6BFD               	clrf	(??_APP_DeviceCDCBasicDemoTasks+1)& (0+255),b
  2206                           
  2207                           ; Switch on 2 bytes has been partitioned into a top level switch of size 1, and 1 sub-sw
      +                          itches
  2208                           ; Switch size 1, requested type "simple"
  2209                           ; Number of cases is 1, Range of values is 0 to 0
  2210                           ; switch strategies available:
  2211                           ; Name         Instructions Cycles
  2212                           ; simple_byte            4     3 (average)
  2213                           ;	Chosen strategy is simple_byte
  2214  000A5A  51FD               	movf	(??_APP_DeviceCDCBasicDemoTasks+1)& (0+255),w,b
  2215  000A5C  0A00               	xorlw	0	; case 0
  2216  000A5E  B4D8               	btfsc	status,2,c
  2217  000A60  EF34  F005         	goto	l6383
  2218  000A64  EF0F  F005         	goto	l5775
  2219  000A68                     l6383:
  2220                           
  2221                           ; BSR set to: 0
  2222                           ; Switch size 1, requested type "simple"
  2223                           ; Number of cases is 3, Range of values is 10 to 112
  2224                           ; switch strategies available:
  2225                           ; Name         Instructions Cycles
  2226                           ; simple_byte           10     6 (average)
  2227                           ;	Chosen strategy is simple_byte
  2228  000A68  51FC               	movf	??_APP_DeviceCDCBasicDemoTasks& (0+255),w,b
  2229  000A6A  0A0A               	xorlw	10	; case 10
  2230  000A6C  B4D8               	btfsc	status,2,c
  2231  000A6E  EFF9  F004         	goto	l5771
  2232  000A72  0A07               	xorlw	7	; case 13
  2233  000A74  B4D8               	btfsc	status,2,c
  2234  000A76  EFF9  F004         	goto	l5771
  2235  000A7A  0A7D               	xorlw	125	; case 112
  2236  000A7C  B4D8               	btfsc	status,2,c
  2237  000A7E  EF0A  F005         	goto	l5773
  2238  000A82  EF0F  F005         	goto	l5775
  2239  000A86                     l5781:
  2240                           
  2241                           ;app_device_cdc_basic.c: 166:         }
  2242  000A86  0101               	movlb	1	; () banked
  2243  000A88  2B78               	incf	APP_DeviceCDCBasicDemoTasks@i& (0+255),f,b
  2244  000A8A                     l5783:
  2245                           
  2246                           ; BSR set to: 1
  2247  000A8A  5177               	movf	APP_DeviceCDCBasicDemoTasks@numBytesRead& (0+255),w,b
  2248  000A8C  5D78               	subwf	APP_DeviceCDCBasicDemoTasks@i& (0+255),w,b
  2249  000A8E  A0D8               	btfss	status,0,c
  2250  000A90  EF4C  F005         	goto	u4221
  2251  000A94  EF4E  F005         	goto	u4220
  2252  000A98                     u4221:
  2253  000A98  EF23  F005         	goto	l5779
  2254  000A9C                     u4220:
  2255  000A9C                     
  2256                           ; BSR set to: 1
  2257                           ;app_device_cdc_basic.c: 168:         if((numBytesRead > 0)&&(num_flag))
  2258  000A9C  5177               	movf	APP_DeviceCDCBasicDemoTasks@numBytesRead& (0+255),w,b
  2259  000A9E  B4D8               	btfsc	status,2,c
  2260  000AA0  EF54  F005         	goto	u4231
  2261  000AA4  EF56  F005         	goto	u4230
  2262  000AA8                     u4231:
  2263  000AA8  EF7D  F005         	goto	l5797
  2264  000AAC                     u4230:
  2265  000AAC                     
  2266                           ; BSR set to: 1
  2267  000AAC  5176               	movf	APP_DeviceCDCBasicDemoTasks@num_flag& (0+255),w,b
  2268  000AAE  B4D8               	btfsc	status,2,c
  2269  000AB0  EF5C  F005         	goto	u4241
  2270  000AB4  EF5E  F005         	goto	u4240
  2271  000AB8                     u4241:
  2272  000AB8  EF7D  F005         	goto	l5797
  2273  000ABC                     u4240:
  2274  000ABC                     
  2275                           ; BSR set to: 1
  2276                           ;app_device_cdc_basic.c: 169:         {;app_device_cdc_basic.c: 174:             GO = 1;
  2277  000ABC  82C2               	bsf	4034,1,c	;volatile
  2278  000ABE                     l58:
  2279  000ABE  B2C2               	btfsc	4034,1,c	;volatile
  2280  000AC0  EF64  F005         	goto	u4251
  2281  000AC4  EF66  F005         	goto	u4250
  2282  000AC8                     u4251:
  2283  000AC8  EF5F  F005         	goto	l58
  2284  000ACC                     u4250:
  2285  000ACC                     
  2286                           ;app_device_cdc_basic.c: 176:             data_int = (ADRESH<<8) | ADRESL;
  2287  000ACC  50C3               	movf	195,w,c	;volatile
  2288  000ACE  CFC4 F0FC          	movff	4036,??_APP_DeviceCDCBasicDemoTasks	;volatile
  2289  000AD2  0100               	movlb	0	; () banked
  2290  000AD4  6BFD               	clrf	(??_APP_DeviceCDCBasicDemoTasks+1)& (0+255),b
  2291  000AD6  C0FC  F0FD         	movff	??_APP_DeviceCDCBasicDemoTasks,??_APP_DeviceCDCBasicDemoTasks+1
  2292  000ADA  6BFC               	clrf	??_APP_DeviceCDCBasicDemoTasks& (0+255),b
  2293  000ADC  11FC               	iorwf	??_APP_DeviceCDCBasicDemoTasks& (0+255),w,b
  2294  000ADE  0101               	movlb	1	; () banked
  2295  000AE0  6F74               	movwf	APP_DeviceCDCBasicDemoTasks@data_int& (0+255),b
  2296  000AE2  0100               	movlb	0	; () banked
  2297  000AE4  51FD               	movf	(??_APP_DeviceCDCBasicDemoTasks+1)& (0+255),w,b
  2298  000AE6  0101               	movlb	1	; () banked
  2299  000AE8  6F75               	movwf	(APP_DeviceCDCBasicDemoTasks@data_int+1)& (0+255),b
  2300  000AEA                     
  2301                           ; BSR set to: 1
  2302                           ;app_device_cdc_basic.c: 177:             NumToUART(data_int);
  2303  000AEA  C174  F0ED         	movff	APP_DeviceCDCBasicDemoTasks@data_int,NumToUART@number
  2304  000AEE  C175  F0EE         	movff	APP_DeviceCDCBasicDemoTasks@data_int+1,NumToUART@number+1
  2305  000AF2  EC91  F005         	call	_NumToUART	;wreg free
  2306  000AF6                     
  2307                           ;app_device_cdc_basic.c: 179:         }else
  2308  000AF6  EF8E  F005         	goto	l5801
  2309  000AFA                     l5797:
  2310                           
  2311                           ; BSR set to: 1
  2312                           ;app_device_cdc_basic.c: 180:         {;app_device_cdc_basic.c: 181:             if (num
      +                          BytesRead > 0)
  2313  000AFA  5177               	movf	APP_DeviceCDCBasicDemoTasks@numBytesRead& (0+255),w,b
  2314  000AFC  B4D8               	btfsc	status,2,c
  2315  000AFE  EF83  F005         	goto	u4261
  2316  000B02  EF85  F005         	goto	u4260
  2317  000B06                     u4261:
  2318  000B06  EF8E  F005         	goto	l5801
  2319  000B0A                     u4260:
  2320  000B0A                     
  2321                           ; BSR set to: 1
  2322                           ;app_device_cdc_basic.c: 182:                 putUSBUSART(writeBuffer,numBytesRead);
  2323  000B0A  0E00               	movlw	low _writeBuffer
  2324  000B0C  0100               	movlb	0	; () banked
  2325  000B0E  6FE6               	movwf	putUSBUSART@data& (0+255),b
  2326  000B10  0E01               	movlw	high _writeBuffer
  2327  000B12  6FE7               	movwf	(putUSBUSART@data+1)& (0+255),b
  2328  000B14  C177  F0E8         	movff	APP_DeviceCDCBasicDemoTasks@numBytesRead,putUSBUSART@length
  2329  000B18  ECE0  F016         	call	_putUSBUSART	;wreg free
  2330  000B1C                     l5801:
  2331                           
  2332                           ;app_device_cdc_basic.c: 188:     CDCTxService();
  2333  000B1C  EC78  F006         	call	_CDCTxService	;wreg free
  2334  000B20                     l41:
  2335  000B20  0012               	return		;funcret
  2336  000B22                     __end_of_APP_DeviceCDCBasicDemoTasks:
  2337                           	opt callstack 0
  2338                           
  2339 ;; *************** function _putrsUSBUSART *****************
  2340 ;; Defined at:
  2341 ;;		line 727 in file "usb_device_cdc.c"
  2342 ;; Parameters:    Size  Location     Type
  2343 ;;  data            2    0[BANK0 ] PTR const unsigned char 
  2344 ;;		 -> buttonMessage(52), 
  2345 ;; Auto vars:     Size  Location     Type
  2346 ;;  pData           2    2[BANK0 ] PTR const unsigned char 
  2347 ;;		 -> buttonMessage(52), 
  2348 ;;  len             1    4[BANK0 ] unsigned char 
  2349 ;; Return value:  Size  Location     Type
  2350 ;;                  1    wreg      void 
  2351 ;; Registers used:
  2352 ;;		wreg, fsr2l, fsr2h, status,2, status,0
  2353 ;; Tracked objects:
  2354 ;;		On entry : 0/0
  2355 ;;		On exit  : 0/0
  2356 ;;		Unchanged: 0/0
  2357 ;; Data sizes:     COMRAM   BANK0   BANK1   BANK2
  2358 ;;      Params:         0       2       0       0
  2359 ;;      Locals:         0       3       0       0
  2360 ;;      Temps:          0       0       0       0
  2361 ;;      Totals:         0       5       0       0
  2362 ;;Total ram usage:        5 bytes
  2363 ;; Hardware stack levels used:    1
  2364 ;; Hardware stack levels required when called:   10
  2365 ;; This function calls:
  2366 ;;		Nothing
  2367 ;; This function is called by:
  2368 ;;		_APP_DeviceCDCBasicDemoTasks
  2369 ;; This function uses a non-reentrant model
  2370 ;;
  2371                           
  2372                           	psect	text8
  2373  002792                     __ptext8:
  2374                           	opt callstack 0
  2375  002792                     _putrsUSBUSART:
  2376                           	opt callstack 19
  2377  002792                     
  2378                           ;usb_device_cdc.c: 727: void putrsUSBUSART(const char *data);usb_device_cdc.c: 728: {;us
      +                          b_device_cdc.c: 729:     uint8_t len;;usb_device_cdc.c: 730:     const char *pData;;usb_
      +                          device_cdc.c: 755:     {PIE2bits.USBIE = 0;};
  2379  002792  94A0               	bcf	160,2,c	;volatile
  2380  002794                     
  2381                           ;usb_device_cdc.c: 756:     if(cdc_trf_state != 0)
  2382  002794  0100               	movlb	0	; () banked
  2383  002796  518E               	movf	_cdc_trf_state& (0+255),w,b
  2384  002798  B4D8               	btfsc	status,2,c
  2385  00279A  EFD1  F013         	goto	u3861
  2386  00279E  EFD3  F013         	goto	u3860
  2387  0027A2                     u3861:
  2388  0027A2  EFD6  F013         	goto	l5537
  2389  0027A6                     u3860:
  2390  0027A6                     
  2391                           ; BSR set to: 0
  2392                           ;usb_device_cdc.c: 757:     {;usb_device_cdc.c: 758:         {PIE2bits.USBIE = 1;};
  2393  0027A6  84A0               	bsf	160,2,c	;volatile
  2394                           
  2395                           ;usb_device_cdc.c: 759:         return;
  2396  0027A8  EF00  F014         	goto	l718
  2397  0027AC                     l5537:
  2398                           
  2399                           ; BSR set to: 0
  2400                           ;usb_device_cdc.c: 766:     len = 0;
  2401  0027AC  0E00               	movlw	0
  2402  0027AE  6FEA               	movwf	putrsUSBUSART@len& (0+255),b
  2403  0027B0                     
  2404                           ; BSR set to: 0
  2405                           ;usb_device_cdc.c: 767:     pData = data;
  2406  0027B0  C0E6  F0E8         	movff	putrsUSBUSART@data,putrsUSBUSART@pData
  2407  0027B4  C0E7  F0E9         	movff	putrsUSBUSART@data+1,putrsUSBUSART@pData+1
  2408  0027B8                     l5541:
  2409                           
  2410                           ; BSR set to: 0
  2411                           ;usb_device_cdc.c: 769:     {;usb_device_cdc.c: 770:         len++;
  2412  0027B8  2BEA               	incf	putrsUSBUSART@len& (0+255),f,b
  2413  0027BA                     
  2414                           ; BSR set to: 0
  2415                           ;usb_device_cdc.c: 771:         if(len == 255) break;
  2416  0027BA  29EA               	incf	putrsUSBUSART@len& (0+255),w,b
  2417  0027BC  A4D8               	btfss	status,2,c
  2418  0027BE  EFE3  F013         	goto	u3871
  2419  0027C2  EFE5  F013         	goto	u3870
  2420  0027C6                     u3871:
  2421  0027C6  EFE7  F013         	goto	l5547
  2422  0027CA                     u3870:
  2423  0027CA  EFF5  F013         	goto	l5549
  2424  0027CE                     l5547:
  2425                           
  2426                           ; BSR set to: 0
  2427                           ;usb_device_cdc.c: 772:     }while(*pData++);
  2428  0027CE  C0E8  FFD9         	movff	putrsUSBUSART@pData,fsr2l
  2429  0027D2  C0E9  FFDA         	movff	putrsUSBUSART@pData+1,fsr2h
  2430  0027D6  4BE8               	infsnz	putrsUSBUSART@pData& (0+255),f,b
  2431  0027D8  2BE9               	incf	(putrsUSBUSART@pData+1)& (0+255),f,b
  2432  0027DA  50DF               	movf	indf2,w,c
  2433  0027DC  A4D8               	btfss	status,2,c
  2434  0027DE  EFF3  F013         	goto	u3881
  2435  0027E2  EFF5  F013         	goto	u3880
  2436  0027E6                     u3881:
  2437  0027E6  EFDC  F013         	goto	l5541
  2438  0027EA                     u3880:
  2439  0027EA                     l5549:
  2440                           
  2441                           ; BSR set to: 0
  2442                           ;usb_device_cdc.c: 781:     { pCDCSrc.bRom = (const uint8_t*)data; cdc_tx_len = len; cdc
      +                          _mem_type = 0x00; cdc_trf_state = 1; };
  2443  0027EA  C0E6  F07B         	movff	putrsUSBUSART@data,_pCDCSrc
  2444  0027EE  C0E7  F07C         	movff	putrsUSBUSART@data+1,_pCDCSrc+1
  2445  0027F2                     
  2446                           ; BSR set to: 0
  2447  0027F2  C0EA  F01B         	movff	putrsUSBUSART@len,_cdc_tx_len
  2448  0027F6                     
  2449                           ; BSR set to: 0
  2450  0027F6  0E00               	movlw	0
  2451  0027F8  6F8B               	movwf	_cdc_mem_type& (0+255),b
  2452  0027FA                     
  2453                           ; BSR set to: 0
  2454  0027FA  0E01               	movlw	1
  2455  0027FC  6F8E               	movwf	_cdc_trf_state& (0+255),b
  2456  0027FE                     
  2457                           ; BSR set to: 0
  2458                           ;usb_device_cdc.c: 782:     {PIE2bits.USBIE = 1;};
  2459  0027FE  84A0               	bsf	160,2,c	;volatile
  2460  002800                     l718:
  2461                           
  2462                           ; BSR set to: 0
  2463  002800  0012               	return		;funcret
  2464  002802                     __end_of_putrsUSBUSART:
  2465                           	opt callstack 0
  2466                           
  2467 ;; *************** function _getsUSBUSART *****************
  2468 ;; Defined at:
  2469 ;;		line 486 in file "usb_device_cdc.c"
  2470 ;; Parameters:    Size  Location     Type
  2471 ;;  buffer          2   11[BANK0 ] PTR unsigned char 
  2472 ;;		 -> readBuffer(64), 
  2473 ;;  len             1   13[BANK0 ] unsigned char 
  2474 ;; Auto vars:     Size  Location     Type
  2475 ;;		None
  2476 ;; Return value:  Size  Location     Type
  2477 ;;                  1    wreg      unsigned char 
  2478 ;; Registers used:
  2479 ;;		wreg, fsr1l, fsr1h, fsr2l, fsr2h, status,2, status,0, prodl, prodh, cstack
  2480 ;; Tracked objects:
  2481 ;;		On entry : 0/0
  2482 ;;		On exit  : 0/0
  2483 ;;		Unchanged: 0/0
  2484 ;; Data sizes:     COMRAM   BANK0   BANK1   BANK2
  2485 ;;      Params:         0       3       0       0
  2486 ;;      Locals:         0       0       0       0
  2487 ;;      Temps:          0       1       0       0
  2488 ;;      Totals:         0       4       0       0
  2489 ;;Total ram usage:        4 bytes
  2490 ;; Hardware stack levels used:    1
  2491 ;; Hardware stack levels required when called:   11
  2492 ;; This function calls:
  2493 ;;		_USBTransferOnePacket
  2494 ;; This function is called by:
  2495 ;;		_APP_DeviceCDCBasicDemoTasks
  2496 ;; This function uses a non-reentrant model
  2497 ;;
  2498                           
  2499                           	psect	text9
  2500  0022A2                     __ptext9:
  2501                           	opt callstack 0
  2502  0022A2                     _getsUSBUSART:
  2503                           	opt callstack 18
  2504  0022A2                     
  2505                           ;usb_device_cdc.c: 486: uint8_t getsUSBUSART(uint8_t *buffer, uint8_t len);usb_device_cd
      +                          c.c: 487: {;usb_device_cdc.c: 488:     cdc_rx_len = 0;
  2506  0022A2  0E00               	movlw	0
  2507  0022A4  0100               	movlb	0	; () banked
  2508  0022A6  6F8C               	movwf	_cdc_rx_len& (0+255),b
  2509  0022A8                     
  2510                           ; BSR set to: 0
  2511                           ;usb_device_cdc.c: 490:     if(!((CDCDataOutHandle != 0x0000) && ((*(volatile uint8_t*)C
      +                          DCDataOutHandle & 0x80) != 0x00)))
  2512  0022A8  5186               	movf	_CDCDataOutHandle& (0+255),w,b
  2513  0022AA  1187               	iorwf	(_CDCDataOutHandle+1)& (0+255),w,b
  2514  0022AC  B4D8               	btfsc	status,2,c
  2515  0022AE  EF5B  F011         	goto	u3891
  2516  0022B2  EF5D  F011         	goto	u3890
  2517  0022B6                     u3891:
  2518  0022B6  EF68  F011         	goto	l5565
  2519  0022BA                     u3890:
  2520  0022BA                     
  2521                           ; BSR set to: 0
  2522  0022BA  C086  FFD9         	movff	_CDCDataOutHandle,fsr2l
  2523  0022BE  C087  FFDA         	movff	_CDCDataOutHandle+1,fsr2h
  2524  0022C2  BEDF               	btfsc	indf2,7,c
  2525  0022C4  EF66  F011         	goto	u3901
  2526  0022C8  EF68  F011         	goto	u3900
  2527  0022CC                     u3901:
  2528  0022CC  EFAA  F011         	goto	l5579
  2529  0022D0                     u3900:
  2530  0022D0                     l5565:
  2531                           
  2532                           ; BSR set to: 0
  2533                           ;usb_device_cdc.c: 491:     {;usb_device_cdc.c: 496:         if(len > (((volatile BDT_EN
      +                          TRY*)CDCDataOutHandle)->CNT))
  2534  0022D0  EE20 F001          	lfsr	2,1
  2535  0022D4  5186               	movf	_CDCDataOutHandle& (0+255),w,b
  2536  0022D6  26D9               	addwf	fsr2l,f,c
  2537  0022D8  5187               	movf	(_CDCDataOutHandle+1)& (0+255),w,b
  2538  0022DA  22DA               	addwfc	fsr2h,f,c
  2539  0022DC  51F3               	movf	getsUSBUSART@len& (0+255),w,b
  2540  0022DE  5CDE               	subwf	postinc2,w,c
  2541  0022E0  B0D8               	btfsc	status,0,c
  2542  0022E2  EF75  F011         	goto	u3911
  2543  0022E6  EF77  F011         	goto	u3910
  2544  0022EA                     u3911:
  2545  0022EA  EF7F  F011         	goto	l5569
  2546  0022EE                     u3910:
  2547  0022EE                     
  2548                           ; BSR set to: 0
  2549                           ;usb_device_cdc.c: 497:             len = (((volatile BDT_ENTRY*)CDCDataOutHandle)->CNT)
      +                          ;
  2550  0022EE  EE20 F001          	lfsr	2,1
  2551  0022F2  5186               	movf	_CDCDataOutHandle& (0+255),w,b
  2552  0022F4  26D9               	addwf	fsr2l,f,c
  2553  0022F6  5187               	movf	(_CDCDataOutHandle+1)& (0+255),w,b
  2554  0022F8  22DA               	addwfc	fsr2h,f,c
  2555  0022FA  50DF               	movf	indf2,w,c
  2556  0022FC  6FF3               	movwf	getsUSBUSART@len& (0+255),b
  2557  0022FE                     l5569:
  2558                           
  2559                           ; BSR set to: 0
  2560                           ;usb_device_cdc.c: 502:         for(cdc_rx_len = 0; cdc_rx_len < len; cdc_rx_len++)
  2561  0022FE  0E00               	movlw	0
  2562  002300  6F8C               	movwf	_cdc_rx_len& (0+255),b
  2563  002302  EF92  F011         	goto	l5575
  2564  002306                     l5571:
  2565                           
  2566                           ; BSR set to: 0
  2567                           ;usb_device_cdc.c: 503:             buffer[cdc_rx_len] = cdc_data_rx[cdc_rx_len];
  2568  002306  0E80               	movlw	128
  2569  002308  258C               	addwf	_cdc_rx_len& (0+255),w,b
  2570  00230A  6ED9               	movwf	fsr2l,c
  2571  00230C  6ADA               	clrf	fsr2h,c
  2572  00230E  0E02               	movlw	2
  2573  002310  22DA               	addwfc	fsr2h,f,c
  2574  002312  518C               	movf	_cdc_rx_len& (0+255),w,b
  2575  002314  25F1               	addwf	getsUSBUSART@buffer& (0+255),w,b
  2576  002316  6EE1               	movwf	fsr1l,c
  2577  002318  0E00               	movlw	0
  2578  00231A  21F2               	addwfc	(getsUSBUSART@buffer+1)& (0+255),w,b
  2579  00231C  6EE2               	movwf	fsr1h,c
  2580  00231E  CFDF FFE7          	movff	indf2,indf1
  2581  002322                     
  2582                           ; BSR set to: 0
  2583  002322  2B8C               	incf	_cdc_rx_len& (0+255),f,b
  2584  002324                     l5575:
  2585                           
  2586                           ; BSR set to: 0
  2587  002324  51F3               	movf	getsUSBUSART@len& (0+255),w,b
  2588  002326  5D8C               	subwf	_cdc_rx_len& (0+255),w,b
  2589  002328  A0D8               	btfss	status,0,c
  2590  00232A  EF99  F011         	goto	u3921
  2591  00232E  EF9B  F011         	goto	u3920
  2592  002332                     u3921:
  2593  002332  EF83  F011         	goto	l5571
  2594  002336                     u3920:
  2595  002336                     
  2596                           ; BSR set to: 0
  2597                           ;usb_device_cdc.c: 509:         CDCDataOutHandle = USBTransferOnePacket(2,0,(uint8_t*)&c
      +                          dc_data_rx,sizeof(cdc_data_rx));
  2598  002336  0E00               	movlw	0
  2599  002338  6FE6               	movwf	USBTransferOnePacket@dir& (0+255),b
  2600  00233A  0E80               	movlw	128
  2601  00233C  6FE7               	movwf	USBTransferOnePacket@data& (0+255),b
  2602  00233E  0E02               	movlw	2
  2603  002340  6FE8               	movwf	(USBTransferOnePacket@data+1)& (0+255),b
  2604  002342  0E40               	movlw	64
  2605  002344  6FE9               	movwf	USBTransferOnePacket@len& (0+255),b
  2606  002346  0E02               	movlw	2
  2607  002348  ECBF  F00A         	call	_USBTransferOnePacket
  2608  00234C  C0E6  F086         	movff	?_USBTransferOnePacket,_CDCDataOutHandle
  2609  002350  C0E7  F087         	movff	?_USBTransferOnePacket+1,_CDCDataOutHandle+1
  2610  002354                     l5579:
  2611                           
  2612                           ;usb_device_cdc.c: 513:     return cdc_rx_len;
  2613  002354  0100               	movlb	0	; () banked
  2614  002356  518C               	movf	_cdc_rx_len& (0+255),w,b
  2615  002358                     
  2616                           ; BSR set to: 0
  2617  002358  0012               	return		;funcret
  2618  00235A                     __end_of_getsUSBUSART:
  2619                           	opt callstack 0
  2620                           
  2621 ;; *************** function _NumToUART *****************
  2622 ;; Defined at:
  2623 ;;		line 15 in file "USB_CDC_diymicro.c"
  2624 ;; Parameters:    Size  Location     Type
  2625 ;;  number          2    7[BANK0 ] unsigned short 
  2626 ;; Auto vars:     Size  Location     Type
  2627 ;;  i               1   17[BANK0 ] unsigned char 
  2628 ;;  i               1   18[BANK0 ] unsigned char 
  2629 ;;  bignum          2   19[BANK0 ] unsigned short 
  2630 ;;  temp_Number     2    0        unsigned short 
  2631 ;;  numtemp         1   21[BANK0 ] unsigned char 
  2632 ;; Return value:  Size  Location     Type
  2633 ;;                  1    wreg      void 
  2634 ;; Registers used:
  2635 ;;		wreg, fsr1l, fsr1h, fsr2l, fsr2h, status,2, status,0, prodl, prodh, cstack
  2636 ;; Tracked objects:
  2637 ;;		On entry : 0/0
  2638 ;;		On exit  : 0/0
  2639 ;;		Unchanged: 0/0
  2640 ;; Data sizes:     COMRAM   BANK0   BANK1   BANK2
  2641 ;;      Params:         0       2       0       0
  2642 ;;      Locals:         0       9       0       0
  2643 ;;      Temps:          0       4       0       0
  2644 ;;      Totals:         0      15       0       0
  2645 ;;Total ram usage:       15 bytes
  2646 ;; Hardware stack levels used:    1
  2647 ;; Hardware stack levels required when called:   11
  2648 ;; This function calls:
  2649 ;;		___lwdiv
  2650 ;;		_putUSBUSART
  2651 ;; This function is called by:
  2652 ;;		_APP_DeviceCDCBasicDemoTasks
  2653 ;; This function uses a non-reentrant model
  2654 ;;
  2655                           
  2656                           	psect	text10
  2657  000B22                     __ptext10:
  2658                           	opt callstack 0
  2659  000B22                     _NumToUART:
  2660                           	opt callstack 18
  2661  000B22                     
  2662                           ;USB_CDC_diymicro.c: 15: void NumToUART(uint16_t number);USB_CDC_diymicro.c: 16: {;USB_C
      +                          DC_diymicro.c: 17:  uint16_t bignum = 10000;
  2663  000B22  0E27               	movlw	39
  2664  000B24  0100               	movlb	0	; () banked
  2665  000B26  6FFA               	movwf	(NumToUART@bignum+1)& (0+255),b
  2666  000B28  0E10               	movlw	16
  2667  000B2A  6FF9               	movwf	NumToUART@bignum& (0+255),b
  2668                           
  2669                           ;USB_CDC_diymicro.c: 19:  uint8_t numtemp = 5;
  2670  000B2C  0E05               	movlw	5
  2671  000B2E  6FFB               	movwf	NumToUART@numtemp& (0+255),b
  2672                           
  2673                           ;USB_CDC_diymicro.c: 20:     static uint8_t temp_data[5];;USB_CDC_diymicro.c: 22:  while
      +                           (numtemp>0)
  2674  000B30  EFBF  F005         	goto	l5593
  2675  000B34                     l5585:
  2676                           
  2677                           ; BSR set to: 0
  2678                           ;USB_CDC_diymicro.c: 23:     {;USB_CDC_diymicro.c: 24:         if (number/bignum)
  2679  000B34  C0ED  F0E6         	movff	NumToUART@number,___lwdiv@dividend
  2680  000B38  C0EE  F0E7         	movff	NumToUART@number+1,___lwdiv@dividend+1
  2681  000B3C  C0F9  F0E8         	movff	NumToUART@bignum,___lwdiv@divisor
  2682  000B40  C0FA  F0E9         	movff	NumToUART@bignum+1,___lwdiv@divisor+1
  2683  000B44  EC54  F013         	call	___lwdiv	;wreg free
  2684  000B48  0100               	movlb	0	; () banked
  2685  000B4A  51E6               	movf	?___lwdiv& (0+255),w,b
  2686  000B4C  11E7               	iorwf	(?___lwdiv+1)& (0+255),w,b
  2687  000B4E  B4D8               	btfsc	status,2,c
  2688  000B50  EFAC  F005         	goto	u3931
  2689  000B54  EFAE  F005         	goto	u3930
  2690  000B58                     u3931:
  2691  000B58  EFB0  F005         	goto	l5589
  2692  000B5C                     u3930:
  2693  000B5C  EFC8  F005         	goto	l780
  2694  000B60                     l5589:
  2695                           
  2696                           ; BSR set to: 0
  2697                           ;USB_CDC_diymicro.c: 26:         numtemp--;
  2698  000B60  07FB               	decf	NumToUART@numtemp& (0+255),f,b
  2699  000B62                     
  2700                           ; BSR set to: 0
  2701                           ;USB_CDC_diymicro.c: 27:         bignum = bignum/10;
  2702  000B62  C0F9  F0E6         	movff	NumToUART@bignum,___lwdiv@dividend
  2703  000B66  C0FA  F0E7         	movff	NumToUART@bignum+1,___lwdiv@dividend+1
  2704  000B6A  0E00               	movlw	0
  2705  000B6C  6FE9               	movwf	(___lwdiv@divisor+1)& (0+255),b
  2706  000B6E  0E0A               	movlw	10
  2707  000B70  6FE8               	movwf	___lwdiv@divisor& (0+255),b
  2708  000B72  EC54  F013         	call	___lwdiv	;wreg free
  2709  000B76  C0E6  F0F9         	movff	?___lwdiv,NumToUART@bignum
  2710  000B7A  C0E7  F0FA         	movff	?___lwdiv+1,NumToUART@bignum+1
  2711  000B7E                     l5593:
  2712                           
  2713                           ;USB_CDC_diymicro.c: 22:  while (numtemp>0)
  2714  000B7E  0100               	movlb	0	; () banked
  2715  000B80  51FB               	movf	NumToUART@numtemp& (0+255),w,b
  2716  000B82  A4D8               	btfss	status,2,c
  2717  000B84  EFC6  F005         	goto	u3941
  2718  000B88  EFC8  F005         	goto	u3940
  2719  000B8C                     u3941:
  2720  000B8C  EF9A  F005         	goto	l5585
  2721  000B90                     u3940:
  2722  000B90                     l780:
  2723                           
  2724                           ; BSR set to: 0
  2725                           ;USB_CDC_diymicro.c: 30:    for (uint8_t i = numtemp; i>0; i--)
  2726  000B90  C0FB  F0F8         	movff	NumToUART@numtemp,NumToUART@i
  2727  000B94                     l5595:
  2728                           
  2729                           ; BSR set to: 0
  2730  000B94  51F8               	movf	NumToUART@i& (0+255),w,b
  2731  000B96  A4D8               	btfss	status,2,c
  2732  000B98  EFD0  F005         	goto	u3951
  2733  000B9C  EFD2  F005         	goto	u3950
  2734  000BA0                     u3951:
  2735  000BA0  EFD4  F005         	goto	l5599
  2736  000BA4                     u3950:
  2737  000BA4  EF4A  F006         	goto	l5613
  2738  000BA8                     l5599:
  2739                           
  2740                           ; BSR set to: 0
  2741                           ;USB_CDC_diymicro.c: 31:  {;USB_CDC_diymicro.c: 32:        if (i == numtemp)
  2742  000BA8  51FB               	movf	NumToUART@numtemp& (0+255),w,b
  2743  000BAA  19F8               	xorwf	NumToUART@i& (0+255),w,b
  2744  000BAC  A4D8               	btfss	status,2,c
  2745  000BAE  EFDB  F005         	goto	u3961
  2746  000BB2  EFDD  F005         	goto	u3960
  2747  000BB6                     u3961:
  2748  000BB6  EFFB  F005         	goto	l5603
  2749  000BBA                     u3960:
  2750  000BBA                     
  2751                           ; BSR set to: 0
  2752                           ;USB_CDC_diymicro.c: 33:            temp_data[numtemp-i]=number/bignum;
  2753  000BBA  0EDF               	movlw	low NumToUART@temp_data
  2754  000BBC  6FEF               	movwf	??_NumToUART& (0+255),b
  2755  000BBE  0E00               	movlw	high NumToUART@temp_data
  2756  000BC0  6FF0               	movwf	(??_NumToUART+1)& (0+255),b
  2757  000BC2  51FB               	movf	NumToUART@numtemp& (0+255),w,b
  2758  000BC4  27EF               	addwf	??_NumToUART& (0+255),f,b
  2759  000BC6  0E00               	movlw	0
  2760  000BC8  23F0               	addwfc	(??_NumToUART+1)& (0+255),f,b
  2761  000BCA  51F8               	movf	NumToUART@i& (0+255),w,b
  2762  000BCC  5DEF               	subwf	??_NumToUART& (0+255),w,b
  2763  000BCE  6ED9               	movwf	fsr2l,c
  2764  000BD0  51F0               	movf	(??_NumToUART+1)& (0+255),w,b
  2765  000BD2  A0D8               	btfss	status,0,c
  2766  000BD4  05F0               	decf	(??_NumToUART+1)& (0+255),w,b
  2767  000BD6  6EDA               	movwf	fsr2h,c
  2768  000BD8  C0ED  F0E6         	movff	NumToUART@number,___lwdiv@dividend
  2769  000BDC  C0EE  F0E7         	movff	NumToUART@number+1,___lwdiv@dividend+1
  2770  000BE0  C0F9  F0E8         	movff	NumToUART@bignum,___lwdiv@divisor
  2771  000BE4  C0FA  F0E9         	movff	NumToUART@bignum+1,___lwdiv@divisor+1
  2772  000BE8  EC54  F013         	call	___lwdiv	;wreg free
  2773  000BEC  0100               	movlb	0	; () banked
  2774  000BEE  51E6               	movf	?___lwdiv& (0+255),w,b
  2775  000BF0  6EDF               	movwf	indf2,c
  2776  000BF2  EF38  F006         	goto	l5607
  2777  000BF6                     l5603:
  2778                           
  2779                           ; BSR set to: 0
  2780                           ;USB_CDC_diymicro.c: 35:        {;USB_CDC_diymicro.c: 36:             temp_data[numtemp-
      +                          i]=number/bignum - (number/bignum/10)*10;
  2781  000BF6  C0F9  F0E8         	movff	NumToUART@bignum,___lwdiv@divisor
  2782  000BFA  C0FA  F0E9         	movff	NumToUART@bignum+1,___lwdiv@divisor+1
  2783  000BFE  C0ED  F0E6         	movff	NumToUART@number,___lwdiv@dividend
  2784  000C02  C0EE  F0E7         	movff	NumToUART@number+1,___lwdiv@dividend+1
  2785  000C06  EC54  F013         	call	___lwdiv	;wreg free
  2786  000C0A  C0E6  F0F5         	movff	?___lwdiv,_NumToUART$3538
  2787  000C0E  C0E7  F0F6         	movff	?___lwdiv+1,_NumToUART$3538+1
  2788  000C12                     
  2789                           ;USB_CDC_diymicro.c: 35:        {;USB_CDC_diymicro.c: 36:             temp_data[numtemp-
      +                          i]=number/bignum - (number/bignum/10)*10;
  2790  000C12  0EDF               	movlw	low NumToUART@temp_data
  2791  000C14  0100               	movlb	0	; () banked
  2792  000C16  6FEF               	movwf	??_NumToUART& (0+255),b
  2793  000C18  0E00               	movlw	high NumToUART@temp_data
  2794  000C1A  6FF0               	movwf	(??_NumToUART+1)& (0+255),b
  2795  000C1C  51FB               	movf	NumToUART@numtemp& (0+255),w,b
  2796  000C1E  27EF               	addwf	??_NumToUART& (0+255),f,b
  2797  000C20  0E00               	movlw	0
  2798  000C22  23F0               	addwfc	(??_NumToUART+1)& (0+255),f,b
  2799  000C24  51F8               	movf	NumToUART@i& (0+255),w,b
  2800  000C26  5DEF               	subwf	??_NumToUART& (0+255),w,b
  2801  000C28  6ED9               	movwf	fsr2l,c
  2802  000C2A  51F0               	movf	(??_NumToUART+1)& (0+255),w,b
  2803  000C2C  A0D8               	btfss	status,0,c
  2804  000C2E  05F0               	decf	(??_NumToUART+1)& (0+255),w,b
  2805  000C30  6EDA               	movwf	fsr2h,c
  2806  000C32  C0ED  F0E6         	movff	NumToUART@number,___lwdiv@dividend
  2807  000C36  C0EE  F0E7         	movff	NumToUART@number+1,___lwdiv@dividend+1
  2808  000C3A  C0F9  F0E8         	movff	NumToUART@bignum,___lwdiv@divisor
  2809  000C3E  C0FA  F0E9         	movff	NumToUART@bignum+1,___lwdiv@divisor+1
  2810  000C42  EC54  F013         	call	___lwdiv	;wreg free
  2811  000C46  C0E6  F0F1         	movff	?___lwdiv,??_NumToUART+2
  2812  000C4A  C0E7  F0F2         	movff	?___lwdiv+1,??_NumToUART+3
  2813  000C4E  C0F5  F0E6         	movff	_NumToUART$3538,___lwdiv@dividend
  2814  000C52  C0F6  F0E7         	movff	_NumToUART$3538+1,___lwdiv@dividend+1
  2815  000C56  0E00               	movlw	0
  2816  000C58  0100               	movlb	0	; () banked
  2817  000C5A  6FE9               	movwf	(___lwdiv@divisor+1)& (0+255),b
  2818  000C5C  0E0A               	movlw	10
  2819  000C5E  6FE8               	movwf	___lwdiv@divisor& (0+255),b
  2820  000C60  EC54  F013         	call	___lwdiv	;wreg free
  2821  000C64  0100               	movlb	0	; () banked
  2822  000C66  51E6               	movf	?___lwdiv& (0+255),w,b
  2823  000C68  0DF6               	mullw	246
  2824  000C6A  50F3               	movf	243,w,c
  2825  000C6C  25F1               	addwf	(??_NumToUART+2)& (0+255),w,b
  2826  000C6E  6EDF               	movwf	indf2,c
  2827  000C70                     l5607:
  2828                           
  2829                           ; BSR set to: 0
  2830                           ;USB_CDC_diymicro.c: 38:            bignum = bignum/10;
  2831  000C70  C0F9  F0E6         	movff	NumToUART@bignum,___lwdiv@dividend
  2832  000C74  C0FA  F0E7         	movff	NumToUART@bignum+1,___lwdiv@dividend+1
  2833  000C78  0E00               	movlw	0
  2834  000C7A  6FE9               	movwf	(___lwdiv@divisor+1)& (0+255),b
  2835  000C7C  0E0A               	movlw	10
  2836  000C7E  6FE8               	movwf	___lwdiv@divisor& (0+255),b
  2837  000C80  EC54  F013         	call	___lwdiv	;wreg free
  2838  000C84  C0E6  F0F9         	movff	?___lwdiv,NumToUART@bignum
  2839  000C88  C0E7  F0FA         	movff	?___lwdiv+1,NumToUART@bignum+1
  2840  000C8C                     
  2841                           ;USB_CDC_diymicro.c: 39:        }
  2842  000C8C  0100               	movlb	0	; () banked
  2843  000C8E  07F8               	decf	NumToUART@i& (0+255),f,b
  2844  000C90  EFCA  F005         	goto	l5595
  2845  000C94                     l5613:
  2846                           
  2847                           ; BSR set to: 0
  2848                           ;USB_CDC_diymicro.c: 41:     for (uint8_t i =0; i<numtemp; i++)
  2849  000C94  0E00               	movlw	0
  2850  000C96  6FF7               	movwf	NumToUART@i_2814& (0+255),b
  2851  000C98  EF5E  F006         	goto	l5619
  2852  000C9C                     l5615:
  2853                           
  2854                           ; BSR set to: 0
  2855                           ;USB_CDC_diymicro.c: 42:     {;USB_CDC_diymicro.c: 43:         temp_data[i]=temp_data[i]
      +                          +'0';
  2856  000C9C  0EDF               	movlw	low NumToUART@temp_data
  2857  000C9E  25F7               	addwf	NumToUART@i_2814& (0+255),w,b
  2858  000CA0  6ED9               	movwf	fsr2l,c
  2859  000CA2  6ADA               	clrf	fsr2h,c
  2860  000CA4  0E00               	movlw	high NumToUART@temp_data
  2861  000CA6  22DA               	addwfc	fsr2h,f,c
  2862  000CA8  0EDF               	movlw	low NumToUART@temp_data
  2863  000CAA  25F7               	addwf	NumToUART@i_2814& (0+255),w,b
  2864  000CAC  6EE1               	movwf	fsr1l,c
  2865  000CAE  6AE2               	clrf	fsr1h,c
  2866  000CB0  0E00               	movlw	high NumToUART@temp_data
  2867  000CB2  22E2               	addwfc	fsr1h,f,c
  2868  000CB4  50E7               	movf	indf1,w,c
  2869  000CB6  0F30               	addlw	48
  2870  000CB8  6EDF               	movwf	indf2,c
  2871  000CBA                     
  2872                           ; BSR set to: 0
  2873                           ;USB_CDC_diymicro.c: 44:     }
  2874  000CBA  2BF7               	incf	NumToUART@i_2814& (0+255),f,b
  2875  000CBC                     l5619:
  2876                           
  2877                           ; BSR set to: 0
  2878  000CBC  51FB               	movf	NumToUART@numtemp& (0+255),w,b
  2879  000CBE  5DF7               	subwf	NumToUART@i_2814& (0+255),w,b
  2880  000CC0  A0D8               	btfss	status,0,c
  2881  000CC2  EF65  F006         	goto	u3971
  2882  000CC6  EF67  F006         	goto	u3970
  2883  000CCA                     u3971:
  2884  000CCA  EF4E  F006         	goto	l5615
  2885  000CCE                     u3970:
  2886  000CCE                     
  2887                           ; BSR set to: 0
  2888                           ;USB_CDC_diymicro.c: 45:         if( (cdc_trf_state == 0) == 1)
  2889  000CCE  518E               	movf	_cdc_trf_state& (0+255),w,b
  2890  000CD0  A4D8               	btfss	status,2,c
  2891  000CD2  EF6D  F006         	goto	u3981
  2892  000CD6  EF6F  F006         	goto	u3980
  2893  000CDA                     u3981:
  2894  000CDA  EF77  F006         	goto	l789
  2895  000CDE                     u3980:
  2896  000CDE                     
  2897                           ; BSR set to: 0
  2898                           ;USB_CDC_diymicro.c: 46:             putUSBUSART(temp_data,numtemp);
  2899  000CDE  0EDF               	movlw	low NumToUART@temp_data
  2900  000CE0  6FE6               	movwf	putUSBUSART@data& (0+255),b
  2901  000CE2  0E00               	movlw	high NumToUART@temp_data
  2902  000CE4  6FE7               	movwf	(putUSBUSART@data+1)& (0+255),b
  2903  000CE6  C0FB  F0E8         	movff	NumToUART@numtemp,putUSBUSART@length
  2904  000CEA  ECE0  F016         	call	_putUSBUSART	;wreg free
  2905  000CEE                     l789:
  2906  000CEE  0012               	return		;funcret
  2907  000CF0                     __end_of_NumToUART:
  2908                           	opt callstack 0
  2909                           
  2910 ;; *************** function _putUSBUSART *****************
  2911 ;; Defined at:
  2912 ;;		line 557 in file "usb_device_cdc.c"
  2913 ;; Parameters:    Size  Location     Type
  2914 ;;  data            2    0[BANK0 ] PTR unsigned char 
  2915 ;;		 -> NumToUART@temp_data(5), writeBuffer(64), 
  2916 ;;  length          1    2[BANK0 ] unsigned char 
  2917 ;; Auto vars:     Size  Location     Type
  2918 ;;		None
  2919 ;; Return value:  Size  Location     Type
  2920 ;;                  1    wreg      void 
  2921 ;; Registers used:
  2922 ;;		wreg, status,2, status,0
  2923 ;; Tracked objects:
  2924 ;;		On entry : 0/0
  2925 ;;		On exit  : 0/0
  2926 ;;		Unchanged: 0/0
  2927 ;; Data sizes:     COMRAM   BANK0   BANK1   BANK2
  2928 ;;      Params:         0       3       0       0
  2929 ;;      Locals:         0       0       0       0
  2930 ;;      Temps:          0       0       0       0
  2931 ;;      Totals:         0       3       0       0
  2932 ;;Total ram usage:        3 bytes
  2933 ;; Hardware stack levels used:    1
  2934 ;; Hardware stack levels required when called:   10
  2935 ;; This function calls:
  2936 ;;		Nothing
  2937 ;; This function is called by:
  2938 ;;		_APP_DeviceCDCBasicDemoTasks
  2939 ;;		_NumToUART
  2940 ;; This function uses a non-reentrant model
  2941 ;;
  2942                           
  2943                           	psect	text11
  2944  002DC0                     __ptext11:
  2945                           	opt callstack 0
  2946  002DC0                     _putUSBUSART:
  2947                           	opt callstack 19
  2948  002DC0                     
  2949                           ;usb_device_cdc.c: 557: void putUSBUSART(uint8_t *data, uint8_t length);usb_device_cdc.c
      +                          : 558: {;usb_device_cdc.c: 582:     {PIE2bits.USBIE = 0;};
  2950  002DC0  94A0               	bcf	160,2,c	;volatile
  2951  002DC2                     
  2952                           ;usb_device_cdc.c: 583:     if(cdc_trf_state == 0)
  2953  002DC2  0100               	movlb	0	; () banked
  2954  002DC4  518E               	movf	_cdc_trf_state& (0+255),w,b
  2955  002DC6  A4D8               	btfss	status,2,c
  2956  002DC8  EFE8  F016         	goto	u3771
  2957  002DCC  EFEA  F016         	goto	u3770
  2958  002DD0                     u3771:
  2959  002DD0  EFF4  F016         	goto	l5457
  2960  002DD4                     u3770:
  2961  002DD4                     
  2962                           ; BSR set to: 0
  2963                           ;usb_device_cdc.c: 584:     {;usb_device_cdc.c: 585:         { pCDCSrc.bRam = (uint8_t*)
      +                          data; cdc_tx_len = length; cdc_mem_type = 0x01; cdc_trf_state = 1; };
  2964  002DD4  C0E6  F07B         	movff	putUSBUSART@data,_pCDCSrc
  2965  002DD8  C0E7  F07C         	movff	putUSBUSART@data+1,_pCDCSrc+1
  2966  002DDC                     
  2967                           ; BSR set to: 0
  2968  002DDC  C0E8  F01B         	movff	putUSBUSART@length,_cdc_tx_len
  2969  002DE0                     
  2970                           ; BSR set to: 0
  2971  002DE0  0E01               	movlw	1
  2972  002DE2  6F8B               	movwf	_cdc_mem_type& (0+255),b
  2973  002DE4                     
  2974                           ; BSR set to: 0
  2975  002DE4  0E01               	movlw	1
  2976  002DE6  6F8E               	movwf	_cdc_trf_state& (0+255),b
  2977  002DE8                     l5457:
  2978                           
  2979                           ; BSR set to: 0
  2980                           ;usb_device_cdc.c: 587:     {PIE2bits.USBIE = 1;};
  2981  002DE8  84A0               	bsf	160,2,c	;volatile
  2982  002DEA                     
  2983                           ; BSR set to: 0
  2984  002DEA  0012               	return		;funcret
  2985  002DEC                     __end_of_putUSBUSART:
  2986                           	opt callstack 0
  2987                           
  2988 ;; *************** function ___lwdiv *****************
  2989 ;; Defined at:
  2990 ;;		line 7 in file "C:\Program Files (x86)\Microchip\xc8\v2.10\pic\sources\c99\common\lwdiv.c"
  2991 ;; Parameters:    Size  Location     Type
  2992 ;;  dividend        2    0[BANK0 ] unsigned int 
  2993 ;;  divisor         2    2[BANK0 ] unsigned int 
  2994 ;; Auto vars:     Size  Location     Type
  2995 ;;  quotient        2    5[BANK0 ] unsigned int 
  2996 ;;  counter         1    4[BANK0 ] unsigned char 
  2997 ;; Return value:  Size  Location     Type
  2998 ;;                  2    0[BANK0 ] unsigned int 
  2999 ;; Registers used:
  3000 ;;		wreg, status,2, status,0
  3001 ;; Tracked objects:
  3002 ;;		On entry : 0/0
  3003 ;;		On exit  : 0/0
  3004 ;;		Unchanged: 0/0
  3005 ;; Data sizes:     COMRAM   BANK0   BANK1   BANK2
  3006 ;;      Params:         0       4       0       0
  3007 ;;      Locals:         0       3       0       0
  3008 ;;      Temps:          0       0       0       0
  3009 ;;      Totals:         0       7       0       0
  3010 ;;Total ram usage:        7 bytes
  3011 ;; Hardware stack levels used:    1
  3012 ;; Hardware stack levels required when called:   10
  3013 ;; This function calls:
  3014 ;;		Nothing
  3015 ;; This function is called by:
  3016 ;;		_NumToUART
  3017 ;; This function uses a non-reentrant model
  3018 ;;
  3019                           
  3020                           	psect	text12
  3021  0026A8                     __ptext12:
  3022                           	opt callstack 0
  3023  0026A8                     ___lwdiv:
  3024                           	opt callstack 18
  3025  0026A8  0E00               	movlw	0
  3026  0026AA  0100               	movlb	0	; () banked
  3027  0026AC  6FEC               	movwf	(___lwdiv@quotient+1)& (0+255),b
  3028  0026AE  0E00               	movlw	0
  3029  0026B0  6FEB               	movwf	___lwdiv@quotient& (0+255),b
  3030  0026B2                     
  3031                           ; BSR set to: 0
  3032  0026B2  51E8               	movf	___lwdiv@divisor& (0+255),w,b
  3033  0026B4  11E9               	iorwf	(___lwdiv@divisor+1)& (0+255),w,b
  3034  0026B6  B4D8               	btfsc	status,2,c
  3035  0026B8  EF60  F013         	goto	u3811
  3036  0026BC  EF62  F013         	goto	u3810
  3037  0026C0                     u3811:
  3038  0026C0  EF8A  F013         	goto	l1283
  3039  0026C4                     u3810:
  3040  0026C4                     
  3041                           ; BSR set to: 0
  3042  0026C4  0E01               	movlw	1
  3043  0026C6  6FEA               	movwf	___lwdiv@counter& (0+255),b
  3044  0026C8  EF6A  F013         	goto	l5497
  3045  0026CC                     l5495:
  3046                           
  3047                           ; BSR set to: 0
  3048  0026CC  90D8               	bcf	status,0,c
  3049  0026CE  37E8               	rlcf	___lwdiv@divisor& (0+255),f,b
  3050  0026D0  37E9               	rlcf	(___lwdiv@divisor+1)& (0+255),f,b
  3051  0026D2  2BEA               	incf	___lwdiv@counter& (0+255),f,b
  3052  0026D4                     l5497:
  3053                           
  3054                           ; BSR set to: 0
  3055  0026D4  AFE9               	btfss	(___lwdiv@divisor+1)& (0+255),7,b
  3056  0026D6  EF6F  F013         	goto	u3821
  3057  0026DA  EF71  F013         	goto	u3820
  3058  0026DE                     u3821:
  3059  0026DE  EF66  F013         	goto	l5495
  3060  0026E2                     u3820:
  3061  0026E2                     l5499:
  3062                           
  3063                           ; BSR set to: 0
  3064  0026E2  90D8               	bcf	status,0,c
  3065  0026E4  37EB               	rlcf	___lwdiv@quotient& (0+255),f,b
  3066  0026E6  37EC               	rlcf	(___lwdiv@quotient+1)& (0+255),f,b
  3067  0026E8                     
  3068                           ; BSR set to: 0
  3069  0026E8  51E8               	movf	___lwdiv@divisor& (0+255),w,b
  3070  0026EA  5DE6               	subwf	___lwdiv@dividend& (0+255),w,b
  3071  0026EC  51E9               	movf	(___lwdiv@divisor+1)& (0+255),w,b
  3072  0026EE  59E7               	subwfb	(___lwdiv@dividend+1)& (0+255),w,b
  3073  0026F0  A0D8               	btfss	status,0,c
  3074  0026F2  EF7D  F013         	goto	u3831
  3075  0026F6  EF7F  F013         	goto	u3830
  3076  0026FA                     u3831:
  3077  0026FA  EF84  F013         	goto	l5507
  3078  0026FE                     u3830:
  3079  0026FE                     
  3080                           ; BSR set to: 0
  3081  0026FE  51E8               	movf	___lwdiv@divisor& (0+255),w,b
  3082  002700  5FE6               	subwf	___lwdiv@dividend& (0+255),f,b
  3083  002702  51E9               	movf	(___lwdiv@divisor+1)& (0+255),w,b
  3084  002704  5BE7               	subwfb	(___lwdiv@dividend+1)& (0+255),f,b
  3085  002706                     
  3086                           ; BSR set to: 0
  3087  002706  81EB               	bsf	___lwdiv@quotient& (0+255),0,b
  3088  002708                     l5507:
  3089                           
  3090                           ; BSR set to: 0
  3091  002708  90D8               	bcf	status,0,c
  3092  00270A  33E9               	rrcf	(___lwdiv@divisor+1)& (0+255),f,b
  3093  00270C  33E8               	rrcf	___lwdiv@divisor& (0+255),f,b
  3094  00270E                     
  3095                           ; BSR set to: 0
  3096  00270E  2FEA               	decfsz	___lwdiv@counter& (0+255),f,b
  3097  002710  EF71  F013         	goto	l5499
  3098  002714                     l1283:
  3099                           
  3100                           ; BSR set to: 0
  3101  002714  C0EB  F0E6         	movff	___lwdiv@quotient,?___lwdiv
  3102  002718  C0EC  F0E7         	movff	___lwdiv@quotient+1,?___lwdiv+1
  3103  00271C                     
  3104                           ; BSR set to: 0
  3105  00271C  0012               	return		;funcret
  3106  00271E                     __end_of___lwdiv:
  3107                           	opt callstack 0
  3108                           
  3109 ;; *************** function _CDCTxService *****************
  3110 ;; Defined at:
  3111 ;;		line 837 in file "usb_device_cdc.c"
  3112 ;; Parameters:    Size  Location     Type
  3113 ;;		None
  3114 ;; Auto vars:     Size  Location     Type
  3115 ;;  byte_to_send    1   12[BANK0 ] unsigned char 
  3116 ;;  i               1   11[BANK0 ] unsigned char 
  3117 ;; Return value:  Size  Location     Type
  3118 ;;                  1    wreg      void 
  3119 ;; Registers used:
  3120 ;;		wreg, fsr1l, fsr1h, fsr2l, fsr2h, status,2, status,0, prodl, prodh, cstack
  3121 ;; Tracked objects:
  3122 ;;		On entry : 0/0
  3123 ;;		On exit  : 0/0
  3124 ;;		Unchanged: 0/0
  3125 ;; Data sizes:     COMRAM   BANK0   BANK1   BANK2
  3126 ;;      Params:         0       0       0       0
  3127 ;;      Locals:         0       2       0       0
  3128 ;;      Temps:          0       0       0       0
  3129 ;;      Totals:         0       2       0       0
  3130 ;;Total ram usage:        2 bytes
  3131 ;; Hardware stack levels used:    1
  3132 ;; Hardware stack levels required when called:   11
  3133 ;; This function calls:
  3134 ;;		_USBTransferOnePacket
  3135 ;; This function is called by:
  3136 ;;		_APP_DeviceCDCBasicDemoTasks
  3137 ;; This function uses a non-reentrant model
  3138 ;;
  3139                           
  3140                           	psect	text13
  3141  000CF0                     __ptext13:
  3142                           	opt callstack 0
  3143  000CF0                     _CDCTxService:
  3144                           	opt callstack 18
  3145  000CF0                     
  3146                           ;usb_device_cdc.c: 839:     uint8_t byte_to_send;;usb_device_cdc.c: 840:     uint8_t i;;
      +                          usb_device_cdc.c: 842:     {PIE2bits.USBIE = 0;};
  3147  000CF0  94A0               	bcf	160,2,c	;volatile
  3148  000CF2                     
  3149                           ;usb_device_cdc.c: 844:     {};;usb_device_cdc.c: 846:     if(((CDCDataInHandle != 0x000
      +                          0) && ((*(volatile uint8_t*)CDCDataInHandle & 0x80) != 0x00)))
  3150  000CF2  0100               	movlb	0	; () banked
  3151  000CF4  5184               	movf	_CDCDataInHandle& (0+255),w,b
  3152  000CF6  1185               	iorwf	(_CDCDataInHandle+1)& (0+255),w,b
  3153  000CF8  B4D8               	btfsc	status,2,c
  3154  000CFA  EF81  F006         	goto	u3991
  3155  000CFE  EF83  F006         	goto	u3990
  3156  000D02                     u3991:
  3157  000D02  EF91  F006         	goto	l5633
  3158  000D06                     u3990:
  3159  000D06                     
  3160                           ; BSR set to: 0
  3161  000D06  C084  FFD9         	movff	_CDCDataInHandle,fsr2l
  3162  000D0A  C085  FFDA         	movff	_CDCDataInHandle+1,fsr2h
  3163  000D0E  AEDF               	btfss	indf2,7,c
  3164  000D10  EF8C  F006         	goto	u4001
  3165  000D14  EF8E  F006         	goto	u4000
  3166  000D18                     u4001:
  3167  000D18  EF91  F006         	goto	l5633
  3168  000D1C                     u4000:
  3169  000D1C                     
  3170                           ; BSR set to: 0
  3171                           ;usb_device_cdc.c: 847:     {;usb_device_cdc.c: 848:         {PIE2bits.USBIE = 1;};
  3172  000D1C  84A0               	bsf	160,2,c	;volatile
  3173                           
  3174                           ;usb_device_cdc.c: 849:         return;
  3175  000D1E  EF44  F007         	goto	l725
  3176  000D22                     l5633:
  3177                           
  3178                           ; BSR set to: 0
  3179                           ;usb_device_cdc.c: 857:     if(cdc_trf_state == 3)
  3180  000D22  0E03               	movlw	3
  3181  000D24  198E               	xorwf	_cdc_trf_state& (0+255),w,b
  3182  000D26  A4D8               	btfss	status,2,c
  3183  000D28  EF98  F006         	goto	u4011
  3184  000D2C  EF9A  F006         	goto	u4010
  3185  000D30                     u4011:
  3186  000D30  EF9C  F006         	goto	l726
  3187  000D34                     u4010:
  3188  000D34                     
  3189                           ; BSR set to: 0
  3190                           ;usb_device_cdc.c: 858:         cdc_trf_state = 0;
  3191  000D34  0E00               	movlw	0
  3192  000D36  6F8E               	movwf	_cdc_trf_state& (0+255),b
  3193  000D38                     l726:
  3194                           
  3195                           ; BSR set to: 0
  3196                           ;usb_device_cdc.c: 863:     if(cdc_trf_state == 0)
  3197  000D38  518E               	movf	_cdc_trf_state& (0+255),w,b
  3198  000D3A  A4D8               	btfss	status,2,c
  3199  000D3C  EFA2  F006         	goto	u4021
  3200  000D40  EFA4  F006         	goto	u4020
  3201  000D44                     u4021:
  3202  000D44  EFA7  F006         	goto	l5639
  3203  000D48                     u4020:
  3204  000D48                     
  3205                           ; BSR set to: 0
  3206                           ;usb_device_cdc.c: 864:     {;usb_device_cdc.c: 865:         {PIE2bits.USBIE = 1;};
  3207  000D48  84A0               	bsf	160,2,c	;volatile
  3208                           
  3209                           ;usb_device_cdc.c: 866:         return;
  3210  000D4A  EF44  F007         	goto	l725
  3211  000D4E                     l5639:
  3212                           
  3213                           ; BSR set to: 0
  3214                           ;usb_device_cdc.c: 872:     if(cdc_trf_state == 2)
  3215  000D4E  0E02               	movlw	2
  3216  000D50  198E               	xorwf	_cdc_trf_state& (0+255),w,b
  3217  000D52  A4D8               	btfss	status,2,c
  3218  000D54  EFAE  F006         	goto	u4031
  3219  000D58  EFB0  F006         	goto	u4030
  3220  000D5C                     u4031:
  3221  000D5C  EFC4  F006         	goto	l5645
  3222  000D60                     u4030:
  3223  000D60                     
  3224                           ; BSR set to: 0
  3225                           ;usb_device_cdc.c: 873:     {;usb_device_cdc.c: 874:         CDCDataInHandle = USBTransf
      +                          erOnePacket(2,1,((void*)0),0);
  3226  000D60  0E01               	movlw	1
  3227  000D62  6FE6               	movwf	USBTransferOnePacket@dir& (0+255),b
  3228  000D64  0E00               	movlw	0
  3229  000D66  6FE7               	movwf	USBTransferOnePacket@data& (0+255),b
  3230  000D68  0E00               	movlw	0
  3231  000D6A  6FE8               	movwf	(USBTransferOnePacket@data+1)& (0+255),b
  3232  000D6C  0E00               	movlw	0
  3233  000D6E  6FE9               	movwf	USBTransferOnePacket@len& (0+255),b
  3234  000D70  0E02               	movlw	2
  3235  000D72  ECBF  F00A         	call	_USBTransferOnePacket
  3236  000D76  C0E6  F084         	movff	?_USBTransferOnePacket,_CDCDataInHandle
  3237  000D7A  C0E7  F085         	movff	?_USBTransferOnePacket+1,_CDCDataInHandle+1
  3238  000D7E                     
  3239                           ;usb_device_cdc.c: 876:         cdc_trf_state = 3;
  3240  000D7E  0E03               	movlw	3
  3241  000D80  0100               	movlb	0	; () banked
  3242  000D82  6F8E               	movwf	_cdc_trf_state& (0+255),b
  3243                           
  3244                           ;usb_device_cdc.c: 877:     }
  3245  000D84  EF43  F007         	goto	l5689
  3246  000D88                     l5645:
  3247                           
  3248                           ; BSR set to: 0
  3249  000D88  058E               	decf	_cdc_trf_state& (0+255),w,b
  3250  000D8A  A4D8               	btfss	status,2,c
  3251  000D8C  EFCA  F006         	goto	u4041
  3252  000D90  EFCC  F006         	goto	u4040
  3253  000D94                     u4041:
  3254  000D94  EF43  F007         	goto	l5689
  3255  000D98                     u4040:
  3256  000D98                     
  3257                           ; BSR set to: 0
  3258                           ;usb_device_cdc.c: 879:     {;usb_device_cdc.c: 883:      if(cdc_tx_len > sizeof(cdc_dat
      +                          a_tx))
  3259  000D98  0E40               	movlw	64
  3260  000D9A  641B               	cpfsgt	_cdc_tx_len^0,c
  3261  000D9C  EFD2  F006         	goto	u4051
  3262  000DA0  EFD4  F006         	goto	u4050
  3263  000DA4                     u4051:
  3264  000DA4  EFD8  F006         	goto	l731
  3265  000DA8                     u4050:
  3266  000DA8                     
  3267                           ; BSR set to: 0
  3268                           ;usb_device_cdc.c: 884:          byte_to_send = sizeof(cdc_data_tx);
  3269  000DA8  0E40               	movlw	64
  3270  000DAA  6FF2               	movwf	CDCTxService@byte_to_send& (0+255),b
  3271  000DAC  EFDA  F006         	goto	l5651
  3272  000DB0                     l731:
  3273                           
  3274                           ; BSR set to: 0
  3275                           ;usb_device_cdc.c: 886:          byte_to_send = cdc_tx_len;
  3276  000DB0  C01B  F0F2         	movff	_cdc_tx_len,CDCTxService@byte_to_send
  3277  000DB4                     l5651:
  3278                           
  3279                           ; BSR set to: 0
  3280                           ;usb_device_cdc.c: 891:      cdc_tx_len = cdc_tx_len - byte_to_send;
  3281  000DB4  51F2               	movf	CDCTxService@byte_to_send& (0+255),w,b
  3282  000DB6  5C1B               	subwf	_cdc_tx_len^0,w,c
  3283  000DB8  6E1B               	movwf	_cdc_tx_len^0,c
  3284                           
  3285                           ;usb_device_cdc.c: 893:         pCDCDst.bRam = (uint8_t*)&cdc_data_tx;
  3286  000DBA  0E40               	movlw	64
  3287  000DBC  6F78               	movwf	_pCDCDst& (0+255),b
  3288  000DBE  0E02               	movlw	2
  3289  000DC0  6F79               	movwf	(_pCDCDst+1)& (0+255),b
  3290  000DC2                     
  3291                           ; BSR set to: 0
  3292                           ;usb_device_cdc.c: 895:         i = byte_to_send;
  3293  000DC2  C0F2  F0F1         	movff	CDCTxService@byte_to_send,CDCTxService@i
  3294  000DC6                     
  3295                           ; BSR set to: 0
  3296                           ;usb_device_cdc.c: 896:         if(cdc_mem_type == 0x00)
  3297  000DC6  518B               	movf	_cdc_mem_type& (0+255),w,b
  3298  000DC8  A4D8               	btfss	status,2,c
  3299  000DCA  EFE9  F006         	goto	u4061
  3300  000DCE  EFEB  F006         	goto	u4060
  3301  000DD2                     u4061:
  3302  000DD2  EF15  F007         	goto	l5677
  3303  000DD6                     u4060:
  3304  000DD6  EFFC  F006         	goto	l5667
  3305  000DDA                     l5659:
  3306                           
  3307                           ; BSR set to: 0
  3308                           ;usb_device_cdc.c: 899:             {;usb_device_cdc.c: 900:                 *pCDCDst.bR
      +                          am = *pCDCSrc.bRom;
  3309  000DDA  C07B  FFD9         	movff	_pCDCSrc,fsr2l
  3310  000DDE  C07C  FFDA         	movff	_pCDCSrc+1,fsr2h
  3311  000DE2  C078  FFE1         	movff	_pCDCDst,fsr1l
  3312  000DE6  C079  FFE2         	movff	_pCDCDst+1,fsr1h
  3313  000DEA  CFDF FFE7          	movff	indf2,indf1
  3314  000DEE                     
  3315                           ; BSR set to: 0
  3316                           ;usb_device_cdc.c: 901:                 pCDCDst.bRam++;
  3317  000DEE  4B78               	infsnz	_pCDCDst& (0+255),f,b
  3318  000DF0  2B79               	incf	(_pCDCDst+1)& (0+255),f,b
  3319  000DF2                     
  3320                           ; BSR set to: 0
  3321                           ;usb_device_cdc.c: 902:                 pCDCSrc.bRom++;
  3322  000DF2  4B7B               	infsnz	_pCDCSrc& (0+255),f,b
  3323  000DF4  2B7C               	incf	(_pCDCSrc+1)& (0+255),f,b
  3324  000DF6                     
  3325                           ; BSR set to: 0
  3326                           ;usb_device_cdc.c: 903:                 i--;
  3327  000DF6  07F1               	decf	CDCTxService@i& (0+255),f,b
  3328  000DF8                     l5667:
  3329                           
  3330                           ; BSR set to: 0
  3331                           ;usb_device_cdc.c: 898:             while(i)
  3332  000DF8  51F1               	movf	CDCTxService@i& (0+255),w,b
  3333  000DFA  A4D8               	btfss	status,2,c
  3334  000DFC  EF02  F007         	goto	u4071
  3335  000E00  EF04  F007         	goto	u4070
  3336  000E04                     u4071:
  3337  000E04  EFED  F006         	goto	l5659
  3338  000E08                     u4070:
  3339  000E08  EF1D  F007         	goto	l5679
  3340  000E0C                     l5669:
  3341                           
  3342                           ; BSR set to: 0
  3343                           ;usb_device_cdc.c: 909:             {;usb_device_cdc.c: 910:                 *pCDCDst.bR
      +                          am = *pCDCSrc.bRam;
  3344  000E0C  C07B  FFD9         	movff	_pCDCSrc,fsr2l
  3345  000E10  C07C  FFDA         	movff	_pCDCSrc+1,fsr2h
  3346  000E14  C078  FFE1         	movff	_pCDCDst,fsr1l
  3347  000E18  C079  FFE2         	movff	_pCDCDst+1,fsr1h
  3348  000E1C  CFDF FFE7          	movff	indf2,indf1
  3349  000E20                     
  3350                           ; BSR set to: 0
  3351                           ;usb_device_cdc.c: 911:                 pCDCDst.bRam++;
  3352  000E20  4B78               	infsnz	_pCDCDst& (0+255),f,b
  3353  000E22  2B79               	incf	(_pCDCDst+1)& (0+255),f,b
  3354  000E24                     
  3355                           ; BSR set to: 0
  3356                           ;usb_device_cdc.c: 912:                 pCDCSrc.bRam++;
  3357  000E24  4B7B               	infsnz	_pCDCSrc& (0+255),f,b
  3358  000E26  2B7C               	incf	(_pCDCSrc+1)& (0+255),f,b
  3359  000E28                     
  3360                           ; BSR set to: 0
  3361                           ;usb_device_cdc.c: 913:                 i--;
  3362  000E28  07F1               	decf	CDCTxService@i& (0+255),f,b
  3363  000E2A                     l5677:
  3364                           
  3365                           ; BSR set to: 0
  3366                           ;usb_device_cdc.c: 908:             while(i)
  3367  000E2A  51F1               	movf	CDCTxService@i& (0+255),w,b
  3368  000E2C  A4D8               	btfss	status,2,c
  3369  000E2E  EF1B  F007         	goto	u4081
  3370  000E32  EF1D  F007         	goto	u4080
  3371  000E36                     u4081:
  3372  000E36  EF06  F007         	goto	l5669
  3373  000E3A                     u4080:
  3374  000E3A                     l5679:
  3375                           
  3376                           ; BSR set to: 0
  3377                           ;usb_device_cdc.c: 921:         if(cdc_tx_len == 0)
  3378  000E3A  501B               	movf	_cdc_tx_len^0,w,c
  3379  000E3C  A4D8               	btfss	status,2,c
  3380  000E3E  EF23  F007         	goto	u4091
  3381  000E42  EF25  F007         	goto	u4090
  3382  000E46                     u4091:
  3383  000E46  EF34  F007         	goto	l5687
  3384  000E4A                     u4090:
  3385  000E4A                     
  3386                           ; BSR set to: 0
  3387                           ;usb_device_cdc.c: 922:         {;usb_device_cdc.c: 923:             if(byte_to_send == 
      +                          64)
  3388  000E4A  0E40               	movlw	64
  3389  000E4C  19F2               	xorwf	CDCTxService@byte_to_send& (0+255),w,b
  3390  000E4E  A4D8               	btfss	status,2,c
  3391  000E50  EF2C  F007         	goto	u4101
  3392  000E54  EF2E  F007         	goto	u4100
  3393  000E58                     u4101:
  3394  000E58  EF32  F007         	goto	l5685
  3395  000E5C                     u4100:
  3396  000E5C                     
  3397                           ; BSR set to: 0
  3398                           ;usb_device_cdc.c: 924:                 cdc_trf_state = 2;
  3399  000E5C  0E02               	movlw	2
  3400  000E5E  6F8E               	movwf	_cdc_trf_state& (0+255),b
  3401  000E60  EF34  F007         	goto	l5687
  3402  000E64                     l5685:
  3403                           
  3404                           ; BSR set to: 0
  3405                           ;usb_device_cdc.c: 926:                 cdc_trf_state = 3;
  3406  000E64  0E03               	movlw	3
  3407  000E66  6F8E               	movwf	_cdc_trf_state& (0+255),b
  3408  000E68                     l5687:
  3409                           
  3410                           ; BSR set to: 0
  3411                           ;usb_device_cdc.c: 928:         CDCDataInHandle = USBTransferOnePacket(2,1,(uint8_t*)&cd
      +                          c_data_tx,byte_to_send);
  3412  000E68  0E01               	movlw	1
  3413  000E6A  6FE6               	movwf	USBTransferOnePacket@dir& (0+255),b
  3414  000E6C  0E40               	movlw	64
  3415  000E6E  6FE7               	movwf	USBTransferOnePacket@data& (0+255),b
  3416  000E70  0E02               	movlw	2
  3417  000E72  6FE8               	movwf	(USBTransferOnePacket@data+1)& (0+255),b
  3418  000E74  C0F2  F0E9         	movff	CDCTxService@byte_to_send,USBTransferOnePacket@len
  3419  000E78  0E02               	movlw	2
  3420  000E7A  ECBF  F00A         	call	_USBTransferOnePacket
  3421  000E7E  C0E6  F084         	movff	?_USBTransferOnePacket,_CDCDataInHandle
  3422  000E82  C0E7  F085         	movff	?_USBTransferOnePacket+1,_CDCDataInHandle+1
  3423  000E86                     l5689:
  3424                           
  3425                           ;usb_device_cdc.c: 932:     {PIE2bits.USBIE = 1;};
  3426  000E86  84A0               	bsf	160,2,c	;volatile
  3427  000E88                     l725:
  3428  000E88  0012               	return		;funcret
  3429  000E8A                     __end_of_CDCTxService:
  3430                           	opt callstack 0
  3431                           
  3432 ;; *************** function _USBTransferOnePacket *****************
  3433 ;; Defined at:
  3434 ;;		line 999 in file "usb_device.c"
  3435 ;; Parameters:    Size  Location     Type
  3436 ;;  ep              1    wreg     unsigned char 
  3437 ;;  dir             1    0[BANK0 ] unsigned char 
  3438 ;;  data            2    1[BANK0 ] PTR unsigned char 
  3439 ;;		 -> cdc_data_tx(64), cdc_data_rx(64), NULL(0), 
  3440 ;;  len             1    3[BANK0 ] unsigned char 
  3441 ;; Auto vars:     Size  Location     Type
  3442 ;;  ep              1    8[BANK0 ] unsigned char 
  3443 ;;  handle          2    9[BANK0 ] PTR volatile struct __BD
  3444 ;;		 -> RAM(767), NULL(0), BDT(48), 
  3445 ;; Return value:  Size  Location     Type
  3446 ;;                  2    0[BANK0 ] PTR void 
  3447 ;; Registers used:
  3448 ;;		wreg, fsr2l, fsr2h, status,2, status,0, prodl, prodh
  3449 ;; Tracked objects:
  3450 ;;		On entry : 0/0
  3451 ;;		On exit  : 0/0
  3452 ;;		Unchanged: 0/0
  3453 ;; Data sizes:     COMRAM   BANK0   BANK1   BANK2
  3454 ;;      Params:         0       4       0       0
  3455 ;;      Locals:         0       3       0       0
  3456 ;;      Temps:          0       4       0       0
  3457 ;;      Totals:         0      11       0       0
  3458 ;;Total ram usage:       11 bytes
  3459 ;; Hardware stack levels used:    1
  3460 ;; Hardware stack levels required when called:   10
  3461 ;; This function calls:
  3462 ;;		Nothing
  3463 ;; This function is called by:
  3464 ;;		_getsUSBUSART
  3465 ;;		_CDCTxService
  3466 ;;		_USBCDCEventHandler
  3467 ;; This function uses a non-reentrant model
  3468 ;;
  3469                           
  3470                           	psect	text14
  3471  00157E                     __ptext14:
  3472                           	opt callstack 0
  3473  00157E                     _USBTransferOnePacket:
  3474                           	opt callstack 18
  3475                           
  3476                           ;incstack = 0
  3477                           ;USBTransferOnePacket@ep stored from wreg
  3478  00157E  0100               	movlb	0	; () banked
  3479  001580  6FEE               	movwf	USBTransferOnePacket@ep& (0+255),b
  3480  001582                     
  3481                           ;usb_device.c: 999: void* USBTransferOnePacket(uint8_t ep,uint8_t dir,uint8_t* data,uint
      +                          8_t len);usb_device.c: 1000: {;usb_device.c: 1001:     volatile BDT_ENTRY* handle;;usb_d
      +                          evice.c: 1004:     if(dir != 0)
  3482  001582  0100               	movlb	0	; () banked
  3483  001584  51E6               	movf	USBTransferOnePacket@dir& (0+255),w,b
  3484  001586  B4D8               	btfsc	status,2,c
  3485  001588  EFC8  F00A         	goto	u3781
  3486  00158C  EFCA  F00A         	goto	u3780
  3487  001590                     u3781:
  3488  001590  EFD8  F00A         	goto	l5463
  3489  001594                     u3780:
  3490  001594                     
  3491                           ; BSR set to: 0
  3492                           ;usb_device.c: 1005:     {;usb_device.c: 1007:         handle = pBDTEntryIn[ep];
  3493  001594  51EE               	movf	USBTransferOnePacket@ep& (0+255),w,b
  3494  001596  0D02               	mullw	2
  3495  001598  0E0F               	movlw	low _pBDTEntryIn
  3496  00159A  24F3               	addwf	243,w,c
  3497  00159C  6ED9               	movwf	fsr2l,c
  3498  00159E  0E00               	movlw	high _pBDTEntryIn
  3499  0015A0  20F4               	addwfc	prodh,w,c
  3500  0015A2  6EDA               	movwf	fsr2h,c
  3501  0015A4  CFDE F0EF          	movff	postinc2,USBTransferOnePacket@handle
  3502  0015A8  CFDD F0F0          	movff	postdec2,USBTransferOnePacket@handle+1
  3503                           
  3504                           ;usb_device.c: 1008:     }
  3505  0015AC  EFE4  F00A         	goto	l5465
  3506  0015B0                     l5463:
  3507                           
  3508                           ; BSR set to: 0
  3509                           ;usb_device.c: 1010:     {;usb_device.c: 1012:         handle = pBDTEntryOut[ep];
  3510  0015B0  51EE               	movf	USBTransferOnePacket@ep& (0+255),w,b
  3511  0015B2  0D02               	mullw	2
  3512  0015B4  0E6A               	movlw	low _pBDTEntryOut
  3513  0015B6  24F3               	addwf	243,w,c
  3514  0015B8  6ED9               	movwf	fsr2l,c
  3515  0015BA  0E00               	movlw	high _pBDTEntryOut
  3516  0015BC  20F4               	addwfc	prodh,w,c
  3517  0015BE  6EDA               	movwf	fsr2h,c
  3518  0015C0  CFDE F0EF          	movff	postinc2,USBTransferOnePacket@handle
  3519  0015C4  CFDD F0F0          	movff	postdec2,USBTransferOnePacket@handle+1
  3520  0015C8                     l5465:
  3521                           
  3522                           ; BSR set to: 0
  3523                           ;usb_device.c: 1017:     if(handle == 0)
  3524  0015C8  51EF               	movf	USBTransferOnePacket@handle& (0+255),w,b
  3525  0015CA  11F0               	iorwf	(USBTransferOnePacket@handle+1)& (0+255),w,b
  3526  0015CC  A4D8               	btfss	status,2,c
  3527  0015CE  EFEB  F00A         	goto	u3791
  3528  0015D2  EFED  F00A         	goto	u3790
  3529  0015D6                     u3791:
  3530  0015D6  EFF3  F00A         	goto	l5471
  3531  0015DA                     u3790:
  3532  0015DA                     
  3533                           ; BSR set to: 0
  3534                           ;usb_device.c: 1018:     {;usb_device.c: 1019:         return 0;
  3535  0015DA  0E00               	movlw	0
  3536  0015DC  6FE6               	movwf	?_USBTransferOnePacket& (0+255),b
  3537  0015DE  0E00               	movlw	0
  3538  0015E0  6FE7               	movwf	(?_USBTransferOnePacket+1)& (0+255),b
  3539  0015E2  EF5F  F00B         	goto	l407
  3540  0015E6                     l5471:
  3541                           
  3542                           ; BSR set to: 0
  3543                           ;usb_device.c: 1033:     handle->ADR = ((uint16_t)(data));
  3544  0015E6  EE20 F002          	lfsr	2,2
  3545  0015EA  51EF               	movf	USBTransferOnePacket@handle& (0+255),w,b
  3546  0015EC  26D9               	addwf	fsr2l,f,c
  3547  0015EE  51F0               	movf	(USBTransferOnePacket@handle+1)& (0+255),w,b
  3548  0015F0  22DA               	addwfc	fsr2h,f,c
  3549  0015F2  C0E7  FFDE         	movff	USBTransferOnePacket@data,postinc2
  3550  0015F6  C0E8  FFDD         	movff	USBTransferOnePacket@data+1,postdec2
  3551                           
  3552                           ;usb_device.c: 1034:     handle->CNT = len;
  3553  0015FA  EE20 F001          	lfsr	2,1
  3554  0015FE  51EF               	movf	USBTransferOnePacket@handle& (0+255),w,b
  3555  001600  26D9               	addwf	fsr2l,f,c
  3556  001602  51F0               	movf	(USBTransferOnePacket@handle+1)& (0+255),w,b
  3557  001604  22DA               	addwfc	fsr2h,f,c
  3558  001606  C0E9  FFDF         	movff	USBTransferOnePacket@len,indf2
  3559  00160A                     
  3560                           ; BSR set to: 0
  3561                           ;usb_device.c: 1035:     handle->STAT.Val &= 0x40;
  3562  00160A  C0EF  FFD9         	movff	USBTransferOnePacket@handle,fsr2l
  3563  00160E  C0F0  FFDA         	movff	USBTransferOnePacket@handle+1,fsr2h
  3564  001612  0E40               	movlw	64
  3565  001614  16DF               	andwf	indf2,f,c
  3566  001616                     
  3567                           ; BSR set to: 0
  3568                           ;usb_device.c: 1036:     handle->STAT.Val |= (0x08 & 0x08);
  3569  001616  C0EF  FFD9         	movff	USBTransferOnePacket@handle,fsr2l
  3570  00161A  C0F0  FFDA         	movff	USBTransferOnePacket@handle+1,fsr2h
  3571  00161E  0E00               	movlw	0
  3572  001620  86DB               	bsf	plusw2,3,c
  3573  001622                     
  3574                           ; BSR set to: 0
  3575                           ;usb_device.c: 1037:     handle->STAT.Val |= 0x80;
  3576  001622  C0EF  FFD9         	movff	USBTransferOnePacket@handle,fsr2l
  3577  001626  C0F0  FFDA         	movff	USBTransferOnePacket@handle+1,fsr2h
  3578  00162A  0E00               	movlw	0
  3579  00162C  8EDB               	bsf	plusw2,7,c
  3580  00162E                     
  3581                           ; BSR set to: 0
  3582                           ;usb_device.c: 1040:     if(dir != 0)
  3583  00162E  51E6               	movf	USBTransferOnePacket@dir& (0+255),w,b
  3584  001630  B4D8               	btfsc	status,2,c
  3585  001632  EF1D  F00B         	goto	u3801
  3586  001636  EF1F  F00B         	goto	u3800
  3587  00163A                     u3801:
  3588  00163A  EF3E  F00B         	goto	l5483
  3589  00163E                     u3800:
  3590  00163E                     
  3591                           ; BSR set to: 0
  3592                           ;usb_device.c: 1041:     {;usb_device.c: 1043:         pBDTEntryIn[ep] = (BDT_ENTRY*)(((
      +                          uint16_t)pBDTEntryIn[ep]) ^ 0x0004);
  3593  00163E  51EE               	movf	USBTransferOnePacket@ep& (0+255),w,b
  3594  001640  0D02               	mullw	2
  3595  001642  0E0F               	movlw	low _pBDTEntryIn
  3596  001644  24F3               	addwf	243,w,c
  3597  001646  6ED9               	movwf	fsr2l,c
  3598  001648  0E00               	movlw	high _pBDTEntryIn
  3599  00164A  20F4               	addwfc	prodh,w,c
  3600  00164C  6EDA               	movwf	fsr2h,c
  3601  00164E  CFDE F0EA          	movff	postinc2,??_USBTransferOnePacket
  3602  001652  CFDD F0EB          	movff	postdec2,??_USBTransferOnePacket+1
  3603  001656  0E04               	movlw	4
  3604  001658  19EA               	xorwf	??_USBTransferOnePacket& (0+255),w,b
  3605  00165A  6FEC               	movwf	(??_USBTransferOnePacket+2)& (0+255),b
  3606  00165C  51EB               	movf	(??_USBTransferOnePacket+1)& (0+255),w,b
  3607  00165E  6FED               	movwf	(??_USBTransferOnePacket+3)& (0+255),b
  3608  001660  51EE               	movf	USBTransferOnePacket@ep& (0+255),w,b
  3609  001662  0D02               	mullw	2
  3610  001664  0E0F               	movlw	low _pBDTEntryIn
  3611  001666  24F3               	addwf	243,w,c
  3612  001668  6ED9               	movwf	fsr2l,c
  3613  00166A  0E00               	movlw	high _pBDTEntryIn
  3614  00166C  20F4               	addwfc	prodh,w,c
  3615  00166E  6EDA               	movwf	fsr2h,c
  3616  001670  C0EC  FFDE         	movff	??_USBTransferOnePacket+2,postinc2
  3617  001674  C0ED  FFDD         	movff	??_USBTransferOnePacket+3,postdec2
  3618                           
  3619                           ;usb_device.c: 1044:     }
  3620  001678  EF5B  F00B         	goto	l5485
  3621  00167C                     l5483:
  3622                           
  3623                           ; BSR set to: 0
  3624                           ;usb_device.c: 1046:     {;usb_device.c: 1048:         pBDTEntryOut[ep] = (BDT_ENTRY*)((
      +                          (uint16_t)pBDTEntryOut[ep]) ^ 0x0004);
  3625  00167C  51EE               	movf	USBTransferOnePacket@ep& (0+255),w,b
  3626  00167E  0D02               	mullw	2
  3627  001680  0E6A               	movlw	low _pBDTEntryOut
  3628  001682  24F3               	addwf	243,w,c
  3629  001684  6ED9               	movwf	fsr2l,c
  3630  001686  0E00               	movlw	high _pBDTEntryOut
  3631  001688  20F4               	addwfc	prodh,w,c
  3632  00168A  6EDA               	movwf	fsr2h,c
  3633  00168C  CFDE F0EA          	movff	postinc2,??_USBTransferOnePacket
  3634  001690  CFDD F0EB          	movff	postdec2,??_USBTransferOnePacket+1
  3635  001694  0E04               	movlw	4
  3636  001696  19EA               	xorwf	??_USBTransferOnePacket& (0+255),w,b
  3637  001698  6FEC               	movwf	(??_USBTransferOnePacket+2)& (0+255),b
  3638  00169A  51EB               	movf	(??_USBTransferOnePacket+1)& (0+255),w,b
  3639  00169C  6FED               	movwf	(??_USBTransferOnePacket+3)& (0+255),b
  3640  00169E  51EE               	movf	USBTransferOnePacket@ep& (0+255),w,b
  3641  0016A0  0D02               	mullw	2
  3642  0016A2  0E6A               	movlw	low _pBDTEntryOut
  3643  0016A4  24F3               	addwf	243,w,c
  3644  0016A6  6ED9               	movwf	fsr2l,c
  3645  0016A8  0E00               	movlw	high _pBDTEntryOut
  3646  0016AA  20F4               	addwfc	prodh,w,c
  3647  0016AC  6EDA               	movwf	fsr2h,c
  3648  0016AE  C0EC  FFDE         	movff	??_USBTransferOnePacket+2,postinc2
  3649  0016B2  C0ED  FFDD         	movff	??_USBTransferOnePacket+3,postdec2
  3650  0016B6                     l5485:
  3651                           
  3652                           ; BSR set to: 0
  3653                           ;usb_device.c: 1050:     return (void*)handle;
  3654  0016B6  C0EF  F0E6         	movff	USBTransferOnePacket@handle,?_USBTransferOnePacket
  3655  0016BA  C0F0  F0E7         	movff	USBTransferOnePacket@handle+1,?_USBTransferOnePacket+1
  3656  0016BE                     l407:
  3657                           
  3658                           ; BSR set to: 0
  3659  0016BE  0012               	return		;funcret
  3660  0016C0                     __end_of_USBTransferOnePacket:
  3661                           	opt callstack 0
  3662                           
  3663 ;; *************** function _BUTTON_IsPressed *****************
  3664 ;; Defined at:
  3665 ;;		line 56 in file "buttons.c"
  3666 ;; Parameters:    Size  Location     Type
  3667 ;;  button          1    wreg     enum E2760
  3668 ;; Auto vars:     Size  Location     Type
  3669 ;;  button          1    2[BANK0 ] enum E2760
  3670 ;; Return value:  Size  Location     Type
  3671 ;;                  1    wreg      _Bool 
  3672 ;; Registers used:
  3673 ;;		wreg, status,2, status,0
  3674 ;; Tracked objects:
  3675 ;;		On entry : 0/0
  3676 ;;		On exit  : 0/0
  3677 ;;		Unchanged: 0/0
  3678 ;; Data sizes:     COMRAM   BANK0   BANK1   BANK2
  3679 ;;      Params:         0       0       0       0
  3680 ;;      Locals:         0       1       0       0
  3681 ;;      Temps:          0       2       0       0
  3682 ;;      Totals:         0       3       0       0
  3683 ;;Total ram usage:        3 bytes
  3684 ;; Hardware stack levels used:    1
  3685 ;; Hardware stack levels required when called:   10
  3686 ;; This function calls:
  3687 ;;		Nothing
  3688 ;; This function is called by:
  3689 ;;		_APP_DeviceCDCBasicDemoTasks
  3690 ;; This function uses a non-reentrant model
  3691 ;;
  3692                           
  3693                           	psect	text15
  3694  002AA6                     __ptext15:
  3695                           	opt callstack 0
  3696  002AA6                     _BUTTON_IsPressed:
  3697                           	opt callstack 19
  3698                           
  3699                           ; BSR set to: 0
  3700                           ;incstack = 0
  3701                           ;BUTTON_IsPressed@button stored from wreg
  3702  002AA6  0100               	movlb	0	; () banked
