Microchip MPLAB XC8 Compiler V2.10 ()

Linker command line:

-W-3 --edf=C:\Program Files (x86)\Microchip\xc8\v2.10\pic\dat\en_msgs.txt \
  -cs -h+dist/default/production\CDC_diymicro.production.sym \
  --cmf=dist/default/production\CDC_diymicro.production.cmf -z -Q18F14K50 \
  -oC:\Users\PMCC_DB\AppData\Local\Temp\sgf0.2 --defsym=__MPLAB_BUILD=1 \
  -Mdist/default/production/CDC_diymicro.production.map -E1 -ver=XC8 \
  --acfsm=1493 -ASTACK=0179h-01FFh -pstack=STACK -ACODE=00h-03FFFh \
  -ACONST=00h-03FFFh -ASMALLCONST=0300h-03FFhx61 -AMEDIUMCONST=0300h-03FFFh \
  -ACOMRAM=01h-05Fh -AABS1=00h-02FFh -ABIGRAM=01h-02FFh \
  -ARAM=060h-0FFh,0100h-01FFhx2 -ABANK0=060h-0FFh -ABANK1=0100h-01FFh \
  -ABANK2=0200h-02FFh -ASFR=0F53h-0F5Fh,0F60h-0FFFh \
  -preset_vec=00h,intcode=08h,intcodelo,powerup,init -pramtop=0300h \
  -psmallconst=SMALLCONST -pmediumconst=MEDIUMCONST -pconst=CONST \
  -AFARRAM=00h-00h -ACONFIG=0300000h-030000Dh -pconfig=CONFIG \
  -AIDLOC=0200000h-0200007h -pidloc=IDLOC -AEEDATA=0F00000h-0F000FFh \
  -peeprom_data=EEDATA \
  -prdata=COMRAM,nvrram=COMRAM,nvbit=COMRAM,rbss=COMRAM,rbit=COMRAM \
  -pfarbss=FARRAM,fardata=FARRAM,nvFARRAM=FARRAM \
  -pintsave_regs=BIGRAM,bigbss=BIGRAM,bigdata=BIGRAM -pbss=RAM \
  -pidata=CODE,irdata=CODE,ibigdata=CODE,ifardata=CODE -prparam=COMRAM \
  C:\Users\PMCC_DB\AppData\Local\Temp\sgf0.o \
  dist/default/production\CDC_diymicro.production.o 

Object code version is 3.11

Machine type is 18F14K50

Call graph: (short form)




                Name                               Link     Load   Length Selector   Space Scale
C:\Users\PMCC_DB\AppData\Local\Temp\sgf0.o
                init                                 70       70        4        4       0
                reset_vec                             0        0        4        0       0
                idloc                            200000   200000        8   200000       0
                config                           300000   300000        E   300000       0
dist/default/production\CDC_diymicro.production.o
                intcode                               8        8       68        4       0
                temp                                 54       54        1        1       1
                smallconst                          300      300       BC      180       0
                text51                             1CB4     1CB4      110      1DE       0
                text50                             1DC4     1DC4      10C      1DE       0
                text49                             20C8     20C8       F0      1DE       0
                text48                             16C0     16C0      142      1DE       0
                text47                             271E     271E       74      1DE       0
                text46                             2E18     2E18       24      1DE       0
                text45                             29F2     29F2       62      1DE       0
                text44                             2990     2990       62      1DE       0
                text43                             1FD2     1FD2       F6      1DE       0
                text42                             256E     256E       AC      1DE       0
                text41                             2BE2     2BE2       4C      1DE       0
                text40                             1942     1942      13E      1DE       0
                text39                             2868     2868       64      1DE       0
                text38                             1ED0     1ED0      102      1DE       0
                text37                             2CF2     2CF2       38      1DE       0
                text36                             292E     292E       62      1DE       0
                text35                             2C2E     2C2E       4A      1DE       0
                text34                             2412     2412       B0      1DE       0
                text33                              3BC      3BC      358      1DE       0
                text32                             1178     1178      160      1DE       0
                text31                             1B9E     1B9E      116      1DE       0
                text30                             1002     1002      176      1DE       0
                text29                             21B8     21B8       EA      1DE       0
                text28                             1A80     1A80      11E      1DE       0
                text27                             24C2     24C2       AC      1DE       0
                text26                             1802     1802      140      1DE       0
                text25                             261A     261A       8E      1DE       0
                text24                             2AF8     2AF8       50      1DE       0
                text23                             235A     235A       B8      1DE       0
                text22                             2D5E     2D5E       34      1DE       0
                text21                             28CC     28CC       62      1DE       0
                text20                             2DEC     2DEC       2C      1DE       0
                text19                             2C78     2C78       3E      1DE       0
                text18                             142E     142E      150      1DE       0
                text17                              714      714      230      1DE       0
                text15                             2AA6     2AA6       52      1DE       0
                text14                             157E     157E      142      1DE       0
                text13                              CF0      CF0      19A      1DE       0
                text12                             26A8     26A8       76      1DE       0
                text11                             2DC0     2DC0       2C      1DE       0
                text10                              B22      B22      1CE      1DE       0
                text9                              22A2     22A2       B8      1DE       0
                text8                              2792     2792       70      1DE       0
                text7                               944      944      1DE      1DE       0
                text6                              2CB6     2CB6       3C      1DE       0
                text5                              2802     2802       66      1DE       0
                text4                              2B48     2B48       4E      1DE       0
                text3                              2B96     2B96       4C      1DE       0
                text2                               E8A      E8A      178      1DE       0
                text1                              12D8     12D8      156      1DE       0
                text0                              2D92     2D92       2E      1DE       0
                cstackCOMRAM                         2B       2B       29        1       1
                cstackBANK0                          E6       E6       18       60       1
                cstackBANK1                         174      174        5      100       1
                dataBANK1                           140      140       34      100       1
                bssBANK1                            100      100       40      100       1
                bssBANK0                             60       60       86       60       1
                bssCOMRAM                             1        1       2A        1       1
                cinit                              2A54     2A54       52      1DE       0
                idataBANK1                         2D2A     2D2A       34      1DE       0

TOTAL           Name                               Link     Load   Length     Space
        CLASS   STACK          

        CLASS   CODE           
                intcode                               8        8       68         0
                init                                 70       70        4         0
                reset_vec                             0        0        4         0
                text51                             1CB4     1CB4      110         0
                text50                             1DC4     1DC4      10C         0
                text49                             20C8     20C8       F0         0
                text48                             16C0     16C0      142         0
                text47                             271E     271E       74         0
                text46                             2E18     2E18       24         0
                text45                             29F2     29F2       62         0
                text44                             2990     2990       62         0
                text43                             1FD2     1FD2       F6         0
                text42                             256E     256E       AC         0
                text41                             2BE2     2BE2       4C         0
                text40                             1942     1942      13E         0
                text39                             2868     2868       64         0
                text38                             1ED0     1ED0      102         0
                text37                             2CF2     2CF2       38         0
                text36                             292E     292E       62         0
                text35                             2C2E     2C2E       4A         0
                text34                             2412     2412       B0         0
                text33                              3BC      3BC      358         0
                text32                             1178     1178      160         0
                text31                             1B9E     1B9E      116         0
                text30                             1002     1002      176         0
                text29                             21B8     21B8       EA         0
                text28                             1A80     1A80      11E         0
                text27                             24C2     24C2       AC         0
                text26                             1802     1802      140         0
                text25                             261A     261A       8E         0
                text24                             2AF8     2AF8       50         0
                text23                             235A     235A       B8         0
                text22                             2D5E     2D5E       34         0
                text21                             28CC     28CC       62         0
                text20                             2DEC     2DEC       2C         0
                text19                             2C78     2C78       3E         0
                text18                             142E     142E      150         0
                text17                              714      714      230         0
                text15                             2AA6     2AA6       52         0
                text14                             157E     157E      142         0
                text13                              CF0      CF0      19A         0
                text12                             26A8     26A8       76         0
                text11                             2DC0     2DC0       2C         0
                text10                              B22      B22      1CE         0
                text9                              22A2     22A2       B8         0
                text8                              2792     2792       70         0
                text7                               944      944      1DE         0
                text6                              2CB6     2CB6       3C         0
                text5                              2802     2802       66         0
                text4                              2B48     2B48       4E         0
                text3                              2B96     2B96       4C         0
                text2                               E8A      E8A      178         0
                text1                              12D8     12D8      156         0
                text0                              2D92     2D92       2E         0
                cinit                              2A54     2A54       52         0
                idataBANK1                         2D2A     2D2A       34         0

        CLASS   CONST          

        CLASS   SMALLCONST     
                smallconst                          300      300       BC         0

        CLASS   MEDIUMCONST    

        CLASS   COMRAM         
                temp                                 54       54        1         1
                cstackCOMRAM                         2B       2B       29         1
                bssCOMRAM                             1        1       2A         1

        CLASS   ABS1           
                abs_s1                              200      200       C0         1

        CLASS   BIGRAM         

        CLASS   RAM            

        CLASS   BANK0          
                cstackBANK0                          E6       E6       18         1
                bssBANK0                             60       60       86         1

        CLASS   BANK1          
                cstackBANK1                         174      174        5         1
                dataBANK1                           140      140       34         1
                bssBANK1                            100      100       40         1

        CLASS   BANK2          

        CLASS   SFR            

        CLASS   FARRAM         

        CLASS   CONFIG         
                config                           300000   300000        E         0

        CLASS   IDLOC          
                idloc                            200000   200000        8         0

        CLASS   EEDATA         



SEGMENTS        Name                           Load    Length   Top    Selector   Space  Class

                reset_vec                      000000  000004  000004         0       0  CODE    
                bssCOMRAM                      000001  000054  000055         1       1  COMRAM  
                intcode                        000008  00006C  000074         4       0  CODE    
                bssBANK0                       000060  00009E  0000FE        60       1  BANK0   
                bssBANK1                       000100  000079  000179       100       1  BANK1   
                smallconst                     000300  0000BC  0003BC       180       0  SMALLCON
                text33                         0003BC  002A80  002E3C       1DE       0  CODE    
                idloc                          200000  000008  200008    200000       0  IDLOC   
                config                         300000  00000E  30000E    300000       0  CONFIG  


UNUSED ADDRESS RANGES

        Name                Unused          Largest block    Delta
        BANK0            0000FE-0000FF                2
        BANK1            000179-0001FF               87
        BANK2            0002C0-0002FF               40
        BIGRAM           000055-00005F                B
                         0000FE-0000FF                2
                         000179-0001FF               87
                         0002C0-0002FF               40
        CODE             000004-000007                4
                         000074-0002FF              28C
                         002E3C-003FFF             11C4
        COMRAM           000055-00005F                B
        CONST            000004-000007                4
                         000074-0002FF              28C
                         002E3C-003FFF             11C4
        EEDATA           F00000-F000FF              100
        MEDIUMCONST      002E3C-003FFF             11C4
        RAM              0000FE-0000FF                2
                         000179-0001FF               87
                         0002C0-0002FF               40
        SFR              000F53-000FFF                D
        SMALLCONST       002E3C-003FFF              100
        STACK            000179-0001FF               87

                                  Symbol Table

?_USBTransferOnePacket                     cstackBANK0  0000E6
?___lwdiv                                  cstackBANK0  0000E6
?i2_USBTransferOnePacket                   cstackCOMRAM 00002B
APP_DeviceCDCBasicDemoTasks@data_int       cstackBANK1  000174
APP_DeviceCDCBasicDemoTasks@i              cstackBANK1  000178
APP_DeviceCDCBasicDemoTasks@numBytesRead   cstackBANK1  000177
APP_DeviceCDCBasicDemoTasks@num_flag       cstackBANK1  000176
APP_LEDUpdateUSBStatus@ledCount            bssCOMRAM    000019
BUTTON_Enable@button                       cstackBANK0  0000E8
BUTTON_IsPressed@button                    cstackBANK0  0000E8
CDCTxService@byte_to_send                  cstackBANK0  0000F2
CDCTxService@i                             cstackBANK0  0000F1
LED_Enable@led                             cstackBANK0  0000E8
LED_Off@led                                cstackCOMRAM 00002D
LED_On@led                                 cstackCOMRAM 00002D
NumToUART@bignum                           cstackBANK0  0000F9
NumToUART@i                                cstackBANK0  0000F8
NumToUART@i_2814                           cstackBANK0  0000F7
NumToUART@number                           cstackBANK0  0000ED
NumToUART@numtemp                          cstackBANK0  0000FB
NumToUART@temp_data                        bssBANK0     0000DF
SYSTEM_Initialize@state                    cstackBANK0  0000EB
USBConfigureEndpoint@EPNum                 cstackCOMRAM 000030
USBConfigureEndpoint@direction             cstackCOMRAM 00002B
USBConfigureEndpoint@handle                cstackCOMRAM 000031
USBCtrlTrfInHandler@lastDTS                cstackCOMRAM 00002C
USBCtrlTrfRxService@byteToRead             cstackCOMRAM 00002C
USBCtrlTrfRxService@i                      cstackCOMRAM 00002B
USBCtrlTrfTxService@byteToSend             cstackCOMRAM 00002B
USBDeviceInit@i                            cstackBANK0  0000F2
USBDeviceTasks@i                           cstackCOMRAM 000049
USBEnableEndpoint@ep                       cstackCOMRAM 000036
USBEnableEndpoint@options                  cstackCOMRAM 000033
USBEnableEndpoint@p                        cstackCOMRAM 000034
USBStdFeatureReqHandler@current_ep_data    cstackCOMRAM 000043
USBStdFeatureReqHandler@p                  cstackCOMRAM 000044
USBStdFeatureReqHandler@pUEP               cstackCOMRAM 000041
USBStdGetStatusHandler@p                   cstackCOMRAM 00002D
USBStdSetCfgHandler@i                      cstackCOMRAM 00003F
USBTransferOnePacket@data                  cstackBANK0  0000E7
USBTransferOnePacket@dir                   cstackBANK0  0000E6
USBTransferOnePacket@ep                    cstackBANK0  0000EE
USBTransferOnePacket@handle                cstackBANK0  0000EF
USBTransferOnePacket@len                   cstackBANK0  0000E9
USER_USB_CALLBACK_EVENT_HANDLER@event      cstackCOMRAM 000037
USER_USB_CALLBACK_EVENT_HANDLER@pdata      cstackCOMRAM 000039
USER_USB_CALLBACK_EVENT_HANDLER@size       cstackCOMRAM 00003B
_ADCON0                                    (abs)        000FC2
_ADCON2                                    (abs)        000FC0
_ADON                                      (abs)        007E10
_ADRESH                                    (abs)        000FC4
_ADRESL                                    (abs)        000FC3
_ANSEL                                     (abs)        000F7E
_ANSELH                                    (abs)        000F7F
_APP_DeviceCDCBasicDemoInitialize          text46       002E18
_APP_DeviceCDCBasicDemoTasks               text7        000944
_APP_LEDUpdateUSBStatus                    text43       001FD2
_BDT                                       (abs)        000200
_BUTTON_Enable                             text6        002CB6
_BUTTON_IsPressed                          text15       002AA6
_BaudRateGen                               bssBANK0     000070
_BothEP0OutUOWNsSet                        bssCOMRAM    000023
_CDCDataInHandle                           bssBANK0     000084
_CDCDataOutHandle                          bssBANK0     000086
_CDCInitEP                                 text39       002868
_CDCTxService                              text13       000CF0
_CtrlTrfData                               (abs)        000238
_GO                                        (abs)        007E11
_INTCONbits                                (abs)        000FF2
_IPR2bits                                  (abs)        000FA2
_LATCbits                                  (abs)        000F8B
_LED_Enable                                text5        002802
_LED_Off                                   text45       0029F2
_LED_On                                    text44       002990
_NumToUART                                 text10       000B22
_NumToUART$3538                            cstackBANK0  0000F5
_PIE2bits                                  (abs)        000FA0
_PIR2bits                                  (abs)        000FA1
_PORTCbits                                 (abs)        000F82
_RCONbits                                  (abs)        000FD0
_RemoteWakeup                              bssCOMRAM    000026
_SYSTEM_Initialize                         text4        002B48
_SYS_InterruptHigh                         intcode      000008
_SetupPkt                                  (abs)        000230
_TRISB4                                    (abs)        007C9C
_TRISCbits                                 (abs)        000F94
_UADDR                                     (abs)        000F5C
_UCFG                                      (abs)        000F61
_UCON                                      (abs)        000F64
_UCONbits                                  (abs)        000F64
_UEIE                                      (abs)        000F5B
_UEIR                                      (abs)        000F5F
_UEP0                                      (abs)        000F53
_UEP0bits                                  (abs)        000F53
_UEP1                                      (abs)        000F54
_UIE                                       (abs)        000F60
_UIEbits                                   (abs)        000F60
_UIR                                       (abs)        000F62
_UIRbits                                   (abs)        000F62
_USB1msTickCount                           bssBANK0     000074
_USBActiveConfiguration                    bssCOMRAM    00002A
_USBAlternateInterface                     bssBANK0     0000E4
_USBBusIsSuspended                         bssCOMRAM    000025
_USBCheckCDCRequest                        text38       001ED0
_USBCheckStdRequest                        text28       001A80
_USBConfigureEndpoint                      text42       00256E
_USBCtrlEPAllowDataStage                   text27       0024C2
_USBCtrlEPAllowStatusStage                 text49       0020C8
_USBCtrlEPService                          text23       00235A
_USBCtrlEPServiceComplete                  text26       001802
_USBCtrlTrfInHandler                       text50       001DC4
_USBCtrlTrfOutHandler                      text47       00271E
_USBCtrlTrfRxService                       text48       0016C0
_USBCtrlTrfSetupHandler                    text25       00261A
_USBCtrlTrfTxService                       text51       001CB4
_USBDeferINDataStagePackets                bssCOMRAM    00001E
_USBDeferOUTDataStagePackets               bssCOMRAM    00001D
_USBDeferStatusStagePacket                 bssCOMRAM    000021
_USBDeviceAttach                           text3        002B96
_USBDeviceInit                             text1        0012D8
_USBDeviceState                            bssBANK0     00008F
_USBDeviceTasks                            text17       000714
_USBEnableEndpoint                         text41       002BE2
_USBIncrement1msInternalTimers             text22       002D5E
_USBStallHandler                           text21       0028CC
_USBStatusStageEnabledFlag1                bssCOMRAM    000020
_USBStatusStageEnabledFlag2                bssCOMRAM    00001F
_USBStatusStageTimeoutCounter              bssCOMRAM    000022
_USBStdFeatureReqHandler                   text33       0003BC
_USBStdGetDscHandler                       text32       001178
_USBStdGetStatusHandler                    text31       001B9E
_USBStdSetCfgHandler                       text29       0021B8
_USBSuspend                                text20       002DEC
_USBTicksSinceSuspendEnd                   bssCOMRAM    00001C
_USBTransferOnePacket                      text14       00157E
_USBWakeFromSuspend                        text19       002C78
_USB_CD_Ptr                                smallconst   000307
_USB_SD_Ptr                                smallconst   000301
_USER_USB_CALLBACK_EVENT_HANDLER           text34       002412
_USTAT                                     (abs)        000F63
_USTATcopy                                 bssCOMRAM    000029
__CFG_BBSIZ$OFF                            (abs)        000000
__CFG_BOREN$OFF                            (abs)        000000
__CFG_BORV$30                              (abs)        000000
__CFG_CP0$OFF                              (abs)        000000
__CFG_CP1$OFF                              (abs)        000000
__CFG_CPB$OFF                              (abs)        000000
__CFG_CPUDIV$NOCLKDIV                      (abs)        000000
__CFG_EBTR0$OFF                            (abs)        000000
__CFG_EBTR1$OFF                            (abs)        000000
__CFG_EBTRB$OFF                            (abs)        000000
__CFG_FCMEN$OFF                            (abs)        000000
__CFG_FOSC$HS                              (abs)        000000
__CFG_HFOFST$OFF                           (abs)        000000
__CFG_IESO$OFF                             (abs)        000000
__CFG_LVP$OFF                              (abs)        000000
__CFG_MCLRE$OFF                            (abs)        000000
__CFG_PLLEN$ON                             (abs)        000000
__CFG_PWRTEN$OFF                           (abs)        000000
__CFG_STVREN$ON                            (abs)        000000
__CFG_USBDIV$OFF                           (abs)        000000
__CFG_WDTEN$OFF                            (abs)        000000
__CFG_WDTPS$32768                          (abs)        000000
__CFG_WRT0$OFF                             (abs)        000000
__CFG_WRT1$OFF                             (abs)        000000
__CFG_WRTB$OFF                             (abs)        000000
__CFG_WRTC$OFF                             (abs)        000000
__CFG_XINST$OFF                            (abs)        000000
__HRAM                                     (abs)        000000
__Habs1                                    abs1         000000
__Hbank0                                   bank0        000000
__Hbank1                                   bank1        000000
__Hbank2                                   bank2        000000
__Hbigbss                                  bigbss       000000
__Hbigdata                                 bigdata      000000
__Hbigram                                  bigram       000000
__Hbss                                     bss          000000
__HbssBANK0                                bssBANK0     000000
__HbssBANK1                                bssBANK1     000000
__HbssCOMRAM                               bssCOMRAM    000000
__Hcinit                                   cinit        000000
__Hclrtext                                 clrtext      000000
__Hcomram                                  comram       000000
__Hconfig                                  config       30000E
__Hconst                                   const        000000
__HcstackBANK0                             cstackBANK0  000000
__HcstackBANK1                             cstackBANK1  000000
__HcstackCOMRAM                            cstackCOMRAM 000000
__Hdata                                    data         000000
__HdataBANK1                               dataBANK1    000000
__Heeprom_data                             eeprom_data  000000
__Hfarbss                                  farbss       000000
__Hfardata                                 fardata      000000
__Hibigdata                                ibigdata     000000
__Hidata                                   idata        000000
__HidataBANK1                              idataBANK1   000000
__Hidloc                                   idloc        200008
__Hifardata                                ifardata     000000
__Hinit                                    init         000074
__Hintcode                                 intcode      000070
__Hintcode_body                            intcode_body 000000
__Hintcodelo                               intcodelo    000070
__Hintentry                                intentry     000000
__Hintret                                  intret       000000
__Hintsave_regs                            intsave_regs 000000
__Hirdata                                  irdata       000000
__Hmediumconst                             mediumconst  000000
__HnvFARRAM                                nvFARRAM     000000
__Hnvbit                                   nvbit        000000
__Hnvrram                                  nvrram       000000
__Hparam                                   rparam       000000
__Hpowerup                                 powerup      000070
__Hram                                     ram          000000
__Hramtop                                  ramtop       000300
__Hrbit                                    rbit         000000
__Hrbss                                    rbss         000000
__Hrdata                                   rdata        000000
__Hreset_vec                               reset_vec    000004
__Hrparam                                  rparam       000000
__Hsfr                                     sfr          000000
__Hsmallconst                              smallconst   0003BC
__Hspace_0                                 (abs)        30000E
__Hspace_1                                 (abs)        000179
__Hspace_2                                 (abs)        000000
__Hstack                                   stack        000000
__Hstruct                                  struct       000000
__Htemp                                    temp         000055
__Htext                                    text         000000
__Htext0                                   text0        000000
__Htext1                                   text1        000000
__Htext10                                  text10       000000
__Htext11                                  text11       000000
__Htext12                                  text12       000000
__Htext13                                  text13       000000
__Htext14                                  text14       000000
__Htext15                                  text15       000000
__Htext17                                  text17       000000
__Htext18                                  text18       000000
__Htext19                                  text19       000000
__Htext2                                   text2        000000
__Htext20                                  text20       000000
__Htext21                                  text21       000000
__Htext22                                  text22       000000
__Htext23                                  text23       000000
__Htext24                                  text24       000000
__Htext25                                  text25       000000
__Htext26                                  text26       000000
__Htext27                                  text27       000000
__Htext28                                  text28       000000
__Htext29                                  text29       000000
__Htext3                                   text3        000000
__Htext30                                  text30       000000
__Htext31                                  text31       000000
__Htext32                                  text32       000000
__Htext33                                  text33       000000
__Htext34                                  text34       000000
__Htext35                                  text35       000000
__Htext36                                  text36       000000
__Htext37                                  text37       000000
__Htext38                                  text38       000000
__Htext39                                  text39       000000
__Htext4                                   text4        000000
__Htext40                                  text40       000000
__Htext41                                  text41       000000
__Htext42                                  text42       000000
__Htext43                                  text43       000000
__Htext44                                  text44       000000
__Htext45                                  text45       000000
__Htext46                                  text46       000000
__Htext47                                  text47       000000
__Htext48                                  text48       000000
__Htext49                                  text49       000000
__Htext5                                   text5        000000
__Htext50                                  text50       000000
__Htext51                                  text51       000000
__Htext6                                   text6        000000
__Htext7                                   text7        000000
__Htext8                                   text8        000000
__Htext9                                   text9        000000
__LRAM                                     (abs)        000001
__Labs1                                    abs1         000000
__Lbank0                                   bank0        000000
__Lbank1                                   bank1        000000
__Lbank2                                   bank2        000000
__Lbigbss                                  bigbss       000000
__Lbigdata                                 bigdata      000000
__Lbigram                                  bigram       000000
__Lbss                                     bss          000000
__LbssBANK0                                bssBANK0     000000
__LbssBANK1                                bssBANK1     000000
__LbssCOMRAM                               bssCOMRAM    000000
__Lcinit                                   cinit        000000
__Lclrtext                                 clrtext      000000
__Lcomram                                  comram       000000
__Lconfig                                  config       300000
__Lconst                                   const        000000
__LcstackBANK0                             cstackBANK0  000000
__LcstackBANK1                             cstackBANK1  000000
__LcstackCOMRAM                            cstackCOMRAM 000000
__Ldata                                    data         000000
__LdataBANK1                               dataBANK1    000000
__Leeprom_data                             eeprom_data  000000
__Lfarbss                                  farbss       000000
__Lfardata                                 fardata      000000
__Libigdata                                ibigdata     000000
__Lidata                                   idata        000000
__LidataBANK1                              idataBANK1   000000
__Lidloc                                   idloc        200000
__Lifardata                                ifardata     000000
__Linit                                    init         000070
__Lintcode                                 intcode      000008
__Lintcode_body                            intcode_body 000000
__Lintcodelo                               intcodelo    000070
__Lintentry                                intentry     000000
__Lintret                                  intret       000000
__Lintsave_regs                            intsave_regs 000000
__Lirdata                                  irdata       000000
__Lmediumconst                             mediumconst  000000
__LnvFARRAM                                nvFARRAM     000000
__Lnvbit                                   nvbit        000000
__Lnvrram                                  nvrram       000000
__Lparam                                   rparam       000000
__Lpowerup                                 powerup      000070
__Lram                                     ram          000000
__Lramtop                                  ramtop       000300
__Lrbit                                    rbit         000000
__Lrbss                                    rbss         000000
__Lrdata                                   rdata        000000
__Lreset_vec                               reset_vec    000000
__Lrparam                                  rparam       000000
__Lsfr                                     sfr          000000
__Lsmallconst                              smallconst   000300
__Lspace_0                                 (abs)        000000
__Lspace_1                                 (abs)        000000
__Lspace_2                                 (abs)        000000
__Lstack                                   stack        000000
__Lstruct                                  struct       000000
__Ltemp                                    temp         000054
__Ltext                                    text         000000
__Ltext0                                   text0        000000
__Ltext1                                   text1        000000
__Ltext10                                  text10       000000
__Ltext11                                  text11       000000
__Ltext12                                  text12       000000
__Ltext13                                  text13       000000
__Ltext14                                  text14       000000
__Ltext15                                  text15       000000
__Ltext17                                  text17       000000
__Ltext18                                  text18       000000
__Ltext19                                  text19       000000
__Ltext2                                   text2        000000
__Ltext20                                  text20       000000
__Ltext21                                  text21       000000
__Ltext22                                  text22       000000
__Ltext23                                  text23       000000
__Ltext24                                  text24       000000
__Ltext25                                  text25       000000
__Ltext26                                  text26       000000
__Ltext27                                  text27       000000
__Ltext28                                  text28       000000
__Ltext29                                  text29       000000
__Ltext3                                   text3        000000
__Ltext30                                  text30       000000
__Ltext31                                  text31       000000
__Ltext32                                  text32       000000
__Ltext33                                  text33       000000
__Ltext34                                  text34       000000
__Ltext35                                  text35       000000
__Ltext36                                  text36       000000
__Ltext37                                  text37       000000
__Ltext38                                  text38       000000
__Ltext39                                  text39       000000
__Ltext4                                   text4        000000
__Ltext40                                  text40       000000
__Ltext41                                  text41       000000
__Ltext42                                  text42       000000
__Ltext43                                  text43       000000
__Ltext44                                  text44       000000
__Ltext45                                  text45       000000
__Ltext46                                  text46       000000
__Ltext47                                  text47       000000
__Ltext48                                  text48       000000
__Ltext49                                  text49       000000
__Ltext5                                   text5        000000
__Ltext50                                  text50       000000
__Ltext51                                  text51       000000
__Ltext6                                   text6        000000
__Ltext7                                   text7        000000
__Ltext8                                   text8        000000
__Ltext9                                   text9        000000
__S0                                       (abs)        30000E
__S1                                       (abs)        000179
__S2                                       (abs)        000000
___inthi_sp                                stack        000000
___intlo_sp                                stack        000000
___lwdiv                                   text12       0026A8
___lwdiv@counter                           cstackBANK0  0000EA
___lwdiv@dividend                          cstackBANK0  0000E6
___lwdiv@divisor                           cstackBANK0  0000E8
___lwdiv@quotient                          cstackBANK0  0000EB
___param_bank                              (abs)        000000
___rparam_used                             (abs)        000001
___sp                                      stack        000000
__accesstop                                (abs)        000060
__activetblptr                             (abs)        000002
__end_of_APP_DeviceCDCBasicDemoInitialize  text46       002E3C
__end_of_APP_DeviceCDCBasicDemoTasks       text7        000B22
__end_of_APP_LEDUpdateUSBStatus            text43       0020C8
__end_of_BUTTON_Enable                     text6        002CF2
__end_of_BUTTON_IsPressed                  text15       002AF8
__end_of_CDCInitEP                         text39       0028CC
__end_of_CDCTxService                      text13       000E8A
__end_of_LED_Enable                        text5        002868
__end_of_LED_Off                           text45       002A54
__end_of_LED_On                            text44       0029F2
__end_of_NumToUART                         text10       000CF0
__end_of_SYSTEM_Initialize                 text4        002B96
__end_of_SYS_InterruptHigh                 intcode      000070
__end_of_USBCheckCDCRequest                text38       001FD2
__end_of_USBCheckStdRequest                text28       001B9E
__end_of_USBConfigureEndpoint              text42       00261A
__end_of_USBCtrlEPAllowDataStage           text27       00256E
__end_of_USBCtrlEPAllowStatusStage         text49       0021B8
__end_of_USBCtrlEPService                  text23       002412
__end_of_USBCtrlEPServiceComplete          text26       001942
__end_of_USBCtrlTrfInHandler               text50       001ED0
__end_of_USBCtrlTrfOutHandler              text47       002792
__end_of_USBCtrlTrfRxService               text48       001802
__end_of_USBCtrlTrfSetupHandler            text25       0026A8
__end_of_USBCtrlTrfTxService               text51       001DC4
__end_of_USBDeviceAttach                   text3        002BE2
__end_of_USBDeviceInit                     text1        00142E
__end_of_USBDeviceTasks                    text17       000944
__end_of_USBEnableEndpoint                 text41       002C2E
__end_of_USBIncrement1msInternalTimers     text22       002D92
__end_of_USBStallHandler                   text21       00292E
__end_of_USBStdFeatureReqHandler           text33       000714
__end_of_USBStdGetDscHandler               text32       0012D8
__end_of_USBStdGetStatusHandler            text31       001CB4
__end_of_USBStdSetCfgHandler               text29       0022A2
__end_of_USBSuspend                        text20       002E18
__end_of_USBTransferOnePacket              text14       0016C0
__end_of_USBWakeFromSuspend                text19       002CB6
__end_of_USB_CD_Ptr                        smallconst   000309
__end_of_USB_SD_Ptr                        smallconst   000307
__end_of_USER_USB_CALLBACK_EVENT_HANDLER   text34       0024C2
__end_of___lwdiv                           text12       00271E
__end_of__initialization                   cinit        002A98
__end_of_configDescriptor1                 smallconst   00034C
__end_of_device_dsc                        smallconst   0003B6
__end_of_getsUSBUSART                      text9        00235A
__end_of_main                              text0        002DC0
__end_of_memcpy                            text24       002B48
__end_of_memset                            text2        001002
__end_of_putUSBUSART                       text11       002DEC
__end_of_putrsUSBUSART                     text8        002802
__end_of_sd000                             smallconst   0003BA
__end_of_sd001                             smallconst   000380
__end_of_sd002                             smallconst   0003A4
__end_ofi2_BUTTON_Enable                   text37       002D2A
__end_ofi2_LED_Enable                      text36       002990
__end_ofi2_SYSTEM_Initialize               text35       002C78
__end_ofi2_USBDeviceInit                   text18       00157E
__end_ofi2_USBTransferOnePacket            text40       001A80
__end_ofi2_memset                          text30       001178
__initialization                           cinit        002A54
__mediumconst                              mediumconst  000000
__pbssBANK0                                bssBANK0     000060
__pbssBANK1                                bssBANK1     000100
__pbssCOMRAM                               bssCOMRAM    000001
__pcinit                                   cinit        002A54
__pcstackBANK0                             cstackBANK0  0000E6
__pcstackBANK1                             cstackBANK1  000174
__pcstackCOMRAM                            cstackCOMRAM 00002B
__pdataBANK1                               dataBANK1    000140
__pidataBANK1                              idataBANK1   002D2A
__pintcode                                 intcode      000008
__psmallconst                              smallconst   000300
__ptext0                                   text0        002D92
__ptext1                                   text1        0012D8
__ptext10                                  text10       000B22
__ptext11                                  text11       002DC0
__ptext12                                  text12       0026A8
__ptext13                                  text13       000CF0
__ptext14                                  text14       00157E
__ptext15                                  text15       002AA6
__ptext17                                  text17       000714
__ptext18                                  text18       00142E
__ptext19                                  text19       002C78
__ptext2                                   text2        000E8A
__ptext20                                  text20       002DEC
__ptext21                                  text21       0028CC
__ptext22                                  text22       002D5E
__ptext23                                  text23       00235A
__ptext24                                  text24       002AF8
__ptext25                                  text25       00261A
__ptext26                                  text26       001802
__ptext27                                  text27       0024C2
__ptext28                                  text28       001A80
__ptext29                                  text29       0021B8
__ptext3                                   text3        002B96
__ptext30                                  text30       001002
__ptext31                                  text31       001B9E
__ptext32                                  text32       001178
__ptext33                                  text33       0003BC
__ptext34                                  text34       002412
__ptext35                                  text35       002C2E
__ptext36                                  text36       00292E
__ptext37                                  text37       002CF2
__ptext38                                  text38       001ED0
__ptext39                                  text39       002868
__ptext4                                   text4        002B48
__ptext40                                  text40       001942
__ptext41                                  text41       002BE2
__ptext42                                  text42       00256E
__ptext43                                  text43       001FD2
__ptext44                                  text44       002990
__ptext45                                  text45       0029F2
__ptext46                                  text46       002E18
__ptext47                                  text47       00271E
__ptext48                                  text48       0016C0
__ptext49                                  text49       0020C8
__ptext5                                   text5        002802
__ptext50                                  text50       001DC4
__ptext51                                  text51       001CB4
__ptext6                                   text6        002CB6
__ptext7                                   text7        000944
__ptext8                                   text8        002792
__ptext9                                   text9        0022A2
__ramtop                                   ramtop       000300
__size_of_APP_DeviceCDCBasicDemoInitialize (abs)        000000
__size_of_APP_DeviceCDCBasicDemoTasks      (abs)        000000
__size_of_APP_LEDUpdateUSBStatus           (abs)        000000
__size_of_BUTTON_Enable                    (abs)        000000
__size_of_BUTTON_IsPressed                 (abs)        000000
__size_of_CDCInitEP                        (abs)        000000
__size_of_CDCTxService                     (abs)        000000
__size_of_LED_Enable                       (abs)        000000
__size_of_LED_Off                          (abs)        000000
__size_of_LED_On                           (abs)        000000
__size_of_NumToUART                        (abs)        000000
__size_of_SYSTEM_Initialize                (abs)        000000
__size_of_SYS_InterruptHigh                (abs)        000000
__size_of_USBCheckCDCRequest               (abs)        000000
__size_of_USBCheckStdRequest               (abs)        000000
__size_of_USBConfigureEndpoint             (abs)        000000
__size_of_USBCtrlEPAllowDataStage          (abs)        000000
__size_of_USBCtrlEPAllowStatusStage        (abs)        000000
__size_of_USBCtrlEPService                 (abs)        000000
__size_of_USBCtrlEPServiceComplete         (abs)        000000
__size_of_USBCtrlTrfInHandler              (abs)        000000
__size_of_USBCtrlTrfOutHandler             (abs)        000000
__size_of_USBCtrlTrfRxService              (abs)        000000
__size_of_USBCtrlTrfSetupHandler           (abs)        000000
__size_of_USBCtrlTrfTxService              (abs)        000000
__size_of_USBDeviceAttach                  (abs)        000000
__size_of_USBDeviceInit                    (abs)        000000
__size_of_USBDeviceTasks                   (abs)        000000
__size_of_USBEnableEndpoint                (abs)        000000
__size_of_USBIncrement1msInternalTimers    (abs)        000000
__size_of_USBStallHandler                  (abs)        000000
__size_of_USBStdFeatureReqHandler          (abs)        000000
__size_of_USBStdGetDscHandler              (abs)        000000
__size_of_USBStdGetStatusHandler           (abs)        000000
__size_of_USBStdSetCfgHandler              (abs)        000000
__size_of_USBSuspend                       (abs)        000000
__size_of_USBTransferOnePacket             (abs)        000000
__size_of_USBWakeFromSuspend               (abs)        000000
__size_of_USER_USB_CALLBACK_EVENT_HANDLER  (abs)        000000
__size_of___lwdiv                          (abs)        000000
__size_of_getsUSBUSART                     (abs)        000000
__size_of_main                             (abs)        000000
__size_of_memcpy                           (abs)        000000
__size_of_memset                           (abs)        000000
__size_of_putUSBUSART                      (abs)        000000
__size_of_putrsUSBUSART                    (abs)        000000
__size_ofi2_BUTTON_Enable                  (abs)        000000
__size_ofi2_LED_Enable                     (abs)        000000
__size_ofi2_SYSTEM_Initialize              (abs)        000000
__size_ofi2_USBDeviceInit                  (abs)        000000
__size_ofi2_USBTransferOnePacket           (abs)        000000
__size_ofi2_memset                         (abs)        000000
__smallconst                               smallconst   000300
_buttonMessage                             dataBANK1    000140
_buttonPressed                             bssBANK0     00008D
_cdc_data_rx                               (abs)        000280
_cdc_data_tx                               (abs)        000240
_cdc_mem_type                              bssBANK0     00008B
_cdc_notice                                bssBANK0     000060
_cdc_rx_len                                bssBANK0     00008C
_cdc_trf_state                             bssBANK0     00008E
_cdc_tx_len                                bssCOMRAM    00001B
_configDescriptor1                         smallconst   000309
_controlTransferState                      bssCOMRAM    000027
_control_signal_bitmap                     bssBANK0     00008A
_device_dsc                                smallconst   0003A4
_dummy_encapsulated_cmd_response           bssBANK0     0000D0
_endpoint_number                           bssCOMRAM    000024
_ep_data_in                                bssBANK0     000081
_ep_data_out                               bssBANK0     00007E
_getsUSBUSART                              text9        0022A2
_inPipes                                   bssCOMRAM    000009
_line_coding                               bssBANK0     0000D8
_main                                      text0        002D92
_memcpy                                    text24       002AF8
_memset                                    text2        000E8A
_outPipes                                  bssCOMRAM    000001
_pBDTEntryEP0OutCurrent                    bssCOMRAM    000017
_pBDTEntryEP0OutNext                       bssCOMRAM    000015
_pBDTEntryIn                               bssCOMRAM    00000F
_pBDTEntryOut                              bssBANK0     00006A
_pCDCDst                                   bssBANK0     000078
_pCDCSrc                                   bssBANK0     00007B
_pDst                                      bssBANK0     000088
_putUSBUSART                               text11       002DC0
_putrsUSBUSART                             text8        002792
_readBuffer                                bssBANK0     000090
_sd000                                     smallconst   0003B6
_sd001                                     smallconst   00034C
_sd002                                     smallconst   000380
_shortPacketStatus                         bssCOMRAM    000028
_writeBuffer                               bssBANK1     000100
btemp                                      temp         000054
end_of_initialization                      cinit        002A98
getsUSBUSART@buffer                        cstackBANK0  0000F1
getsUSBUSART@len                           cstackBANK0  0000F3
i2BUTTON_Enable@button                     cstackCOMRAM 00002D
i2LED_Enable@led                           cstackCOMRAM 00002D
i2SYSTEM_Initialize@state                  cstackCOMRAM 000030
i2USBDeviceInit@i                          cstackCOMRAM 000037
i2USBTransferOnePacket@data                cstackCOMRAM 00002C
i2USBTransferOnePacket@dir                 cstackCOMRAM 00002B
i2USBTransferOnePacket@ep                  cstackCOMRAM 000033
i2USBTransferOnePacket@handle              cstackCOMRAM 000034
i2USBTransferOnePacket@len                 cstackCOMRAM 00002E
i2_BUTTON_Enable                           text37       002CF2
i2_LED_Enable                              text36       00292E
i2_SYSTEM_Initialize                       text35       002C2E
i2_USBDeviceInit                           text18       00142E
i2_USBTransferOnePacket                    text40       001942
i2_memset                                  text30       001002
i2memset@c                                 cstackCOMRAM 00002D
i2memset@dest                              cstackCOMRAM 00002B
i2memset@k                                 cstackCOMRAM 000033
i2memset@n                                 cstackCOMRAM 00002F
i2memset@s                                 cstackCOMRAM 000035
int$flags                                  temp         000054
intlevel0                                  text         000000
intlevel1                                  text         000000
intlevel2                                  text         000000
intlevel3                                  text         000000
memcpy@d                                   cstackCOMRAM 000031
memcpy@d1                                  cstackCOMRAM 00002B
memcpy@n                                   cstackCOMRAM 00002F
memcpy@s                                   cstackCOMRAM 000033
memcpy@s1                                  cstackCOMRAM 00002D
memcpy@tmp                                 cstackCOMRAM 000035
memset@c                                   cstackBANK0  0000E8
memset@dest                                cstackBANK0  0000E6
memset@k                                   cstackBANK0  0000EE
memset@n                                   cstackBANK0  0000EA
memset@s                                   cstackBANK0  0000F0
putUSBUSART@data                           cstackBANK0  0000E6
putUSBUSART@length                         cstackBANK0  0000E8
putrsUSBUSART@data                         cstackBANK0  0000E6
putrsUSBUSART@len                          cstackBANK0  0000EA
putrsUSBUSART@pData                        cstackBANK0  0000E8
stackhi                                    (abs)        0001FF
stacklo                                    (abs)        000179
start                                      init         000070
start_initialization                       cinit        002A54
ttemp5                                     temp         000055
ttemp6                                     temp         000058
ttemp7                                     temp         00005C
wtemp8                                     temp         000055


FUNCTION INFORMATION:

 *************** function _main *****************
 Defined at:
		line 45 in file "main.c"
 Parameters:    Size  Location     Type
		None
 Auto vars:     Size  Location     Type
		None
 Return value:  Size  Location     Type
                  1    wreg      void 
 Registers used:
		wreg, fsr1l, fsr1h, fsr2l, fsr2h, status,2, status,0, prodl, prodh, cstack
 Tracked objects:
		On entry : 
		On exit  : 
		Unchanged: 
 Data sizes:     COMRAM   BANK0   BANK1   BANK2
      Params:         0       0       0       0
      Locals:         0       0       0       0
      Temps:          0       0       0       0
      Totals:         0       0       0       0
Total ram usage:        0 bytes
 Hardware stack levels required when called:   13
 This function calls:
		_APP_DeviceCDCBasicDemoTasks
		_SYSTEM_Initialize
		_USBDeviceAttach
		_USBDeviceInit
 This function is called by:
		Startup code after reset
 This function uses a non-reentrant model


 *************** function _USBDeviceInit *****************
 Defined at:
		line 281 in file "usb_device.c"
 Parameters:    Size  Location     Type
		None
 Auto vars:     Size  Location     Type
  i               1   12[BANK0 ] unsigned char 
 Return value:  Size  Location     Type
                  1    wreg      void 
 Registers used:
		wreg, fsr2l, fsr2h, status,2, status,0, prodl, prodh, cstack
 Tracked objects:
		On entry : 
		On exit  : 
		Unchanged: 
 Data sizes:     COMRAM   BANK0   BANK1   BANK2
      Params:         0       0       0       0
      Locals:         0       1       0       0
      Temps:          0       0       0       0
      Totals:         0       1       0       0
Total ram usage:        1 bytes
 Hardware stack levels used:    1
 Hardware stack levels required when called:   11
 This function calls:
		_memset
 This function is called by:
		_main
 This function uses a non-reentrant model


 *************** function _memset *****************
 Defined at:
		line 4 in file "C:\Program Files (x86)\Microchip\xc8\v2.10\pic\sources\c99\common\memset.c"
 Parameters:    Size  Location     Type
  dest            2    0[BANK0 ] PTR void 
		 -> USBAlternateInterface(2), BDT(48), UEP1(1), 
  c               2    2[BANK0 ] int 
  n               2    4[BANK0 ] unsigned int 
 Auto vars:     Size  Location     Type
  s               2   10[BANK0 ] PTR unsigned char 
		 -> USBAlternateInterface(2), BDT(48), UEP1(1), 
  k               2    8[BANK0 ] unsigned int 
 Return value:  Size  Location     Type
                  2    0[BANK0 ] PTR void 
 Registers used:
		wreg, fsr2l, fsr2h, status,2, status,0
 Tracked objects:
		On entry : 
		On exit  : 
		Unchanged: 
 Data sizes:     COMRAM   BANK0   BANK1   BANK2
      Params:         0       6       0       0
      Locals:         0       4       0       0
      Temps:          0       2       0       0
      Totals:         0      12       0       0
Total ram usage:       12 bytes
 Hardware stack levels used:    1
 Hardware stack levels required when called:   10
 This function calls:
		Nothing
 This function is called by:
		_USBDeviceInit
 This function uses a non-reentrant model


 *************** function _USBDeviceAttach *****************
 Defined at:
		line 1356 in file "usb_device.c"
 Parameters:    Size  Location     Type
		None
 Auto vars:     Size  Location     Type
		None
 Return value:  Size  Location     Type
                  1    wreg      void 
 Registers used:
		wreg, status,2
 Tracked objects:
		On entry : 
		On exit  : 
		Unchanged: 
 Data sizes:     COMRAM   BANK0   BANK1   BANK2
      Params:         0       0       0       0
      Locals:         0       0       0       0
      Temps:          0       0       0       0
      Totals:         0       0       0       0
Total ram usage:        0 bytes
 Hardware stack levels used:    1
 Hardware stack levels required when called:   10
 This function calls:
		Nothing
 This function is called by:
		_main
 This function uses a non-reentrant model


 *************** function _SYSTEM_Initialize *****************
 Defined at:
		line 65 in file "system.c"
 Parameters:    Size  Location     Type
  state           1    wreg     enum E2785
 Auto vars:     Size  Location     Type
  state           1    5[BANK0 ] enum E2785
 Return value:  Size  Location     Type
                  1    wreg      void 
 Registers used:
		wreg, status,2, status,0, cstack
 Tracked objects:
		On entry : 
		On exit  : 
		Unchanged: 
 Data sizes:     COMRAM   BANK0   BANK1   BANK2
      Params:         0       0       0       0
      Locals:         0       1       0       0
      Temps:          0       2       0       0
      Totals:         0       3       0       0
Total ram usage:        3 bytes
 Hardware stack levels used:    1
 Hardware stack levels required when called:   11
 This function calls:
		_BUTTON_Enable
		_LED_Enable
 This function is called by:
		_main
 This function uses a non-reentrant model


 *************** function _LED_Enable *****************
 Defined at:
		line 220 in file "leds.c"
 Parameters:    Size  Location     Type
  led             1    wreg     enum E2
 Auto vars:     Size  Location     Type
  led             1    2[BANK0 ] enum E2
 Return value:  Size  Location     Type
                  1    wreg      void 
 Registers used:
		wreg, status,2, status,0
 Tracked objects:
		On entry : 
		On exit  : 
		Unchanged: 
 Data sizes:     COMRAM   BANK0   BANK1   BANK2
      Params:         0       0       0       0
      Locals:         0       1       0       0
      Temps:          0       2       0       0
      Totals:         0       3       0       0
Total ram usage:        3 bytes
 Hardware stack levels used:    1
 Hardware stack levels required when called:   10
 This function calls:
		Nothing
 This function is called by:
		_SYSTEM_Initialize
 This function uses a non-reentrant model


 *************** function _BUTTON_Enable *****************
 Defined at:
		line 86 in file "buttons.c"
 Parameters:    Size  Location     Type
  button          1    wreg     enum E2760
 Auto vars:     Size  Location     Type
  button          1    2[BANK0 ] enum E2760
 Return value:  Size  Location     Type
                  1    wreg      void 
 Registers used:
		wreg, status,2, status,0
 Tracked objects:
		On entry : 
		On exit  : 
		Unchanged: 
 Data sizes:     COMRAM   BANK0   BANK1   BANK2
      Params:         0       0       0       0
      Locals:         0       1       0       0
      Temps:          0       2       0       0
      Totals:         0       3       0       0
Total ram usage:        3 bytes
 Hardware stack levels used:    1
 Hardware stack levels required when called:   10
 This function calls:
		Nothing
 This function is called by:
		_SYSTEM_Initialize
 This function uses a non-reentrant model


 *************** function _APP_DeviceCDCBasicDemoTasks *****************
 Defined at:
		line 77 in file "app_device_cdc_basic.c"
 Parameters:    Size  Location     Type
		None
 Auto vars:     Size  Location     Type
  i               1    4[BANK1 ] unsigned char 
  numBytesRead    1    3[BANK1 ] unsigned char 
  data_int        2    0[BANK1 ] unsigned short 
  num_flag        1    2[BANK1 ] _Bool 
 Return value:  Size  Location     Type
                  1    wreg      void 
 Registers used:
		wreg, fsr1l, fsr1h, fsr2l, fsr2h, status,2, status,0, prodl, prodh, cstack
 Tracked objects:
		On entry : 
		On exit  : 
		Unchanged: 
 Data sizes:     COMRAM   BANK0   BANK1   BANK2
      Params:         0       0       0       0
      Locals:         0       0       5       0
      Temps:          0       2       0       0
      Totals:         0       2       5       0
Total ram usage:        7 bytes
 Hardware stack levels used:    1
 Hardware stack levels required when called:   12
 This function calls:
		_BUTTON_IsPressed
		_CDCTxService
		_NumToUART
		_getsUSBUSART
		_putUSBUSART
		_putrsUSBUSART
 This function is called by:
		_main
 This function uses a non-reentrant model


 *************** function _putrsUSBUSART *****************
 Defined at:
		line 727 in file "usb_device_cdc.c"
 Parameters:    Size  Location     Type
  data            2    0[BANK0 ] PTR const unsigned char 
		 -> buttonMessage(52), 
 Auto vars:     Size  Location     Type
  pData           2    2[BANK0 ] PTR const unsigned char 
		 -> buttonMessage(52), 
  len             1    4[BANK0 ] unsigned char 
 Return value:  Size  Location     Type
                  1    wreg      void 
 Registers used:
		wreg, fsr2l, fsr2h, status,2, status,0
 Tracked objects:
		On entry : 
		On exit  : 
		Unchanged: 
 Data sizes:     COMRAM   BANK0   BANK1   BANK2
      Params:         0       2       0       0
      Locals:         0       3       0       0
      Temps:          0       0       0       0
      Totals:         0       5       0       0
Total ram usage:        5 bytes
 Hardware stack levels used:    1
 Hardware stack levels required when called:   10
 This function calls:
		Nothing
 This function is called by:
		_APP_DeviceCDCBasicDemoTasks
 This function uses a non-reentrant model


 *************** function _getsUSBUSART *****************
 Defined at:
		line 486 in file "usb_device_cdc.c"
 Parameters:    Size  Location     Type
  buffer          2   11[BANK0 ] PTR unsigned char 
		 -> readBuffer(64), 
  len             1   13[BANK0 ] unsigned char 
 Auto vars:     Size  Location     Type
		None
 Return value:  Size  Location     Type
                  1    wreg      unsigned char 
 Registers used:
		wreg, fsr1l, fsr1h, fsr2l, fsr2h, status,2, status,0, prodl, prodh, cstack
 Tracked objects:
		On entry : 
		On exit  : 
		Unchanged: 
 Data sizes:     COMRAM   BANK0   BANK1   BANK2
      Params:         0       3       0       0
      Locals:         0       0       0       0
      Temps:          0       1       0       0
      Totals:         0       4       0       0
Total ram usage:        4 bytes
 Hardware stack levels used:    1
 Hardware stack levels required when called:   11
 This function calls:
		_USBTransferOnePacket
 This function is called by:
		_APP_DeviceCDCBasicDemoTasks
 This function uses a non-reentrant model


 *************** function _NumToUART *****************
 Defined at:
		line 15 in file "USB_CDC_diymicro.c"
 Parameters:    Size  Location     Type
  number          2    7[BANK0 ] unsigned short 
 Auto vars:     Size  Location     Type
  i               1   17[BANK0 ] unsigned char 
  i               1   18[BANK0 ] unsigned char 
  bignum          2   19[BANK0 ] unsigned short 
  temp_Number     2    0        unsigned short 
  numtemp         1   21[BANK0 ] unsigned char 
 Return value:  Size  Location     Type
                  1    wreg      void 
 Registers used:
		wreg, fsr1l, fsr1h, fsr2l, fsr2h, status,2, status,0, prodl, prodh, cstack
 Tracked objects:
		On entry : 
		On exit  : 
		Unchanged: 
 Data sizes:     COMRAM   BANK0   BANK1   BANK2
      Params:         0       2       0       0
      Locals:         0       9       0       0
      Temps:          0       4       0       0
      Totals:         0      15       0       0
Total ram usage:       15 bytes
 Hardware stack levels used:    1
 Hardware stack levels required when called:   11
 This function calls:
		___lwdiv
		_putUSBUSART
 This function is called by:
		_APP_DeviceCDCBasicDemoTasks
 This function uses a non-reentrant model


 *************** function _putUSBUSART *****************
 Defined at:
		line 557 in file "usb_device_cdc.c"
 Parameters:    Size  Location     Type
  data            2    0[BANK0 ] PTR unsigned char 
		 -> NumToUART@temp_data(5), writeBuffer(64), 
  length          1    2[BANK0 ] unsigned char 
 Auto vars:     Size  Location     Type
		None
 Return value:  Size  Location     Type
                  1    wreg      void 
 Registers used:
		wreg, status,2, status,0
 Tracked objects:
		On entry : 
		On exit  : 
		Unchanged: 
 Data sizes:     COMRAM   BANK0   BANK1   BANK2
      Params:         0       3       0       0
      Locals:         0       0       0       0
      Temps:          0       0       0       0
      Totals:         0       3       0       0
Total ram usage:        3 bytes
 Hardware stack levels used:    1
 Hardware stack levels required when called:   10
 This function calls:
		Nothing
 This function is called by:
		_APP_DeviceCDCBasicDemoTasks
		_NumToUART
 This function uses a non-reentrant model


 *************** function ___lwdiv *****************
 Defined at:
		line 7 in file "C:\Program Files (x86)\Microchip\xc8\v2.10\pic\sources\c99\common\lwdiv.c"
 Parameters:    Size  Location     Type
  dividend        2    0[BANK0 ] unsigned int 
  divisor         2    2[BANK0 ] unsigned int 
 Auto vars:     Size  Location     Type
  quotient        2    5[BANK0 ] unsigned int 
  counter         1    4[BANK0 ] unsigned char 
 Return value:  Size  Location     Type
                  2    0[BANK0 ] unsigned int 
 Registers used:
		wreg, status,2, status,0
 Tracked objects:
		On entry : 
		On exit  : 
		Unchanged: 
 Data sizes:     COMRAM   BANK0   BANK1   BANK2
      Params:         0       4       0       0
      Locals:         0       3       0       0
      Temps:          0       0       0       0
      Totals:         0       7       0       0
Total ram usage:        7 bytes
 Hardware stack levels used:    1
 Hardware stack levels required when called:   10
 This function calls:
		Nothing
 This function is called by:
		_NumToUART
 This function uses a non-reentrant model


 *************** function _CDCTxService *****************
 Defined at:
		line 837 in file "usb_device_cdc.c"
 Parameters:    Size  Location     Type
		None
 Auto vars:     Size  Location     Type
  byte_to_send    1   12[BANK0 ] unsigned char 
  i               1   11[BANK0 ] unsigned char 
 Return value:  Size  Location     Type
                  1    wreg      void 
 Registers used:
		wreg, fsr1l, fsr1h, fsr2l, fsr2h, status,2, status,0, prodl, prodh, cstack
 Tracked objects:
		On entry : 
		On exit  : 
		Unchanged: 
 Data sizes:     COMRAM   BANK0   BANK1   BANK2
      Params:         0       0       0       0
      Locals:         0       2       0       0
      Temps:          0       0       0       0
      Totals:         0       2       0       0
Total ram usage:        2 bytes
 Hardware stack levels used:    1
 Hardware stack levels required when called:   11
 This function calls:
		_USBTransferOnePacket
 This function is called by:
		_APP_DeviceCDCBasicDemoTasks
 This function uses a non-reentrant model


 *************** function _USBTransferOnePacket *****************
 Defined at:
		line 999 in file "usb_device.c"
 Parameters:    Size  Location     Type
  ep              1    wreg     unsigned char 
  dir             1    0[BANK0 ] unsigned char 
  data            2    1[BANK0 ] PTR unsigned char 
		 -> cdc_data_tx(64), cdc_data_rx(64), NULL(0), 
  len             1    3[BANK0 ] unsigned char 
 Auto vars:     Size  Location     Type
  ep              1    8[BANK0 ] unsigned char 
  handle          2    9[BANK0 ] PTR volatile struct __BD
		 -> RAM(767), NULL(0), BDT(48), 
 Return value:  Size  Location     Type
                  2    0[BANK0 ] PTR void 
 Registers used:
		wreg, fsr2l, fsr2h, status,2, status,0, prodl, prodh
 Tracked objects:
		On entry : 
		On exit  : 
		Unchanged: 
 Data sizes:     COMRAM   BANK0   BANK1   BANK2
      Params:         0       4       0       0
      Locals:         0       3       0       0
      Temps:          0       4       0       0
      Totals:         0      11       0       0
Total ram usage:       11 bytes
 Hardware stack levels used:    1
 Hardware stack levels required when called:   10
 This function calls:
		Nothing
 This function is called by:
		_getsUSBUSART
		_CDCTxService
		_USBCDCEventHandler
 This function uses a non-reentrant model


 *************** function _BUTTON_IsPressed *****************
 Defined at:
		line 56 in file "buttons.c"
 Parameters:    Size  Location     Type
  button          1    wreg     enum E2760
 Auto vars:     Size  Location     Type
  button          1    2[BANK0 ] enum E2760
 Return value:  Size  Location     Type
                  1    wreg      _Bool 
 Registers used:
		wreg, status,2, status,0
 Tracked objects:
		On entry : 
		On exit  : 
		Unchanged: 
 Data sizes:     COMRAM   BANK0   BANK1   BANK2
      Params:         0       0       0       0
      Locals:         0       1       0       0
      Temps:          0       2       0       0
      Totals:         0       3       0       0
Total ram usage:        3 bytes
 Hardware stack levels used:    1
 Hardware stack levels required when called:   10
 This function calls:
		Nothing
 This function is called by:
		_APP_DeviceCDCBasicDemoTasks
 This function uses a non-reentrant model


 *************** function _SYS_InterruptHigh *****************
 Defined at:
		line 88 in file "system.c"
 Parameters:    Size  Location     Type
		None
 Auto vars:     Size  Location     Type
		None
 Return value:  Size  Location     Type
                  1    wreg      void 
 Registers used:
		wreg, fsr1l, fsr1h, fsr2l, fsr2h, status,2, status,0, tblptrl, tblptrh, tblptru, prodl, prodh, cstack
 Tracked objects:
		On entry : 
		On exit  : 
		Unchanged: 
 Data sizes:     COMRAM   BANK0   BANK1   BANK2
      Params:         0       0       0       0
      Locals:         0       0       0       0
      Temps:         10       0       0       0
      Totals:        10       0       0       0
Total ram usage:       10 bytes
 Hardware stack levels used:    1
 Hardware stack levels required when called:    9
 This function calls:
		_USBDeviceTasks
 This function is called by:
		Interrupt level 2
 This function uses a non-reentrant model


 *************** function _USBDeviceTasks *****************
 Defined at:
		line 481 in file "usb_device.c"
 Parameters:    Size  Location     Type
		None
 Auto vars:     Size  Location     Type
  i               1   30[COMRAM] unsigned char 
 Return value:  Size  Location     Type
                  1    wreg      void 
 Registers used:
		wreg, fsr1l, fsr1h, fsr2l, fsr2h, status,2, status,0, tblptrl, tblptrh, tblptru, prodl, prodh, cstack
 Tracked objects:
		On entry : 
		On exit  : 
		Unchanged: 
 Data sizes:     COMRAM   BANK0   BANK1   BANK2
      Params:         0       0       0       0
      Locals:         1       0       0       0
      Temps:          0       0       0       0
      Totals:         1       0       0       0
Total ram usage:        1 bytes
 Hardware stack levels used:    1
 Hardware stack levels required when called:    8
 This function calls:
		_USBCtrlEPAllowStatusStage
		_USBCtrlEPService
		_USBIncrement1msInternalTimers
		_USBStallHandler
		_USBSuspend
		_USBWakeFromSuspend
		_USER_USB_CALLBACK_EVENT_HANDLER
		i2_USBDeviceInit
 This function is called by:
		_SYS_InterruptHigh
 This function uses a non-reentrant model


 *************** function i2_USBDeviceInit *****************
 Defined at:
		line 281 in file "usb_device.c"
 Parameters:    Size  Location     Type
		None
 Auto vars:     Size  Location     Type
  USBDeviceIni    1   12[COMRAM] unsigned char 
 Return value:  Size  Location     Type
                  1    wreg      void 
 Registers used:
		wreg, fsr2l, fsr2h, status,2, status,0, prodl, prodh, cstack
 Tracked objects:
		On entry : 
		On exit  : 
		Unchanged: 
 Data sizes:     COMRAM   BANK0   BANK1   BANK2
      Params:         0       0       0       0
      Locals:         1       0       0       0
      Temps:          0       0       0       0
      Totals:         1       0       0       0
Total ram usage:        1 bytes
 Hardware stack levels used:    1
 Hardware stack levels required when called:    1
 This function calls:
		i2_memset
 This function is called by:
		_USBDeviceTasks
 This function uses a non-reentrant model


 *************** function _USBWakeFromSuspend *****************
 Defined at:
		line 2310 in file "usb_device.c"
 Parameters:    Size  Location     Type
		None
 Auto vars:     Size  Location     Type
		None
 Return value:  Size  Location     Type
                  1    wreg      void 
 Registers used:
		wreg, fsr2l, fsr2h, status,2, status,0, prodl, prodh, cstack
 Tracked objects:
		On entry : 
		On exit  : 
		Unchanged: 
 Data sizes:     COMRAM   BANK0   BANK1   BANK2
      Params:         0       0       0       0
      Locals:         0       0       0       0
      Temps:          0       0       0       0
      Totals:         0       0       0       0
Total ram usage:        0 bytes
 Hardware stack levels used:    1
 Hardware stack levels required when called:    4
 This function calls:
		_USER_USB_CALLBACK_EVENT_HANDLER
 This function is called by:
		_USBDeviceTasks
 This function uses a non-reentrant model


 *************** function _USBSuspend *****************
 Defined at:
		line 2252 in file "usb_device.c"
 Parameters:    Size  Location     Type
		None
 Auto vars:     Size  Location     Type
		None
 Return value:  Size  Location     Type
                  1    wreg      void 
 Registers used:
		wreg, fsr2l, fsr2h, status,2, status,0, prodl, prodh, cstack
 Tracked objects:
		On entry : 
		On exit  : 
		Unchanged: 
 Data sizes:     COMRAM   BANK0   BANK1   BANK2
      Params:         0       0       0       0
      Locals:         0       0       0       0
      Temps:          0       0       0       0
      Totals:         0       0       0       0
Total ram usage:        0 bytes
 Hardware stack levels used:    1
 Hardware stack levels required when called:    4
 This function calls:
		_USER_USB_CALLBACK_EVENT_HANDLER
 This function is called by:
		_USBDeviceTasks
 This function uses a non-reentrant model


 *************** function _USBStallHandler *****************
 Defined at:
		line 2209 in file "usb_device.c"
 Parameters:    Size  Location     Type
		None
 Auto vars:     Size  Location     Type
		None
 Return value:  Size  Location     Type
                  1    wreg      void 
 Registers used:
		wreg, fsr2l, fsr2h, status,2, status,0
 Tracked objects:
		On entry : 
		On exit  : 
		Unchanged: 
 Data sizes:     COMRAM   BANK0   BANK1   BANK2
      Params:         0       0       0       0
      Locals:         0       0       0       0
      Temps:          1       0       0       0
      Totals:         1       0       0       0
Total ram usage:        1 bytes
 Hardware stack levels used:    1
 This function calls:
		Nothing
 This function is called by:
		_USBDeviceTasks
 This function uses a non-reentrant model


 *************** function _USBIncrement1msInternalTimers *****************
 Defined at:
		line 2998 in file "usb_device.c"
 Parameters:    Size  Location     Type
		None
 Auto vars:     Size  Location     Type
		None
 Return value:  Size  Location     Type
                  1    wreg      void 
 Registers used:
		wreg, status,2, status,0
 Tracked objects:
		On entry : 
		On exit  : 
		Unchanged: 
 Data sizes:     COMRAM   BANK0   BANK1   BANK2
      Params:         0       0       0       0
      Locals:         0       0       0       0
      Temps:          0       0       0       0
      Totals:         0       0       0       0
Total ram usage:        0 bytes
 Hardware stack levels used:    1
 This function calls:
		Nothing
 This function is called by:
		_USBDeviceTasks
 This function uses a non-reentrant model


 *************** function _USBCtrlEPService *****************
 Defined at:
		line 2379 in file "usb_device.c"
 Parameters:    Size  Location     Type
		None
 Auto vars:     Size  Location     Type
		None
 Return value:  Size  Location     Type
                  1    wreg      void 
 Registers used:
		wreg, fsr1l, fsr1h, fsr2l, fsr2h, status,2, status,0, tblptrl, tblptrh, tblptru, prodl, prodh, cstack
 Tracked objects:
		On entry : 
		On exit  : 
		Unchanged: 
 Data sizes:     COMRAM   BANK0   BANK1   BANK2
      Params:         0       0       0       0
      Locals:         0       0       0       0
      Temps:          1       0       0       0
      Totals:         1       0       0       0
Total ram usage:        1 bytes
 Hardware stack levels used:    1
 Hardware stack levels required when called:    7
 This function calls:
		_USBCtrlTrfInHandler
		_USBCtrlTrfOutHandler
		_USBCtrlTrfSetupHandler
		_memcpy
 This function is called by:
		_USBDeviceTasks
 This function uses a non-reentrant model


 *************** function _memcpy *****************
 Defined at:
		line 4 in file "C:\Program Files (x86)\Microchip\xc8\v2.10\pic\sources\c99\common\memcpy.c"
 Parameters:    Size  Location     Type
  d1              2    0[COMRAM] PTR void 
		 -> SetupPkt(8), 
  s1              2    2[COMRAM] PTR const void 
		 -> CtrlTrfData(8), RAM(767), SetupPkt(8), 
  n               2    4[COMRAM] unsigned int 
 Auto vars:     Size  Location     Type
  s               2    8[COMRAM] PTR const unsigned char 
		 -> CtrlTrfData(8), RAM(767), SetupPkt(8), 
  d               2    6[COMRAM] PTR unsigned char 
		 -> SetupPkt(8), 
  tmp             1   10[COMRAM] unsigned char 
 Return value:  Size  Location     Type
                  2    0[COMRAM] PTR void 
 Registers used:
		wreg, fsr2l, fsr2h, status,2, status,0
 Tracked objects:
		On entry : 
		On exit  : 
		Unchanged: 
 Data sizes:     COMRAM   BANK0   BANK1   BANK2
      Params:         6       0       0       0
      Locals:         5       0       0       0
      Temps:          0       0       0       0
      Totals:        11       0       0       0
Total ram usage:       11 bytes
 Hardware stack levels used:    1
 This function calls:
		Nothing
 This function is called by:
		_USBCtrlEPService
 This function uses a non-reentrant model


 *************** function _USBCtrlTrfSetupHandler *****************
 Defined at:
		line 2472 in file "usb_device.c"
 Parameters:    Size  Location     Type
		None
 Auto vars:     Size  Location     Type
		None
 Return value:  Size  Location     Type
                  1    wreg      void 
 Registers used:
		wreg, fsr1l, fsr1h, fsr2l, fsr2h, status,2, status,0, tblptrl, tblptrh, tblptru, prodl, prodh, cstack
 Tracked objects:
		On entry : 
		On exit  : 
		Unchanged: 
 Data sizes:     COMRAM   BANK0   BANK1   BANK2
      Params:         0       0       0       0
      Locals:         0       0       0       0
      Temps:          0       0       0       0
      Totals:         0       0       0       0
Total ram usage:        0 bytes
 Hardware stack levels used:    1
 Hardware stack levels required when called:    6
 This function calls:
		_USBCheckStdRequest
		_USBCtrlEPServiceComplete
		_USER_USB_CALLBACK_EVENT_HANDLER
 This function is called by:
		_USBCtrlEPService
 This function uses a non-reentrant model


 *************** function _USBCtrlEPServiceComplete *****************
 Defined at:
		line 1620 in file "usb_device.c"
 Parameters:    Size  Location     Type
		None
 Auto vars:     Size  Location     Type
		None
 Return value:  Size  Location     Type
                  1    wreg      void 
 Registers used:
		wreg, fsr1l, fsr1h, fsr2l, fsr2h, status,2, status,0, tblptrl, tblptrh, tblptru, cstack
 Tracked objects:
		On entry : 
		On exit  : 
		Unchanged: 
 Data sizes:     COMRAM   BANK0   BANK1   BANK2
      Params:         0       0       0       0
      Locals:         0       0       0       0
      Temps:          0       0       0       0
      Totals:         0       0       0       0
Total ram usage:        0 bytes
 Hardware stack levels used:    1
 Hardware stack levels required when called:    2
 This function calls:
		_USBCtrlEPAllowDataStage
		_USBCtrlEPAllowStatusStage
 This function is called by:
		_USBCtrlTrfSetupHandler
 This function uses a non-reentrant model


 *************** function _USBCtrlEPAllowDataStage *****************
 Defined at:
		line 1492 in file "usb_device.c"
 Parameters:    Size  Location     Type
		None
 Auto vars:     Size  Location     Type
		None
 Return value:  Size  Location     Type
                  1    wreg      void 
 Registers used:
		wreg, fsr1l, fsr1h, fsr2l, fsr2h, status,2, status,0, tblptrl, tblptrh, tblptru, cstack
 Tracked objects:
		On entry : 
		On exit  : 
		Unchanged: 
 Data sizes:     COMRAM   BANK0   BANK1   BANK2
      Params:         0       0       0       0
      Locals:         0       0       0       0
      Temps:          0       0       0       0
      Totals:         0       0       0       0
Total ram usage:        0 bytes
 Hardware stack levels used:    1
 Hardware stack levels required when called:    1
 This function calls:
		_USBCtrlTrfTxService
 This function is called by:
		_USBCtrlEPServiceComplete
 This function uses a non-reentrant model


 *************** function _USBCheckStdRequest *****************
 Defined at:
		line 2693 in file "usb_device.c"
 Parameters:    Size  Location     Type
		None
 Auto vars:     Size  Location     Type
		None
 Return value:  Size  Location     Type
                  1    wreg      void 
 Registers used:
		wreg, fsr1l, fsr1h, fsr2l, fsr2h, status,2, status,0, tblptrl, tblptrh, tblptru, prodl, prodh, cstack
 Tracked objects:
		On entry : 
		On exit  : 
		Unchanged: 
 Data sizes:     COMRAM   BANK0   BANK1   BANK2
      Params:         0       0       0       0
      Locals:         0       0       0       0
      Temps:          2       0       0       0
      Totals:         2       0       0       0
Total ram usage:        2 bytes
 Hardware stack levels used:    1
 Hardware stack levels required when called:    5
 This function calls:
		_USBStdFeatureReqHandler
		_USBStdGetDscHandler
		_USBStdGetStatusHandler
		_USBStdSetCfgHandler
		_USER_USB_CALLBACK_EVENT_HANDLER
 This function is called by:
		_USBCtrlTrfSetupHandler
 This function uses a non-reentrant model


 *************** function _USBStdSetCfgHandler *****************
 Defined at:
		line 1972 in file "usb_device.c"
 Parameters:    Size  Location     Type
		None
 Auto vars:     Size  Location     Type
  i               1   20[COMRAM] unsigned char 
 Return value:  Size  Location     Type
                  1    wreg      void 
 Registers used:
		wreg, fsr2l, fsr2h, status,2, status,0, prodl, prodh, cstack
 Tracked objects:
		On entry : 
		On exit  : 
		Unchanged: 
 Data sizes:     COMRAM   BANK0   BANK1   BANK2
      Params:         0       0       0       0
      Locals:         1       0       0       0
      Temps:          0       0       0       0
      Totals:         1       0       0       0
Total ram usage:        1 bytes
 Hardware stack levels used:    1
 Hardware stack levels required when called:    4
 This function calls:
		_USER_USB_CALLBACK_EVENT_HANDLER
		i2_memset
 This function is called by:
		_USBCheckStdRequest
 This function uses a non-reentrant model


 *************** function i2_memset *****************
 Defined at:
		line 4 in file "C:\Program Files (x86)\Microchip\xc8\v2.10\pic\sources\c99\common\memset.c"
 Parameters:    Size  Location     Type
  dest            2    0[COMRAM] PTR void 
		 -> USBAlternateInterface(2), BDT(48), UEP1(1), 
  c               2    2[COMRAM] int 
  n               2    4[COMRAM] unsigned int 
 Auto vars:     Size  Location     Type
  memset          2   10[COMRAM] PTR unsigned char 
		 -> USBAlternateInterface(2), BDT(48), UEP1(1), 
  memset          2    8[COMRAM] unsigned int 
 Return value:  Size  Location     Type
                  2    0[COMRAM] PTR void 
 Registers used:
		wreg, fsr2l, fsr2h, status,2, status,0
 Tracked objects:
		On entry : 
		On exit  : 
		Unchanged: 
 Data sizes:     COMRAM   BANK0   BANK1   BANK2
      Params:         6       0       0       0
      Locals:         4       0       0       0
      Temps:          2       0       0       0
      Totals:        12       0       0       0
Total ram usage:       12 bytes
 Hardware stack levels used:    1
 This function calls:
		Nothing
 This function is called by:
		_USBStdSetCfgHandler
		i2_USBDeviceInit
 This function uses a non-reentrant model


 *************** function _USBStdGetStatusHandler *****************
 Defined at:
		line 2133 in file "usb_device.c"
 Parameters:    Size  Location     Type
		None
 Auto vars:     Size  Location     Type
  p               2    2[COMRAM] PTR struct __BDT
		 -> RAM(767), NULL(0), BDT(48), 
 Return value:  Size  Location     Type
                  1    wreg      void 
 Registers used:
		wreg, fsr2l, fsr2h, status,2, status,0, prodl, prodh
 Tracked objects:
		On entry : 
		On exit  : 
		Unchanged: 
 Data sizes:     COMRAM   BANK0   BANK1   BANK2
      Params:         0       0       0       0
      Locals:         2       0       0       0
      Temps:          2       0       0       0
      Totals:         4       0       0       0
Total ram usage:        4 bytes
 Hardware stack levels used:    1
 This function calls:
		Nothing
 This function is called by:
		_USBCheckStdRequest
 This function uses a non-reentrant model


 *************** function _USBStdGetDscHandler *****************
 Defined at:
		line 2047 in file "usb_device.c"
 Parameters:    Size  Location     Type
		None
 Auto vars:     Size  Location     Type
		None
 Return value:  Size  Location     Type
                  1    wreg      void 
 Registers used:
		wreg, fsr1l, fsr1h, status,2, status,0, tblptrl, tblptrh, tblptru, prodl, prodh
 Tracked objects:
		On entry : 
		On exit  : 
		Unchanged: 
 Data sizes:     COMRAM   BANK0   BANK1   BANK2
      Params:         0       0       0       0
      Locals:         0       0       0       0
      Temps:          2       0       0       0
      Totals:         2       0       0       0
Total ram usage:        2 bytes
 Hardware stack levels used:    1
 This function calls:
		Nothing
 This function is called by:
		_USBCheckStdRequest
 This function uses a non-reentrant model


 *************** function _USBStdFeatureReqHandler *****************
 Defined at:
		line 2761 in file "usb_device.c"
 Parameters:    Size  Location     Type
		None
 Auto vars:     Size  Location     Type
  p               2   25[COMRAM] PTR struct __BDT
		 -> RAM(767), NULL(0), BDT(48), 
  pUEP            2   22[COMRAM] PTR unsigned char 
		 -> UEP0(1), 
  current_ep_d    1   24[COMRAM] struct .
 Return value:  Size  Location     Type
                  1    wreg      void 
 Registers used:
		wreg, fsr2l, fsr2h, status,2, status,0, prodl, prodh, cstack
 Tracked objects:
		On entry : 
		On exit  : 
		Unchanged: 
 Data sizes:     COMRAM   BANK0   BANK1   BANK2
      Params:         0       0       0       0
      Locals:         5       0       0       0
      Temps:          2       0       0       0
      Totals:         7       0       0       0
Total ram usage:        7 bytes
 Hardware stack levels used:    1
 Hardware stack levels required when called:    4
 This function calls:
		_USER_USB_CALLBACK_EVENT_HANDLER
 This function is called by:
		_USBCheckStdRequest
 This function uses a non-reentrant model


 *************** function _USER_USB_CALLBACK_EVENT_HANDLER *****************
 Defined at:
		line 51 in file "usb_events.c"
 Parameters:    Size  Location     Type
  event           2   12[COMRAM] enum E2833
  pdata           2   14[COMRAM] PTR void 
		 -> RAM(767), USTATcopy(1), USBActiveConfiguration(1), NULL(0), 
		 -> BDT(48), 
  size            2   16[COMRAM] unsigned short 
 Auto vars:     Size  Location     Type
		None
 Return value:  Size  Location     Type
                  1    wreg      _Bool 
 Registers used:
		wreg, fsr2l, fsr2h, status,2, status,0, prodl, prodh, cstack
 Tracked objects:
		On entry : 
		On exit  : 
		Unchanged: 
 Data sizes:     COMRAM   BANK0   BANK1   BANK2
      Params:         6       0       0       0
      Locals:         0       0       0       0
      Temps:          2       0       0       0
      Totals:         8       0       0       0
Total ram usage:        8 bytes
 Hardware stack levels used:    1
 Hardware stack levels required when called:    3
 This function calls:
		_APP_DeviceCDCBasicDemoInitialize
		_APP_LEDUpdateUSBStatus
		_CDCInitEP
		_USBCheckCDCRequest
		i2_SYSTEM_Initialize
 This function is called by:
		_USBDeviceTasks
		_USBStdSetCfgHandler
		_USBSuspend
		_USBWakeFromSuspend
		_USBCtrlTrfSetupHandler
		_USBCheckStdRequest
		_USBStdFeatureReqHandler
 This function uses a non-reentrant model


 *************** function i2_SYSTEM_Initialize *****************
 Defined at:
		line 65 in file "system.c"
 Parameters:    Size  Location     Type
  state           1    wreg     enum E2785
 Auto vars:     Size  Location     Type
  state           1    5[COMRAM] enum E2785
 Return value:  Size  Location     Type
                  1    wreg      void 
 Registers used:
		wreg, status,2, status,0, cstack
 Tracked objects:
		On entry : 
		On exit  : 
		Unchanged: 
 Data sizes:     COMRAM   BANK0   BANK1   BANK2
      Params:         0       0       0       0
      Locals:         1       0       0       0
      Temps:          2       0       0       0
      Totals:         3       0       0       0
Total ram usage:        3 bytes
 Hardware stack levels used:    1
 Hardware stack levels required when called:    1
 This function calls:
		i2_BUTTON_Enable
		i2_LED_Enable
 This function is called by:
		_USER_USB_CALLBACK_EVENT_HANDLER
 This function uses a non-reentrant model


 *************** function i2_LED_Enable *****************
 Defined at:
		line 220 in file "leds.c"
 Parameters:    Size  Location     Type
  led             1    wreg     enum E2
 Auto vars:     Size  Location     Type
  led             1    2[COMRAM] enum E2
 Return value:  Size  Location     Type
                  1    wreg      void 
 Registers used:
		wreg, status,2, status,0
 Tracked objects:
		On entry : 
		On exit  : 
		Unchanged: 
 Data sizes:     COMRAM   BANK0   BANK1   BANK2
      Params:         0       0       0       0
      Locals:         1       0       0       0
      Temps:          2       0       0       0
      Totals:         3       0       0       0
Total ram usage:        3 bytes
 Hardware stack levels used:    1
 This function calls:
		Nothing
 This function is called by:
		i2_SYSTEM_Initialize
 This function uses a non-reentrant model


 *************** function i2_BUTTON_Enable *****************
 Defined at:
		line 86 in file "buttons.c"
 Parameters:    Size  Location     Type
  button          1    wreg     enum E2760
 Auto vars:     Size  Location     Type
  button          1    2[COMRAM] enum E2760
 Return value:  Size  Location     Type
                  1    wreg      void 
 Registers used:
		wreg, status,2, status,0
 Tracked objects:
		On entry : 
		On exit  : 
		Unchanged: 
 Data sizes:     COMRAM   BANK0   BANK1   BANK2
      Params:         0       0       0       0
      Locals:         1       0       0       0
      Temps:          2       0       0       0
      Totals:         3       0       0       0
Total ram usage:        3 bytes
 Hardware stack levels used:    1
 This function calls:
		Nothing
 This function is called by:
		i2_SYSTEM_Initialize
 This function uses a non-reentrant model


 *************** function _USBCheckCDCRequest *****************
 Defined at:
		line 148 in file "usb_device_cdc.c"
 Parameters:    Size  Location     Type
		None
 Auto vars:     Size  Location     Type
		None
 Return value:  Size  Location     Type
                  1    wreg      void 
 Registers used:
		wreg, status,2, status,0
 Tracked objects:
		On entry : 
		On exit  : 
		Unchanged: 
 Data sizes:     COMRAM   BANK0   BANK1   BANK2
      Params:         0       0       0       0
      Locals:         0       0       0       0
      Temps:          2       0       0       0
      Totals:         2       0       0       0
Total ram usage:        2 bytes
 Hardware stack levels used:    1
 This function calls:
		Nothing
 This function is called by:
		_USER_USB_CALLBACK_EVENT_HANDLER
 This function uses a non-reentrant model


 *************** function _CDCInitEP *****************
 Defined at:
		line 295 in file "usb_device_cdc.c"
 Parameters:    Size  Location     Type
		None
 Auto vars:     Size  Location     Type
		None
 Return value:  Size  Location     Type
                  1    wreg      void 
 Registers used:
		wreg, fsr2l, fsr2h, status,2, status,0, prodl, prodh, cstack
 Tracked objects:
		On entry : 
		On exit  : 
		Unchanged: 
 Data sizes:     COMRAM   BANK0   BANK1   BANK2
      Params:         0       0       0       0
      Locals:         0       0       0       0
      Temps:          0       0       0       0
      Totals:         0       0       0       0
Total ram usage:        0 bytes
 Hardware stack levels used:    1
 Hardware stack levels required when called:    2
 This function calls:
		_USBEnableEndpoint
		i2_USBTransferOnePacket
 This function is called by:
		_USER_USB_CALLBACK_EVENT_HANDLER
 This function uses a non-reentrant model


 *************** function i2_USBTransferOnePacket *****************
 Defined at:
		line 999 in file "usb_device.c"
 Parameters:    Size  Location     Type
  ep              1    wreg     unsigned char 
  dir             1    0[COMRAM] unsigned char 
  data            2    1[COMRAM] PTR unsigned char 
		 -> cdc_data_tx(64), cdc_data_rx(64), NULL(0), 
  len             1    3[COMRAM] unsigned char 
 Auto vars:     Size  Location     Type
  ep              1    8[COMRAM] unsigned char 
  USBTransferO    2    9[COMRAM] PTR volatile struct __BD
		 -> RAM(767), NULL(0), BDT(48), 
 Return value:  Size  Location     Type
                  2    0[COMRAM] PTR void 
 Registers used:
		wreg, fsr2l, fsr2h, status,2, status,0, prodl, prodh
 Tracked objects:
		On entry : 
		On exit  : 
		Unchanged: 
 Data sizes:     COMRAM   BANK0   BANK1   BANK2
      Params:         4       0       0       0
      Locals:         3       0       0       0
      Temps:          4       0       0       0
      Totals:        11       0       0       0
Total ram usage:       11 bytes
 Hardware stack levels used:    1
 This function calls:
		Nothing
 This function is called by:
		_CDCInitEP
 This function uses a non-reentrant model


 *************** function _USBEnableEndpoint *****************
 Defined at:
		line 882 in file "usb_device.c"
 Parameters:    Size  Location     Type
  ep              1    wreg     unsigned char 
  options         1    8[COMRAM] unsigned char 
 Auto vars:     Size  Location     Type
  ep              1   11[COMRAM] unsigned char 
  p               2    9[COMRAM] PTR unsigned char 
		 -> UEP0(1), 
 Return value:  Size  Location     Type
                  1    wreg      void 
 Registers used:
		wreg, fsr2l, fsr2h, status,2, status,0, prodl, prodh, cstack
 Tracked objects:
		On entry : 
		On exit  : 
		Unchanged: 
 Data sizes:     COMRAM   BANK0   BANK1   BANK2
      Params:         1       0       0       0
      Locals:         3       0       0       0
      Temps:          0       0       0       0
      Totals:         4       0       0       0
Total ram usage:        4 bytes
 Hardware stack levels used:    1
 Hardware stack levels required when called:    1
 This function calls:
		_USBConfigureEndpoint
 This function is called by:
		_CDCInitEP
 This function uses a non-reentrant model


 *************** function _USBConfigureEndpoint *****************
 Defined at:
		line 1547 in file "usb_device.c"
 Parameters:    Size  Location     Type
  EPNum           1    wreg     unsigned char 
  direction       1    0[COMRAM] unsigned char 
 Auto vars:     Size  Location     Type
  EPNum           1    5[COMRAM] unsigned char 
  handle          2    6[COMRAM] PTR volatile struct __BD
		 -> BDT(48), 
 Return value:  Size  Location     Type
                  1    wreg      void 
 Registers used:
		wreg, fsr2l, fsr2h, status,2, status,0, prodl, prodh
 Tracked objects:
		On entry : 
		On exit  : 
		Unchanged: 
 Data sizes:     COMRAM   BANK0   BANK1   BANK2
      Params:         1       0       0       0
      Locals:         3       0       0       0
      Temps:          4       0       0       0
      Totals:         8       0       0       0
Total ram usage:        8 bytes
 Hardware stack levels used:    1
 This function calls:
		Nothing
 This function is called by:
		_USBEnableEndpoint
 This function uses a non-reentrant model


 *************** function _APP_LEDUpdateUSBStatus *****************
 Defined at:
		line 50 in file "app_led_usb_status.c"
 Parameters:    Size  Location     Type
		None
 Auto vars:     Size  Location     Type
		None
 Return value:  Size  Location     Type
                  1    wreg      void 
 Registers used:
		wreg, status,2, status,0, cstack
 Tracked objects:
		On entry : 
		On exit  : 
		Unchanged: 
 Data sizes:     COMRAM   BANK0   BANK1   BANK2
      Params:         0       0       0       0
      Locals:         0       0       0       0
      Temps:          2       0       0       0
      Totals:         2       0       0       0
Total ram usage:        2 bytes
 Hardware stack levels used:    1
 Hardware stack levels required when called:    1
 This function calls:
		_LED_Off
		_LED_On
 This function is called by:
		_USER_USB_CALLBACK_EVENT_HANDLER
 This function uses a non-reentrant model


 *************** function _LED_On *****************
 Defined at:
		line 59 in file "leds.c"
 Parameters:    Size  Location     Type
  led             1    wreg     enum E2
 Auto vars:     Size  Location     Type
  led             1    2[COMRAM] enum E2
 Return value:  Size  Location     Type
                  1    wreg      void 
 Registers used:
		wreg, status,2, status,0
 Tracked objects:
		On entry : 
		On exit  : 
		Unchanged: 
 Data sizes:     COMRAM   BANK0   BANK1   BANK2
      Params:         0       0       0       0
      Locals:         1       0       0       0
      Temps:          2       0       0       0
      Totals:         3       0       0       0
Total ram usage:        3 bytes
 Hardware stack levels used:    1
 This function calls:
		Nothing
 This function is called by:
		_APP_LEDUpdateUSBStatus
 This function uses a non-reentrant model


 *************** function _LED_Off *****************
 Defined at:
		line 100 in file "leds.c"
 Parameters:    Size  Location     Type
  led             1    wreg     enum E2
 Auto vars:     Size  Location     Type
  led             1    2[COMRAM] enum E2
 Return value:  Size  Location     Type
                  1    wreg      void 
 Registers used:
		wreg, status,2, status,0
 Tracked objects:
		On entry : 
		On exit  : 
		Unchanged: 
 Data sizes:     COMRAM   BANK0   BANK1   BANK2
      Params:         0       0       0       0
      Locals:         1       0       0       0
      Temps:          2       0       0       0
      Totals:         3       0       0       0
Total ram usage:        3 bytes
 Hardware stack levels used:    1
 This function calls:
		Nothing
 This function is called by:
		_APP_LEDUpdateUSBStatus
 This function uses a non-reentrant model


 *************** function _APP_DeviceCDCBasicDemoInitialize *****************
 Defined at:
		line 53 in file "app_device_cdc_basic.c"
 Parameters:    Size  Location     Type
		None
 Auto vars:     Size  Location     Type
		None
 Return value:  Size  Location     Type
                  1    wreg      void 
 Registers used:
		wreg, status,2
 Tracked objects:
		On entry : 
		On exit  : 
		Unchanged: 
 Data sizes:     COMRAM   BANK0   BANK1   BANK2
      Params:         0       0       0       0
      Locals:         0       0       0       0
      Temps:          0       0       0       0
      Totals:         0       0       0       0
Total ram usage:        0 bytes
 Hardware stack levels used:    1
 This function calls:
		Nothing
 This function is called by:
		_USER_USB_CALLBACK_EVENT_HANDLER
 This function uses a non-reentrant model


 *************** function _USBCtrlTrfOutHandler *****************
 Defined at:
		line 2545 in file "usb_device.c"
 Parameters:    Size  Location     Type
		None
 Auto vars:     Size  Location     Type
		None
 Return value:  Size  Location     Type
                  1    wreg      void 
 Registers used:
		wreg, fsr1l, fsr1h, fsr2l, fsr2h, status,2, status,0, cstack
 Tracked objects:
		On entry : 
		On exit  : 
		Unchanged: 
 Data sizes:     COMRAM   BANK0   BANK1   BANK2
      Params:         0       0       0       0
      Locals:         0       0       0       0
      Temps:          0       0       0       0
      Totals:         0       0       0       0
Total ram usage:        0 bytes
 Hardware stack levels used:    1
 Hardware stack levels required when called:    2
 This function calls:
		_USBCtrlTrfRxService
 This function is called by:
		_USBCtrlEPService
 This function uses a non-reentrant model


 *************** function _USBCtrlTrfRxService *****************
 Defined at:
		line 1856 in file "usb_device.c"
 Parameters:    Size  Location     Type
		None
 Auto vars:     Size  Location     Type
  byteToRead      1    1[COMRAM] unsigned char 
  i               1    0[COMRAM] unsigned char 
 Return value:  Size  Location     Type
                  1    wreg      void 
 Registers used:
		wreg, fsr1l, fsr1h, fsr2l, fsr2h, status,2, status,0, cstack
 Tracked objects:
		On entry : 
		On exit  : 
		Unchanged: 
 Data sizes:     COMRAM   BANK0   BANK1   BANK2
      Params:         0       0       0       0
      Locals:         2       0       0       0
      Temps:          0       0       0       0
      Totals:         2       0       0       0
Total ram usage:        2 bytes
 Hardware stack levels used:    1
 Hardware stack levels required when called:    1
 This function calls:
		_USBCtrlEPAllowStatusStage
 This function is called by:
		_USBCtrlTrfOutHandler
 This function uses a non-reentrant model


 *************** function _USBCtrlEPAllowStatusStage *****************
 Defined at:
		line 1420 in file "usb_device.c"
 Parameters:    Size  Location     Type
		None
 Auto vars:     Size  Location     Type
		None
 Return value:  Size  Location     Type
                  1    wreg      void 
 Registers used:
		wreg, fsr2l, fsr2h, status,2, status,0
 Tracked objects:
		On entry : 
		On exit  : 
		Unchanged: 
 Data sizes:     COMRAM   BANK0   BANK1   BANK2
      Params:         0       0       0       0
      Locals:         0       0       0       0
      Temps:          0       0       0       0
      Totals:         0       0       0       0
Total ram usage:        0 bytes
 Hardware stack levels used:    1
 This function calls:
		Nothing
 This function is called by:
		_USBDeviceTasks
		_USBCtrlEPServiceComplete
		_USBCtrlTrfRxService
 This function uses a non-reentrant model


 *************** function _USBCtrlTrfInHandler *****************
 Defined at:
		line 2599 in file "usb_device.c"
 Parameters:    Size  Location     Type
		None
 Auto vars:     Size  Location     Type
  lastDTS         1    1[COMRAM] unsigned char 
 Return value:  Size  Location     Type
                  1    wreg      void 
 Registers used:
		wreg, fsr1l, fsr1h, fsr2l, fsr2h, status,2, status,0, tblptrl, tblptrh, tblptru, cstack
 Tracked objects:
		On entry : 
		On exit  : 
		Unchanged: 
 Data sizes:     COMRAM   BANK0   BANK1   BANK2
      Params:         0       0       0       0
      Locals:         1       0       0       0
      Temps:          0       0       0       0
      Totals:         1       0       0       0
Total ram usage:        1 bytes
 Hardware stack levels used:    1
 Hardware stack levels required when called:    1
 This function calls:
		_USBCtrlTrfTxService
 This function is called by:
		_USBCtrlEPService
 This function uses a non-reentrant model


 *************** function _USBCtrlTrfTxService *****************
 Defined at:
		line 1775 in file "usb_device.c"
 Parameters:    Size  Location     Type
		None
 Auto vars:     Size  Location     Type
  byteToSend      1    0[COMRAM] unsigned char 
 Return value:  Size  Location     Type
                  1    wreg      void 
 Registers used:
		wreg, fsr1l, fsr1h, fsr2l, fsr2h, status,2, status,0, tblptrl, tblptrh, tblptru
 Tracked objects:
		On entry : 
		On exit  : 
		Unchanged: 
 Data sizes:     COMRAM   BANK0   BANK1   BANK2
      Params:         0       0       0       0
      Locals:         1       0       0       0
      Temps:          0       0       0       0
      Totals:         1       0       0       0
Total ram usage:        1 bytes
 Hardware stack levels used:    1
 This function calls:
		Nothing
 This function is called by:
		_USBCtrlEPAllowDataStage
		_USBCtrlTrfInHandler
 This function uses a non-reentrant model



MODULE INFORMATION

Module		Function		Class		Link	Load	Size
C:\Program Files (x86)\Microchip\xc8\v2.10\pic\sources\c99\common\lwdiv.c
		___lwdiv       		CODE           	26A8	0000	119

C:\Program Files (x86)\Microchip\xc8\v2.10\pic\sources\c99\common\lwdiv.c estimated size: 119

C:\Program Files (x86)\Microchip\xc8\v2.10\pic\sources\c99\common\memset.c
		_memset        		CODE           	0E8A	0000	377

C:\Program Files (x86)\Microchip\xc8\v2.10\pic\sources\c99\common\memset.c estimated size: 377

buttons.c
		_BUTTON_IsPressed		CODE           	2AA6	0000	83
		_BUTTON_Enable 		CODE           	2CB6	0000	61

buttons.c estimated size: 144

app_led_usb_status.c
		_APP_LEDUpdateUSBStatus		CODE           	1FD2	0000	247

app_led_usb_status.c estimated size: 247

shared
		_configDescriptor1		SMALLCONST     	0309	0000	68
		_USB_CD_Ptr    		SMALLCONST     	0307	0000	3
		_sd001         		SMALLCONST     	034C	0000	53
		i2_BUTTON_Enable		CODE           	2CF2	0000	57
		_sd002         		SMALLCONST     	0380	0000	37
		i2_USBDeviceInit		CODE           	142E	0000	337
		__initialization		CODE           	2A54	0000	69
		_device_dsc    		SMALLCONST     	03A4	0000	19
		i2_SYSTEM_Initialize		CODE           	2C2E	0000	75
		_USB_SD_Ptr    		SMALLCONST     	0301	0000	7
		i2_LED_Enable  		CODE           	292E	0000	99
		i2_memset      		CODE           	1002	0000	375
		_sd000         		SMALLCONST     	03B6	0000	5
		i2_USBTransferOnePacket		CODE           	1942	0000	319

shared estimated size: 1523

leds.c
		_LED_Off       		CODE           	29F2	0000	99
		_LED_On        		CODE           	2990	0000	99
		_LED_Enable    		CODE           	2802	0000	103

leds.c estimated size: 301

usb_device_cdc.c
		_CDCTxService  		CODE           	0CF0	0000	411
		_CDCInitEP     		CODE           	2868	0000	101
		_putUSBUSART   		CODE           	2DC0	0000	45
		_putrsUSBUSART 		CODE           	2792	0000	113
		_getsUSBUSART  		CODE           	22A2	0000	185
		_USBCheckCDCRequest		CODE           	1ED0	0000	259

usb_device_cdc.c estimated size: 1114

usb_device.c
		_USBCtrlTrfInHandler		CODE           	1DC4	0000	269
		_USBTransferOnePacket		CODE           	157E	0000	323
		_USBDeviceAttach		CODE           	2B96	0000	77
		_USBStdGetDscHandler		CODE           	1178	0000	353
		_USBCtrlEPAllowDataStage		CODE           	24C2	0000	173
		_USBStdFeatureReqHandler		CODE           	03BC	0000	857
		_USBCtrlEPAllowStatusStage		CODE           	20C8	0000	241
		_USBCtrlTrfSetupHandler		CODE           	261A	0000	143
		_USBCtrlTrfOutHandler		CODE           	271E	0000	117
		_USBCtrlEPServiceComplete		CODE           	1802	0000	321
		_USBSuspend    		CODE           	2DEC	0000	45
		_USBStdSetCfgHandler		CODE           	21B8	0000	235
		_USBStdGetStatusHandler		CODE           	1B9E	0000	279
		_USBWakeFromSuspend		CODE           	2C78	0000	63
		_USBCtrlTrfRxService		CODE           	16C0	0000	323
		_USBCtrlTrfTxService		CODE           	1CB4	0000	273
		_USBEnableEndpoint		CODE           	2BE2	0000	77
		_USBConfigureEndpoint		CODE           	256E	0000	173
		_USBDeviceInit 		CODE           	12D8	0000	343
		_USBIncrement1msInternalTimers		CODE           	2D5E	0000	53
		_USBCtrlEPService		CODE           	235A	0000	185
		_USBStallHandler		CODE           	28CC	0000	99
		_USBDeviceTasks		CODE           	0714	0000	561
		_USBCheckStdRequest		CODE           	1A80	0000	287

usb_device.c estimated size: 5870

C:\Program Files (x86)\Microchip\xc8\v2.10\pic\sources\c99\common\memcpy.c
		_memcpy        		CODE           	2AF8	0000	81

C:\Program Files (x86)\Microchip\xc8\v2.10\pic\sources\c99\common\memcpy.c estimated size: 81

usb_events.c
		_USER_USB_CALLBACK_EVENT_HANDLER		CODE           	2412	0000	177

usb_events.c estimated size: 177

app_device_cdc_basic.c
		_APP_DeviceCDCBasicDemoTasks		CODE           	0944	0000	479
		_APP_DeviceCDCBasicDemoInitialize		CODE           	2E18	0000	37

app_device_cdc_basic.c estimated size: 516

main.c
		_main          		CODE           	2D92	0000	47

main.c estimated size: 47

system.c
		_SYS_InterruptHigh		CODE           	0008	0000	105
		_SYSTEM_Initialize		CODE           	2B48	0000	79

system.c estimated size: 184

USB_CDC_diymicro.c
		_NumToUART     		CODE           	0B22	0000	463

USB_CDC_diymicro.c estimated size: 463

