HI-TECH Software C Compiler 

Linker command line:

--edf=C:\Program Files\HI-TECH Software\PICC\9.71a\dat\en_msgs.txt -cs \
  -h+lcddemo.sym -z -Q16F628A -ol.obj -Mlcddemo.map -E1 -ACONST=00h-0FFhx8 \
  -ACODE=00h-07FFh -ASTRCODE=00h-07FFh -AENTRY=00h-0FFhx8 \
  -ASTRING=00h-0FFhx8 -ABANK0=020h-06Fh -ABANK1=0A0h-0EFh \
  -ABANK2=0120h-014Fh -ARAM=020h-06Fh,0A0h-0EFh,0120h-014Fh \
  -AABS1=020h-07Fh,0A0h-0EFh,0120h-014Fh -ACOMMON=070h-07Fh -ASFR0=00h-01Fh \
  -ASFR1=080h-09Fh -ASFR2=0100h-011Fh -ASFR3=0180h-01EFh \
  -preset_vec=00h,intentry,init,end_init -ppowerup=CODE -pfunctab=CODE \
  -ACONFIG=02007h-02007h -pconfig=CONFIG -DCONFIG=2 -AIDLOC=02000h-02003h \
  -pidloc=IDLOC -DIDLOC=2 -AEEDATA=00h-07Fh/02100h -peeprom_data=EEDATA \
  -DEEDATA=2 -DCODE=2 -DSTRCODE=2 -DSTRING=2 -DCONST=2 -DENTRY=2 -k \
  startup.obj lcddemo.obj 

Object code version is 3.10

Machine type is 16F628A



                Name                               Link     Load   Length Selector   Space Scale
startup.obj     end_init                              0        0        1        0       0
lcddemo.obj     config                             2007     2007        1     400E       0
                text63                              7BF      7BF        C      F7E       0
                text62                              7CB      7CB       10      F96       0
                text61                              7AE      7AE        7      F5C       0
                text60                              7DB      7DB       25      FB6       0
                maintext                            7B5      7B5        A      F6A       0
                cstackCOMMON                         70       70        4       70       1
                cinit                               7AC      7AC        2      F58       0
                strings                               1        1       1D        2       0

TOTAL           Name                               Link     Load   Length     Space
        CLASS   CONST          

        CLASS   CODE           
                end_init                              0        0        1         0
                text63                              7BF      7BF        C         0
                text62                              7CB      7CB       10         0
                text61                              7AE      7AE        7         0
                text60                              7DB      7DB       25         0
                maintext                            7B5      7B5        A         0
                cinit                               7AC      7AC        2         0

        CLASS   STRCODE        

        CLASS   ENTRY          

        CLASS   STRING         
                strings                               1        1       1D         0

        CLASS   BANK0          

        CLASS   BANK1          

        CLASS   BANK2          

        CLASS   RAM            

        CLASS   ABS1           
                abs_s1                               7E       7E        2         1

        CLASS   COMMON         
                cstackCOMMON                         70       70        4         1

        CLASS   SFR0           

        CLASS   SFR1           

        CLASS   SFR2           

        CLASS   SFR3           

        CLASS   CONFIG         
                config                             2007     2007        1         0

        CLASS   IDLOC          

        CLASS   EEDATA         

        CLASS   BANK3          



SEGMENTS        Name                           Load    Length   Top    Selector   Space  Class     Delta

                reset_vec                      000000  000001  000001         0       0  CODE        2
                strings                        000001  00001D  00001E         2       0  STRING      2
                cstackCOMMON                   000070  000004  000074        70       1  COMMON      1
                cinit                          0007AC  000002  0007AE       F58       0  CODE        2
                text61                         0007AE  000007  0007B5       F5C       0  CODE        2
                maintext                       0007B5  00000A  0007BF       F6A       0  CODE        2
                text63                         0007BF  00000C  0007CB       F7E       0  CODE        2
                text62                         0007CB  000010  0007DB       F96       0  CODE        2
                text60                         0007DB  000025  000800       FB6       0  CODE        2
                config                         002007  000001  002008      400E       0  CONFIG      2


UNUSED ADDRESS RANGES

        Name                Unused          Largest block    Delta
        BANK0            0020-006F             50           1
        BANK1            00A0-00EF             50           1
        BANK2            0120-014F             30           1
        CODE             001E-07AB            78E           2
        COMMON           0074-007D              A           1
        CONST            001E-07AB            100           2
        EEDATA           2100-217F             80           2
        ENTRY            001E-07AB            100           2
        IDLOC            2000-2003              4           2
        RAM              0020-006F             50           1
                         00A0-00EF             50
                         0120-014F             30
        SFR0             0000-001F             20           1
        SFR1             0080-009F             20           1
        SFR2             0100-011F             20           1
        SFR3             0180-01EF             70           1
        STRCODE          001E-07AB            78E           2
        STRING           001E-07AB            100           2

                                  Symbol Table

??_lcd_goto           cstackCOMMON 0072
??_lcd_init           cstackCOMMON 0072
??_lcd_puts           cstackCOMMON 0072
??_lcd_write          cstackCOMMON 0070
??_main               cstackCOMMON 0074
?_lcd_goto            cstackCOMMON 0070
?_lcd_init            cstackCOMMON 0070
?_lcd_puts            cstackCOMMON 0070
?_lcd_write           cstackCOMMON 0070
?_main                cstackCOMMON 0070
_CMCON                (abs)        001F
_PORTB                (abs)        0006
_RA1                  (abs)        0029
_RA2                  (abs)        002A
_RA3                  (abs)        002B
_TRISA                (abs)        0085
_TRISB                (abs)        0086
__Habs1               abs1         0000
__Hbank0              bank0        0000
__Hbank1              bank1        0000
__Hbank2              bank2        0000
__Hbank3              bank3        0000
__Hcinit              cinit        0000
__Hclrtext            clrtext      0000
__Hcode               code         0000
__Hcommon             common       0000
__Hconfig             config       2008
__HcstackCOMMON       cstackCOMMON 0000
__Heeprom_data        eeprom_data  0000
__Hend_init           end_init     0001
__Hfunctab            functab      0000
__Hidloc              idloc        0000
__Hinit               init         0000
__Hintentry           intentry     0000
__Hmaintext           maintext     0000
__Hpa_nodes           pa_nodes     0000
__Hpowerup            powerup      0000
__Hram                ram          0000
__Hreset_vec          reset_vec    0000
__Hsfr0               sfr0         0000
__Hsfr1               sfr1         0000
__Hsfr2               sfr2         0000
__Hsfr3               sfr3         0000
__Hstrings            strings      0000
__Htext               text         0000
__Labs1               abs1         0000
__Lbank0              bank0        0000
__Lbank1              bank1        0000
__Lbank2              bank2        0000
__Lbank3              bank3        0000
__Lcinit              cinit        0000
__Lclrtext            clrtext      0000
__Lcode               code         0000
__Lcommon             common       0000
__Lconfig             config       2007
__LcstackCOMMON       cstackCOMMON 0000
__Leeprom_data        eeprom_data  0000
__Lend_init           end_init     0000
__Lfunctab            functab      0000
__Lidloc              idloc        0000
__Linit               init         0000
__Lintentry           intentry     0000
__Lmaintext           maintext     0000
__Lpa_nodes           pa_nodes     0000
__Lpowerup            powerup      0000
__Lram                ram          0000
__Lreset_vec          reset_vec    0000
__Lsfr0               sfr0         0000
__Lsfr1               sfr1         0000
__Lsfr2               sfr2         0000
__Lsfr3               sfr3         0000
__Lstrings            strings      0000
__Ltext               text         0000
__S0                  (abs)        2008
__S1                  (abs)        0074
__S2                  (abs)        0000
__end_of_lcd_goto     text61       07B5
__end_of_lcd_init     text60       0800
__end_of_lcd_puts     text62       07DB
__end_of_lcd_write    text63       07CB
__end_of_main         maintext     07BF
__pcstackCOMMON       cstackCOMMON 0070
__pmaintext           maintext     07B5
__pstrings            strings      0001
__ptext59             text59       0000
__ptext60             text60       07DB
__ptext61             text61       07AE
__ptext62             text62       07CB
__ptext63             text63       07BF
__ptext64             text64       0000
__size_of_lcd_goto    (abs)        0000
__size_of_lcd_init    (abs)        0000
__size_of_lcd_puts    (abs)        0000
__size_of_lcd_write   (abs)        0000
__size_of_main        (abs)        0000
_exit                 init         0000
_lcd_goto             text61       07AE
_lcd_init             text60       07DB
_lcd_puts             text62       07CB
_lcd_write            text63       07BF
_main                 maintext     07B5
btemp                 (abs)        007E
end_of_initialization cinit        07AC
intlevel0             functab      0000
intlevel1             functab      0000
intlevel2             functab      0000
intlevel3             functab      0000
intlevel4             functab      0000
intlevel5             functab      0000
l1051                                  
l1053                                  
l1055                                  
l1057                                  
l1061                                  
l1065                                  
l1067                                  
l1069                                  
l1071                                  
l1073                                  
l1075                                  
l1077                                  
l1079                                  
l1081                                  
l1083                                  
l1085                                  
l1087                                  
l1089                                  
l1091                                  
l1093                                  
l327                                   
l336                                   
l342                                   
l345                                   
lcd_goto@pos          cstackCOMMON 0072
lcd_puts@s            cstackCOMMON 0072
lcd_write@c           cstackCOMMON 0071
reset_vec             reset_vec    0000
start                 init         0000
start_initialization  cinit        07AC
wtemp0                (abs)        007E
