:0400000061EF00F0BC
:10000800FACF03F0FBCF04F0E9CF05F0EACF06F012
:10001800E1CF07F0E2CF08F0D9CF09F0DACF0AF044
:10002800F3CF0BF0F4CF0CF0F6CF0DF0F7CF0EF0C6
:10003800F8CF0FF0F5CF10F0F2A413D082A003D0C0
:10004800016A012A01D0016A82A203D0026A022A47
:1000580001D0026AD89002340110406EFAEC08F020
:10006800F2949EA00DD0060E335CD8B002D0332A8D
:1000780004D000013F80000E336EE2EC08F09E9041
:1000880010C0F5FF0FC0F8FF0EC0F7FF0DC0F6FF58
:100098000CC0F4FF0BC0F3FF0AC0DAFF09C0D9FF98
:1000A80008C0E2FF07C0E1FF06C0EAFF05C0E9FF9C
:0E00B80004C0FBFF03C0FAFF110082EF08F046
:10030000004D41432057656C636F6D6520746F200D
:100310004469796D6963726F2E72752121210D0A0E
:10032000000D0A2055706461746521000000010E03
:10033000136E900E126EAAEC08F0000E00017B6F97
:10034000070E00017A6F030E0001716F000E0001AD
:10035000786F000E0001796F000E7E6E000E7F6ECA
:100360009480948294949498949A00013F9400010C
:100370003F928284829A8298020E386E090E376EFE
:100380003C0E346E4D0E366E36C011F0126A34508B
:10039000B4EC07F0030E136E010E126E6CEC08F055
:1003A000020E3A6E000E3B6E000E3C6E000E3D6E6D
:1003B000030E3E6EF3EC08F0F28EF28CF28A9D8012
:1003C000CD80D9EC08F0000171514018D8A434D088
:1003D00043D04004D8A405D00001782B000E0001C2
:1003E000796F4050020A20D04050030AD8A405D0AB
:1003F0000001782B000E0001796F40662BD016D0DB
:10040000406605D00001782B000E0001796F405046
:10041000030A0AD04050020AD8A405D00001782B64
:10042000000E0001796F4004D8A414D00001792B8C
:10043000000E0001786F0ED000017151000AD8B48F
:10044000C8D7010AD8B4D0D7030AD8B4D9D7010A7B
:10045000D8B4E0D740C071F000013FA017D0030E20
:10046000136E210E126E6CEC08F000017851000141
:1004700079251E6E1F6A1F36BDEC06F000013F9005
:10048000000E0001786F000E0001796F00013FB48B
:1004900003D000013FA297D7386619D000013FA4CE
:1004A0000AD0810E3A6E00013F94000E146E3A0E8F
:1004B000136EE9EC07F000013FA209D03A68000191
:1004C0003F92000E146E3A0E136EE9EC07F03804FA
:1004D000D8A44FD100013FA40AD03250280AD8A492
:1004E00003D0010E326E01D0322A00013F94000188
:1004F0003FA209D03204D8A403D0280E326E01D016
:10050000320600013F923250D8B43AD0090E325C24
:10051000D8B036D0010E00016A6F000E0001606F86
:1005200008D0020E00016A03F35000016A6F000157
:10053000602B00016051286E296A32502A6E2B6AA6
:100540002A1E2B1E2A4A2B2A070E2A26000E2B2291
:100550002B50800A2C6E28502A5C2950800A2C5877
:10056000D8B0DFD7000E3A6E000E3B6E000E3C6E28
:10057000000E3D6E6AC03EF0010E00016A6FF3D0BE
:10058000080E32643AD0110E325CD8B036D0010E6B
:1005900000016B6F000E0001616F08D0020E0001B8
:1005A0006B03F35000016B6F0001612B000161517F
:1005B000286E296A32502A6E2B6A2A1E2B1E2A4A5E
:1005C0002B2A0F0E2A26000E2B222B50800A2C6E6F
:1005D00028502A5C2950800A2C58D8B0DFD7000E4A
:1005E0003A6E000E3B6E000E3C6E6BC03DF0000E8E
:1005F0003E6E010E00016B6FB6D0100E32643AD021
:10060000190E325CD8B036D0010E00016C6F000EAE
:100610000001626F08D0020E00016C03F35000016C
:100620006C6F0001622B00016251286E296A325002
:100630002A6E2B6A2A1E2B1E2A4A2B2A170E2A26BE
:10064000000E2B222B50800A2C6E28502A5C295039
:10065000800A2C58D8B0DFD7000E3A6E000E3B6EE1
:100660006CC03CF0000E3D6E000E3E6E010E0001AF
:100670006C6F79D0180E32643AD0210E325CD8B04B
:1006800036D0010E00016D6F000E0001636F08D0BF
:10069000020E00016D03F35000016D6F0001632B2A
:1006A00000016351286E296A32502A6E2B6A2A1E75
:1006B0002B1E2A4A2B2A1F0E2A26000E2B222B50D5
:1006C000800A2C6E28502A5C2950800A2C58D8B0F9
:1006D000DFD7000E3A6E6DC03BF0000E3C6E000E90
:1006E0003D6E000E3E6E010E00016D6F3CD0200E7F
:1006F000326439D0290E325CD8B035D0010E0001F9
:100700006E6F000E0001646F08D0020E00016E03D0
:10071000F35000016E6F0001642B00016451286EDC
:10072000296A32502A6E2B6A2A1E2B1E2A4A2B2A2D
:10073000270E2A26000E2B222B50800A2C6E2850C2
:100740002A5C2950800A2C58D8B0DFD76EC03AF006
:10075000000E3B6E000E3C6E000E3D6E000E3E6EB7
:10076000010E00016E6F000E146E3A0E136EE9EC6E
:1007700007F03850020AD8A4A5D200013FA415D032
:100780003250280AD8A40ED0070E00017B5DD8B0E5
:1007900003D000017B2B03D0070E00017B6F010EFD
:1007A000326E01D0322A00013F9400013FA213D0E3
:1007B0003204D8A40DD000017B51D8B403D000017D
:1007C0007B0703D0000E00017B6F280E326E01D034
:1007D000320600013F9200017B5149EC07F0000115
:1007E0007C6F3250D8B479D0090E325CD8B075D055
:1007F000010E0001726F000E0001656F08D0020E3D
:1008000000017203F3500001726F0001652B0001BB
:100810006551286E296A32502A6E2B6A2A1E2B1EB9
:100820002A4A2B2A070E2A26000E2B222B50800A3A
:100830002C6E28502A5C2950800A2C58D8B0DFD75B
:10084000000E3A6E000E3B6E000E3C6E00017251BF
:1008500000017C5DD8A00FD07AC028F07CC029F0C0
:10086000282A02D0D8902936282EFCD729503D6E50
:1008700000017A0705D0000E3D6E070E00017A6F69
:1008800032C028F0FF0E282600017B510008296E97
:10089000080E292600017C512A6E2B6A292A03D0D2
:1008A000D8902A362B36292EFBD7282A03D02B3472
:1008B0002B322A32282EFBD77BC02CF072C02DF0B1
:1008C0002C2A02D0D8902D322C2EFCD72D502A1055
:1008D0003E6E010E0001726FEFD1080E326479D0C6
:1008E000110E325CD8B075D0010E0001736F000E8E
:1008F0000001666F08D0020E00017303F35000017F
:10090000736F0001662B00016651286E296A325010
:100910002A6E2B6A2A1E2B1E2A4A2B2A0F0E2A26E3
:10092000000E2B222B50800A2C6E28502A5C295056
:10093000800A2C58D8B0DFD7000E3A6E000E3B6EFE
:100940000001735100017C5DD8A00FD07AC028F05F
:100950007CC029F0282A02D0D8902936282EFCD72E
:1009600029503C6E00017A0705D0000E3C6E070E40
:1009700000017A6F32C028F0F70E282600017B5163
:100980000008296E080E292600017C512A6E2B6A68
:10099000292A03D0D8902A362B36292EFBD7282A8D
:1009A00003D02B342B322A32282EFBD77BC02CF0DD
:1009B00073C02DF02C2A02D0D8902D322C2EFCD7CB
:1009C0002D502A103D6E000E3E6E010E0001736F19
:1009D00073D1100E326479D0190E325CD8B075D054
:1009E000010E0001746F000E0001676F08D0020E47
:1009F00000017403F3500001746F0001672B0001C4
:100A00006751286E296A32502A6E2B6A2A1E2B1EC5
:100A10002A4A2B2A170E2A26000E2B222B50800A38
:100A20002C6E28502A5C2950800A2C58D8B0DFD769
:100A3000000E3A6E0001745100017C5DD8A00FD009
:100A40007AC028F07CC029F0282A02D0D890293614
:100A5000282EFCD729503B6E00017A0705D0000EE6
:100A60003B6E070E00017A6F32C028F0EF0E282689
:100A700000017B510008296E080E292600017C51D7
:100A80002A6E2B6A292A03D0D8902A362B36292E93
:100A9000FBD7282A03D02B342B322A32282EFBD71F
:100AA0007BC02CF074C02DF02C2A02D0D8902D32AF
:100AB0002C2EFCD72D502A103C6E000E3D6E000EE1
:100AC0003E6E010E0001746FF7D0180E326479D0BB
:100AD000210E325CD8B075D0010E0001756F000E8A
:100AE0000001686F08D0020E00017503F350000189
:100AF000756F0001682B00016851286E296A325019
:100B00002A6E2B6A2A1E2B1E2A4A2B2A1F0E2A26E1
:100B1000000E2B222B50800A2C6E28502A5C295064
:100B2000800A2C58D8B0DFD70001755100017C5DD8
:100B3000D8A00FD07AC028F07CC029F0282A02D093
:100B4000D8902936282EFCD729503A6E00017A0712
:100B500005D0000E3A6E070E00017A6F32C028F001
:100B6000E70E282600017B510008296E080E292671
:100B700000017C512A6E2B6A292A03D0D8902A368C
:100B80002B36292EFBD7282A03D02B342B322A329E
:100B9000282EFBD77BC02CF075C02DF02C2A02D05C
:100BA000D8902D322C2EFCD72D502A103B6E000EE3
:100BB0003C6E000E3D6E000E3E6E010E0001756F24
:100BC0007BD0200E326478D0290E325CD8B074D03D
:100BD000010E0001766F000E0001696F08D0020E51
:100BE00000017603F3500001766F0001692B0001CC
:100BF0006951286E296A32502A6E2B6A2A1E2B1ED2
:100C00002A4A2B2A270E2A26000E2B222B50800A36
:100C10002C6E28502A5C2950800A2C58D8B0DFD777
:100C200032C028F0DF0E282600017B510008296E13
:100C3000080E292600017C512A6E2B6A292A03D02E
:100C4000D8902A362B36292EFBD7282A03D02B34CE
:100C50002B322A32282EFBD77BC02CF076C02DF009
:100C60002C2A02D0D8902D322C2EFCD72D502A10B1
:100C70003A6E000E3B6E000E3C6E000E3D6E0001A3
:100C8000765100017C5DD8A00FD07AC028F07CC0DE
:100C900029F0282A02D0D8902936282EFCD72950AE
:100CA0003E6E00017A0705D0000E3E6E070E000171
:100CB0007A6F010E0001766F000E146E3A0E136EFD
:100CC000E9EC07F03850030AD8A4E3EF01F0000E76
:100CD0000001776F0DD000017751010D3A0EF3241A
:100CE000D96E000EF420DA6E000EDF6E0001772B55
:100CF000040E00017765EFD77FEC07F01D50030B62
:100D000000016F6F7FEC07F01D50030B0001706F47
:100D10000001705100016F19D8B4F4D700013FB43D
:100D200003D000013FA221D000016F51010D3A0E06
:100D3000F324D96E000EF420DA6E375049EC07F038
:100D4000DF6E080E37640DD000017051010D3A0EB0
:100D5000F324D96E000EF420DA6E010E49EC07F090
:100D6000DF6E00013F9400013F92000E146E3A0EB8
:100D7000136EE9EC07F0E3EF01F0270E276E100E7B
:100D8000266E050E246E1F501E10D8A423D0300EE0
:100D9000D0EC08F0ACB21200FDD71EC017F01FC097
:100DA00018F026C019F027C01AF043EC08F01850CC
:100DB0001710D8A411D0240626C017F027C018F0A9
:100DC000000E1A6E0A0E196E43EC08F017C026F0DA
:100DD00018C027F02466E1D724C025F0256601D08D
:100DE000120026C011F027C012F0000E146E0A0E79
:100DF000136E97EC08F011C019F012C01AF01EC063
:100E000017F01FC018F043EC08F017C020F018C00E
:100E100021F020C011F021C012F026C013F027C02D
:100E200014F097EC08F011C022F012C023F022C099
:100E300011F023C012F0000E146E0A0E136E97EC20
:100E400008F0111E121E114A122A1E501124176E8C
:100E50001F501220186E26C019F027C01AF043EC5C
:100E600008F01750300FD0EC08F0ACA2FED726C027
:100E700017F027C018F0000E1A6E0A0E196E43EC18
:100E800008F017C026F018C027F025062566A9D758
:100E90001200116E13D0000E0DD0010E0BD0030EF8
:100EA00009D0070E07D00F0E05D01F0E03D03F0E3E
:100EB00001D07F0E126E21D012681FD01150000A8F
:100EC000D8B4E9D7010AD8B4E8D7030AD8B4E7D729
:100ED000010AD8B4E6D7070AD8B4E5D7010AD8B4CE
:100EE000E4D7030AD8B4E3D7010AD8B4E2D70F0A8B
:100EF000D8B4E2D7010AD8B4DFD71250120039664D
:100F000006D0000E126E010E116EC7EC08F02EC056
:100F100011F02FC012F030C013F031C014F06D0E7C
:100F2000156E4E0E166EC60E176E410E186E18EC2C
:100F300008F011C01FF012C020F013C021F014C03F
:100F400022F0390E1F242E6E300E20202F6E000E40
:100F50002120306E000E2220316EFF0E30141D6EE7
:100F60007F0E31141E6E1200166E000EAC6E000E57
:100F7000AB6E16B0AC8816A202D0AC8CAB8C16B49B
:100F8000AC8E16A602D0AB8801D0AB8A16B8AC8462
:100F90009E9816BAAB8616AC02D09D8A01D09D9A57
:100FA0009E9A16AE02D09D8801D09D9811C0AFFFC9
:100FB00012C013F013C014F0156A1450B06EAC8A4E
:100FC000AB8E939E938AACA81200ACBE1200938E97
:100FD000120007EC09F0000E176E24D0000E186EF8
:100FE0001DD018C015F01750010DF3501324D96E01
:100FF000F4501420DA6EDF50166E152A02D0D89005
:101000001632152EFCD7010E1616163A82501618F7
:10101000EF0B1618826E01EC09F0182A070E1864FF
:10102000E0D7172A040E1764D9D701EC09F0120093
:10103000000E196E000E1A6E000E1B6E000E1C6E56
:1010400011A008D01550192616501A2217501B222D
:1010500018501C22D8901536163617361836D890E8
:1010600014321332123211321450111012101310A4
:10107000D8A4E6D719C011F01AC012F01BC013F0A3
:101080001CC014F01200000E1D6E000E1C6E1A50D3
:101090001910D8B41CD0010E1B6E04D0D89019368C
:1010A0001A361B2A1AAEFAD7D8901C361D3619509C
:1010B000175C1A501858D8A005D01950175E1A504E
:1010C000185A1C80D8901A3219321B2EEDD71CC02A
:1010D00017F01DC018F01200ACA2FED712C0F6FF28
:1010E00013C0F7FF0800F550D0EC08F012C0F6FF6F
:1010F00013C0F7FF124A132A0800F5500009D8B4AC
:101100001200EAD73F6A00EE2EF0110EEE6AE806F2
:10111000FDE1200EF66E120EF76E000EF86E09005D
:10112000F5CF40F0000EF86E000197EF01F011507E
:101130001302F3CF15F0F4CF16F011501402F35050
:10114000162612501302F350162615C011F016C0C1
:1011500012F01200000E156E000E146E05D0030E74
:10116000EBEC08F0144A152A1250145C1350155871
:10117000D8B01200F4D7116E000E126E03D00CEC32
:1011800009F0122A1150125CD8B01200F8D711C021
:101190002EF012C02FF0306A316A010E396E120043
:1011A000116EACAC03D0AC9035B2AC8011C0ADFFC9
:1011B0001200CD8ACD88CD96CD92000ECF6E000E56
:1011C000CE6E1200CD8ACD88CD96CD92000ECF6E18
:1011D000000ECE6E1200116EFA0E00F0E82EFDD752
:1011E000112EFAD71200000ED76E430ED66ED30E14
:1011F000D56E1200000ED76E430ED66ED30ED56E8E
:101200001200829A0A0EBBEC08F0828A12008294C5
:1012100001EC09F08284120000F000F000F01200EE
:021220000300C9
:020000040020DA
:08000000FFFFFFFFFFFFFFFF00
:020000040030CA
:0E00000000221F1EFF8881FF03C003E00340A3
:00000001FF
