Microchip MPLAB XC8 Compiler V1.33 ()

Linker command line:

--edf=/Applications/microchip/xc8/v1.33/dat/en_msgs.txt -cs \
  -h+dist/default/production/ADC_PIC18.X.production.sym \
  --cmf=dist/default/production/ADC_PIC18.X.production.cmf -z -Q18F14K50 \
  -o/tmp/cgt8mWh4q -Mdist/default/production/ADC_PIC18.X.production.map -E1 \
  -ver=XC8 -ASTACK=0200h-02ffh -pstack=STACK -ACODE=00h-03FFFh \
  -ACONST=00h-03FFFh -ASMALLCONST=0300h-03FFhx61 -AMEDIUMCONST=0300h-03FFFh \
  -ACOMRAM=01h-05Fh -AABS1=00h-02FFh -ABIGRAM=01h-02FFh \
  -ARAM=060h-0FFh,0100h-01FFhx2 -ABANK0=060h-0FFh -ABANK1=0100h-01FFh \
  -ABANK2=0200h-02FFh -ASFR=0F53h-0F5Fh,0F60h-0FFFh \
  -preset_vec=00h,intcode=08h,intcodelo,powerup,init,end_init \
  -pramtop=0300h -psmallconst=SMALLCONST -pmediumconst=MEDIUMCONST \
  -pconst=CONST -AFARRAM=00h-00h -ACONFIG=0300000h-030000Dh -pconfig=CONFIG \
  -AIDLOC=0200000h-0200007h -pidloc=IDLOC -AEEDATA=0F00000h-0F000FFh \
  -peeprom_data=EEDATA \
  -prdata=COMRAM,nvrram=COMRAM,nvbit=COMRAM,rbss=COMRAM,rbit=COMRAM \
  -pfarbss=FARRAM,fardata=FARRAM,nvFARRAM=FARRAM \
  -pintsave_regs=BIGRAM,bigbss=BIGRAM,bigdata=BIGRAM -pbss=RAM \
  -pidata=CODE,irdata=CODE,ibigdata=CODE,ifardata=CODE /tmp/cgtAO22YR.obj \
  dist/default/production/ADC_PIC18.X.production.obj 

Object code version is 3.11

Machine type is 18F14K50

Call graph: (short form)




                Name                               Link     Load   Length Selector   Space Scale
/tmp/cgtAO22YR.obj
                end_init                             84       84        4        4       0
                reset_vec                             0        0        4        0       0
                idloc                            200000   200000        8   200000       0
                config                           300000   300000        E   300000       0
dist/default/production/ADC_PIC18.X.production.obj
                intcode                               8        8       7C        4       0
                smallconst                          300      300       1C      180       0
                text6                               648      648       12      18E       0
                text5                               57C      57C       52      18E       0
                text4                               622      622       26      18E       0
                text3                               31C      31C      118      18E       0
                text2                               512      512       6A      18E       0
                text1                               5CE      5CE       2C      18E       0
                text0                               434      434       DE      18E       0
                cstackCOMRAM                          1        1       27        1       1
                bssBANK1                            100      100      100      100       1
                bssCOMRAM                            2A       2A        2        1       1
                bitbssCOMRAM                        160       2C        1        1       1     8
                cinit                               5FA      5FA       28      18E       0
                nvCOMRAM                             28       28        2        1       1

TOTAL           Name                               Link     Load   Length     Space
        CLASS   STACK          

        CLASS   CODE           
                end_init                             84       84        4         0
                intcode                               8        8       7C         0
                reset_vec                             0        0        4         0
                text6                               648      648       12         0
                text5                               57C      57C       52         0
                text4                               622      622       26         0
                text3                               31C      31C      118         0
                text2                               512      512       6A         0
                text1                               5CE      5CE       2C         0
                text0                               434      434       DE         0
                cinit                               5FA      5FA       28         0

        CLASS   CONST          

        CLASS   SMALLCONST     
                smallconst                          300      300       1C         0

        CLASS   MEDIUMCONST    

        CLASS   COMRAM         
                cstackCOMRAM                          1        1       27         1
                bssCOMRAM                            2A       2A        2         1
                bitbssCOMRAM                        160       2C        1         1
                nvCOMRAM                             28       28        2         1

        CLASS   ABS1           

        CLASS   BIGRAM         

        CLASS   RAM            

        CLASS   BANK0          

        CLASS   BANK1          
                bssBANK1                            100      100      100         1

        CLASS   BANK2          

        CLASS   SFR            

        CLASS   FARRAM         

        CLASS   CONFIG         
                config                           300000   300000        E         0

        CLASS   IDLOC          
                idloc                            200000   200000        8         0

        CLASS   EEDATA         



SEGMENTS        Name                           Load    Length   Top    Selector   Space  Class

                reset_vec                      000000  000004  000004         0       0  CODE    
                cstackCOMRAM                   000001  00002C  00002D         1       1  COMRAM  
                intcode                        000008  000080  000088         4       0  CODE    
                bssBANK1                       000100  000100  000200       100       1  BANK1   
                smallconst                     000300  00001C  00031C       180       0  SMALLCON
                text3                          00031C  00033E  00065A       18E       0  CODE    
                idloc                          200000  000008  200008    200000       0  IDLOC   
                config                         300000  00000E  30000E    300000       0  CONFIG  


UNUSED ADDRESS RANGES

        Name                Unused          Largest block    Delta
        BANK0            000060-0000FF               A0
        BANK2            000200-0002FF              100
        BIGRAM           00002D-0000FF               D3
                         000200-0002FF              100
        CODE             000004-000007                4
                         000088-0002FF              278
                         00065A-003FFF             39A6
        COMRAM           00002D-00005F               33
        CONST            000004-000007                4
                         000088-0002FF              278
                         00065A-003FFF             39A6
        EEDATA           F00000-F000FF              100
        MEDIUMCONST      00065A-003FFF             39A6
        RAM              000060-0000FF               A0
                         000200-0002FF              100
        SFR              000F53-000FFF                D
        SMALLCONST       00065A-003FFF              100
        STACK            000200-0002FF              100

                                  Symbol Table

?___lwdiv                cstackCOMRAM 000015
?___wmul                 cstackCOMRAM 00000F
NumToUart@Num            cstackCOMRAM 00001C
NumToUart@bignum         cstackCOMRAM 000024
NumToUart@i              cstackCOMRAM 000023
NumToUart@numtemp        cstackCOMRAM 000022
OpenUSART@config         cstackCOMRAM 000014
OpenUSART@spbrg          cstackCOMRAM 00000F
WriteUSART@data          cstackCOMRAM 00000F
_ADCON0                  (abs)        000FC2
_ADCON2                  (abs)        000FC0
_ADCstatus               bitbssCOMRAM 000160
_ADIE                    (abs)        007CEE
_ADIF                    (abs)        007CF6
_ADON                    (abs)        007E10
_ADRESH                  (abs)        000FC4
_ADRESL                  (abs)        000FC3
_ANSEL                   (abs)        000F7E
_ANSELH                  (abs)        000F7F
_GIE                     (abs)        007F97
_GO                      (abs)        007E11
_NumToUart               text3        00031C
_NumToUart$1057          cstackCOMRAM 00001E
_NumToUart$1058          cstackCOMRAM 000020
_OpenUSART               text2        000512
_PEIE                    (abs)        007F96
_PIE1bits                (abs)        000F9D
_PIR1bits                (abs)        000F9E
_RCSTA                   (abs)        000FAB
_RCSTAbits               (abs)        000FAB
_SPBRG                   (abs)        000FAF
_SPBRGH                  (abs)        000FB0
_TRISB5                  (abs)        007C9D
_TRISB7                  (abs)        007C9F
_TRISBbits               (abs)        000F93
_TRISC5                  (abs)        007CA5
_TRISC7                  (abs)        007CA7
_TXREG                   (abs)        000FAD
_TXSTA                   (abs)        000FAC
_TXSTAbits               (abs)        000FAC
_UARTConfig              nvCOMRAM     000028
_USART_Status            bssCOMRAM    00002A
_Vmeas                   bssBANK1     000100
_WriteUSART              text6        000648
__CFG_FOSC$HS            (abs)        000000
__CFG_LVP$OFF            (abs)        000000
__CFG_WDTEN$OFF          (abs)        000000
__HRAM                   (abs)        000000
__Habs1                  abs1         000000
__Hbank0                 bank0        000000
__Hbank1                 bank1        000000
__Hbank2                 bank2        000000
__Hbigbss                bigbss       000000
__Hbigdata               bigdata      000000
__Hbigram                bigram       000000
__HbitbssCOMRAM          bitbssCOMRAM 000000
__Hbss                   bss          000000
__HbssBANK1              bssBANK1     000000
__HbssCOMRAM             bssCOMRAM    000000
__Hcinit                 cinit        000000
__Hclrtext               clrtext      000000
__Hcomram                comram       000000
__Hconfig                config       30000E
__Hconst                 const        000000
__HcstackCOMRAM          cstackCOMRAM 000000
__Hdata                  data         000000
__Heeprom_data           eeprom_data  000000
__Hend_init              end_init     000088
__Hfarbss                farbss       000000
__Hfardata               fardata      000000
__Hibigdata              ibigdata     000000
__Hidata                 idata        000000
__Hidloc                 idloc        200008
__Hifardata              ifardata     000000
__Hinit                  init         000084
__Hintcode               intcode      000084
__Hintcode_body          intcode_body 000000
__Hintcodelo             intcodelo    000084
__Hintentry              intentry     000000
__Hintret                intret       000000
__Hintsave_regs          intsave_regs 000000
__Hirdata                irdata       000000
__Hmediumconst           mediumconst  000000
__HnvCOMRAM              nvCOMRAM     000000
__HnvFARRAM              nvFARRAM     000000
__Hnvbit                 nvbit        000000
__Hnvrram                nvrram       000000
__Hparam                 rparam       000000
__Hpowerup               powerup      000084
__Hram                   ram          000000
__Hramtop                ramtop       000300
__Hrbit                  rbit         000000
__Hrbss                  rbss         000000
__Hrdata                 rdata        000000
__Hreset_vec             reset_vec    000004
__Hrparam                rparam       000000
__Hsfr                   sfr          000000
__Hsmallconst            smallconst   00031C
__Hspace_0               (abs)        30000E
__Hspace_1               (abs)        000200
__Hspace_2               (abs)        000000
__Hstack                 stack        000000
__Hstruct                struct       000000
__Htemp                  temp         000000
__Htext                  text         000000
__Htext0                 text0        000000
__Htext1                 text1        000000
__Htext2                 text2        000000
__Htext3                 text3        000000
__Htext4                 text4        000000
__Htext5                 text5        000000
__Htext6                 text6        000000
__LRAM                   (abs)        000001
__Labs1                  abs1         000000
__Lbank0                 bank0        000000
__Lbank1                 bank1        000000
__Lbank2                 bank2        000000
__Lbigbss                bigbss       000000
__Lbigdata               bigdata      000000
__Lbigram                bigram       000000
__LbitbssCOMRAM          bitbssCOMRAM 000000
__Lbss                   bss          000000
__LbssBANK1              bssBANK1     000000
__LbssCOMRAM             bssCOMRAM    000000
__Lcinit                 cinit        000000
__Lclrtext               clrtext      000000
__Lcomram                comram       000000
__Lconfig                config       300000
__Lconst                 const        000000
__LcstackCOMRAM          cstackCOMRAM 000000
__Ldata                  data         000000
__Leeprom_data           eeprom_data  000000
__Lend_init              end_init     000084
__Lfarbss                farbss       000000
__Lfardata               fardata      000000
__Libigdata              ibigdata     000000
__Lidata                 idata        000000
__Lidloc                 idloc        200000
__Lifardata              ifardata     000000
__Linit                  init         000084
__Lintcode               intcode      000008
__Lintcode_body          intcode_body 000000
__Lintcodelo             intcodelo    000084
__Lintentry              intentry     000000
__Lintret                intret       000000
__Lintsave_regs          intsave_regs 000000
__Lirdata                irdata       000000
__Lmediumconst           mediumconst  000000
__LnvCOMRAM              nvCOMRAM     000000
__LnvFARRAM              nvFARRAM     000000
__Lnvbit                 nvbit        000000
__Lnvrram                nvrram       000000
__Lparam                 rparam       000000
__Lpowerup               powerup      000084
__Lram                   ram          000000
__Lramtop                ramtop       000300
__Lrbit                  rbit         000000
__Lrbss                  rbss         000000
__Lrdata                 rdata        000000
__Lreset_vec             reset_vec    000000
__Lrparam                rparam       000000
__Lsfr                   sfr          000000
__Lsmallconst            smallconst   000300
__Lspace_0               (abs)        000000
__Lspace_1               (abs)        000000
__Lspace_2               (abs)        000000
__Lstack                 stack        000000
__Lstruct                struct       000000
__Ltemp                  temp         000000
__Ltext                  text         000000
__Ltext0                 text0        000000
__Ltext1                 text1        000000
__Ltext2                 text2        000000
__Ltext3                 text3        000000
__Ltext4                 text4        000000
__Ltext5                 text5        000000
__Ltext6                 text6        000000
__S0                     (abs)        30000E
__S1                     (abs)        000200
__S2                     (abs)        000000
___inthi_sp              stack        000000
___intlo_sp              stack        000000
___lwdiv                 text5        00057C
___lwdiv@counter         cstackCOMRAM 00001B
___lwdiv@dividend        cstackCOMRAM 000015
___lwdiv@divisor         cstackCOMRAM 000017
___lwdiv@quotient        cstackCOMRAM 000019
___sp                    stack        000000
___wmul                  text4        000622
___wmul@multiplicand     cstackCOMRAM 000011
___wmul@multiplier       cstackCOMRAM 00000F
___wmul@product          cstackCOMRAM 000013
__accesstop              (abs)        000060
__activetblptr           (abs)        000001
__end_of_NumToUart       text3        000434
__end_of_OpenUSART       text2        00057C
__end_of_WriteUSART      text6        00065A
__end_of___lwdiv         text5        0005CE
__end_of___wmul          text4        000648
__end_of__initialization cinit        000614
__end_of__stringdata     smallconst   00031A
__end_of_isr             intcode      000084
__end_of_main            text0        000512
__end_of_putsUSART       text1        0005FA
__initialization         cinit        0005FA
__mediumconst            mediumconst  000000
__pbitbssCOMRAM          bitbssCOMRAM 000160
__pbssBANK1              bssBANK1     000100
__pbssCOMRAM             bssCOMRAM    00002A
__pcinit                 cinit        0005FA
__pcstackCOMRAM          cstackCOMRAM 000001
__pintcode               intcode      000008
__pnvCOMRAM              nvCOMRAM     000028
__psmallconst            smallconst   000300
__ptext0                 text0        000434
__ptext1                 text1        0005CE
__ptext2                 text2        000512
__ptext3                 text3        00031C
__ptext4                 text4        000622
__ptext5                 text5        00057C
__ptext6                 text6        000648
__ramtop                 ramtop       000300
__size_of_NumToUart      (abs)        000000
__size_of_OpenUSART      (abs)        000000
__size_of_WriteUSART     (abs)        000000
__size_of___lwdiv        (abs)        000000
__size_of___wmul         (abs)        000000
__size_of_isr            (abs)        000000
__size_of_main           (abs)        000000
__size_of_putsUSART      (abs)        000000
__smallconst             smallconst   000300
__stringdata             smallconst   000301
_baud                    nvCOMRAM     000029
_i                       bssCOMRAM    00002B
_isr                     intcode      000008
_main                    text0        000434
_putsUSART               text1        0005CE
end_of_initialization    cinit        000614
intlevel0                text         000000
intlevel1                text         000000
intlevel2                text         000000
intlevel3                text         000000
putsUSART@data           cstackCOMRAM 000010
stackhi                  (abs)        0002FF
stacklo                  (abs)        000200
start                    init         000084
start_initialization     cinit        0005FA


FUNCTION INFORMATION:

 *************** function _main *****************
 Defined at:
		line 30 in file "main.c"
 Parameters:    Size  Location     Type
		None
 Auto vars:     Size  Location     Type
		None
 Return value:  Size  Location     Type
		None               void
 Registers used:
		wreg, fsr2l, fsr2h, status,2, status,0, tblptrl, tblptrh, tblptru, prodl, prodh, cstack
 Tracked objects:
		On entry : 
		On exit  : 
		Unchanged: 
 Data sizes:     COMRAM   BANK0   BANK1   BANK2
      Params:         0       0       0       0
      Locals:         0       0       0       0
      Temps:          2       0       0       0
      Totals:         2       0       0       0
Total ram usage:        2 bytes
 Hardware stack levels required when called:    3
 This function calls:
		_NumToUart
		_OpenUSART
		_putsUSART
 This function is called by:
		Startup code after reset
 This function uses a non-reentrant model


 *************** function _putsUSART *****************
 Defined at:
		line 14 in file "/Applications/microchip/xc8/v1.33/sources/pic18/plib/USART/uputs.c"
 Parameters:    Size  Location     Type
  data            2   15[COMRAM] PTR unsigned char 
		 -> STR_2(3), STR_1(25), 
 Auto vars:     Size  Location     Type
		None
 Return value:  Size  Location     Type
		None               void
 Registers used:
		wreg, status,2, status,0, tblptrl, tblptrh, tblptru, cstack
 Tracked objects:
		On entry : 
		On exit  : 
		Unchanged: 
 Data sizes:     COMRAM   BANK0   BANK1   BANK2
      Params:         2       0       0       0
      Locals:         0       0       0       0
      Temps:          0       0       0       0
      Totals:         2       0       0       0
Total ram usage:        2 bytes
 Hardware stack levels used:    1
 Hardware stack levels required when called:    2
 This function calls:
		_WriteUSART
 This function is called by:
		_main
 This function uses a non-reentrant model


 *************** function _OpenUSART *****************
 Defined at:
		line 73 in file "/Applications/microchip/xc8/v1.33/sources/pic18/plib/USART/uopen.c"
 Parameters:    Size  Location     Type
  config          1    wreg     unsigned char 
  spbrg           2   14[COMRAM] unsigned int 
 Auto vars:     Size  Location     Type
  config          1   19[COMRAM] unsigned char 
 Return value:  Size  Location     Type
		None               void
 Registers used:
		wreg, status,2
 Tracked objects:
		On entry : 
		On exit  : 
		Unchanged: 
 Data sizes:     COMRAM   BANK0   BANK1   BANK2
      Params:         2       0       0       0
      Locals:         1       0       0       0
      Temps:          3       0       0       0
      Totals:         6       0       0       0
Total ram usage:        6 bytes
 Hardware stack levels used:    1
 Hardware stack levels required when called:    1
 This function calls:
		Nothing
 This function is called by:
		_main
 This function uses a non-reentrant model


 *************** function _NumToUart *****************
 Defined at:
		line 127 in file "main.c"
 Parameters:    Size  Location     Type
  Num             2   27[COMRAM] unsigned int 
 Auto vars:     Size  Location     Type
  i               1   34[COMRAM] unsigned char 
  bignum          2   35[COMRAM] unsigned int 
  numtemp         1   33[COMRAM] unsigned char 
 Return value:  Size  Location     Type
		None               void
 Registers used:
		wreg, status,2, status,0, prodl, prodh, cstack
 Tracked objects:
		On entry : 
		On exit  : 
		Unchanged: 
 Data sizes:     COMRAM   BANK0   BANK1   BANK2
      Params:         2       0       0       0
      Locals:         8       0       0       0
      Temps:          0       0       0       0
      Totals:        10       0       0       0
Total ram usage:       10 bytes
 Hardware stack levels used:    1
 Hardware stack levels required when called:    2
 This function calls:
		_WriteUSART
		___lwdiv
		___wmul
 This function is called by:
		_main
 This function uses a non-reentrant model


 *************** function ___wmul *****************
 Defined at:
		line 15 in file "/Applications/microchip/xc8/v1.33/sources/common/Umul16.c"
 Parameters:    Size  Location     Type
  multiplier      2   14[COMRAM] unsigned int 
  multiplicand    2   16[COMRAM] unsigned int 
 Auto vars:     Size  Location     Type
  product         2   18[COMRAM] unsigned int 
 Return value:  Size  Location     Type
                  2   14[COMRAM] unsigned int 
 Registers used:
		wreg, status,2, status,0, prodl, prodh
 Tracked objects:
		On entry : 
		On exit  : 
		Unchanged: 
 Data sizes:     COMRAM   BANK0   BANK1   BANK2
      Params:         4       0       0       0
      Locals:         2       0       0       0
      Temps:          0       0       0       0
      Totals:         6       0       0       0
Total ram usage:        6 bytes
 Hardware stack levels used:    1
 Hardware stack levels required when called:    1
 This function calls:
		Nothing
 This function is called by:
		_NumToUart
 This function uses a non-reentrant model


 *************** function ___lwdiv *****************
 Defined at:
		line 8 in file "/Applications/microchip/xc8/v1.33/sources/common/lwdiv.c"
 Parameters:    Size  Location     Type
  dividend        2   20[COMRAM] unsigned int 
  divisor         2   22[COMRAM] unsigned int 
 Auto vars:     Size  Location     Type
  quotient        2   24[COMRAM] unsigned int 
  counter         1   26[COMRAM] unsigned char 
 Return value:  Size  Location     Type
                  2   20[COMRAM] unsigned int 
 Registers used:
		wreg, status,2, status,0
 Tracked objects:
		On entry : 
		On exit  : 
		Unchanged: 
 Data sizes:     COMRAM   BANK0   BANK1   BANK2
      Params:         4       0       0       0
      Locals:         3       0       0       0
      Temps:          0       0       0       0
      Totals:         7       0       0       0
Total ram usage:        7 bytes
 Hardware stack levels used:    1
 Hardware stack levels required when called:    1
 This function calls:
		Nothing
 This function is called by:
		_NumToUart
 This function uses a non-reentrant model


 *************** function _WriteUSART *****************
 Defined at:
		line 13 in file "/Applications/microchip/xc8/v1.33/sources/pic18/plib/USART/uwrite.c"
 Parameters:    Size  Location     Type
  data            1    wreg     unsigned char 
 Auto vars:     Size  Location     Type
  data            1   14[COMRAM] unsigned char 
 Return value:  Size  Location     Type
		None               void
 Registers used:
		wreg
 Tracked objects:
		On entry : 
		On exit  : 
		Unchanged: 
 Data sizes:     COMRAM   BANK0   BANK1   BANK2
      Params:         0       0       0       0
      Locals:         1       0       0       0
      Temps:          0       0       0       0
      Totals:         1       0       0       0
Total ram usage:        1 bytes
 Hardware stack levels used:    1
 Hardware stack levels required when called:    1
 This function calls:
		Nothing
 This function is called by:
		_NumToUart
		_putsUSART
 This function uses a non-reentrant model


 *************** function _isr *****************
 Defined at:
		line 96 in file "main.c"
 Parameters:    Size  Location     Type
		None
 Auto vars:     Size  Location     Type
		None
 Return value:  Size  Location     Type
		None               void
 Registers used:
		None
 Tracked objects:
		On entry : 
		On exit  : 
		Unchanged: 
 Data sizes:     COMRAM   BANK0   BANK1   BANK2
      Params:         0       0       0       0
      Locals:         0       0       0       0
      Temps:         14       0       0       0
      Totals:        14       0       0       0
Total ram usage:       14 bytes
 Hardware stack levels used:    1
 This function calls:
		Nothing
 This function is called by:
		Interrupt level 2
 This function uses a non-reentrant model



MODULE INFORMATION

Module		Function		Class		Link	Load	Size
/Applications/microchip/xc8/v1.33/sources/pic18/plib/USART/uopen.c
		_OpenUSART     		CODE           	0512	0000	106

/Applications/microchip/xc8/v1.33/sources/pic18/plib/USART/uopen.c estimated size: 106

/Applications/microchip/xc8/v1.33/sources/common/lwdiv.c
		___lwdiv       		CODE           	057C	0000	82

/Applications/microchip/xc8/v1.33/sources/common/lwdiv.c estimated size: 82

/Applications/microchip/xc8/v1.33/sources/common/Umul16.c
		___wmul        		CODE           	0622	0000	38

/Applications/microchip/xc8/v1.33/sources/common/Umul16.c estimated size: 38

shared
		__stringdata   		SMALLCONST     	0301	0000	25
		__initializatio		CODE           	05FA	0000	26

shared estimated size: 51

/Applications/microchip/xc8/v1.33/sources/pic18/plib/USART/uputs.c
		_putsUSART     		CODE           	05CE	0000	44

/Applications/microchip/xc8/v1.33/sources/pic18/plib/USART/uputs.c estimated size: 44

main.c
		_main          		CODE           	0434	0000	222
		_NumToUart     		CODE           	031C	0000	280
		_isr           		CODE           	0008	0000	124

main.c estimated size: 626

/Applications/microchip/xc8/v1.33/sources/pic18/plib/USART/uwrite.c
		_WriteUSART    		CODE           	0648	0000	18

/Applications/microchip/xc8/v1.33/sources/pic18/plib/USART/uwrite.c estimated size: 18

