HI-TECH Software C Compiler 

Linker command line:

--edf=C:\Program Files\HI-TECH Software\PICC\9.70\dat\en_msgs.txt -cs \
  -h+ccpcompare.sym -z -Q16F628A -ol.obj -Mccpcompare.map -E1 \
  -ACODE=00h-07FFh -ACONST=00h-0FFhx8 -AENTRY=00h-0FFhx8 \
  -ASTRING=00h-0FFhx8 -ABANK0=020h-06Fh -ABANK1=0A0h-0EFh \
  -ABANK2=0120h-014Fh -ARAM=020h-06Fh,0A0h-0EFh,0120h-014Fh \
  -AABS1=020h-07Fh,0A0h-0EFh,0120h-014Fh -ACOMMON=070h-07Fh -ASFR0=00h-01Fh \
  -ASFR1=080h-09Fh -ASFR2=0100h-011Fh -ASFR3=0180h-01EFh \
  -preset_vec=00h,intentry=04h,init,end_init -ppowerup=CODE \
  -ACONFIG=02007h-02007h -pconfig=CONFIG -DCONFIG=2 -AIDLOC=02000h-02003h \
  -pidloc=IDLOC -DIDLOC=2 -AEEDATA=00h-07Fh/02100h -peeprom_data=EEDATA \
  -DEEDATA=2 -DCODE=2 -k startup.obj ccpcompare.obj 

Object code version is 3.10

Machine type is 16F628A



                Name          Link     Load   Length Selector   Space       Scale
startup.obj     end_init         A        A        1       8     0
                reset_vec        0        0        1       0     0
ccpcompare.obj  config        2007     2007        1    400E     0
                intentry         4        4        6       8     0
                text11          2C       2C       10       8     0
                maintext         B        B       21       8     0
                cstackCOM       70       70        8      70     1
                cinit           3C       3C        2       8     0

TOTAL           Name          Link     Load   Length     Space
        CLASS   CODE           
                end_init         A        A        1     0
                intentry         4        4        6     0
                reset_vec        0        0        1     0
                text11          2C       2C       10     0
                maintext         B        B       21     0
                cinit           3C       3C        2     0

        CLASS   CONST          

        CLASS   ENTRY          

        CLASS   STRING         

        CLASS   BANK0          

        CLASS   BANK1          

        CLASS   BANK2          

        CLASS   RAM            

        CLASS   ABS1           
                abs_s1          7E       7E        2     1

        CLASS   COMMON         
                cstackCOM       70       70        8     1

        CLASS   SFR0           

        CLASS   SFR1           

        CLASS   SFR2           

        CLASS   SFR3           

        CLASS   CONFIG         
                config        2007     2007        1     0

        CLASS   IDLOC          

        CLASS   EEDATA         

        CLASS   BANK3          



SEGMENTS        Name            Load    Length   Top    Selector   Space  Class     Delta

                reset_vec       000000  000001  000001         0       0  CODE        2
                intentry        000004  00003A  00003E         8       0  CODE        2
                cstackCOMMON    000070  000008  000078        70       1  COMMON      1
                config          002007  000001  002008      400E       0  CONFIG      2


UNUSED ADDRESS RANGES

        Name                Unused          Largest block    Delta
        BANK0            00020-0006F              50           1
        BANK1            000A0-000EF              50           1
        BANK2            00120-0014F              30           1
        CODE             00001-00003               3           2
                         0003E-007FF             7C2
        COMMON           00078-0007D               6           1
        CONST            00002-00007               6           1
                         0007C-007FF             100
        EEDATA           02100-0217F              80           2
        ENTRY            00002-00007               6           1
                         0007C-007FF             100
        IDLOC            02000-02003               4           2
        RAM              00020-0006F              50           1
                         000A0-000EF              50
                         00120-0014F              30
        SFR0             00000-0001F              20           1
        SFR1             00080-0009F              20           1
        SFR2             00100-0011F              20           1
        SFR3             00180-001EF              70           1
        STRING           00002-00007               6           1
                         0007C-007FF             100

                                  Symbol Table

??__delay             cstackCOMMON 00070
??_isr                cstackCOMMON 00076
??_main               cstackCOMMON 00074
?__delay              cstackCOMMON 00070
?_isr                 cstackBANK0  00020
?_main                cstackCOMMON 00076
_ADEN                 (abs)        000C3
_BOR                  (abs)        00470
_BRGH                 (abs)        004C2
_C1INV                (abs)        000FC
_C1OUT                (abs)        000FE
_C2INV                (abs)        000FD
_C2OUT                (abs)        000FF
_CARRY                (abs)        00018
_CCP1CON              (abs)        00017
_CCP1IE               (abs)        00462
_CCP1IF               (abs)        00062
_CCP1M0               (abs)        000B8
_CCP1M1               (abs)        000B9
_CCP1M2               (abs)        000BA
_CCP1M3               (abs)        000BB
_CCP1X                (abs)        000BD
_CCP1Y                (abs)        000BC
_CCPR1H               (abs)        00016
_CCPR1L               (abs)        00015
_CIS                  (abs)        000FB
_CM0                  (abs)        000F8
_CM1                  (abs)        000F9
_CM2                  (abs)        000FA
_CMCON                (abs)        0001F
_CMIE                 (abs)        00466
_CMIF                 (abs)        00066
_CREN                 (abs)        000C4
_CSRC                 (abs)        004C7
_DC                   (abs)        00019
_EEADR                (abs)        0009B
_EECON1               (abs)        0009C
_EECON2               (abs)        0009D
_EEDATA               (abs)        0009A
_EEIE                 (abs)        00467
_EEIF                 (abs)        00067
_FERR                 (abs)        000C2
_FSR                  (abs)        00004
_GIE                  (abs)        0005F
_INDF                 (abs)        00000
_INTCON               (abs)        0000B
_INTE                 (abs)        0005C
_INTEDG               (abs)        0040E
_INTF                 (abs)        00059
_IRP                  (abs)        0001F
_OERR                 (abs)        000C1
_OPTION               (abs)        00081
_OSCF                 (abs)        00473
_PCL                  (abs)        00002
_PCLATH               (abs)        0000A
_PCON                 (abs)        0008E
_PD                   (abs)        0001B
_PEIE                 (abs)        0005E
_PIE1                 (abs)        0008C
_PIR1                 (abs)        0000C
_POR                  (abs)        00471
_PORTA                (abs)        00005
_PORTB                (abs)        00006
_PR2                  (abs)        00092
_PS0                  (abs)        00408
_PS1                  (abs)        00409
_PS2                  (abs)        0040A
_PSA                  (abs)        0040B
_RA0                  (abs)        00028
_RA1                  (abs)        00029
_RA2                  (abs)        0002A
_RA3                  (abs)        0002B
_RA4                  (abs)        0002C
_RA5                  (abs)        0002D
_RA6                  (abs)        0002E
_RA7                  (abs)        0002F
_RB0                  (abs)        00030
_RB1                  (abs)        00031
_RB2                  (abs)        00032
_RB3                  (abs)        00033
_RB4                  (abs)        00034
_RB5                  (abs)        00035
_RB6                  (abs)        00036
_RB7                  (abs)        00037
_RBIE                 (abs)        0005B
_RBIF                 (abs)        00058
_RBPU                 (abs)        0040F
_RCIE                 (abs)        00465
_RCIF                 (abs)        00065
_RCREG                (abs)        0001A
_RCSTA                (abs)        00018
_RD                   (abs)        004E0
_RP0                  (abs)        0001D
_RP1                  (abs)        0001E
_RX9                  (abs)        000C6
_RX9D                 (abs)        000C0
_SPBRG                (abs)        00099
_SPEN                 (abs)        000C7
_SREN                 (abs)        000C5
_STATUS               (abs)        00003
_SYNC                 (abs)        004C4
_T0CS                 (abs)        0040D
_T0IE                 (abs)        0005D
_T0IF                 (abs)        0005A
_T0SE                 (abs)        0040C
_T1CKPS0              (abs)        00084
_T1CKPS1              (abs)        00085
_T1CON                (abs)        00010
_T1OSCEN              (abs)        00083
_T1SYNC               (abs)        00082
_T2CKPS0              (abs)        00090
_T2CKPS1              (abs)        00091
_T2CON                (abs)        00012
_TMR0                 (abs)        00001
_TMR1CS               (abs)        00081
_TMR1H                (abs)        0000F
_TMR1IE               (abs)        00460
_TMR1IF               (abs)        00060
_TMR1L                (abs)        0000E
_TMR1ON               (abs)        00080
_TMR2                 (abs)        00011
_TMR2IE               (abs)        00461
_TMR2IF               (abs)        00061
_TMR2ON               (abs)        00092
_TO                   (abs)        0001C
_TOUTPS0              (abs)        00093
_TOUTPS1              (abs)        00094
_TOUTPS2              (abs)        00095
_TOUTPS3              (abs)        00096
_TRISA                (abs)        00085
_TRISA0               (abs)        00428
_TRISA1               (abs)        00429
_TRISA2               (abs)        0042A
_TRISA3               (abs)        0042B
_TRISA4               (abs)        0042C
_TRISA5               (abs)        0042D
_TRISA6               (abs)        0042E
_TRISA7               (abs)        0042F
_TRISB                (abs)        00086
_TRISB0               (abs)        00430
_TRISB1               (abs)        00431
_TRISB2               (abs)        00432
_TRISB3               (abs)        00433
_TRISB4               (abs)        00434
_TRISB5               (abs)        00435
_TRISB6               (abs)        00436
_TRISB7               (abs)        00437
_TRMT                 (abs)        004C1
_TX9                  (abs)        004C6
_TX9D                 (abs)        004C0
_TXEN                 (abs)        004C5
_TXIE                 (abs)        00464
_TXIF                 (abs)        00064
_TXREG                (abs)        00019
_TXSTA                (abs)        00098
_VR0                  (abs)        004F8
_VR1                  (abs)        004F9
_VR2                  (abs)        004FA
_VR3                  (abs)        004FB
_VRCON                (abs)        0009F
_VREN                 (abs)        004FF
_VROE                 (abs)        004FE
_VRR                  (abs)        004FD
_WR                   (abs)        004E1
_WREN                 (abs)        004E2
_WRERR                (abs)        004E3
_ZERO                 (abs)        0001A
__Babs1               abs1         04200
__Bbank0              bank0        04200
__Bbank1              bank1        04200
__Bbank2              bank2        04200
__Bbank3              bank3        04200
__Bclrtext            clrtext      04200
__Bcode               code         04200
__Bcommon             common       04200
__Beeprom_data        eeprom_data  02100
__Bptbit_0            ptbit_0      04200
__Bram                ram          04200
__Bsfr0               sfr0         04200
__Bsfr1               sfr1         04200
__Bsfr2               sfr2         04200
__Bsfr3               sfr3         04200
__Bstrings            strings      04200
__Btext               text         04200
__Habs1               abs1         00000
__Hbank0              bank0        00000
__Hbank1              bank1        00000
__Hbank2              bank2        00000
__Hbank3              bank3        00000
__Hcinit              cinit        04200
__Hclrtext            clrtext      00000
__Hcode               code         00000
__Hcommon             common       00000
__Hconfig             config       02008
__HcstackBANK0        cstackBANK0  04200
__HcstackCOMMON       cstackCOMMON 04200
__Heeprom_data        eeprom_data  00000
__Hend_init           end_init     0000B
__Hidloc              idloc        02000
__Hinit               init         0000A
__Hintentry           intentry     0000A
__Hintsave            intsave      04200
__Hmaintext           maintext     04200
__Hpa_nodes           pa_nodes     04200
__Hpowerup            powerup      0000B
__Hptbit_0            ptbit_0      21000
__Hram                ram          00000
__Hreset_vec          reset_vec    00001
__Hsfr0               sfr0         00000
__Hsfr1               sfr1         00000
__Hsfr2               sfr2         00000
__Hsfr3               sfr3         00000
__Hstrings            strings      00000
__Hstruct             struct       00020
__Htemp               temp         00020
__Htext               text         00000
__Labs1               abs1         00000
__Lbank0              bank0        00000
__Lbank1              bank1        00000
__Lbank2              bank2        00000
__Lbank3              bank3        00000
__Lcinit              cinit        04200
__Lclrtext            clrtext      00000
__Lcode               code         00000
__Lcommon             common       00000
__Lconfig             config       02007
__LcstackBANK0        cstackBANK0  04200
__LcstackCOMMON       cstackCOMMON 04200
__Leeprom_data        eeprom_data  00000
__Lend_init           end_init     0000A
__Lidloc              idloc        02000
__Linit               init         0000A
__Lintentry           intentry     00004
__Lintsave            intsave      04200
__Lmaintext           maintext     04200
__Lpa_nodes           pa_nodes     04200
__Lpowerup            powerup      0000B
__Lptbit_0            ptbit_0      21000
__Lram                ram          00000
__Lreset_vec          reset_vec    00000
__Lsfr0               sfr0         00000
__Lsfr1               sfr1         00000
__Lsfr2               sfr2         00000
__Lsfr3               sfr3         00000
__Lstrings            strings      00000
__Lstruct             struct       00020
__Ltemp               temp         00020
__Ltext               text         00000
__S0                  (abs)        02008
__S1                  (abs)        00180
__S2                  (abs)        02100
__delay$0             cstackCOMMON 00070
__end_of_isr          text11       0003C
__end_of_main         maintext     0002C
__pcstackBANK0        cstackBANK0  00020
__pcstackCOMMON       cstackCOMMON 00070
__pintentry           intentry     00004
__pmaintext           maintext     0000B
__ptext10             text10       0003E
__ptext11             text11       0002C
__ptext12             text12       0003E
__size_of_isr         (abs)        00000
__size_of_main        (abs)        00000
_exit                 init         0000A
_isr                  text11       0002C
_main                 maintext     0000B
btemp                 (abs)        0007E
end_of_initialization cinit        0003C
i1l30000272                             
i1l30000274                             
i1l30000275                             
i1l30000276                             
interrupt_function    intentry     00004
intlevel0             intentry     00004
intlevel1             intentry     00004
intlevel2             intentry     00004
intlevel3             intentry     00004
intlevel4             intentry     00004
intlevel5             intentry     00004
l30000251                               
l30000252                               
l30000253                               
l30000254                               
l30000255                               
l30000256                               
l30000257                               
l30000258                               
l30000259                               
l30000260                               
l30000261                               
l30000262                               
l30000263                               
l30000264                               
l30000265                               
l30000266                               
reset_vec             reset_vec    00000
saved_w               (abs)        0007F
start                 init         0000A
start_initialization  cinit        0003C
