:100000000A28192B242B2F2BFE00030EF0000A08C0
:10001000F100C32D9E2E831603138C108312121130
:10002000FA136B260030AF262A30BB268323FA1B37
:1000300008006B260130AF262A30BB260430F800BA
:100040000C30F7003530F600F60B2428F70B242887
:10005000F80B24282B280430F8000C30F70035303A
:10006000F600F60B3128F70B3128F80B3128382829
:100070000430F8000C30F7003530F600F60B3E285F
:10008000F70B3E28F80B3E2845280430F8000C30CA
:10009000F7003530F600F60B4B28F70B4B28F80B22
:1000A0004B2852280430F8000C30F7003530F600A9
:1000B000F60B5828F70B5828F80B58285F2883238D
:1000C000FA1B08006B260030AF262A30BB2604300E
:1000D000F8000C30F7003530F600F60B6D28F70B02
:1000E0006D28F80B6D2874280430F8000C30F700E8
:1000F0003530F600F60B7A28F70B7A28F80B7A28B9
:1001000081280430F8000C30F7003530F600F60B8B
:100110008728F70B8728F80B87288E280430F800EB
:100120000C30F7003530F600F60B9428F70B9428C6
:10013000F80B94289B280430F8000C30F700353079
:10014000F600F60BA128F70BA128F80BA128A82888
:100150008323FA1B08006B260130AF262A30BB260A
:100160000430F8000C30F7003530F600F60BB628F6
:10017000F70BB628F80BB628BD280430F8000C3071
:10018000F7003530F600F60BC328F70BC328F80B41
:10019000C328CA280430F8000C30F7003530F600C8
:1001A000F60BD028F70BD028F80BD028D72804302E
:1001B000F8000C30F7003530F600F60BDD28F70BB1
:1001C000DD28F80BDD28E4280430F8000C30F700B7
:1001D0003530F600F60BEA28F70BEA28F80BEA2888
:1001E000F1288323FA1B08006B260030AF262A3043
:1001F000BB260430F8000C30F7003530F600F60B63
:10020000FF28F70BFF28F80BFF2806290430F80019
:100210000C30F7003530F600F60B0C29F70B0C29E3
:10022000F80B0C2913290430F8000C30F700353096
:10023000F600F60B1929F70B1929F80B19292029B3
:100240000430F8000C30F7003530F600F60B2629A4
:10025000F70B2629F80B26292D290430F8000C303D
:10026000F7003530F600F60B3329F70B3329F80B7E
:1002700033293A298323FA1B08006B260130AF2665
:100280002A30BB260430F8000C30F7003530F60079
:10029000F60B4829F70B4829F80B48294F29043059
:1002A000F8000C30F7003530F600F60B5529F70B47
:1002B0005529F80B55295C290430F8000C30F7005B
:1002C0003530F600F60B6229F70B6229F80B62292C
:1002D00069290430F8000C30F7003530F600F60BD1
:1002E0006F29F70B6F29F80B6F2976290430F80076
:1002F0000C30F7003530F600F60B7C29F70B7C2923
:10030000F80B7C2983298323FA1B08006B26003015
:10031000AF262A30BB260430F8000C30F700353009
:10032000F600F60B9129F70B9129F80B91299829E2
:100330000430F8000C30F7003530F600F60B9E293B
:10034000F70B9E29F80B9E29A5290430F8000C30E4
:10035000F7003530F600F60BAB29F70BAB29F80B9D
:10036000AB29B2290430F8000C30F7003530F60024
:10037000F60BB829F70BB829F80BB829BF290430B8
:10038000F8000C30F7003530F600F60BC529F70BF6
:10039000C529F80BC529CC298323FA1B0800831231
:1003A000A0016B260030AF2627305B264030AF26F9
:1003B00019305B2E07308316061483129F008316B4
:1003C0000514851005118515051286128610061173
:1003D0008611061286120617FA107B10FA1CF429F1
:1003E000831203130516F7298312031305127B1CCE
:1003F000FD29831203138616002A83120313861223
:100400000430831686138312861349268312B6009E
:10041000053049268312B7005F250030AF264730EC
:100420005B260930F9003608E62583168112811112
:100430008B170B17011383120614A9017A113726A3
:1004400003302602853003192502031C992AA501D1
:10045000A601121183168C10C5240B2083123708B5
:10046000B300B40124083402031D382A23083302E0
:1004700003187A1A3F2A7A16AA01AA0A532A3708B9
:10048000B300B40124083402031D482A23083302B0
:1004900003187A1E532A0A30AA0A2A02031C532A76
:1004A0000A307B14AA003708B300B40124083402D0
:1004B000031D5C2A230833020318672A2A0803193C
:1004C000672A0230AA032A02031CAA017B143708F8
:1004D000B300B40124083402031D702A2308330238
:1004E000360803187B2A200203187A2AAA08031D5B
:1004F0007A2A7B1036082002031C812AFA147B1406
:10050000822AFA1020080319982A2325FA1C8C2A1B
:100510008312031305168F2A8312031305127B1C03
:10052000952A831203138616982A831203138612C0
:1005300037268519D42A0430121183168C108312A1
:10054000B5000C30B4003530B300B30BA52AB40BA2
:10055000A52AB50BA52AAC2A831203138519D32A21
:10056000C5240430B5000C30B4003530B300B30BF3
:10057000B72AB40BB72AB50BB72ABE2A04308312A8
:100580000313B5000C30B4003530B300B30BC62AEA
:10059000B40BC62AB50BC62ACD2A0B20831220081D
:1005A0000319D32A232537260518202A04301211CF
:1005B00083168C108312B5000C30B4003530B300B4
:1005C000B30BE02AB40BE02AB50BE02AE72A83122A
:1005D000031305181F2AED221F2AB201B20A7A104E
:1005E0006B260030AF262A30BB2633305B260A301C
:1005F000F9003608E6254130AF260B305B264E3039
:10060000F9003708E6257A18762B0518412B0430B7
:10061000B1000C30B0003530AF00AF0B0D2BB00B7C
:100620000D2BB10B0D2B142B83120313051C392B2F
:10063000412B4030AF262030BB260030AF262A3079
:10064000BB26B201B20A412B0030AF262030BB26B8
:100650004030AF262A30BB260230B200412B00309A
:10066000AF265830BB264030AF265830BB26B201EB
:10067000412B7E230318412B00308A0001300407F0
:1006800082008519032B0430B1000C30B0003530E6
:10069000AF00AF0B492BB00B492BB10B492B502BA3
:1006A00083120313851D6D2B032B6B2650305B26A5
:1006B0007A14032B6030B60A3602031C612B2330F8
:1006C000B6000A30F9003608022B5B30B70A370251
:1006D000031CFF2A0530B700FF2A7E230318032BD3
:1006E00006308A00BF3004078200032B8726C5240A
:1006F0000B208312200803190800232D32088400E0
:10070000033004020800831603138C1083121211A5
:100710000B12A001A101A2017A11A9014E3083168A
:100720000614061083120610F300EB30F200F20BF1
:10073000972BF30B972B2730831603130614831282
:100740000614F200F20BA22BA52B8316031306143A
:1007500001130B167A190800FA1DE72B0B128312EE
:100760002908023A8316031901170330831229025C
:10077000031CC52B0C3029020318C52B3330031082
:10078000A00D2B0203182014B62613308312290261
:10079000031CD52B1C3029020318D52B3330031032
:1007A000A10D2B0203182114B6262330831229022F
:1007B000031CE52B2C3029020318E52B33300310E2
:1007C000A20D2B0203182214B626FA110B162B3099
:1007D00083122902031CAA2B0B127A152008210769
:1007E000F200F301F30D22067304031DAA2B220865
:1007F0000319AA2BA901FA17AA2BF3002730F2003C
:10080000F20B002C032C7308F20004300310F20CDE
:10081000FF3E031D062C721C112C83120313861439
:10082000142C8312031386107308F2000530031092
:10083000F20CFF3E031D172C721C202C0615212CD8
:1008400006117308F20006300310F20CFF3E031D80
:10085000242C721C2D2C86152E2C86117308F20068
:1008600007300310F20CFF3E031D312C721C3A2C92
:1008700006163B2C061205150511731C412C861417
:10088000422C86107308F2000310F20C721C4A2CE2
:1008900006154B2C06115C24721C502C8615512C0D
:1008A00086115C240310F20C721C582C0616592C6D
:1008B00006120515051108007308F2000310F20C6A
:1008C0000310F20C080004308A000408840A82072E
:1008D0000034303431343234333434343534363413
:1008E000373438343934523461346E3467346534D3
:1008F0002034543472346934673420343D34203425
:1009000000342B34333437343534323439343734DB
:1009100032343534313432343134343400344534C3
:10092000723472346F3472342C3420346334613452
:100930006C346C3400345234483454347234693476
:10094000673420343D3420340034523461346E3402
:10095000673465342C34203463346D3400345234BD
:100960004834543472346934673420343D340034AC
:1009700045345834493454340034543465346D3477
:100980007034003452344834003483121211831608
:100990008C108312A701A8010930831686138312D5
:1009A00086138617AD00AD0BD32CD62C6330831283
:1009B00003138613831686138312AD00AD0BDE2C52
:1009C000E12C8B157A137A1BEA2CFA1EE32C942661
:1009D000FA12E32C83120313101083160C108312E7
:1009E0000F08A700A8012708A800A7010E08A70460
:1009F0006B260030AF26AE30F200F3012808F50078
:100A00002708F40099257308A4007208A300023097
:100A1000A3070318A40A3D305B260030240264308B
:100A200003192302403003181B2DF9002308E62583
:100A30002030BB261C2DAF263130BB264130F900BB
:100A400023089C3EE62D6B260030AF265A305B26ED
:100A50000630AF2655305B264030F9002008E625E9
:100A60004630F9002108E6254830AF26DF30BB26A6
:100A70004330BB260D30AF265630BB260F30AF2695
:100A80005430BB264D30AF26FA18482D5F30492D23
:100A90002A30BB263708AD00AE0124082E02031D04
:100AA000532D23082D02031C572D7C30BB264F30BD
:100AB000AF267B185D2D5F30BB2E2A30BB2E3B301E
:100AC00085100511F7006F30F600F60B652DF70B5A
:100AD000652D6A2D14308312031386148E25F700BA
:100AE0007930F600F60B722DF70B722D772DC7308B
:100AF0009425F600F60B7A2D7D2DC7309425F6004F
:100B0000F60B802D832D28308312031386108E253B
:100B1000FD230C30FD236B260630FD2B06158611B8
:100B2000061205150511080083120313051505119A
:100B30000800F601F701730872040319BE2DF801CD
:100B4000F80AF31BA72D0310F20DF30DA02D0310CF
:100B5000F60DF70D73087502031DB02D72087402AF
:100B6000031CBA2D7208F4027308031CF503F50286
:100B700076140310F30CF20CF80BA72D7708F30092
:100B80007608F2000800831203138B1CCE2D010897
:100B9000AB00A90AFA158B10831203130B1CD82D76
:100BA000061F7A17061FD52DFA160B108312031392
:100BB0008C1CDF2DA50A0319A60A91018C1071085F
:100BC0008A00700E8300FE0E7E0E0900AC007908CC
:100BD000AF2664302C02031808007908AF260A30CB
:100BE000F2002C080426013E84006324BB26F63064
:100BF000F6000A30F2002C0804267926AC072C08EF
:100C0000013E84006324BB2EF300F5017208031932
:100C10001D2EF401F40AF21B102E0310F20D0A2E01
:100C20000310F50D72087302031C1A2E7208F302EA
:100C300075140310F20CF40B102E75080800F30065
:100C400083169C18202E73089B0072089A003F3070
:100C50009C0503108B1B031455308B131C159D0032
:100C6000AA309D009C141C1103188B1708009101D9
:100C7000FF30831692008312A501A601121492146C
:100C8000921612161217921583168C1483121215CF
:100C90000800F2006400831603139C184A2E7208A1
:100CA0009B003F309C051C1403101C1803140318F0
:100CB00001301A080800F400831203138514740825
:100CC0008400632400380319080074088400632436
:100CD000FD23F40A5F2E013083128510FD230830B6
:100CE000F500C930F400F40B732EF50B732E782E3B
:100CF0000800F800F70176087818F7070310F60DDA
:100D00000310F80CF808031D7B2E770808008316E3
:100D10008C10831212113608F20004301F26831241
:100D20003708F20005301F2E8312031390121012A1
:100D30009011901010148F018E0108002030FA01DC
:100D4000FB01831384002C30A7268301DA29640079
:100D50008001840A0406031900340406A82EF40056
:100D60008312031385107408803EFD2B810191309E
:100D7000831681000800F40085147408FD2B552BA0
:040D80005A2B652B5A
:02400E004AFF67
:00000001FF
