HI-TECH Software C Compiler 

Linker command line:

--edf=C:\Program Files\HI-TECH Software\PICC\9.71a\dat\en_msgs.txt -cs \
  -h+usart_test.sym -z -Q16F877A -ol.obj -Musart_test.map -E1 \
  -ACONST=00h-0FFhx32 -ACODE=00h-07FFhx4 -ASTRCODE=00h-01FFFh \
  -AENTRY=00h-0FFhx32 -ASTRING=00h-0FFhx32 -ABANK0=020h-06Fh \
  -ABANK1=0A0h-0EFh -ABANK2=0110h-016Fh -ABANK3=0190h-01EFh \
  -ARAM=020h-06Fh,0A0h-0EFh,0110h-016Fh,0190h-01EFh \
  -AABS1=020h-07Fh,0A0h-0EFh,0110h-016Fh,0190h-01EFh -ACOMMON=070h-07Fh \
  -ASFR0=00h-01Fh -ASFR1=080h-09Fh -ASFR2=0100h-010Fh -ASFR3=0180h-018Fh \
  -preset_vec=00h,intentry=04h,init,end_init -ppowerup=CODE -pfunctab=CODE \
  -ACONFIG=02007h-02007h -pconfig=CONFIG -DCONFIG=2 -AIDLOC=02000h-02003h \
  -pidloc=IDLOC -DIDLOC=2 -AEEDATA=00h-0FFh/02100h -peeprom_data=EEDATA \
  -DEEDATA=2 -DCODE=2 -DSTRCODE=2 -DSTRING=2 -DCONST=2 -DENTRY=2 -k \
  startup.obj usart_test.obj 

Object code version is 3.10

Machine type is 16F877A



                Name                               Link     Load   Length Selector   Space Scale
startup.obj     end_init                              C        C        3        8       0
                reset_vec                             0        0        3        0       0
usart_test.obj  intentry                              4        4        8        8       0
                config                             2007     2007        1     400E       0
                text1255                            EAE      EAE       1B     1D5C       0
                text1254                            E9A      E9A        9     1D34       0
                text1220                              F        F      7F1        8       0
                text1216                            EC9      EC9       61     1D92       0
                maintext                            F2A      F2A       D6     1E54       0
                cstackBANK0                          20       20       1D       20       1
                cstackCOMMON                         70       70        A       70       1
                dataBANK0                            40       40        1       20       1
                bssBANK0                             3D       3D        3       20       1
                bssCOMMON                            7B       7B        1       70       1
                bitbssCOMMON                        3D0       7A        2       70       1     8
                cinit                               EA3      EA3        B     1D46       0
                stringtext                         1000     1000      147       20       0

TOTAL           Name                               Link     Load   Length     Space
        CLASS   CONST          

        CLASS   CODE           
                end_init                              C        C        3         0
                intentry                              4        4        8         0
                reset_vec                             0        0        3         0
                text1255                            EAE      EAE       1B         0
                text1254                            E9A      E9A        9         0
                text1220                              F        F      7F1         0
                text1216                            EC9      EC9       61         0
                maintext                            F2A      F2A       D6         0
                cinit                               EA3      EA3        B         0

        CLASS   STRCODE        
                stringtext                         1000     1000      147         0

        CLASS   ENTRY          

        CLASS   STRING         

        CLASS   BANK0          
                cstackBANK0                          20       20       1D         1
                dataBANK0                            40       40        1         1
                bssBANK0                             3D       3D        3         1

        CLASS   BANK1          

        CLASS   BANK2          

        CLASS   BANK3          

        CLASS   RAM            

        CLASS   ABS1           
                abs_s1                               7E       7E        2         1

        CLASS   COMMON         
                cstackCOMMON                         70       70        A         1
                bssCOMMON                            7B       7B        1         1
                bitbssCOMMON                        3D0       7A        2         1

        CLASS   SFR0           

        CLASS   SFR1           

        CLASS   SFR2           

        CLASS   SFR3           

        CLASS   CONFIG         
                config                             2007     2007        1         0

        CLASS   IDLOC          

        CLASS   EEDATA         



SEGMENTS        Name                           Load    Length   Top    Selector   Space  Class     Delta

                reset_vec                      000000  000003  000003         0       0  CODE        2
                intentry                       000004  0007FC  000800         8       0  CODE        2
                cstackBANK0                    000020  000021  000041        20       1  BANK0       1
                cstackCOMMON                   000070  00000C  00007C        70       1  COMMON      1
                text1254                       000E9A  000009  000EA3      1D34       0  CODE        2
                cinit                          000EA3  00000B  000EAE      1D46       0  CODE        2
                text1255                       000EAE  00001B  000EC9      1D5C       0  CODE        2
                text1216                       000EC9  000061  000F2A      1D92       0  CODE        2
                maintext                       000F2A  0000D6  001000      1E54       0  CODE        2
                stringtext                     001000  000147  001147        20       0  STRCODE     2
                config                         002007  000001  002008      400E       0  CONFIG      2


UNUSED ADDRESS RANGES

        Name                Unused          Largest block    Delta
        BANK0            0041-006F             2F           1
        BANK1            00A0-00EF             50           1
        BANK2            0110-016F             60           1
        BANK3            0190-01EF             60           1
        CODE             0003-0003              1           2
                         0800-0E99            69A
                         1147-1FFF            6B9
        COMMON           007C-007D              2           1
        CONST            0003-0003              1           2
                         0800-0E99            100
                         1147-1FFF            100
        EEDATA           2100-21FF            100           2
        ENTRY            0003-0003              1           2
                         0800-0E99            100
                         1147-1FFF            100
        IDLOC            2000-2003              4           2
        RAM              0041-006F             2F           1
                         00A0-00EF             50
                         0110-016F             60
                         0190-01EF             60
        SFR0             0000-001F             20           1
        SFR1             0080-009F             20           1
        SFR2             0100-010F             10           1
        SFR3             0180-018F             10           1
        STRCODE          0003-0003              1           2
                         0800-0E99            69A
                         1147-1FFF            EB9
        STRING           0003-0003              1           2
                         0800-0E99            100
                         1147-1FFF            100

                                  Symbol Table

??_BCDconv            cstackCOMMON 0072
??_DCBconv            cstackCOMMON 0079
??_I2CInit            cstackCOMMON 0072
??_I2CNak             cstackCOMMON 0072
??_I2CRead            cstackCOMMON 0072
??_I2CRestart         cstackCOMMON 0072
??_I2CSend            cstackCOMMON 0072
??_I2CStart           cstackCOMMON 0072
??_I2CStop            cstackCOMMON 0072
??_I2CWait            cstackCOMMON 0072
??_INIT               cstackCOMMON 0072
??_RX                 cstackCOMMON 0072
??_ReadHour           cstackCOMMON 007A
??_ReadMin            cstackCOMMON 007A
??_ReadSeconds        cstackCOMMON 007A
??_SetHour            cstackCOMMON 007A
??_SetMin             cstackCOMMON 007A
??_SetSeconds         cstackCOMMON 007A
??_SetupTime          cstackBANK0  0033
??_ShowTime           cstackCOMMON 007A
??_TX                 cstackCOMMON 0072
??___awdiv            cstackCOMMON 0078
??___bmul             cstackCOMMON 0077
??___lbdiv            cstackCOMMON 0073
??___lwdiv            cstackCOMMON 0076
??___lwmod            cstackCOMMON 0079
??___wmul             cstackCOMMON 0076
??_display_tt         cstackBANK0  0036
??_get_temp           cstackBANK0  0032
??_getch              cstackCOMMON 0072
??_isr                cstackCOMMON 0070
??_lcd_clear          cstackCOMMON 0074
??_lcd_goto           cstackCOMMON 0074
??_lcd_init           cstackCOMMON 0076
??_lcd_putch          cstackCOMMON 0074
??_lcd_puts           cstackCOMMON 0076
??_lcd_write          cstackCOMMON 0072
??_main               cstackBANK0  0038
??_menu               cstackCOMMON 0076
??_printTemp          cstackBANK0  0036
??_printf             cstackBANK0  0028
??_putch              cstackCOMMON 0072
?_BCDconv             cstackCOMMON 0070
?_DCBconv             cstackCOMMON 0070
?_I2CInit             cstackCOMMON 0070
?_I2CNak              cstackCOMMON 0070
?_I2CRead             cstackCOMMON 0070
?_I2CRestart          cstackCOMMON 0070
?_I2CSend             cstackCOMMON 0070
?_I2CStart            cstackCOMMON 0070
?_I2CStop             cstackCOMMON 0070
?_I2CWait             cstackCOMMON 0070
?_INIT                cstackCOMMON 0070
?_RX                  cstackCOMMON 0070
?_ReadHour            cstackCOMMON 0070
?_ReadMin             cstackCOMMON 0070
?_ReadSeconds         cstackCOMMON 0070
?_SetHour             cstackCOMMON 0070
?_SetMin              cstackCOMMON 0070
?_SetSeconds          cstackCOMMON 0070
?_SetupTime           cstackCOMMON 0070
?_ShowTime            cstackCOMMON 0070
?_TX                  cstackCOMMON 0070
?___awdiv             cstackBANK0  0020
?___bmul              cstackCOMMON 0076
?___lbdiv             cstackCOMMON 0072
?___lwdiv             cstackCOMMON 0072
?___lwmod             cstackBANK0  0020
?___wmul              cstackCOMMON 0072
?_display_tt          cstackCOMMON 0070
?_get_temp            cstackCOMMON 0070
?_getch               cstackCOMMON 0070
?_isr                 cstackCOMMON 0070
?_lcd_clear           cstackCOMMON 0070
?_lcd_goto            cstackCOMMON 0070
?_lcd_init            cstackCOMMON 0070
?_lcd_putch           cstackCOMMON 0070
?_lcd_puts            cstackCOMMON 0074
?_lcd_write           cstackCOMMON 0070
?_main                cstackCOMMON 0070
?_menu                cstackCOMMON 0070
?_printTemp           cstackCOMMON 0070
?_printf              cstackBANK0  0024
?_putch               cstackCOMMON 0070
BCDconv@source        cstackCOMMON 0074
BCDconv@temp_maj      cstackCOMMON 0073
BCDconv@temp_min      cstackCOMMON 0072
DCBconv@source        cstackBANK0  0021
DCBconv@temp_maj      cstackBANK0  0022
DCBconv@temp_min      cstackBANK0  0020
I2CRead@temp          cstackCOMMON 0072
I2CSend@dat           cstackCOMMON 0072
INIT@b                bitbssCOMMON 03D0
RX@d                  cstackCOMMON 0073
RX@i                  cstackCOMMON 0074
ReadHour@temp         cstackBANK0  0032
ReadMin@temp          cstackBANK0  0032
ReadSeconds@temp      cstackBANK0  0032
SetHour@hours         cstackBANK0  0023
SetMin@minutes        cstackBANK0  0023
SetSeconds@seconds    cstackBANK0  0023
SetupTime@state       cstackBANK0  0034
SetupTime@temp        cstackBANK0  0037
SetupTime@temp_maj    cstackBANK0  0036
SetupTime@temp_min    cstackBANK0  0035
TX@cmd                cstackCOMMON 0073
TX@i                  cstackCOMMON 0075
TX@temp               cstackCOMMON 0074
_ACKDT                (abs)        048D
_ACKEN                (abs)        048C
_BCDconv              text1220     061A
_BF                   (abs)        04A0
_DCBconv              text1220     023B
_GIE                  (abs)        005F
_I2CInit              text1254     0E9A
_I2CNak               text1220     05E3
_I2CRead              text1220     05E9
_I2CRestart           text1220     05DF
_I2CSend              text1220     05D2
_I2CStart             text1220     05DA
_I2CStop              text1220     062B
_I2CWait              text1220     05F2
_INIT                 text1220     06ED
_PEIE                 (abs)        005E
_PEN                  (abs)        048A
_PR2                  (abs)        0092
_RC0                  (abs)        0038
_RCEN                 (abs)        048B
_RCIF                 (abs)        0065
_RCREG                (abs)        001A
_RCSTA                (abs)        0018
_RD2                  (abs)        0042
_RD3                  (abs)        0043
_RD4                  (abs)        0044
_RD5                  (abs)        0045
_RD6                  (abs)        0046
_RD7                  (abs)        0047
_RSEN                 (abs)        0489
_RX                   text1220     070B
_ReadHour             text1220     05B2
_ReadMin              text1220     05FA
_ReadSeconds          text1220     0252
_SEN                  (abs)        0488
_SPBRG                (abs)        0099
_SSPADD               (abs)        0093
_SSPBUF               (abs)        0013
_SSPCON               (abs)        0014
_SSPCON2              (abs)        0091
_SSPSTAT              (abs)        0094
_SetHour              text1220     0786
_SetMin               text1220     0226
_SetSeconds           text1220     079B
_SetupTime            text1220     0052
_ShowTime             text1220     07B0
_T2CKPS0              (abs)        0090
_T2CKPS1              (abs)        0091
_TMR2                 (abs)        0011
_TMR2IE               (abs)        0461
_TMR2IF               (abs)        0061
_TMR2ON               (abs)        0092
_TOUTPS0              (abs)        0093
_TOUTPS1              (abs)        0094
_TOUTPS2              (abs)        0095
_TOUTPS3              (abs)        0096
_TRISB                (abs)        0086
_TRISC0               (abs)        0438
_TRISC3               (abs)        043B
_TRISC4               (abs)        043C
_TRISC6               (abs)        043E
_TRISC7               (abs)        043F
_TRISD                (abs)        0088
_TX                   text1220     06C8
_TXIF                 (abs)        0064
_TXREG                (abs)        0019
_TXSTA                (abs)        0098
__Habs1               abs1         0000
__Hbank0              bank0        0000
__Hbank1              bank1        0000
__Hbank2              bank2        0000
__Hbank3              bank3        0000
__HbitbssCOMMON       bitbssCOMMON 0000
__HbssBANK0           bssBANK0     0000
__HbssCOMMON          bssCOMMON    0000
__Hcinit              cinit        0000
__Hclrtext            clrtext      0000
__Hcode               code         0000
__Hcommon             common       0000
__Hconfig             config       2008
__HcstackBANK0        cstackBANK0  0000
__HcstackCOMMON       cstackCOMMON 0000
__HdataBANK0          dataBANK0    0000
__Heeprom_data        eeprom_data  0000
__Hend_init           end_init     000F
__Hfunctab            functab      0000
__HidataBANK0         idataBANK0   0000
__Hidloc              idloc        0000
__Hinit               init         000C
__Hintentry           intentry     000C
__Hmaintext           maintext     0000
__Hpa_nodes           pa_nodes     0000
__Hpowerup            powerup      0000
__Hram                ram          0000
__Hreset_vec          reset_vec    0003
__Hsfr0               sfr0         0000
__Hsfr1               sfr1         0000
__Hsfr2               sfr2         0000
__Hsfr3               sfr3         0000
__Hstrings            strings      0000
__Hstringtext         stringtext   0000
__Htext               text         0000
__Labs1               abs1         0000
__Lbank0              bank0        0000
__Lbank1              bank1        0000
__Lbank2              bank2        0000
__Lbank3              bank3        0000
__LbitbssCOMMON       bitbssCOMMON 0000
__LbssBANK0           bssBANK0     0000
__LbssCOMMON          bssCOMMON    0000
__Lcinit              cinit        0000
__Lclrtext            clrtext      0000
__Lcode               code         0000
__Lcommon             common       0000
__Lconfig             config       2007
__LcstackBANK0        cstackBANK0  0000
__LcstackCOMMON       cstackCOMMON 0000
__LdataBANK0          dataBANK0    0000
__Leeprom_data        eeprom_data  0000
__Lend_init           end_init     000C
__Lfunctab            functab      0000
__LidataBANK0         idataBANK0   0000
__Lidloc              idloc        0000
__Linit               init         000C
__Lintentry           intentry     0004
__Lmaintext           maintext     0000
__Lpa_nodes           pa_nodes     0000
__Lpowerup            powerup      0000
__Lram                ram          0000
__Lreset_vec          reset_vec    0000
__Lsfr0               sfr0         0000
__Lsfr1               sfr1         0000
__Lsfr2               sfr2         0000
__Lsfr3               sfr3         0000
__Lstrings            strings      0000
__Lstringtext         stringtext   0000
__Ltext               text         0000
__S0                  (abs)        2008
__S1                  (abs)        007C
__S2                  (abs)        0000
___awdiv              text1220     0741
___awdiv@counter      cstackBANK0  0024
___awdiv@dividend     cstackBANK0  0022
___awdiv@divisor      cstackBANK0  0020
___awdiv@quotient     cstackBANK0  0026
___awdiv@sign         cstackBANK0  0025
___bmul               text1220     0594
___bmul@multiplicand  cstackCOMMON 0076
___bmul@multiplier    cstackCOMMON 0078
___bmul@product       cstackCOMMON 0077
___lbdiv              text1220     0513
___lbdiv@counter      cstackCOMMON 0074
___lbdiv@dividend     cstackCOMMON 0073
___lbdiv@divisor      cstackCOMMON 0072
___lbdiv@quotient     cstackCOMMON 0075
___lwdiv              text1220     01D8
___lwdiv@counter      cstackCOMMON 0078
___lwdiv@dividend     cstackCOMMON 0074
___lwdiv@divisor      cstackCOMMON 0072
___lwdiv@quotient     cstackCOMMON 0076
___lwmod              text1220     0202
___lwmod@counter      cstackCOMMON 0079
___lwmod@dividend     cstackBANK0  0022
___lwmod@divisor      cstackBANK0  0020
___wmul               text1220     0728
___wmul@multiplicand  cstackCOMMON 0074
___wmul@multiplier    cstackCOMMON 0072
___wmul@product       cstackCOMMON 0076
__end_of_BCDconv      text1220     062B
__end_of_DCBconv      text1220     0252
__end_of_I2CInit      text1254     0EA3
__end_of_I2CNak       text1220     05E9
__end_of_I2CRead      text1220     05F2
__end_of_I2CRestart   text1220     05E3
__end_of_I2CSend      text1220     05DA
__end_of_I2CStart     text1220     05DF
__end_of_I2CStop      text1220     062F
__end_of_I2CWait      text1220     05FA
__end_of_INIT         text1220     070B
__end_of_RX           text1220     0728
__end_of_ReadHour     text1220     05D2
__end_of_ReadMin      text1220     061A
__end_of_ReadSeconds  text1220     0272
__end_of_SetHour      text1220     079B
__end_of_SetMin       text1220     023B
__end_of_SetSeconds   text1220     07B0
__end_of_SetupTime    text1220     012A
__end_of_ShowTime     text1220     07EE
__end_of_TX           text1220     06ED
__end_of___awdiv      text1220     0786
__end_of___bmul       text1220     05A2
__end_of___lbdiv      text1220     052E
__end_of___lwdiv      text1220     0202
__end_of___lwmod      text1220     0226
__end_of___wmul       text1220     0741
__end_of_display_tt   text1220     050F
__end_of_get_temp     text1220     06C8
__end_of_getch        text1220     012E
__end_of_isr          text1255     0EC9
__end_of_lcd_clear    text1220     05B2
__end_of_lcd_goto     text1220     02CC
__end_of_lcd_init     text1220     0052
__end_of_lcd_putch    text1220     0513
__end_of_lcd_puts     text1220     0448
__end_of_lcd_write    text1220     0594
__end_of_main         maintext     1000
__end_of_menu         text1220     02C6
__end_of_printTemp    text1216     0F2A
__end_of_printf       text1220     01D2
__end_of_putch        text1220     01D8
__pbitbssCOMMON       bitbssCOMMON 03D0
__pbssBANK0           bssBANK0     003D
__pbssCOMMON          bssCOMMON    007B
__pcstackBANK0        cstackBANK0  0020
__pcstackCOMMON       cstackCOMMON 0070
__pdataBANK0          dataBANK0    0040
__pidataBANK0         idataBANK0   0000
__pintentry           intentry     0004
__pmaintext           maintext     0F2A
__pstringtext         stringtext   1000
__ptext1215           text1220     0052
__ptext1216           text1216     0EC9
__ptext1217           text1220     07B0
__ptext1218           text1220     0448
__ptext1219           text1220     0272
__ptext1220           text1220     000F
__ptext1221           text1220     079B
__ptext1222           text1220     0786
__ptext1223           text1220     0226
__ptext1224           text1220     02CC
__ptext1225           text1220     050F
__ptext1226           text1220     02C6
__ptext1227           text1220     05A2
__ptext1228           text1220     062F
__ptext1229           text1220     0252
__ptext1230           text1220     05FA
__ptext1231           text1220     05B2
__ptext1232           text1220     05E9
__ptext1233           text1220     05D2
__ptext1234           text1220     023B
__ptext1235           text1220     052E
__ptext1236           text1220     070B
__ptext1237           text1220     06C8
__ptext1238           text1220     06ED
__ptext1239           text1220     012E
__ptext1240           text1220     0741
__ptext1241           text1220     0513
__ptext1242           text1220     0202
__ptext1243           text1220     01D8
__ptext1244           text1220     0728
__ptext1245           text1220     0594
__ptext1246           text1220     05F2
__ptext1247           text1220     05E3
__ptext1248           text1220     05DF
__ptext1249           text1220     062B
__ptext1250           text1220     05DA
__ptext1251           text1220     061A
__ptext1252           text1220     012A
__ptext1253           text1220     01D2
__ptext1254           text1254     0E9A
__ptext1255           text1255     0EAE
__ptext1256           text1256     0000
__size_of_BCDconv     (abs)        0000
__size_of_DCBconv     (abs)        0000
__size_of_I2CInit     (abs)        0000
__size_of_I2CNak      (abs)        0000
__size_of_I2CRead     (abs)        0000
__size_of_I2CRestart  (abs)        0000
__size_of_I2CSend     (abs)        0000
__size_of_I2CStart    (abs)        0000
__size_of_I2CStop     (abs)        0000
__size_of_I2CWait     (abs)        0000
__size_of_INIT        (abs)        0000
__size_of_RX          (abs)        0000
__size_of_ReadHour    (abs)        0000
__size_of_ReadMin     (abs)        0000
__size_of_ReadSeconds (abs)        0000
__size_of_SetHour     (abs)        0000
__size_of_SetMin      (abs)        0000
__size_of_SetSeconds  (abs)        0000
__size_of_SetupTime   (abs)        0000
__size_of_ShowTime    (abs)        0000
__size_of_TX          (abs)        0000
__size_of___awdiv     (abs)        0000
__size_of___bmul      (abs)        0000
__size_of___lbdiv     (abs)        0000
__size_of___lwdiv     (abs)        0000
__size_of___lwmod     (abs)        0000
__size_of___wmul      (abs)        0000
__size_of_display_tt  (abs)        0000
__size_of_get_temp    (abs)        0000
__size_of_getch       (abs)        0000
__size_of_isr         (abs)        0000
__size_of_lcd_clear   (abs)        0000
__size_of_lcd_goto    (abs)        0000
__size_of_lcd_init    (abs)        0000
__size_of_lcd_putch   (abs)        0000
__size_of_lcd_puts    (abs)        0000
__size_of_lcd_write   (abs)        0000
__size_of_main        (abs)        0000
__size_of_menu        (abs)        0000
__size_of_printTemp   (abs)        0000
__size_of_printf      (abs)        0000
__size_of_putch       (abs)        0000
_digits               stringtext   1012
_display_tt           text1220     0448
_dpowers              stringtext   101C
_exit                 init         000C
_flag                 bssBANK0     003D
_get_temp             text1220     062F
_getch                text1220     012A
_isr                  text1255     0EAE
_lcd_clear            text1220     05A2
_lcd_goto             text1220     02C6
_lcd_init             text1220     000F
_lcd_putch            text1220     050F
_lcd_puts             text1220     02CC
_lcd_write            text1220     052E
_main                 maintext     0F2A
_menu                 text1220     0272
_printTemp            text1216     0EC9
_printf               text1220     012E
_putch                text1220     01D2
_sign                 bssBANK0     003E
_temp_drob            bssBANK0     003F
_temperature          dataBANK0    0040
_update               bssCOMMON    007B
btemp                 (abs)        007E
display_tt@d          cstackBANK0  0037
end_of_initialization cinit        0EAA
get_temp@init         bitbssCOMMON 03D1
get_temp@temp1        cstackBANK0  0034
get_temp@temp2        cstackBANK0  0035
i1l4840                                
i1l4844                                
i1l4848                                
i1l4852                                
i1l4854                                
i1l4856                                
i1l4858                                
i1l4860                                
i1l4862                                
i1l4864                                
interrupt_function    intentry     0004
intlevel0             functab      0000
intlevel1             functab      0000
intlevel2             functab      0000
intlevel3             functab      0000
intlevel4             functab      0000
intlevel5             functab      0000
l1260                                  
l1266                                  
l1844                                  
l1847                                  
l1850                                  
l1853                                  
l1856                                  
l1859                                  
l1862                                  
l1865                                  
l1868                                  
l1886                                  
l2445                                  
l2451                                  
l2457                                  
l2463                                  
l2475                                  
l2481                                  
l2487                                  
l2493                                  
l3070                                  
l3073                                  
l3079                                  
l3082                                  
l3085                                  
l3088                                  
l3125                                  
l3131                                  
l3141                                  
l3151                                  
l3161                                  
l3278                                  
l4836                                  
l4838                                  
l4866                                  
l4870                                  
l4876                                  
l4878                                  
l4880                                  
l4882                                  
l4884                                  
l4886                                  
l4894                                  
l4896                                  
l4920                                  
l4928                                  
l4930                                  
l4936                                  
l4938                                  
l4948                                  
l4952                                  
l4956                                  
l4962                                  
l4976                                  
l5104                                  
l5106                                  
l5108                                  
l5110                                  
l5112                                  
l5120                                  
l5122                                  
l5124                                  
l5130                                  
l5132                                  
l5134                                  
l5136                                  
l5140                                  
l5142                                  
l5144                                  
l5154                                  
l5156                                  
l5162                                  
l5164                                  
l5330                                  
l5332                                  
l5334                                  
l5336                                  
l5338                                  
l5340                                  
l5342                                  
l5348                                  
l5382                                  
l5384                                  
l5386                                  
l5388                                  
l5390                                  
l5392                                  
l5394                                  
l5396                                  
l5398                                  
l5400                                  
l5402                                  
l5404                                  
l5406                                  
l5408                                  
l5410                                  
l5412                                  
l5414                                  
l5416                                  
l5418                                  
l5420                                  
l5422                                  
l5424                                  
l5426                                  
l5428                                  
l5430                                  
l5434                                  
l5436                                  
l5438                                  
l5440                                  
l5442                                  
l5444                                  
l5448                                  
l5450                                  
l5452                                  
l5454                                  
l5456                                  
l5458                                  
l5462                                  
l5464                                  
l5466                                  
l5468                                  
l5470                                  
l5472                                  
l5476                                  
l5478                                  
l5480                                  
l5482                                  
l5484                                  
l5486                                  
l5490                                  
l5492                                  
l5494                                  
l5496                                  
l5498                                  
l5500                                  
l5504                                  
l5506                                  
l5508                                  
l5510                                  
l5512                                  
l5514                                  
l5518                                  
l5520                                  
l5522                                  
l5524                                  
l5526                                  
l5528                                  
l5532                                  
l5534                                  
l5536                                  
l5538                                  
l5540                                  
l5542                                  
l5546                                  
l5548                                  
l5550                                  
l5552                                  
l5554                                  
l5556                                  
l5560                                  
l5562                                  
l5564                                  
l5566                                  
l5568                                  
l5570                                  
l5872                                  
l5876                                  
l5882                                  
l5890                                  
l5892                                  
l5898                                  
l5900                                  
l5902                                  
l5908                                  
l5912                                  
l5916                                  
l5922                                  
l5924                                  
l5928                                  
l5934                                  
l5938                                  
l5948                                  
l5952                                  
l5956                                  
l5960                                  
l5976                                  
l5986                                  
l5988                                  
l5992                                  
l6004                                  
l6014                                  
l6020                                  
l6022                                  
l6024                                  
l6026                                  
l6028                                  
l6032                                  
l6036                                  
l6040                                  
l6042                                  
l6046                                  
l6048                                  
l6050                                  
l6052                                  
l6054                                  
l6056                                  
l6058                                  
l6060                                  
l6062                                  
l6064                                  
l6068                                  
l6070                                  
l6072                                  
l6074                                  
l6076                                  
l6078                                  
l6080                                  
l6082                                  
l6084                                  
l6086                                  
l6090                                  
l6092                                  
l6094                                  
l6096                                  
l6098                                  
l6100                                  
l6102                                  
l6104                                  
l6106                                  
l6108                                  
l6112                                  
l6114                                  
l6118                                  
l6120                                  
l6122                                  
l6124                                  
l6126                                  
l6132                                  
l6138                                  
l6140                                  
l6142                                  
l6144                                  
l6146                                  
l6148                                  
l6150                                  
l6152                                  
l6156                                  
l6158                                  
l6160                                  
l6162                                  
l6164                                  
l6166                                  
l6168                                  
l6170                                  
l6172                                  
l6174                                  
l6176                                  
l6178                                  
l6180                                  
l6182                                  
l6184                                  
l6186                                  
l6188                                  
l6190                                  
l6192                                  
l6194                                  
l6196                                  
l6198                                  
l6200                                  
l6202                                  
l6204                                  
l6206                                  
l6208                                  
l6210                                  
l6212                                  
l6214                                  
l6216                                  
l6218                                  
l6220                                  
l6226                                  
l6228                                  
l6230                                  
l6232                                  
l6234                                  
l6236                                  
l6238                                  
l6240                                  
l6244                                  
l6246                                  
l6250                                  
l6256                                  
l6260                                  
l6262                                  
l6268                                  
l6270                                  
l6272                                  
l6276                                  
l6278                                  
l6280                                  
l6282                                  
l6284                                  
l6288                                  
l6290                                  
l6294                                  
l6300                                  
l6302                                  
l6304                                  
l6306                                  
l6308                                  
l6312                                  
l6314                                  
l6318                                  
l6324                                  
l6326                                  
l6328                                  
l6330                                  
l6332                                  
l6336                                  
l6338                                  
l6342                                  
l6348                                  
l6350                                  
l6352                                  
l6354                                  
l6356                                  
l6358                                  
l6360                                  
l6362                                  
l6364                                  
l6366                                  
l6368                                  
l6370                                  
l6372                                  
l6374                                  
l6376                                  
l6378                                  
l6380                                  
l6382                                  
l6384                                  
l6386                                  
l6388                                  
l639                                   
l6390                                  
l6396                                  
l6398                                  
l6400                                  
l6402                                  
l6408                                  
l6410                                  
l6418                                  
l6420                                  
l6428                                  
l6430                                  
l645                                   
l666                                   
l671                                   
lcd_goto@pos          cstackCOMMON 0074
lcd_putch@c           cstackCOMMON 0074
lcd_puts@s            cstackCOMMON 0074
lcd_write@c           cstackCOMMON 0073
main@input            cstackBANK0  003A
main@temp             cstackBANK0  003C
menu@i                cstackCOMMON 0077
printf@_val           cstackBANK0  002D
printf@ap             cstackBANK0  002C
printf@c              cstackBANK0  0031
printf@f              cstackBANK0  0024
printf@flag           cstackBANK0  002A
printf@prec           cstackBANK0  002B
putch@byte            cstackCOMMON 0072
reset_vec             reset_vec    0000
saved_w               (abs)        007E
start                 init         000C
start_initialization  cinit        0EA3
wtemp0                (abs)        007E
