:060000000A128A110C280F
:10000800FE000308F0000A08F1000A128A15AE2E55
:100018000A128A15A32E8312081188111430F700CA
:100028007930F600F60B1628F70B16281B288312D2
:1000380003130816881608138813881588110730C3
:10004800F7007D30F600F60B2728F70B27288312D8
:100058000313881588114230F600F60B3128640026
:1000680083120313881588114230F600F60B3A28DC
:10007800640083120313081288160813881388155E
:10008800881128302E250A128A110F302E250A12BF
:100098008A11A2250A128A1106302E2DB401B40A3B
:1000A800B601B701B40803199B288730A400903023
:1000B800A5002E210A128A112A210A128A11B600D5
:1000C8003F30A4009130A5003608A600A7012E21D4
:1000D8000A128A112A210A128A11B5004030A40096
:1000E8009130A5003508A600A7012E210A128A1111
:1000F8002A210A128A11B7000D3A031D56283030FA
:10010800B602B5020A30F600360894250A128A119A
:10011800B30035083307B7001830370203185628DC
:10012800370886270A128A118312B4015628B401A7
:10013800B40AB4080319E2286330A4009030A5007B
:100148002E210A128A112A210A128A11B6003F307A
:10015800A4009130A5003608A600A7012E210A1296
:100168008A112A210A128A11B5004030A400913060
:10017800A5003508A600A7012E210A128A112A21F6
:100188000A128A11B7000D3A031D9D283030B602B5
:10019800B5020A30F600360894250A128A11B3000F
:1001A80035083307B7003D30370203189D28370854
:1001B80026220A128A118312B4019D28B401B40AB6
:1001C800B408031929295130A4009030A5002E2124
:1001D8000A128A112A210A128A11B6003F30A40095
:1001E8009130A5003608A600A7012E210A128A110F
:1001F8002A210A128A11B5004030A4009130A500C6
:100208003508A600A7012E210A128A112A210A12EE
:100218008A11B7000D3A031DE4283030B602B50242
:100228000A30F600360894250A128A11B3003508F8
:100238003307B7003D3037020318E42837089B27F7
:100248000A128A118312B401E428B02F8C1E2A29BD
:100258001A0808002630AC00EE270A168A1100207A
:100268000A128A11B100B10803190800253A0319C6
:1002780042293108D2210A128A113029AA015029AB
:100288002C08840083130008B100AC0AAC0A3108BA
:10029800D2210A128A113029EE270A168A11002063
:1002A8000A128A11B100003A03190800633A0319C7
:1002B8004429073A031D0D3A031D4B292C088400D5
:1002C80083130008AD00840A0008AE00AC0AAC0A2B
:1002D800AE1F75290330AA04AD09AE09AD0A03198A
:1002E800AE0AB101B10A0310310D1C3E84009030F2
:1002F8000318013EFF000A168A1100200A128A110B
:10030800A8000A168A1100200A128A11A9002E02D2
:10031800031D902928082D02031C9729B10A3108CA
:10032800053A031D77292A08033903199F292D3017
:10033800D2210A128A113108AB00CE290A30A00056
:10034800A10103102B0D1C3E840090300318013EC0
:10035800FF000A168A1100200A128A11F2000A16F2
:100368008A1100200A128A11F3002E08F5002D08C0
:10037800F400D8210A128A117308A3007208A20097
:1003880002220A128A112008303EB1003108D22117
:100398000A128A11AB032B0FA2293029F2000C1E76
:1003A800D329720899000800F601F701730872044E
:1003B8000319FD29F801F80AF31BE6290310F20DC9
:1003C800F30DDF290310F60DF70D73087502031DF1
:1003D800EF2972087402031CF9297208F4027308E1
:1003E800031CF503F50276140310F30CF20CF80B5A
:1003F800E6297708F3007608F200080021082004AF
:100408000319212AF901F90AA11B0E2A0310A00DCC
:10041800A10D072A21082302031D142A20082202FD
:10042800031C1D2A2008A2022108031CA303A302FF
:100438000310A10CA00CF90B0E2A2308A100220816
:10044800A0000800A300DA250A128A11D030D225AC
:100458000A128A110130D2250A128A11831223083E
:100468003B220A128A11D2250A128A112B2EA100C8
:10047800A2010A30F200210813250A128A11A200EB
:10048800F630F60022089425F90021087907A00023
:10049800A20EF030A205200822070800DA250A1269
:1004A8008A11D030D2250A128A110030D2250A12B8
:1004B8008A11DF250A128A11D130D2250A128A112F
:1004C800E9250A128A118312B200E3250A128A1159
:1004D8002B260A128A11831232081A2EF700A22537
:1004E8000A128A11FA2708110C302E250A128A11CD
:1004F8002130F600F60B7E2A7708013A0319E92A1B
:10050800033A0319102B013A0319372B073A031939
:100518005E2B013A0319852B033A0319AC2B013AD8
:100528000319D32B0F3A0319FA2B013A0319212C7B
:10053800033A031D08000030C6220A128A1134301B
:10054800F4009130F500CC220A128A110830C62234
:100558000A128A110630F4009130F500CC220A12F2
:100568008A114730C6220A128A113E300F250A1214
:100578008A114830C6220A128A111B30F4009130C1
:10058800F500CC2AF400FA2708117408803E2E2DB5
:1005980008157508FF00740884000A168A110020DF
:1005A8000A128A110038031908007508FF00740838
:1005B80084000A168A1100200A128A112E250A12AE
:1005C8008A11F40A0319F50ACD2A0030C6220A1244
:1005D8008A113430F4009130F500CC220A128A11C5
:1005E8000730C6220A128A113E300F250A128A11D4
:1005F8000830C6220A128A11C830F4009030F5007B
:10060800CC220A128A114830C6220A128A111430E2
:10061800F4009130F500CC2A0030C6220A128A1163
:100628003430F4009130F500CC220A128A110830D7
:10063800C6220A128A11C830F4009030F500CC2284
:100648000A128A114730C6220A128A113E300F2533
:100658000A128A114830C6220A128A111430F4008C
:100668009130F500CC2A0030C6220A128A113430A3
:10067800F4009130F500CC220A128A110730C62204
:100688000A128A113E300F250A128A110830C62232
:100698000A128A111430F4009130F500CC220A12A3
:1006A8008A114830C6220A128A11BF30F4009030ED
:1006B800F500CC2A0030C6220A128A113430F40020
:1006C8009130F500CC220A128A110830C6220A128B
:1006D8008A111430F4009130F500CC220A128A11E4
:1006E8004730C6220A128A113E300F250A128A1193
:1006F8004830C6220A128A11BF30F4009030F50043
:10070800CC2A0030C6220A128A113430F400913003
:10071800F500CC220A128A110730C6220A128A1161
:100728003E300F250A128A110830C6220A128A1191
:10073800BF30F4009030F500CC220A128A114830FC
:10074800C6220A128A110D30F4009130F500CC2A25
:100758000030C6220A128A113430F4009130F500B4
:10076800CC220A128A110830C6220A128A11BF3016
:10077800F4009030F500CC220A128A114730C622C4
:100788000A128A113E300F250A128A114830C622F1
:100798000A128A110D30F4009130F500CC2A00308D
:1007A800C6220A128A113430F4009130F500CC22A6
:1007B8000A128A110730C6220A128A113E300F2502
:1007C8000A128A110830C6220A128A110D30F40062
:1007D8009130F500CC220A128A114830C6220A123A
:1007E8008A110630F4009130F500CC2A0030C62278
:1007F8000A128A113430F4009130F500CC220A1222
:100808008A110830C6220A128A110D30F40091307C
:10081800F500CC220A128A114730C6220A128A1120
:100828003E300F250A128A114830C6220A128A1150
:100838000630F4009130F500CC2A0030C6220A12A6
:100848008A113430F4009130F500CC220A128A1152
:100858000730C6220A128A113E300F250A128A1161
:100868000830C6220A128A110630F4009130F500C9
:10087800CC220A128A114830C6220A128A111B3069
:10088800F4009130F500CC2A2F260A128A1108119B
:100898000C302E250A128A112130B600B60B522CC4
:1008A800A2250A128A11B2250A128A11B700053048
:1008B800C6220A128A110A30F20037081325123E9E
:1008C800840090300318013EFF000A168A110020A8
:1008D8000A128A110F250A128A11F630F6000A3018
:1008E800F200370813250A128A119425B70737082A
:1008F800123E840090300318013EFF000A168A1148
:1009080000200A128A110F250A128A113A300F257F
:100918000A128A11FA250A128A11B7000A30F2005F
:1009280037081325123E840090300318013EFF005B
:100938000A168A1100200A128A110F250A128A1132
:10094800F630F6000A30F200370813250A128A1129
:100958009425B7073708123E840090300318013EEB
:10096800FF000A168A1100200A128A110F250A129E
:100978008A114430C6220A128A11BE08031DC62CE9
:100988002B30C72CB0300F250A128A110A30F2001A
:1009980040081325B700123E840090300318013E2A
:1009A800FF000A168A1100200A128A110F250A125E
:1009B8008A11F630F6000A30F200400813250A12B0
:1009C8008A119425B60040083607B700123E840005
:1009D80090300318013EFF000A168A1100200A12FF
:1009E8008A110F250A128A112E300F253F08123E50
:1009F800840090300318013EFF000A168A11002077
:100A08000A128A110F250A128A11DF300F250A12DD
:100A18008A1143300F2DF400081574082E2DF300A9
:100A2800F501720803192C2DF401F40AF21B1F2D8D
:100A38000310F20D192D0310F50D72087302031C33
:100A4800292D7208F30275140310F20CF40B1F2DF4
:100A580075080800F3000D30F200F20B312D730811
:100A6800F20004300310F20CFF3E031D362D721CF9
:100A7800402DFA270816422DFA2708127308F200AB
:100A880005300310F20CFF3E031D452D721C4E2D40
:100A980088164F2D88127308F20006300310F20CE6
:100AA800FF3E031D522D721C5B2D08175C2D081389
:100AB8007308F20007300310F20CFF3E031D5F2D90
:100AC800721C682D8817692D881388158811731C66
:100AD8006F2D0816702D08127308F2000310F20C1F
:100AE800721C782D8816792D88127308F20003106D
:100AF800F20C0310F20C721C832D0817842D0813B6
:100B08007308F2000310F20C0310F20C0310F20C3D
:100B1800721C902D8817912D88138815881108004C
:100B2800F800F70176087818F7070310F60D031098
:100B3800F80CF808031D962D77080800FA27081105
:100B480001302E250A128A110330F5009730F4007F
:100B5800F40BAC2DF50BAC2DB12D0800DA250A12DB
:100B68008A11D030D2250A128A110230D2250A12EF
:100B78008A11DF250A128A11D130D2250A128A1168
:100B8800E9250A128A118312B200E3250A128A1192
:100B98002B260A128A11831232081A2EF2007208C2
:100BA8008312930083161418D62DF22DFD271114E5
:100BB800111C0800DC2D9114911C0800E02D8316EF
:100BC80091161116111E0800E62D9115141CEA2D18
:100BD80083121308F200F225720808008316110820
:100BE8001F39031DF22D141D0800F22DDA250A12F3
:100BF8008A11D030D2250A128A110130D2250A1260
:100C08008A11DF250A128A11D130D2250A128A11D7
:100C1800E9250A128A118312B200E3250A128A1101
:100C28002B260A128A11831232081A2EF400F301B5
:100C3800F2000F30F205740E0F39F3000310730D34
:100C4800F307F3070310F30D720873070800111573
:100C5800111D08002C2EED260A128A11FA1003180D
:100C6800FA14FA186D2ECC30C8260A128A114430AC
:100C7800C8260A128A11C330FA27B300CD30B20051
:100C8800B20B442EB30B442EC330FA27B300CD3039
:100C9800B200B20B4D2EB30B4D2EC330FA27B30062
:100CA800CD30B200B20B562EB30B562EC330FA27F6
:100CB800B300CD30B200B20B5F2EB30B5F2EC33042
:100CC800FA27B300CD30B200B20B682EB30B682EF2
:100CD800752E4330FA27A4009130A5002E210A1260
:100CE8008A11ED260A128A11FA100318FA14FA1852
:100CF8008F2ECC30C8260A128A11BE30C8260A1296
:100D08008A110B270A128A11FA27B4000B270A1234
:100D18008A11FA27B500FA273408BF000F30BF053B
:100D28000A30A000A1013F08F200F3010630F400E8
:100D3800F50128270A128A117208023EA2007308D8
:100D48000318013E003EA30041270A128A11200819
:100D5800BF00B40E0F30B4053508BE008030BE05A4
:100D6800B50EF030B5057030B5053408B5043E0849
:100D78000319C52E35087F3CC0003F080A3CBF0058
:100D880008003508C0000800F300F501F400F5017B
:100D9800741CDA2EFD270710D12ED22E6400FD27F1
:100DA80007141730F200F20BD72EE52EFD27071097
:100DB8001730F200F20BDE2EFD270714E32EE42E87
:100DC80064000310F40CF50A0830750203180800D3
:100DD800CC2EFD2707140710A630F200F20BF22ED6
:100DE8006400FD2707141530F200F20BF92E640099
:100DF8007A10FA2707187A149530F200F20B022FAE
:100E0800052F7A18092F0310080003140800F301AE
:100E1800F401F401FD270710112F122F132FFD27BE
:100E28000714162F172F0310F30CFA270718F317B8
:100E38001330F200F20B1E2F212FF40A083074022F
:100E4800031C0E2F73080800F601F701721C322FDD
:100E58007408F6070318F70A7508F7070310F40D66
:100E6800F50D0310F30CF20C73087204031D2A2FFE
:100E78007708F3007608F2000800A501A11F4B2FA0
:100E8800A009A109A00A0319A10AA501A50AA31F7F
:100E9800542FA209A309A20A0319A30A0130A5061F
:100EA800A601A701210820040319792FA401A40A87
:100EB800A11B622F0310A00DA10D5B2F0310A60D1F
:100EC800A70D21082302031D6B2F20082202031CF3
:100ED800752F2008A2022108031CA303A3022614CD
:100EE8000310A10CA00CA40B622F25080319812F55
:100EF800A609A709A60A0319A70A2708A100260810
:100F0800A0000800A300DA250A128A11D030D225E1
:100F18000A128A110230D2250A128A118312230872
:100F28003B220A128A11D2250A128A112B2EA300FB
:100F3800DA250A128A11D030D2250A128A11003015
:100F4800D2250A128A11831223083B220A128A1117
:100F5800D2250A128A112B2E9730A4009030A500B2
:100F6800B2250A128A11A600A7012E210A128A1197
:100F78009E30A4009030A500FA250A128A11A60016
:100F8800A7012E210A128A113A30A4009130A50037
:100F980052220A128A11A600A7012E210A128A11CA
:100FA8002630A4009030A5002E210A128A11D130D3
:100FB800A4009030A5002E210A128A113E30A40008
:100FC8009030A5002E210A128A117530A4009030A5
:100FD800A5002E292508A9002408A800A40A031999
:100FE800A50A2908FF0028088400080083120313B3
:080FF800080083160313080032
:101D3400871507169417283083129400831693008E
:101D44000800FA01FB01BD01BE01BF011930C0004A
:101D540083010A128A152A2F831203138C1CC22EA4
:101D6400FB0A7B08FF3A031DB92EBD0AFB010130B3
:101D740091001214921492161216121792158C10C6
:101D840071088A0070088300FE0E7E0E09000A1294
:101D94008A112F260A128A150A3040023E080318B7
:101DA400DD2E0319D92EF830A4009030E62EF13040
:101DB400A4009030E62E0319E32E2830A4009130BD
:101DC400E62E2230A4009130A5000A128A112E2199
:101DD4000A128A15AA30A4009030A5004008A60073
:101DE400A7010A128A112E210A128A151A30B70085
:101DF400F830B600B60BFC2EB70BFC2E64000A308C
:101E0400831203133F0203180B2FFF30A4009030FA
:101E14000E2F2E30A4009130A5000A128A112E2113
:101E24000A128A15AA30A4009030A5003F08A60023
:101E3400A7010A128A112E210A128A151A30B70034
:101E4400F830B600B60B242FB70B242F640008001B
:101E54008316860188018717071719309900903077
:101E6400831298002430831698000A128A159A2641
:101E74000A128A150A128A110F200A128A150130D1
:101E84000A128A1172220A128A150130831203136C
:101E94009100FF308316920083121214921492164A
:101EA4001216121792158B170B1783168C148312A4
:101EB4001215E92F8B1312110A128A1148240A12DF
:101EC4008A15BD018B171215EF2F0A128A11B0273C
:101ED4000A128A15E92F0A128A1152200A128A1547
:101EE400E92F8B130A128A11B2250A128A15BC0033
:101EF4000A303C020318822FA430A4009030852FAE
:101F0400D930A4009030A5003C08A600A7010A120D
:101F14008A112E210A128A151A30B900F830B80035
:101F2400B80B922FB90B922F64000A128A11FA256A
:101F34000A128A15BC000A303C020318A52FAD30E2
:101F4400A4009030A82FE130A4009030A5003C08F4
:101F5400A600A7010A128A112E210A128A151A3024
:101F6400B900F830B800B80BB52FB90BB52F640021
:101F74000A128A1152220A128A15BC000A303C0243
:101F84000318C82FB630A4009030CB2FE930A4003A
:101F94009030A5003C08A600A7010A128A112E2140
:101FA4000A128A151A30B900F830B800B80BD82FC5
:101FB400B90BD82F6400E92F0A128A15C9260A1210
:101FC4008A15E92F0A128A1148240A128A158312E3
:101FD40003133D08023A03195C2F3A08313A0319F6
:101FE400672F033A03196D2F013A0319732F073A28
:101FF4000319DE2F013A0319E42FE92FFF1B0A28E6
:1020040083137F1883170008840A0319FF0A080042
:102014007F087F398A000408840A0319FF0A8200B2
:102024003034313432343334343435343634373470
:1020340038343934013400340A340034643400341C
:10204400E8340334103427340D340A342A342A345F
:102054002A342A342A342A342A342A342A342A348C
:102064002A342A342A342A342A342A342A342A347C
:102074002A342A342A3400340D340A3420343134D6
:1020840020342D342034523465346C346F3461344C
:1020940064342034743469346D34653400340C345D
:1020A40045346E3474346534723420347334653496
:1020B40063346F346E346434733420342D342034F8
:1020C40000340C3445346E34743465347234203442
:1020D4006D3469346E347534743465347334203437
:1020E4002D34203400340D340A3420343234203476
:1020F4002D342034533465347434753470342034BE
:10210400743469346D34653400340C3445346E34BD
:10211400743465347234203468346F3475347234F2
:10212400733420342D34203400340C345434693462
:102134006D34653420342D34203425346434203413
:102144003A3400340D340A343134303431343034D8
:102154002534643400340D340A34313430343234A8
:1021640030342534643400340D340A34313430349A
:102174003334303425346434003433342E3454341A
:102184007234653462346C346534003431342E3442
:1021940056346F346C3475346D34653400340D3416
:1021A4000A3420344D3465346E34753400340D34BF
:1021B4000A343134303431342534643400340D3449
:1021C4000A343134303432342534643400340D3438
:1021D4000A343134303433342534643400340D3427
:1021E4000A34323430343134303400340D340A3467
:1021F400323430343234303400340D340A3432342E
:10220400303433343034003435342E345434693477
:102214006D346534003434342E344D3475347434B0
:102224006534003432342E344234613473347334BC
:10223400003436342E345334743442347934003414
:102244000D340A3432343034313400340D340A3429
:1022540032343034323400340D340A3432343034CD
:10226400333400344D3465346E3475343A340034C8
:102274002034253464342034003420342534633449
:0A228400003462347534673400340E
:02400E007A3FF7
:00000001FF
