Microchip MPLAB XC8 Compiler V2.40

Linker command line:

-W-3 --edf=/opt/microchip/xc8/v2.40/pic/dat/20220703182018_en.msgs -cn \
  -h+dist/default/production/PIC18_E6_Touch.X.production.sym \
  --cmf=dist/default/production/PIC18_E6_Touch.X.production.cmf -z \
  -Q18F1230 -o/tmp/xcXlgHdJp --defsym=__MPLAB_BUILD=1 --fixupoverflow=error \
  -Mdist/default/production/PIC18_E6_Touch.X.production.map \
  --md=/tmp/xcXdLOoKP.dat -E1 -ver=XC8 Compiler --acfsm=1493 \
  -ACODE=00h-0FFFh -ACONST=00h-0FFFh -ASMALLCONST=0100h-01FFhx15 \
  -AMEDIUMCONST=0100h-0FFFh -ACOMRAM=01h-07Fh -AABS1=00h-0FFh \
  -ABIGRAM=01h-0FFh -ARAM=080h-0FFh -ABANK0=080h-0FFh -ASFR=0F80h-0FFFh \
  -ABIGSFR=0F80h-0FFFh -ACONFIG=0300000h-030000Dh -AIDLOC=0200000h-0200007h \
  -AEEDATA=0F00000h-0F0007Fh -peeprom_data=EEDATA \
  -preset_vec=00h,intcode=08h,intcodelo,powerup,init -pramtop=0100h \
  -psmallconst=SMALLCONST -pmediumconst=MEDIUMCONST -pconst=CONST \
  -AFARRAM=00h-00h \
  -prdata=COMRAM,nvrram=COMRAM,nvbit=COMRAM,rbss=COMRAM,rbit=COMRAM \
  -pfarbss=FARRAM,fardata=FARRAM,nvFARRAM=FARRAM \
  -pintsave_regs=BIGRAM,bigbss=BIGRAM,bigdata=BIGRAM -pbss=RAM \
  -pidata=CODE,irdata=CODE,ibigdata=CODE,ifardata=CODE -prparam=COMRAM \
  /tmp/xcXBCBmoh.o dist/default/production/PIC18_E6_Touch.X.production.o 

Object code version is 3.11

Machine type is 18F1230



                Name                               Link     Load   Length Selector   Space Scale
/tmp/xcXBCBmoh.o
                idloc                            200000   200000        8        0       5
                config                           300000   300000        E        0       4
                init                                 92       92        4        4       0
                reset_vec                             0        0        4        0       0
dist/default/production/PIC18_E6_Touch.X.production.o
                intcode                               8        8       8A        4       0
                idloc                            200000   200000        8        0       5
                config                           300000   300000        E        0       4
                temp                                 6A       6A        1        1       1
                mediumconst                         DF6      DF6      20A      6FB       0
                text14                              668      668        8        4       0
                text12                              638      638       18        4       0
                text11                              604      604       1C        4       0
                text10                              620      620       18        4       0
                text9                               4D6      4D6       74        4       0
                text8                               5C2      5C2       26        4       0
                text7                               660      660        8        4       0
                text6                               372      372      164        4       0
                text5                               670      670        6        4       0
                text4                               658      658        8        4       0
                text3                               650      650        8        4       0
                text2                               590      590       32        4       0
                text1                               54A      54A       46        4       0
                text0                                96       96      2DC        4       0
                cstackCOMRAM                         4C       4C       1D        1       1
                bssCOMRAM                             1        1       4B        1       1
                bitbssCOMRAM                        348       69        7        1       1     8
                cinit                               5E8      5E8       1C        4       0

TOTAL           Name                               Link     Load   Length     Space
        CLASS   CODE           
                intcode                               8        8       8A         0
                init                                 92       92        4         0
                reset_vec                             0        0        4         0
                text14                              668      668        8         0
                text12                              638      638       18         0
                text11                              604      604       1C         0
                text10                              620      620       18         0
                text9                               4D6      4D6       74         0
                text8                               5C2      5C2       26         0
                text7                               660      660        8         0
                text6                               372      372      164         0
                text5                               670      670        6         0
                text4                               658      658        8         0
                text3                               650      650        8         0
                text2                               590      590       32         0
                text1                               54A      54A       46         0
                text0                                96       96      2DC         0
                cinit                               5E8      5E8       1C         0

        CLASS   CONST          

        CLASS   SMALLCONST     

        CLASS   MEDIUMCONST    
                mediumconst                         DF6      DF6      20A         0

        CLASS   COMRAM         
                temp                                 6A       6A        1         1
                cstackCOMRAM                         4C       4C       1D         1
                bssCOMRAM                             1        1       4B         1
                bitbssCOMRAM                        348       69        7         1

        CLASS   ABS1           

        CLASS   BIGRAM         

        CLASS   RAM            

        CLASS   BANK0          

        CLASS   SFR            

        CLASS   BIGSFR         

        CLASS   CONFIG         
                config                           300000   300000        E         4

        CLASS   IDLOC          
                idloc                            200000   200000        8         5

        CLASS   EEDATA         

        CLASS   FARRAM         

        CLASS   HEAP           

        CLASS   STACK          



SEGMENTS        Name                           Load    Length   Top    Selector   Space  Class

                reset_vec                      000000  000004  000004         0       0  CODE    
                bssCOMRAM                      000001  00006A  00006B         1       1  COMRAM  
                intcode                        000008  00066E  000676         4       0  CODE    
                mediumconst                    000DF6  00020A  001000       6FB       0  MEDIUMCO


UNUSED ADDRESS RANGES

        Name                Unused          Largest block    Delta
        BANK0            000080-0000FF               80
        BIGRAM           00006B-0000FF               95
        BIGSFR           000F80-000FFF               80
        CODE             000004-000007                4
                         000676-000DF5              780
        COMRAM           00006B-00007F               15
        CONST            000004-000007                4
                         000676-000DF5              780
        EEDATA           F00000-F0007F               80
        MEDIUMCONST      000676-000DF5              780
        RAM              000080-0000FF               80
        SFR              000F80-000FFF               80
        SMALLCONST       000676-000DF5              100

                                  Symbol Table

?___lwdiv                 cstackCOMRAM 000055
?___wmul                  cstackCOMRAM 00004F
NumToUart@Num             cstackCOMRAM 00005C
NumToUart@bignum          cstackCOMRAM 000064
NumToUart@i               cstackCOMRAM 000063
NumToUart@numtemp         cstackCOMRAM 000062
ReadUart@data             cstackCOMRAM 00004C
_ACQT0                    (abs)        007E03
_ACQT1                    (abs)        007E04
_ACQT2                    (abs)        007E05
_ADCS0                    (abs)        007E00
_ADCS1                    (abs)        007E01
_ADCS2                    (abs)        007E02
_ADFM                     (abs)        007E07
_ADIE                     (abs)        007CEE
_ADIF                     (abs)        007CF6
_ADON                     (abs)        007E10
_ADRESH                   (abs)        000FC4
_ADRESL                   (abs)        000FC3
_BRG16                    (abs)        007DC3
_BRGH                     (abs)        007D62
_BusyUSART                text10       000620
_CHS0                     (abs)        007E12
_CHS1                     (abs)        007E13
_CREN                     (abs)        007D5C
_GIE                      (abs)        007F97
_GO                       (abs)        007E11
_HighISR                  intcode      000008
_IPEN                     (abs)        007E87
_IRCF0                    (abs)        007E9C
_IRCF1                    (abs)        007E9D
_IRCF2                    (abs)        007E9E
_InitADC                  text12       000638
_InitUart                 text11       000604
_NumToUart                text6        000372
_NumToUart$1014           cstackCOMRAM 00005E
_NumToUart$1015           cstackCOMRAM 000060
_PCFG0                    (abs)        007E08
_PCFG1                    (abs)        007E09
_PCFG2                    (abs)        007E0A
_PCFG3                    (abs)        007E0B
_PEIE                     (abs)        007F96
_PORTAbits                (abs)        000F80
_PSA                      (abs)        007EAB
_RCIE                     (abs)        007CED
_RCIF                     (abs)        007CF5
_RCREG                    (abs)        000FAE
_RX9                      (abs)        007D5E
_ReadUart                 text14       000668
_SCS1                     (abs)        007E99
_SPBRG                    (abs)        000FAF
_SPEN                     (abs)        007D5F
_SYNC                     (abs)        007D64
_T016BIT                  (abs)        007EAE
_T0CS                     (abs)        007EAD
_T0PS0                    (abs)        007EA8
_T0PS1                    (abs)        007EA9
_T0PS2                    (abs)        007EAA
_TMR0IE                   (abs)        007F95
_TMR0IF                   (abs)        007F92
_TMR0ON                   (abs)        007EAF
_TRISA0                   (abs)        007C90
_TRISA1                   (abs)        007C91
_TRISA2                   (abs)        007C92
_TRISA3                   (abs)        007C93
_TRISA4                   (abs)        007C94
_TRISA6                   (abs)        007C96
_TX9                      (abs)        007D66
_TXEN                     (abs)        007D65
_TXREG                    (abs)        000FAD
_TXSTAbits                (abs)        000FAC
_VCFG0                    (abs)        007E0C
__HRAM                    (abs)        000000
__Habs1                   abs1         000000
__Hbank0                  bank0        000000
__Hbigbss                 bigbss       000000
__Hbigdata                bigdata      000000
__Hbigram                 bigram       000000
__Hbigsfr                 bigsfr       000000
__HbitbssCOMRAM           bitbssCOMRAM 000000
__Hbss                    bss          000000
__HbssCOMRAM              bssCOMRAM    000000
__Hcinit                  cinit        000000
__Hclrtext                clrtext      000000
__Hcomram                 comram       000000
__Hconfig                 config       30000E
__Hconst                  const        000000
__HcstackCOMRAM           cstackCOMRAM 000000
__Hdata                   data         000000
__Heeprom_data            eeprom_data  000000
__Hfarbss                 farbss       000000
__Hfardata                fardata      000000
__Hheap                   heap         000000
__Hibigdata               ibigdata     000000
__Hidata                  idata        000000
__Hidloc                  idloc        200008
__Hifardata               ifardata     000000
__Hinit                   init         000096
__Hintcode                intcode      000092
__Hintcode_body           intcode_body 000000
__Hintcodelo              intcodelo    000092
__Hintentry               intentry     000000
__Hintret                 intret       000000
__Hintsave_regs           intsave_regs 000000
__Hirdata                 irdata       000000
__Hmediumconst            mediumconst  001000
__HnvFARRAM               nvFARRAM     000000
__Hnvbit                  nvbit        000000
__Hnvrram                 nvrram       000000
__Hparam                  rparam       000000
__Hpowerup                powerup      000092
__Hram                    ram          000000
__Hramtop                 ramtop       000100
__Hrbit                   rbit         000000
__Hrbss                   rbss         000000
__Hrdata                  rdata        000000
__Hreset_vec              reset_vec    000004
__Hrparam                 rparam       000000
__Hsfr                    sfr          000000
__Hsmallconst             smallconst   000000
__Hspace_0                (abs)        001000
__Hspace_1                (abs)        00034F
__Hspace_2                (abs)        000000
__Hspace_4                (abs)        60000E
__Hstack                  stack        000000
__Hstruct                 struct       000000
__Htemp                   temp         00006B
__Htext                   text         000000
__Htext0                  text0        000000
__Htext1                  text1        000000
__Htext10                 text10       000000
__Htext11                 text11       000000
__Htext12                 text12       000000
__Htext14                 text14       000000
__Htext2                  text2        000000
__Htext3                  text3        000000
__Htext4                  text4        000000
__Htext5                  text5        000000
__Htext6                  text6        000000
__Htext7                  text7        000000
__Htext8                  text8        000000
__Htext9                  text9        000000
__LRAM                    (abs)        000001
__Labs1                   abs1         000000
__Lbank0                  bank0        000000
__Lbigbss                 bigbss       000000
__Lbigdata                bigdata      000000
__Lbigram                 bigram       000000
__Lbigsfr                 bigsfr       000000
__LbitbssCOMRAM           bitbssCOMRAM 000000
__Lbss                    bss          000000
__LbssCOMRAM              bssCOMRAM    000000
__Lcinit                  cinit        000000
__Lclrtext                clrtext      000000
__Lcomram                 comram       000000
__Lconfig                 config       000000
__Lconst                  const        000000
__LcstackCOMRAM           cstackCOMRAM 000000
__Ldata                   data         000000
__Leeprom_data            eeprom_data  000000
__Lfarbss                 farbss       000000
__Lfardata                fardata      000000
__Lheap                   heap         000000
__Libigdata               ibigdata     000000
__Lidata                  idata        000000
__Lidloc                  idloc        000000
__Lifardata               ifardata     000000
__Linit                   init         000092
__Lintcode                intcode      000008
__Lintcode_body           intcode_body 000000
__Lintcodelo              intcodelo    000092
__Lintentry               intentry     000000
__Lintret                 intret       000000
__Lintsave_regs           intsave_regs 000000
__Lirdata                 irdata       000000
__Lmediumconst            mediumconst  000DF6
__LnvFARRAM               nvFARRAM     000000
__Lnvbit                  nvbit        000000
__Lnvrram                 nvrram       000000
__Lparam                  rparam       000000
__Lpowerup                powerup      000092
__Lram                    ram          000000
__Lramtop                 ramtop       000100
__Lrbit                   rbit         000000
__Lrbss                   rbss         000000
__Lrdata                  rdata        000000
__Lreset_vec              reset_vec    000000
__Lrparam                 rparam       000000
__Lsfr                    sfr          000000
__Lsmallconst             smallconst   000000
__Lspace_0                (abs)        000000
__Lspace_1                (abs)        000000
__Lspace_2                (abs)        000000
__Lspace_4                (abs)        000000
__Lstack                  stack        000000
__Lstruct                 struct       000000
__Ltemp                   temp         00006A
__Ltext                   text         000000
__Ltext0                  text0        000000
__Ltext1                  text1        000000
__Ltext10                 text10       000000
__Ltext11                 text11       000000
__Ltext12                 text12       000000
__Ltext14                 text14       000000
__Ltext2                  text2        000000
__Ltext3                  text3        000000
__Ltext4                  text4        000000
__Ltext5                  text5        000000
__Ltext6                  text6        000000
__Ltext7                  text7        000000
__Ltext8                  text8        000000
__Ltext9                  text9        000000
__S0                      (abs)        001000
__S1                      (abs)        00006B
__S4                      (abs)        000000
__S5                      (abs)        000000
___heap_hi                (abs)        000000
___heap_lo                (abs)        000000
___inthi_sp               stack        000000
___intlo_sp               stack        000000
___lwdiv                  text9        0004D6
___lwdiv@counter          cstackCOMRAM 00005B
___lwdiv@dividend         cstackCOMRAM 000055
___lwdiv@divisor          cstackCOMRAM 000057
___lwdiv@quotient         cstackCOMRAM 000059
___param_bank             (abs)        000000
___rparam_used            (abs)        000001
___sp                     stack        000000
___wmul                   text8        0005C2
___wmul@multiplicand      cstackCOMRAM 000051
___wmul@multiplier        cstackCOMRAM 00004F
___wmul@product           cstackCOMRAM 000053
__accesstop               (abs)        000080
__activetblptr            (abs)        000002
__end_of_BusyUSART        text10       000638
__end_of_HighISR          intcode      000092
__end_of_InitADC          text12       000650
__end_of_InitUart         text11       000620
__end_of_NumToUart        text6        0004D6
__end_of_ReadUart         text14       000670
__end_of___lwdiv          text9        00054A
__end_of___wmul           text8        0005E8
__end_of__initialization  cinit        0005F6
__end_of_adcAN0analogIn   text5        000676
__end_of_adcAN0digitalOne text4        000660
__end_of_adcAN1digitalOne text3        000658
__end_of_adcSelChan       text2        0005C2
__end_of_delta_y          mediumconst  000F79
__end_of_main             text0        000372
__end_of_sensor_n1_max    mediumconst  000F37
__end_of_sensor_n1_min    mediumconst  000F77
__end_of_sensor_n2_max    mediumconst  000EB7
__end_of_sensor_n2_min    mediumconst  000EF7
__end_of_sensor_n3_max    mediumconst  000E37
__end_of_sensor_n3_min    mediumconst  000E77
__end_of_touch_trigger    mediumconst  000F78
__end_of_writeByteUart    text7        000668
__end_of_writeDataUart    text1        000590
__initialization          cinit        0005E8
__mediumconst             mediumconst  000DF6
__pbitbssCOMRAM           bitbssCOMRAM 000348
__pbssCOMRAM              bssCOMRAM    000001
__pcinit                  cinit        0005E8
__pcstackCOMRAM           cstackCOMRAM 00004C
__pintcode                intcode      000008
__pmediumconst            mediumconst  000DF6
__ptext0                  text0        000096
__ptext1                  text1        00054A
__ptext10                 text10       000620
__ptext11                 text11       000604
__ptext12                 text12       000638
__ptext14                 text14       000668
__ptext2                  text2        000590
__ptext3                  text3        000650
__ptext4                  text4        000658
__ptext5                  text5        000670
__ptext6                  text6        000372
__ptext7                  text7        000660
__ptext8                  text8        0005C2
__ptext9                  text9        0004D6
__ramtop                  ramtop       000100
__smallconst              smallconst   000000
_adcAN0analogIn           text5        000670
_adcAN0digitalOne         text4        000658
_adcAN1digitalOne         text3        000650
_adcSelChan               text2        000590
_adc_conversion_ended     bitbssCOMRAM 00034C
_adc_conversion_start     bitbssCOMRAM 00034D
_adc_data_temp            bssCOMRAM    000041
_delta_y                  mediumconst  000F78
_i                        bssCOMRAM    000049
_main                     text0        000096
_rx_data_recieved         bssCOMRAM    00004B
_samples_count            bssCOMRAM    000046
_sensor_n1_max            mediumconst  000EF7
_sensor_n1_min            mediumconst  000F37
_sensor_n1_pressed        bitbssCOMRAM 00034A
_sensor_n1_touches        bssCOMRAM    000045
_sensor_n2_max            mediumconst  000E77
_sensor_n2_min            mediumconst  000EB7
_sensor_n2_pressed        bitbssCOMRAM 000349
_sensor_n2_touches        bssCOMRAM    000044
_sensor_n3_max            mediumconst  000DF7
_sensor_n3_min            mediumconst  000E37
_sensor_n3_pressed        bitbssCOMRAM 000348
_sensor_n3_touches        bssCOMRAM    000043
_temp1                    bssCOMRAM    000021
_temp2                    bssCOMRAM    000001
_timer0_event             bitbssCOMRAM 00034B
_tmr0flag                 bitbssCOMRAM 00034E
_touch_counter            bssCOMRAM    000047
_tx_data_temp             bssCOMRAM    00004A
_writeByteUart            text7        000660
_writeDataUart            text1        00054A
_x                        bssCOMRAM    000048
adcSelChan@mux_byte       cstackCOMRAM 000050
btemp                     temp         00006A
end_of_initialization     cinit        0005F6
int$flags                 temp         00006A
intlevel0                 text         000000
intlevel1                 text         000000
intlevel2                 text         000000
intlevel3                 text         000000
isa$std                   (abs)        000001
isa$xinst                 (abs)        000000
stackhi                   (abs)        000000
stacklo                   (abs)        000000
start                     init         000092
start_initialization      cinit        0005E8
ttemp5                    temp         00006B
ttemp6                    temp         00006E
ttemp7                    temp         000072
writeByteUart@tx_data     cstackCOMRAM 00004F
writeDataUart@data        cstackCOMRAM 000050
wtemp8                    temp         00006B


MODULE INFORMATION

Module		Function		Class		Link	Load	Size
uart.c
		_InitUart      		CODE           	0604	0000	28
		_ReadUart      		CODE           	0668	0000	8
		_NumToUart     		CODE           	0372	0000	356
		_BusyUSART     		CODE           	0620	0000	24
		_writeByteUart 		CODE           	0660	0000	8
		_writeDataUart 		CODE           	054A	0000	70

uart.c estimated size: 494

/opt/microchip/xc8/v2.40/pic/sources/c99/common/lwdiv.c
		___lwdiv       		CODE           	04D6	0000	116

/opt/microchip/xc8/v2.40/pic/sources/c99/common/lwdiv.c estimated size: 116

/opt/microchip/xc8/v2.40/pic/sources/c99/common/Umul16.c
		___wmul        		CODE           	05C2	0000	38

/opt/microchip/xc8/v2.40/pic/sources/c99/common/Umul16.c estimated size: 38

adc.c
		_adcAN0analogIn		CODE           	0670	0000	6
		_adcAN1digitalOne		CODE           	0650	0000	8
		_adcSelChan    		CODE           	0590	0000	50
		_InitADC       		CODE           	0638	0000	24
		_adcAN0digitalOne		CODE           	0658	0000	8

adc.c estimated size: 96

shared
		__initialization		CODE           	05E8	0000	14
		_delta_y       		MEDIUMCONST    	0F78	0000	1
		_touch_trigger 		MEDIUMCONST    	0000	0000	0
		_sensor_n1_min 		MEDIUMCONST    	0F37	0000	64
		_sensor_n2_min 		MEDIUMCONST    	0EB7	0000	64
		_sensor_n3_min 		MEDIUMCONST    	0E37	0000	64
		_sensor_n1_max 		MEDIUMCONST    	0EF7	0000	64
		_sensor_n2_max 		MEDIUMCONST    	0E77	0000	64
		_sensor_n3_max 		MEDIUMCONST    	0DF7	0000	64

shared estimated size: 399

main.c
		_main          		CODE           	0096	0000	732
		_HighISR       		CODE           	0008	0000	138

main.c estimated size: 870

