Microchip MPLAB XC8 Compiler V2.36

Linker command line:

-W-3 --edf=C:\Program Files\Microchip\xc8\v2.36\pic\dat\en_msgs.txt -cn \
  -h+dist/default/production\Lamp_amazon.X.production.sym \
  --cmf=dist/default/production\Lamp_amazon.X.production.cmf -z -Q18F1230 \
  -oC:\Users\PMCC_DB\AppData\Local\Temp\xcAsjps.4 --defsym=__MPLAB_BUILD=1 \
  -Mdist/default/production/Lamp_amazon.X.production.map \
  --md=C:\Users\PMCC_DB\AppData\Local\Temp\xcAsjps.dat -E1 \
  -ver=XC8 Compiler --acfsm=1493 -ACODE=00h-0FFFh -ACONST=00h-0FFFh \
  -ASMALLCONST=0100h-01FFhx15 -AMEDIUMCONST=0100h-0FFFh -ACOMRAM=01h-07Fh \
  -AABS1=00h-0FFh -ABIGRAM=01h-0FFh -ARAM=080h-0FFh -ABANK0=080h-0FFh \
  -ASFR=0F80h-0FFFh -ABIGSFR=0F80h-0FFFh -ACONFIG=0300000h-030000Dh \
  -AIDLOC=0200000h-0200007h -AEEDATA=0F00000h-0F0007Fh -peeprom_data=EEDATA \
  -preset_vec=00h,intcode=08h,intcodelo=018h,powerup,init -pramtop=0100h \
  -psmallconst=SMALLCONST -pmediumconst=MEDIUMCONST -pconst=CONST \
  -AFARRAM=00h-00h \
  -prdata=COMRAM,nvrram=COMRAM,nvbit=COMRAM,rbss=COMRAM,rbit=COMRAM \
  -pfarbss=FARRAM,fardata=FARRAM,nvFARRAM=FARRAM \
  -pintsave_regs=BIGRAM,bigbss=BIGRAM,bigdata=BIGRAM -pbss=RAM \
  -pidata=CODE,irdata=CODE,ibigdata=CODE,ifardata=CODE -prparam=COMRAM \
  C:\Users\PMCC_DB\AppData\Local\Temp\xcAsjps.o \
  dist/default/production\Lamp_amazon.X.production.o 

Object code version is 3.11

Machine type is 18F1230



                Name                               Link     Load   Length Selector   Space Scale
C:\Users\PMCC_DB\AppData\Local\Temp\xcAsjps.o
                idloc                            200000   200000        8        0       5
                config                           300000   300000        E        0       4
                init                                 26       26        4        C       0
                reset_vec                             0        0        4        0       0
dist/default/production\Lamp_amazon.X.production.o
                intcodelo                            18       18        E        C       0
                intcode                               8        8        6        4       0
                idloc                            200000   200000        8        0       5
                config                           300000   300000        E        0       4
                temp                                 4C       4C        1        1       1
                smallconst                          100      100       14       80       0
                text15                              5CA      5CA        8       8A       0
                intcode_body                        4F8      4F8       2C       8A       0
                text12                              59C      59C       16       8A       0
                text11                              568      568       1C       8A       0
                text10                              584      584       18       8A       0
                text9                               40C      40C       74       8A       0
                text8                               524      524       26       8A       0
                text7                               5C2      5C2        8       8A       0
                text6                               2A8      2A8      164       8A       0
                text5                               5BA      5BA        8       8A       0
                text4                               5D2      5D2        6       8A       0
                text3                               5B2      5B2        8       8A       0
                text2                               4C6      4C6       32       8A       0
                text1                               480      480       46       8A       0
                text0                               114      114      194       8A       0
                cstackCOMRAM                         2F       2F       1D        1       1
                bssCOMRAM                             1        1       2E        1       1
                cinit                               54A      54A       1E       8A       0

TOTAL           Name                               Link     Load   Length     Space
        CLASS   CODE           
                intcodelo                            18       18        E         0
                intcode                               8        8        6         0
                init                                 26       26        4         0
                reset_vec                             0        0        4         0
                text15                              5CA      5CA        8         0
                intcode_body                        4F8      4F8       2C         0
                text12                              59C      59C       16         0
                text11                              568      568       1C         0
                text10                              584      584       18         0
                text9                               40C      40C       74         0
                text8                               524      524       26         0
                text7                               5C2      5C2        8         0
                text6                               2A8      2A8      164         0
                text5                               5BA      5BA        8         0
                text4                               5D2      5D2        6         0
                text3                               5B2      5B2        8         0
                text2                               4C6      4C6       32         0
                text1                               480      480       46         0
                text0                               114      114      194         0
                cinit                               54A      54A       1E         0

        CLASS   CONST          

        CLASS   SMALLCONST     
                smallconst                          100      100       14         0

        CLASS   MEDIUMCONST    

        CLASS   COMRAM         
                temp                                 4C       4C        1         1
                cstackCOMRAM                         2F       2F       1D         1
                bssCOMRAM                             1        1       2E         1

        CLASS   ABS1           

        CLASS   BIGRAM         

        CLASS   RAM            

        CLASS   BANK0          

        CLASS   SFR            

        CLASS   BIGSFR         

        CLASS   CONFIG         
                config                           300000   300000        E         4

        CLASS   IDLOC          
                idloc                            200000   200000        8         5

        CLASS   EEDATA         

        CLASS   FARRAM         

        CLASS   HEAP           

        CLASS   STACK          



SEGMENTS        Name                           Load    Length   Top    Selector   Space  Class

                reset_vec                      000000  000004  000004         0       0  CODE    
                bssCOMRAM                      000001  00004C  00004D         1       1  COMRAM  
                intcode                        000008  000006  00000E         4       0  CODE    
                intcodelo                      000018  000012  00002A         C       0  CODE    
                smallconst                     000100  000014  000114        80       0  SMALLCON
                text0                          000114  0004C4  0005D8        8A       0  CODE    


UNUSED ADDRESS RANGES

        Name                Unused          Largest block    Delta
        BANK0            000080-0000FF               80
        BIGRAM           00004D-0000FF               B3
        BIGSFR           000F80-000FFF               80
        CODE             000004-000007                4
                         00000E-000017                A
                         00002A-0000FF               D6
                         0005D8-000FFF              A28
        COMRAM           00004D-00007F               33
        CONST            000004-000007                4
                         00000E-000017                A
                         00002A-0000FF               D6
                         0005D8-000FFF              A28
        EEDATA           F00000-F0007F               80
        MEDIUMCONST      0005D8-000FFF              A28
        RAM              000080-0000FF               80
        SFR              000F80-000FFF               80
        SMALLCONST       0005D8-000FFF              100

                                  Symbol Table

?___lwdiv                  cstackCOMRAM 000037
?___wmul                   cstackCOMRAM 000031
NumToUart@Num              cstackCOMRAM 00003E
NumToUart@bignum           cstackCOMRAM 000046
NumToUart@i                cstackCOMRAM 000045
NumToUart@numtemp          cstackCOMRAM 000044
ReadUart@data              cstackCOMRAM 00002F
_ACQT0                     (abs)        007E03
_ACQT1                     (abs)        007E04
_ACQT2                     (abs)        007E05
_ADCS0                     (abs)        007E00
_ADCS1                     (abs)        007E01
_ADCS2                     (abs)        007E02
_ADIE                      (abs)        007CEE
_ADIF                      (abs)        007CF6
_ADON                      (abs)        007E10
_ADRESH                    (abs)        000FC4
_ADRESL                    (abs)        000FC3
_BRG16                     (abs)        007DC3
_BRGH                      (abs)        007D62
_BusyUSART                 text10       000584
_CHS0                      (abs)        007E12
_CHS1                      (abs)        007E13
_CREN                      (abs)        007D5C
_GIE                       (abs)        007F97
_GO                        (abs)        007E11
_HighIsr                   intcode      000008
_IPEN                      (abs)        007E87
_IRCF0                     (abs)        007E9C
_IRCF1                     (abs)        007E9D
_IRCF2                     (abs)        007E9E
_InitADC                   text12       00059C
_InitUart                  text11       000568
_LowIsr                    intcodelo    000018
_NumToUart                 text6        0002A8
_NumToUart$1093            cstackCOMRAM 000040
_NumToUart$1094            cstackCOMRAM 000042
_PCFG0                     (abs)        007E08
_PCFG1                     (abs)        007E09
_PCFG2                     (abs)        007E0A
_PCFG3                     (abs)        007E0B
_PEIE                      (abs)        007F96
_PORTAbits                 (abs)        000F80
_PORTBbits                 (abs)        000F81
_PSA                       (abs)        007EAB
_RCIE                      (abs)        007CED
_RCIF                      (abs)        007CF5
_RCREG                     (abs)        000FAE
_RX9                       (abs)        007D5E
_ReadUart                  text15       0005CA
_SCS1                      (abs)        007E99
_SPBRG                     (abs)        000FAF
_SPEN                      (abs)        007D5F
_SYNC                      (abs)        007D64
_T016BIT                   (abs)        007EAE
_T0CS                      (abs)        007EAD
_T0PS0                     (abs)        007EA8
_T0PS1                     (abs)        007EA9
_T0PS2                     (abs)        007EAA
_TMR0IE                    (abs)        007F95
_TMR0IF                    (abs)        007F92
_TMR0ON                    (abs)        007EAF
_TRISA0                    (abs)        007C90
_TRISA1                    (abs)        007C91
_TRISA2                    (abs)        007C92
_TRISA3                    (abs)        007C93
_TRISA4                    (abs)        007C94
_TRISA6                    (abs)        007C96
_TRISB4                    (abs)        007C9C
_TRISB7                    (abs)        007C9F
_TX9                       (abs)        007D66
_TXEN                      (abs)        007D65
_TXREG                     (abs)        000FAD
_TXSTAbits                 (abs)        000FAC
_VCFG0                     (abs)        007E0C
__HRAM                     (abs)        000000
__Habs1                    abs1         000000
__Hbank0                   bank0        000000
__Hbigbss                  bigbss       000000
__Hbigdata                 bigdata      000000
__Hbigram                  bigram       000000
__Hbigsfr                  bigsfr       000000
__Hbss                     bss          000000
__HbssCOMRAM               bssCOMRAM    000000
__Hcinit                   cinit        000000
__Hclrtext                 clrtext      000000
__Hcomram                  comram       000000
__Hconfig                  config       30000E
__Hconst                   const        000000
__HcstackCOMRAM            cstackCOMRAM 000000
__Hdata                    data         000000
__Heeprom_data             eeprom_data  000000
__Hfarbss                  farbss       000000
__Hfardata                 fardata      000000
__Hheap                    heap         000000
__Hibigdata                ibigdata     000000
__Hidata                   idata        000000
__Hidloc                   idloc        200008
__Hifardata                ifardata     000000
__Hinit                    init         00002A
__Hintcode                 intcode      00000E
__Hintcode_body            intcode_body 000000
__Hintcodelo               intcodelo    000026
__Hintentry                intentry     000000
__Hintret                  intret       000000
__Hintsave_regs            intsave_regs 000000
__Hirdata                  irdata       000000
__Hmediumconst             mediumconst  000000
__HnvFARRAM                nvFARRAM     000000
__Hnvbit                   nvbit        000000
__Hnvrram                  nvrram       000000
__Hparam                   rparam       000000
__Hpowerup                 powerup      000026
__Hram                     ram          000000
__Hramtop                  ramtop       000100
__Hrbit                    rbit         000000
__Hrbss                    rbss         000000
__Hrdata                   rdata        000000
__Hreset_vec               reset_vec    000004
__Hrparam                  rparam       000000
__Hsfr                     sfr          000000
__Hsmallconst              smallconst   000114
__Hspace_0                 (abs)        0005D8
__Hspace_1                 (abs)        00004D
__Hspace_2                 (abs)        000000
__Hspace_4                 (abs)        60000E
__Hstack                   stack        000000
__Hstruct                  struct       000000
__Htemp                    temp         00004D
__Htext                    text         000000
__Htext0                   text0        000000
__Htext1                   text1        000000
__Htext10                  text10       000000
__Htext11                  text11       000000
__Htext12                  text12       000000
__Htext15                  text15       000000
__Htext2                   text2        000000
__Htext3                   text3        000000
__Htext4                   text4        000000
__Htext5                   text5        000000
__Htext6                   text6        000000
__Htext7                   text7        000000
__Htext8                   text8        000000
__Htext9                   text9        000000
__LRAM                     (abs)        000001
__Labs1                    abs1         000000
__Lbank0                   bank0        000000
__Lbigbss                  bigbss       000000
__Lbigdata                 bigdata      000000
__Lbigram                  bigram       000000
__Lbigsfr                  bigsfr       000000
__Lbss                     bss          000000
__LbssCOMRAM               bssCOMRAM    000000
__Lcinit                   cinit        000000
__Lclrtext                 clrtext      000000
__Lcomram                  comram       000000
__Lconfig                  config       000000
__Lconst                   const        000000
__LcstackCOMRAM            cstackCOMRAM 000000
__Ldata                    data         000000
__Leeprom_data             eeprom_data  000000
__Lfarbss                  farbss       000000
__Lfardata                 fardata      000000
__Lheap                    heap         000000
__Libigdata                ibigdata     000000
__Lidata                   idata        000000
__Lidloc                   idloc        000000
__Lifardata                ifardata     000000
__Linit                    init         000026
__Lintcode                 intcode      000008
__Lintcode_body            intcode_body 000000
__Lintcodelo               intcodelo    000018
__Lintentry                intentry     000000
__Lintret                  intret       000000
__Lintsave_regs            intsave_regs 000000
__Lirdata                  irdata       000000
__Lmediumconst             mediumconst  000000
__LnvFARRAM                nvFARRAM     000000
__Lnvbit                   nvbit        000000
__Lnvrram                  nvrram       000000
__Lparam                   rparam       000000
__Lpowerup                 powerup      000026
__Lram                     ram          000000
__Lramtop                  ramtop       000100
__Lrbit                    rbit         000000
__Lrbss                    rbss         000000
__Lrdata                   rdata        000000
__Lreset_vec               reset_vec    000000
__Lrparam                  rparam       000000
__Lsfr                     sfr          000000
__Lsmallconst              smallconst   000100
__Lspace_0                 (abs)        000000
__Lspace_1                 (abs)        000000
__Lspace_2                 (abs)        000000
__Lspace_4                 (abs)        000000
__Lstack                   stack        000000
__Lstruct                  struct       000000
__Ltemp                    temp         00004C
__Ltext                    text         000000
__Ltext0                   text0        000000
__Ltext1                   text1        000000
__Ltext10                  text10       000000
__Ltext11                  text11       000000
__Ltext12                  text12       000000
__Ltext15                  text15       000000
__Ltext2                   text2        000000
__Ltext3                   text3        000000
__Ltext4                   text4        000000
__Ltext5                   text5        000000
__Ltext6                   text6        000000
__Ltext7                   text7        000000
__Ltext8                   text8        000000
__Ltext9                   text9        000000
__S0                       (abs)        0005D8
__S1                       (abs)        00004D
__S4                       (abs)        000000
__S5                       (abs)        000000
___heap_hi                 (abs)        000000
___heap_lo                 (abs)        000000
___inthi_sp                stack        000000
___intlo_sp                stack        000000
___lwdiv                   text9        00040C
___lwdiv@counter           cstackCOMRAM 00003D
___lwdiv@dividend          cstackCOMRAM 000037
___lwdiv@divisor           cstackCOMRAM 000039
___lwdiv@quotient          cstackCOMRAM 00003B
___param_bank              (abs)        000000
___rparam_used             (abs)        000001
___sp                      stack        000000
___wmul                    text8        000524
___wmul@multiplicand       cstackCOMRAM 000033
___wmul@multiplier         cstackCOMRAM 000031
___wmul@product            cstackCOMRAM 000035
__accesstop                (abs)        000080
__activetblptr             (abs)        000001
__end_of_BusyUSART         text10       00059C
__end_of_HighIsr           intcode_body 000524
__end_of_InitADC           text12       0005B2
__end_of_InitUart          text11       000584
__end_of_LowIsr            intcodelo    000026
__end_of_NumToUart         text6        00040C
__end_of_ReadUart          text15       0005D2
__end_of___lwdiv           text9        000480
__end_of___wmul            text8        00054A
__end_of__initialization   cinit        000556
__end_of_adcAN1digitalOne  text5        0005C2
__end_of_adcAN2analogIn    text4        0005D8
__end_of_adcAN2digitalZero text3        0005BA
__end_of_adcSelChan        text2        0004F8
__end_of_main              text0        0002A8
__end_of_writeByteUart     text7        0005CA
__end_of_writeDataUart     text1        0004C6
__initialization           cinit        00054A
__mediumconst              mediumconst  000000
__pbssCOMRAM               bssCOMRAM    000001
__pcinit                   cinit        00054A
__pcstackCOMRAM            cstackCOMRAM 00002F
__pintcode                 intcode      000008
__pintcode_body            intcode_body 0004F8
__pintcodelo               intcodelo    000018
__psmallconst              smallconst   000100
__ptext0                   text0        000114
__ptext1                   text1        000480
__ptext10                  text10       000584
__ptext11                  text11       000568
__ptext12                  text12       00059C
__ptext15                  text15       0005CA
__ptext2                   text2        0004C6
__ptext3                   text3        0005B2
__ptext4                   text4        0005D2
__ptext5                   text5        0005BA
__ptext6                   text6        0002A8
__ptext7                   text7        0005C2
__ptext8                   text8        000524
__ptext9                   text9        00040C
__ramtop                   ramtop       000100
__smallconst               smallconst   000100
_adcAN1digitalOne          text5        0005BA
_adcAN2analogIn            text4        0005D2
_adcAN2digitalZero         text3        0005B2
_adcSelChan                text2        0004C6
_adc_conversion_ended      bssCOMRAM    000029
_adc_conversion_start      bssCOMRAM    00002A
_adc_data                  bssCOMRAM    000001
_i                         bssCOMRAM    00002B
_main                      text0        000114
_rx_data_recieved          bssCOMRAM    00002E
_tmr0flag                  bssCOMRAM    00002C
_tx_data_temp              bssCOMRAM    00002D
_writeByteUart             text7        0005C2
_writeDataUart             text1        000480
adcSelChan@mux_byte        cstackCOMRAM 000032
btemp                      temp         00004C
end_of_initialization      cinit        000556
int$flags                  temp         00004C
int_func                   intcode_body 0004F8
intlevel0                  text         000000
intlevel1                  text         000000
intlevel2                  text         000000
intlevel3                  text         000000
isa$std                    (abs)        000001
isa$xinst                  (abs)        000000
stackhi                    (abs)        000000
stacklo                    (abs)        000000
start                      init         000026
start_initialization       cinit        00054A
ttemp5                     temp         00004D
ttemp6                     temp         000050
ttemp7                     temp         000054
writeByteUart@tx_data      cstackCOMRAM 000031
writeDataUart@data         cstackCOMRAM 000032
wtemp8                     temp         00004D


MODULE INFORMATION

Module		Function		Class		Link	Load	Size
uart.c
		_InitUart      		CODE           	0568	0000	28
		_ReadUart      		CODE           	05CA	0000	8
		_NumToUart     		CODE           	02A8	0000	356
		_BusyUSART     		CODE           	0584	0000	24
		_writeByteUart 		CODE           	05C2	0000	8
		_writeDataUart 		CODE           	0480	0000	70

uart.c estimated size: 494

C:\Program Files\Microchip\xc8\v2.36\pic\sources\c90\common\Umul16.c
		___wmul        		CODE           	0524	0000	38

C:\Program Files\Microchip\xc8\v2.36\pic\sources\c90\common\Umul16.c estimated size: 38

C:\Program Files\Microchip\xc8\v2.36\pic\sources\c90\common\lwdiv.c
		___lwdiv       		CODE           	040C	0000	116

C:\Program Files\Microchip\xc8\v2.36\pic\sources\c90\common\lwdiv.c estimated size: 116

adc.c
		_adcAN1digitalOne		CODE           	05BA	0000	8
		_adcSelChan    		CODE           	04C6	0000	50
		_InitADC       		CODE           	059C	0000	22
		_adcAN2analogIn		CODE           	05D2	0000	6
		_adcAN2digitalZero		CODE           	05B2	0000	8

adc.c estimated size: 94

shared
		__initialization		CODE           	054A	0000	12

shared estimated size: 12

main.c
		_HighIsr       		CODE           	0008	0000	50
		_main          		CODE           	0114	0000	404
		_LowIsr        		CODE           	0018	0000	14

main.c estimated size: 468

